{
  "_format": "hh-sol-artifact-1",
  "contractName": "ShumOracleRouter",
  "sourceName": "contracts/ShumOracleRouter.sol",
  "abi": [
    {
      "anonymous": false,
      "inputs": [
        {
          "indexed": false,
          "internalType": "address",
          "name": "oldAdmin",
          "type": "address"
        },
        {
          "indexed": false,
          "internalType": "address",
          "name": "newAdmin",
          "type": "address"
        }
      ],
      "name": "AdminChanged",
      "type": "event"
    },
    {
      "anonymous": false,
      "inputs": [
        {
          "indexed": false,
          "internalType": "bytes32",
          "name": "currencyKey",
          "type": "bytes32"
        },
        {
          "indexed": false,
          "internalType": "string",
          "name": "bandCurrencyKey",
          "type": "string"
        },
        {
          "indexed": false,
          "internalType": "address",
          "name": "oracle",
          "type": "address"
        }
      ],
      "name": "BandOracleAdded",
      "type": "event"
    },
    {
      "anonymous": false,
      "inputs": [
        {
          "indexed": false,
          "internalType": "address",
          "name": "oldCandidate",
          "type": "address"
        },
        {
          "indexed": false,
          "internalType": "address",
          "name": "newCandidate",
          "type": "address"
        }
      ],
      "name": "CandidateChanged",
      "type": "event"
    },
    {
      "anonymous": false,
      "inputs": [
        {
          "indexed": false,
          "internalType": "bytes32",
          "name": "currencyKey",
          "type": "bytes32"
        },
        {
          "indexed": false,
          "internalType": "address",
          "name": "oracle",
          "type": "address"
        }
      ],
      "name": "ChainlinkOracleAdded",
      "type": "event"
    },
    {
      "anonymous": false,
      "inputs": [
        {
          "indexed": false,
          "internalType": "uint256",
          "name": "oldStalePeriod",
          "type": "uint256"
        },
        {
          "indexed": false,
          "internalType": "uint256",
          "name": "newStalePeriod",
          "type": "uint256"
        }
      ],
      "name": "GlobalStalePeriodUpdated",
      "type": "event"
    },
    {
      "anonymous": false,
      "inputs": [
        {
          "indexed": false,
          "internalType": "bytes32",
          "name": "currencyKey",
          "type": "bytes32"
        },
        {
          "indexed": false,
          "internalType": "address",
          "name": "oracle",
          "type": "address"
        }
      ],
      "name": "OracleRemoved",
      "type": "event"
    },
    {
      "anonymous": false,
      "inputs": [
        {
          "indexed": false,
          "internalType": "bytes32",
          "name": "currencyKey",
          "type": "bytes32"
        },
        {
          "indexed": false,
          "internalType": "uint256",
          "name": "oldStalePeriod",
          "type": "uint256"
        },
        {
          "indexed": false,
          "internalType": "uint256",
          "name": "newStalePeriod",
          "type": "uint256"
        }
      ],
      "name": "StalePeriodOverrideUpdated",
      "type": "event"
    },
    {
      "inputs": [],
      "name": "ORACLE_TYPE_BAND",
      "outputs": [
        {
          "internalType": "uint8",
          "name": "",
          "type": "uint8"
        }
      ],
      "stateMutability": "view",
      "type": "function"
    },
    {
      "inputs": [],
      "name": "ORACLE_TYPE_CHAINLINK",
      "outputs": [
        {
          "internalType": "uint8",
          "name": "",
          "type": "uint8"
        }
      ],
      "stateMutability": "view",
      "type": "function"
    },
    {
      "inputs": [],
      "name": "SUSD",
      "outputs": [
        {
          "internalType": "bytes32",
          "name": "",
          "type": "bytes32"
        }
      ],
      "stateMutability": "view",
      "type": "function"
    },
    {
      "inputs": [
        {
          "internalType": "address",
          "name": "_admin",
          "type": "address"
        }
      ],
      "name": "__ShumAdminUpgradeable_init",
      "outputs": [],
      "stateMutability": "nonpayable",
      "type": "function"
    },
    {
      "inputs": [
        {
          "internalType": "address",
          "name": "_admin",
          "type": "address"
        }
      ],
      "name": "__ShumOracleRouter_init",
      "outputs": [],
      "stateMutability": "nonpayable",
      "type": "function"
    },
    {
      "inputs": [
        {
          "internalType": "bytes32",
          "name": "currencyKey",
          "type": "bytes32"
        },
        {
          "internalType": "string",
          "name": "bandCurrencyKey",
          "type": "string"
        },
        {
          "internalType": "address",
          "name": "oracleAddress",
          "type": "address"
        },
        {
          "internalType": "bool",
          "name": "removeExisting",
          "type": "bool"
        }
      ],
      "name": "addBandOracle",
      "outputs": [],
      "stateMutability": "nonpayable",
      "type": "function"
    },
    {
      "inputs": [
        {
          "internalType": "bytes32[]",
          "name": "currencyKeys",
          "type": "bytes32[]"
        },
        {
          "internalType": "string[]",
          "name": "bandCurrencyKeys",
          "type": "string[]"
        },
        {
          "internalType": "address[]",
          "name": "oracleAddresses",
          "type": "address[]"
        },
        {
          "internalType": "bool",
          "name": "removeExisting",
          "type": "bool"
        }
      ],
      "name": "addBandOracles",
      "outputs": [],
      "stateMutability": "nonpayable",
      "type": "function"
    },
    {
      "inputs": [
        {
          "internalType": "bytes32",
          "name": "currencyKey",
          "type": "bytes32"
        },
        {
          "internalType": "address",
          "name": "oracleAddress",
          "type": "address"
        },
        {
          "internalType": "bool",
          "name": "removeExisting",
          "type": "bool"
        }
      ],
      "name": "addChainlinkOracle",
      "outputs": [],
      "stateMutability": "nonpayable",
      "type": "function"
    },
    {
      "inputs": [
        {
          "internalType": "bytes32[]",
          "name": "currencyKeys",
          "type": "bytes32[]"
        },
        {
          "internalType": "address[]",
          "name": "oracleAddresses",
          "type": "address[]"
        },
        {
          "internalType": "bool",
          "name": "removeExisting",
          "type": "bool"
        }
      ],
      "name": "addChainlinkOracles",
      "outputs": [],
      "stateMutability": "nonpayable",
      "type": "function"
    },
    {
      "inputs": [],
      "name": "admin",
      "outputs": [
        {
          "internalType": "address",
          "name": "",
          "type": "address"
        }
      ],
      "stateMutability": "view",
      "type": "function"
    },
    {
      "inputs": [],
      "name": "becomeAdmin",
      "outputs": [],
      "stateMutability": "nonpayable",
      "type": "function"
    },
    {
      "inputs": [],
      "name": "candidate",
      "outputs": [
        {
          "internalType": "address",
          "name": "",
          "type": "address"
        }
      ],
      "stateMutability": "view",
      "type": "function"
    },
    {
      "inputs": [
        {
          "internalType": "bytes32",
          "name": "sourceKey",
          "type": "bytes32"
        },
        {
          "internalType": "uint256",
          "name": "sourceAmount",
          "type": "uint256"
        },
        {
          "internalType": "bytes32",
          "name": "destKey",
          "type": "bytes32"
        }
      ],
      "name": "exchange",
      "outputs": [
        {
          "internalType": "uint256",
          "name": "",
          "type": "uint256"
        }
      ],
      "stateMutability": "view",
      "type": "function"
    },
    {
      "inputs": [
        {
          "internalType": "bytes32",
          "name": "currencyKey",
          "type": "bytes32"
        }
      ],
      "name": "getPrice",
      "outputs": [
        {
          "internalType": "uint256",
          "name": "",
          "type": "uint256"
        }
      ],
      "stateMutability": "view",
      "type": "function"
    },
    {
      "inputs": [
        {
          "internalType": "bytes32",
          "name": "currencyKey",
          "type": "bytes32"
        }
      ],
      "name": "getPriceAndUpdatedTime",
      "outputs": [
        {
          "internalType": "uint256",
          "name": "price",
          "type": "uint256"
        },
        {
          "internalType": "uint256",
          "name": "time",
          "type": "uint256"
        }
      ],
      "stateMutability": "view",
      "type": "function"
    },
    {
      "inputs": [
        {
          "internalType": "bytes32",
          "name": "currencyKey",
          "type": "bytes32"
        }
      ],
      "name": "getStalePeriodForCurrency",
      "outputs": [
        {
          "internalType": "uint256",
          "name": "",
          "type": "uint256"
        }
      ],
      "stateMutability": "view",
      "type": "function"
    },
    {
      "inputs": [],
      "name": "globalStalePeriod",
      "outputs": [
        {
          "internalType": "uint256",
          "name": "",
          "type": "uint256"
        }
      ],
      "stateMutability": "view",
      "type": "function"
    },
    {
      "inputs": [
        {
          "internalType": "bytes32",
          "name": "currencyKey",
          "type": "bytes32"
        }
      ],
      "name": "isPriceStaled",
      "outputs": [
        {
          "internalType": "bool",
          "name": "",
          "type": "bool"
        }
      ],
      "stateMutability": "view",
      "type": "function"
    },
    {
      "inputs": [
        {
          "internalType": "bytes32",
          "name": "",
          "type": "bytes32"
        }
      ],
      "name": "linearCurrencyKeysToBandCurrencyKeys",
      "outputs": [
        {
          "internalType": "string",
          "name": "",
          "type": "string"
        }
      ],
      "stateMutability": "view",
      "type": "function"
    },
    {
      "inputs": [
        {
          "internalType": "bytes32",
          "name": "",
          "type": "bytes32"
        }
      ],
      "name": "oracleSettings",
      "outputs": [
        {
          "internalType": "uint8",
          "name": "oracleType",
          "type": "uint8"
        },
        {
          "internalType": "address",
          "name": "oracleAddress",
          "type": "address"
        }
      ],
      "stateMutability": "view",
      "type": "function"
    },
    {
      "inputs": [
        {
          "internalType": "bytes32",
          "name": "currencyKey",
          "type": "bytes32"
        }
      ],
      "name": "removeOracle",
      "outputs": [],
      "stateMutability": "nonpayable",
      "type": "function"
    },
    {
      "inputs": [
        {
          "internalType": "address",
          "name": "_candidate",
          "type": "address"
        }
      ],
      "name": "setCandidate",
      "outputs": [],
      "stateMutability": "nonpayable",
      "type": "function"
    },
    {
      "inputs": [
        {
          "internalType": "uint256",
          "name": "newStalePeriod",
          "type": "uint256"
        }
      ],
      "name": "setGlobalStalePeriod",
      "outputs": [],
      "stateMutability": "nonpayable",
      "type": "function"
    },
    {
      "inputs": [
        {
          "internalType": "bytes32",
          "name": "currencyKey",
          "type": "bytes32"
        },
        {
          "internalType": "uint256",
          "name": "newStalePeriod",
          "type": "uint256"
        }
      ],
      "name": "setStalePeriodOverride",
      "outputs": [],
      "stateMutability": "nonpayable",
      "type": "function"
    },
    {
      "inputs": [
        {
          "internalType": "bytes32",
          "name": "",
          "type": "bytes32"
        }
      ],
      "name": "stalePeriodOverrides",
      "outputs": [
        {
          "internalType": "uint256",
          "name": "",
          "type": "uint256"
        }
      ],
      "stateMutability": "view",
      "type": "function"
    }
  ],
  "bytecode": "0x608060405234801561001057600080fd5b50612764806100206000396000f3fe608060405234801561001057600080fd5b50600436106101a35760003560e01c80635c4ff24e116100ee578063754ca00c11610097578063ceaea91d11610071578063ceaea91d14610368578063ee52a2f314610370578063f6ea927614610383578063f851a44014610396576101a3565b8063754ca00c1461033a5780637a8c8de91461034d5780637f8a4d8c14610360576101a3565b80636e2eb512116100c85780636e2eb512146102ff57806370e9d46314610312578063742d64ad14610327576101a3565b80635c4ff24e146102b65780635f6c5db6146102d75780636c8381f8146102ea576101a3565b80632ddd3351116101505780633961a73b1161012a5780633961a73b1461027d5780633b6e39c3146102905780634a01187b146102a3576101a3565b80632ddd33511461023657806331d98b3f1461025757806333702cc31461026a576101a3565b806315d8eeba1161018157806315d8eeba146102065780631733c9c81461021b57806325971dff1461022e576101a3565b806307880b7f146101a85780630f1e6e14146101bd5780631089655d146101e6575b600080fd5b6101bb6101b6366004611b50565b61039e565b005b6101d06101cb366004611c96565b610484565b6040516101dd9190611f27565b60405180910390f35b6101f96101f4366004611c96565b6104df565b6040516101dd9190611fe8565b61020e610598565b6040516101dd9190611f32565b6101bb610229366004611b50565b6105bc565b6101bb61077c565b610249610244366004611c96565b610864565b6040516101dd929190612688565b61020e610265366004611c96565b610896565b6101bb610278366004611d82565b6108aa565b6101bb61028b366004611b6b565b610957565b61020e61029e366004611c96565b610a3f565b6101bb6102b1366004611bec565b610a51565b6102c96102c4366004611c96565b610b64565b6040516101dd92919061266c565b61020e6102e5366004611c96565b610b7a565b6102f2610b9f565b6040516101dd9190611edf565b6101bb61030d366004611c96565b610bbb565b61031a610c1e565b6040516101dd919061267a565b6101bb610335366004611cae565b610c23565b6101bb610348366004611c96565b610c8a565b6101bb61035b366004611b50565b610d1b565b61031a610e19565b61020e610e1e565b61020e61037e366004611da3565b610e24565b6101bb610391366004611cee565b610e78565b6102f2610ee3565b60005462010000900473ffffffffffffffffffffffffffffffffffffffff1633146103fe576040517f08c379a00000000000000000000000000000000000000000000000000000000081526004016103f5906121db565b60405180910390fd5b6001805473ffffffffffffffffffffffffffffffffffffffff8381167fffffffffffffffffffffffff000000000000000000000000000000000000000083161792839055604051918116927f7f730391c4f0fa1bea34bcb9bff8c30a079b21a0359759160cb990648ab84c72926104789285921690611f00565b60405180910390a15050565b60007f73555344000000000000000000000000000000000000000000000000000000008214156104b6575060006104da565b60006104c183610f05565b9150506104d6816104d185610b7a565b6112c4565b9150505b919050565b60356020908152600091825260409182902080548351601f60027fffffffffffffffffffffffffffffffffffffffffffffffffffffffffffffffff610100600186161502019093169290920491820184900484028101840190945280845290918301828280156105905780601f1061056557610100808354040283529160200191610590565b820191906000526020600020905b81548152906001019060200180831161057357829003601f168201915b505050505081565b7f735553440000000000000000000000000000000000000000000000000000000081565b600054610100900460ff16806105d557506105d56112db565b806105e3575060005460ff16155b610619576040517f08c379a00000000000000000000000000000000000000000000000000000000081526004016103f59061225e565b600054610100900460ff1615801561067f57600080547fffffffffffffffffffffffffffffffffffffffffffffffffffffffffffffff007fffffffffffffffffffffffffffffffffffffffffffffffffffffffffffff00ff909116610100171660011790555b73ffffffffffffffffffffffffffffffffffffffff82166106cc576040517f08c379a00000000000000000000000000000000000000000000000000000000081526004016103f59061260f565b600080547fffffffffffffffffffff0000000000000000000000000000000000000000ffff166201000073ffffffffffffffffffffffffffffffffffffffff8516021781556040517f7e644d79422f17c01e4894b5f4f588d331ebfa28653d42ae832dc59e38c9798f91610741918590611f00565b60405180910390a1801561077857600080547fffffffffffffffffffffffffffffffffffffffffffffffffffffffffffff00ff1690555b5050565b60015473ffffffffffffffffffffffffffffffffffffffff1633146107cd576040517f08c379a00000000000000000000000000000000000000000000000000000000081526004016103f59061249b565b6000805460015473ffffffffffffffffffffffffffffffffffffffff908116620100009081027fffffffffffffffffffff0000000000000000000000000000000000000000ffff84161793849055604051928190048216937f7e644d79422f17c01e4894b5f4f588d331ebfa28653d42ae832dc59e38c9798f9361085993869390920490911690611f00565b60405180910390a150565b60346020526000908152604090205460ff811690610100900473ffffffffffffffffffffffffffffffffffffffff1682565b6000806108a283610f05565b509392505050565b60005462010000900473ffffffffffffffffffffffffffffffffffffffff163314610901576040517f08c379a00000000000000000000000000000000000000000000000000000000081526004016103f5906121db565b6000828152603360205260409081902080549083905590517fe61b639fac4bed6fb0c96e4f072095ddd5e0379519deaf7bcf4239f602190fa99061094a90859084908690611fd2565b60405180910390a1505050565b60005462010000900473ffffffffffffffffffffffffffffffffffffffff1633146109ae576040517f08c379a00000000000000000000000000000000000000000000000000000000081526004016103f5906121db565b8382146109e7576040517f08c379a00000000000000000000000000000000000000000000000000000000081526004016103f59061243e565b60005b84811015610a3757610a2f868683818110610a0157fe5b90506020020135858584818110610a1457fe5b9050602002016020810190610a299190611b50565b846112e1565b6001016109ea565b505050505050565b60336020526000908152604090205481565b60005462010000900473ffffffffffffffffffffffffffffffffffffffff163314610aa8576040517f08c379a00000000000000000000000000000000000000000000000000000000081526004016103f5906121db565b8584148015610ab657508382145b610aec576040517f08c379a00000000000000000000000000000000000000000000000000000000081526004016103f59061243e565b60005b86811015610b5a57610b52888883818110610b0657fe5b90506020020135878784818110610b1957fe5b9050602002810190610b2b91906126b1565b878786818110610b3757fe5b9050602002016020810190610b4c9190611b50565b8661149b565b600101610aef565b5050505050505050565b600080610b7083610f05565b9094909350915050565b6000818152603360205260408120548015610b9557806104d6565b5050603254919050565b60015473ffffffffffffffffffffffffffffffffffffffff1681565b60005462010000900473ffffffffffffffffffffffffffffffffffffffff163314610c12576040517f08c379a00000000000000000000000000000000000000000000000000000000081526004016103f5906121db565b610c1b816116b7565b50565b600281565b60005462010000900473ffffffffffffffffffffffffffffffffffffffff163314610c7a576040517f08c379a00000000000000000000000000000000000000000000000000000000081526004016103f5906121db565b610c858383836112e1565b505050565b60005462010000900473ffffffffffffffffffffffffffffffffffffffff163314610ce1576040517f08c379a00000000000000000000000000000000000000000000000000000000081526004016103f5906121db565b60328054908290556040517f7139d465ffa46f7a602c867d76e387c07c588b2410d53ebbc0f0f39ffed0e78d90610478908390859061266c565b600054610100900460ff1680610d345750610d346112db565b80610d42575060005460ff16155b610d78576040517f08c379a00000000000000000000000000000000000000000000000000000000081526004016103f59061225e565b600054610100900460ff16158015610dde57600080547fffffffffffffffffffffffffffffffffffffffffffffffffffffffffffffff007fffffffffffffffffffffffffffffffffffffffffffffffffffffffffffff00ff909116610100171660011790555b610de7826105bc565b801561077857600080547fffffffffffffffffffffffffffffffffffffffffffffffffffffffffffff00ff1690555050565b600181565b60325481565b600081841415610e35575081610e71565b600080610e4186610f05565b91509150600080610e5186610f05565b9092509050610e6a82610e6489876117c5565b906117da565b9450505050505b9392505050565b60005462010000900473ffffffffffffffffffffffffffffffffffffffff163314610ecf576040517f08c379a00000000000000000000000000000000000000000000000000000000081526004016103f5906121db565b610edc858585858561149b565b5050505050565b60005462010000900473ffffffffffffffffffffffffffffffffffffffff1681565b6000807f7355534400000000000000000000000000000000000000000000000000000000831415610fb65773__$b8d33eeb36ac0d1e81cd70156e0043e778$__63907af6c06040518163ffffffff1660e01b815260040160206040518083038186803b158015610f7457600080fd5b505af4158015610f88573d6000803e3d6000fd5b505050506040513d601f19601f82011682018060405250810190610fac9190611e25565b42915091506112bf565b610fbe6119a4565b5060008381526034602090815260409182902082518084019093525460ff81168352610100900473ffffffffffffffffffffffffffffffffffffffff16908201819052611037576040517f08c379a00000000000000000000000000000000000000000000000000000000081526004016103f590612375565b805160ff16600114156111c357600080826020015173ffffffffffffffffffffffffffffffffffffffff1663feaf968c6040518163ffffffff1660e01b815260040160a06040518083038186803b15801561109157600080fd5b505afa1580156110a5573d6000803e3d6000fd5b505050506040513d601f19601f820116820180604052508101906110c99190611e3d565b509350509250506000836020015173ffffffffffffffffffffffffffffffffffffffff1663313ce5676040518163ffffffff1660e01b815260040160206040518083038186803b15801561111c57600080fd5b505afa158015611130573d6000803e3d6000fd5b505050506040513d601f19601f820116820180604052508101906111549190611e8e565b905060ff8116601214156111725761116b836117ef565b95506111b9565b601260ff8216111561119a5761116b6012820360ff16600a0a611194856117ef565b9061182f565b6111b68160120360ff16600a0a6111b0856117ef565b90611871565b95505b5092506112bd9050565b805160ff166002141561128b576111d86119bb565b816020015173ffffffffffffffffffffffffffffffffffffffff166365555bcc603560008881526020019081526020016000206040518263ffffffff1660e01b81526004016112279190612059565b60606040518083038186803b15801561123f57600080fd5b505afa158015611253573d6000803e3d6000fd5b505050506040513d601f19601f820116820180604052508101906112779190611dce565b805160209091015190945092506112bd9050565b6040517f08c379a00000000000000000000000000000000000000000000000000000000081526004016103f5906124f8565b505b915091565b6000426112d184846118c5565b1090505b92915050565b303b1590565b82611318576040517f08c379a00000000000000000000000000000000000000000000000000000000081526004016103f590612555565b73ffffffffffffffffffffffffffffffffffffffff8216611365576040517f08c379a00000000000000000000000000000000000000000000000000000000081526004016103f5906122bb565b600083815260346020526040902054610100900473ffffffffffffffffffffffffffffffffffffffff16156113d457806113cb576040517f08c379a00000000000000000000000000000000000000000000000000000000081526004016103f5906123aa565b6113d4836116b7565b6040805180820182526001815273ffffffffffffffffffffffffffffffffffffffff8481166020808401918252600088815260349091528490209251835491517fffffffffffffffffffffffffffffffffffffffffffffffffffffffffffffff0090921660ff909116177fffffffffffffffffffffff0000000000000000000000000000000000000000ff166101009190921602179055517f983a606f7a87436643aefee84ee546d1b5965a22a0d37b773178e0e51deea6a49061094a9085908590611f3b565b846114d2576040517f08c379a00000000000000000000000000000000000000000000000000000000081526004016103f590612555565b82611509576040517f08c379a00000000000000000000000000000000000000000000000000000000081526004016103f590612112565b73ffffffffffffffffffffffffffffffffffffffff8216611556576040517f08c379a00000000000000000000000000000000000000000000000000000000081526004016103f5906122bb565b600085815260346020526040902054610100900473ffffffffffffffffffffffffffffffffffffffff16156115c557806115bc576040517f08c379a00000000000000000000000000000000000000000000000000000000081526004016103f5906125b2565b6115c5856116b7565b6040805180820182526002815273ffffffffffffffffffffffffffffffffffffffff848116602080840191825260008a8152603482528581209451855493517fffffffffffffffffffffffffffffffffffffffffffffffffffffffffffffff0090941660ff909116177fffffffffffffffffffffff0000000000000000000000000000000000000000ff1661010093909416929092029290921790925560359052206116729085856119dc565b507fd0132ae4037348e3a987afeeada6ecc01fb275e1f04990ae859198a3b063d12c858585856040516116a89493929190611f5f565b60405180910390a15050505050565b6116bf6119a4565b5060008181526034602090815260409182902082518084019093525460ff81168352610100900473ffffffffffffffffffffffffffffffffffffffff16908201819052611738576040517f08c379a00000000000000000000000000000000000000000000000000000000081526004016103f5906123e1565b600082815260346020526040902080547fffffffffffffffffffffff000000000000000000000000000000000000000000169055805160ff166002141561179057600082815260356020526040812061179091611a74565b7fa69709ef8582cb75d44d08e318fd90f7368d781e645af3e2788ca761606dab0b828260200151604051610478929190611f3b565b6000610e718383670de0b6b3a7640000611904565b6000610e718383670de0b6b3a764000061193d565b60008082121561182b576040517f08c379a00000000000000000000000000000000000000000000000000000000081526004016103f5906121a6565b5090565b6000610e7183836040518060400160405280601a81526020017f536166654d6174683a206469766973696f6e206279207a65726f00000000000081525061195d565b600082611880575060006112d5565b8282028284828161188d57fe5b0414610e71576040517f08c379a00000000000000000000000000000000000000000000000000000000081526004016103f590612318565b600082820183811015610e71576040517f08c379a00000000000000000000000000000000000000000000000000000000081526004016103f59061216f565b600080600a83046119158686611871565b8161191c57fe5b0490506005600a825b061061192f57600a015b600a815b0495945050505050565b6000806119518461119487600a8702611871565b90506005600a82611925565b60008183611998576040517f08c379a00000000000000000000000000000000000000000000000000000000081526004016103f59190611fe8565b50600083858161193357fe5b604080518082019091526000808252602082015290565b60405180606001604052806000815260200160008152602001600081525090565b828054600181600116156101000203166002900490600052602060002090601f016020900481019282601f10611a3b578280017fffffffffffffffffffffffffffffffffffffffffffffffffffffffffffffff00823516178555611a68565b82800160010185558215611a68579182015b82811115611a68578235825591602001919060010190611a4d565b5061182b929150611ab4565b50805460018160011615610100020316600290046000825580601f10611a9a5750610c1b565b601f016020900490600052602060002090810190610c1b91905b5b8082111561182b5760008155600101611ab5565b803573ffffffffffffffffffffffffffffffffffffffff811681146112d557600080fd5b60008083601f840112611afe578182fd5b50813567ffffffffffffffff811115611b15578182fd5b6020830191508360208083028501011115611b2f57600080fd5b9250929050565b805169ffffffffffffffffffff811681146112d557600080fd5b600060208284031215611b61578081fd5b610e718383611ac9565b600080600080600060608688031215611b82578081fd5b853567ffffffffffffffff80821115611b99578283fd5b611ba589838a01611aed565b90975095506020880135915080821115611bbd578283fd5b50611bca88828901611aed565b9094509250506040860135611bde81612720565b809150509295509295909350565b60008060008060008060006080888a031215611c06578182fd5b873567ffffffffffffffff80821115611c1d578384fd5b611c298b838c01611aed565b909950975060208a0135915080821115611c41578384fd5b611c4d8b838c01611aed565b909750955060408a0135915080821115611c65578384fd5b50611c728a828b01611aed565b9094509250506060880135611c8681612720565b8091505092959891949750929550565b600060208284031215611ca7578081fd5b5035919050565b600080600060608486031215611cc2578283fd5b83359250611cd38560208601611ac9565b91506040840135611ce381612720565b809150509250925092565b600080600080600060808688031215611d05578081fd5b85359450602086013567ffffffffffffffff80821115611d23578283fd5b818801915088601f830112611d36578283fd5b813581811115611d44578384fd5b896020828501011115611d55578384fd5b602083019650809550505050611d6e8760408801611ac9565b915060608601358015158114611bde578182fd5b60008060408385031215611d94578182fd5b50508035926020909101359150565b600080600060608486031215611db7578283fd5b505081359360208301359350604090920135919050565b600060608284031215611ddf578081fd5b6040516060810181811067ffffffffffffffff82111715611dfe578283fd5b80604052508251815260208301516020820152604083015160408201528091505092915050565b600060208284031215611e36578081fd5b5051919050565b600080600080600060a08688031215611e54578283fd5b611e5e8787611b36565b9450602086015193506040860151925060608601519150611e828760808801611b36565b90509295509295909350565b600060208284031215611e9f578081fd5b815160ff81168114610e71578182fd5b600381527f5553440000000000000000000000000000000000000000000000000000000000602082015260400190565b73ffffffffffffffffffffffffffffffffffffffff91909116815260200190565b73ffffffffffffffffffffffffffffffffffffffff92831681529116602082015260400190565b901515815260200190565b90815260200190565b91825273ffffffffffffffffffffffffffffffffffffffff16602082015260400190565b60008582526060602083015283606083015283856080840137806080858401015260807fffffffffffffffffffffffffffffffffffffffffffffffffffffffffffffffe0601f860116830101905073ffffffffffffffffffffffffffffffffffffffff8316604083015295945050505050565b9283526020830191909152604082015260600190565b6000602080835283518082850152825b8181101561201457858101830151858201604001528201611ff8565b818111156120255783604083870101525b50601f017fffffffffffffffffffffffffffffffffffffffffffffffffffffffffffffffe016929092016040019392505050565b6000604082016040835281845460018082166000811461208057600181146120bc576120f5565b607f600284041685527fffffffffffffffffffffffffffffffffffffffffffffffffffffffffffffff00831660608801526080870193506120f5565b600283048086526120cc89612714565b875b828110156120eb5781548a820160600152908401906020016120ce565b8901606001955050505b505050838103602085015261210981611eaf565b95945050505050565b60208082526029908201527f5368756d4f7261636c65526f757465723a20656d7074792062616e642063757260408201527f72656e6379206b65790000000000000000000000000000000000000000000000606082015260800190565b6020808252601b908201527f536166654d6174683a206164646974696f6e206f766572666c6f770000000000604082015260600190565b6020808252818101527f53616665436173743a2076616c7565206d75737420626520706f736974697665604082015260600190565b60208082526045908201527f5368756d41646d696e5570677261646561626c653a206f6e6c7920746865206360408201527f6f6e74726163742061646d696e2063616e20706572666f726d2074686973206160608201527f6374696f6e000000000000000000000000000000000000000000000000000000608082015260a00190565b6020808252602e908201527f496e697469616c697a61626c653a20636f6e747261637420697320616c72656160408201527f647920696e697469616c697a6564000000000000000000000000000000000000606082015260800190565b60208082526026908201527f5368756d4f7261636c65526f757465723a20656d707479206f7261636c65206160408201527f6464726573730000000000000000000000000000000000000000000000000000606082015260800190565b60208082526021908201527f536166654d6174683a206d756c7469706c69636174696f6e206f766572666c6f60408201527f7700000000000000000000000000000000000000000000000000000000000000606082015260800190565b6020808252818101527f5368756d4f7261636c65526f757465723a206f7261636c65206e6f7420736574604082015260600190565b60208082526012908201527f5368756d4f7261636c65526f757465723a200000000000000000000000000000604082015260600190565b60208082526022908201527f5368756d4f7261636c65526f757465723a206f7261636c65206e6f7420666f7560408201527f6e64000000000000000000000000000000000000000000000000000000000000606082015260800190565b60208082526027908201527f5368756d4f7261636c65526f757465723a206172726179206c656e677468206d60408201527f69736d6174636800000000000000000000000000000000000000000000000000606082015260800190565b60208082526035908201527f5368756d41646d696e5570677261646561626c653a206f6e6c792063616e646960408201527f646174652063616e206265636f6d652061646d696e0000000000000000000000606082015260800190565b60208082526025908201527f5368756d4f7261636c65526f757465723a20756e6b6e6f776e206f7261636c6560408201527f2074797065000000000000000000000000000000000000000000000000000000606082015260800190565b60208082526024908201527f5368756d4f7261636c65526f757465723a20656d7074792063757272656e637960408201527f206b657900000000000000000000000000000000000000000000000000000000606082015260800190565b60208082526027908201527f5368756d4f7261636c65526f757465723a206f7261636c6520616c726561647960408201527f2065786973747300000000000000000000000000000000000000000000000000606082015260800190565b60208082526022908201527f5368756d41646d696e5570677261646561626c653a207a65726f20616464726560408201527f7373000000000000000000000000000000000000000000000000000000000000606082015260800190565b918252602082015260400190565b60ff91909116815260200190565b60ff92909216825273ffffffffffffffffffffffffffffffffffffffff16602082015260400190565b60008083357fffffffffffffffffffffffffffffffffffffffffffffffffffffffffffffffe18436030181126126e5578283fd5b83018035915067ffffffffffffffff8211156126ff578283fd5b602001915036819003821315611b2f57600080fd5b60009081526020902090565b8015158114610c1b57600080fdfea26469706673582212209b4c9d36a74c2a8199ec5c97e4df15ebc9030f2dcb767c30d90d9f99705a53b864736f6c634300060c0033",
  "linkReferences": {
    "contracts/SafeDecimalMath.sol": {
      "SafeDecimalMath": [
        {
          "length": 20,
          "start": 3922
        }
      ]
    }
  },
  "deployedLinkReferences": {
    "contracts/SafeDecimalMath.sol": {
      "SafeDecimalMath": [
        {
          "length": 20,
          "start": 3890
        }
      ]
    }
  }
}