{
  "_format": "hh-sol-artifact-1",
  "contractName": "ShumAddressStorage",
  "sourceName": "contracts/ShumAddressStorage.sol",
  "abi": [
    {
      "anonymous": false,
      "inputs": [
        {
          "indexed": false,
          "internalType": "address",
          "name": "oldAdmin",
          "type": "address"
        },
        {
          "indexed": false,
          "internalType": "address",
          "name": "newAdmin",
          "type": "address"
        }
      ],
      "name": "AdminChanged",
      "type": "event"
    },
    {
      "anonymous": false,
      "inputs": [
        {
          "indexed": false,
          "internalType": "address",
          "name": "oldCandidate",
          "type": "address"
        },
        {
          "indexed": false,
          "internalType": "address",
          "name": "newCandidate",
          "type": "address"
        }
      ],
      "name": "CandidateChanged",
      "type": "event"
    },
    {
      "anonymous": false,
      "inputs": [
        {
          "indexed": false,
          "internalType": "bytes32",
          "name": "name",
          "type": "bytes32"
        },
        {
          "indexed": false,
          "internalType": "address",
          "name": "addr",
          "type": "address"
        }
      ],
      "name": "StorageAddressUpdated",
      "type": "event"
    },
    {
      "inputs": [
        {
          "internalType": "address",
          "name": "_admin",
          "type": "address"
        }
      ],
      "name": "__ShumAddressStorage_init",
      "outputs": [],
      "stateMutability": "nonpayable",
      "type": "function"
    },
    {
      "inputs": [
        {
          "internalType": "address",
          "name": "_admin",
          "type": "address"
        }
      ],
      "name": "__ShumAdminUpgradeable_init",
      "outputs": [],
      "stateMutability": "nonpayable",
      "type": "function"
    },
    {
      "inputs": [],
      "name": "admin",
      "outputs": [
        {
          "internalType": "address",
          "name": "",
          "type": "address"
        }
      ],
      "stateMutability": "view",
      "type": "function"
    },
    {
      "inputs": [],
      "name": "becomeAdmin",
      "outputs": [],
      "stateMutability": "nonpayable",
      "type": "function"
    },
    {
      "inputs": [],
      "name": "candidate",
      "outputs": [
        {
          "internalType": "address",
          "name": "",
          "type": "address"
        }
      ],
      "stateMutability": "view",
      "type": "function"
    },
    {
      "inputs": [
        {
          "internalType": "bytes32",
          "name": "name",
          "type": "bytes32"
        }
      ],
      "name": "getAddress",
      "outputs": [
        {
          "internalType": "address",
          "name": "",
          "type": "address"
        }
      ],
      "stateMutability": "view",
      "type": "function"
    },
    {
      "inputs": [
        {
          "internalType": "bytes32",
          "name": "name",
          "type": "bytes32"
        },
        {
          "internalType": "string",
          "name": "reason",
          "type": "string"
        }
      ],
      "name": "getAddressWithRequire",
      "outputs": [
        {
          "internalType": "address",
          "name": "",
          "type": "address"
        }
      ],
      "stateMutability": "view",
      "type": "function"
    },
    {
      "inputs": [
        {
          "internalType": "bytes32",
          "name": "",
          "type": "bytes32"
        }
      ],
      "name": "mAddrs",
      "outputs": [
        {
          "internalType": "address",
          "name": "",
          "type": "address"
        }
      ],
      "stateMutability": "view",
      "type": "function"
    },
    {
      "inputs": [
        {
          "internalType": "address",
          "name": "_candidate",
          "type": "address"
        }
      ],
      "name": "setCandidate",
      "outputs": [],
      "stateMutability": "nonpayable",
      "type": "function"
    },
    {
      "inputs": [
        {
          "internalType": "bytes32",
          "name": "name",
          "type": "bytes32"
        },
        {
          "internalType": "address",
          "name": "dest",
          "type": "address"
        }
      ],
      "name": "update",
      "outputs": [],
      "stateMutability": "nonpayable",
      "type": "function"
    },
    {
      "inputs": [
        {
          "internalType": "bytes32[]",
          "name": "names",
          "type": "bytes32[]"
        },
        {
          "internalType": "address[]",
          "name": "destinations",
          "type": "address[]"
        }
      ],
      "name": "updateAll",
      "outputs": [],
      "stateMutability": "nonpayable",
      "type": "function"
    }
  ],
  "bytecode": "0x608060405234801561001057600080fd5b50610ed3806100206000396000f3fe608060405234801561001057600080fd5b50600436106100c95760003560e01c80634ae2ffc011610081578063768911da1161005b578063768911da146102ba578063d091dfc314610331578063f851a4401461034e576100c9565b80634ae2ffc01461024657806367b619811461027f5780636c8381f8146102b2576100c9565b80631733c9c8116100b25780631733c9c8146101c557806321f8a721146101f857806325971dff1461023e576100c9565b806304662427146100ce57806307880b7f14610192575b600080fd5b610190600480360360408110156100e457600080fd5b8101906020810181356401000000008111156100ff57600080fd5b82018360208201111561011157600080fd5b8035906020019184602083028401116401000000008311171561013357600080fd5b91939092909160208101903564010000000081111561015157600080fd5b82018360208201111561016357600080fd5b8035906020019184602083028401116401000000008311171561018557600080fd5b509092509050610356565b005b610190600480360360208110156101a857600080fd5b503573ffffffffffffffffffffffffffffffffffffffff1661056f565b610190600480360360208110156101db57600080fd5b503573ffffffffffffffffffffffffffffffffffffffff1661066c565b6102156004803603602081101561020e57600080fd5b5035610872565b6040805173ffffffffffffffffffffffffffffffffffffffff9092168252519081900360200190f35b61019061089a565b6101906004803603604081101561025c57600080fd5b508035906020013573ffffffffffffffffffffffffffffffffffffffff166109a0565b6101906004803603602081101561029557600080fd5b503573ffffffffffffffffffffffffffffffffffffffff16610b91565b610215610cae565b610215600480360360408110156102d057600080fd5b813591908101906040810160208201356401000000008111156102f257600080fd5b82018360208201111561030457600080fd5b8035906020019184600183028401116401000000008311171561032657600080fd5b509092509050610cca565b6102156004803603602081101561034757600080fd5b5035610d83565b610215610dab565b60005462010000900473ffffffffffffffffffffffffffffffffffffffff1633146103cc576040517f08c379a0000000000000000000000000000000000000000000000000000000008152600401808060200182810382526045815260200180610dd46045913960600191505060405180910390fd5b82811461043a57604080517f08c379a000000000000000000000000000000000000000000000000000000000815260206004820152601860248201527f496e707574206c656e67746873206d757374206d617463680000000000000000604482015290519081900360640190fd5b60005b838110156105685782828281811061045157fe5b9050602002013573ffffffffffffffffffffffffffffffffffffffff166032600087878581811061047e57fe5b90506020020135815260200190815260200160002060006101000a81548173ffffffffffffffffffffffffffffffffffffffff021916908373ffffffffffffffffffffffffffffffffffffffff1602179055507fc4377493effe961187873838bd3731307f7f558c661681598f57c5d85831e8b38585838181106104fe57fe5b9050602002013584848481811061051157fe5b9050602002013573ffffffffffffffffffffffffffffffffffffffff16604051808381526020018273ffffffffffffffffffffffffffffffffffffffff1681526020019250505060405180910390a160010161043d565b5050505050565b60005462010000900473ffffffffffffffffffffffffffffffffffffffff1633146105e5576040517f08c379a0000000000000000000000000000000000000000000000000000000008152600401808060200182810382526045815260200180610dd46045913960600191505060405180910390fd5b6001805473ffffffffffffffffffffffffffffffffffffffff8381167fffffffffffffffffffffffff0000000000000000000000000000000000000000831617928390556040805192821680845293909116602083015280517f7f730391c4f0fa1bea34bcb9bff8c30a079b21a0359759160cb990648ab84c729281900390910190a15050565b600054610100900460ff16806106855750610685610dcd565b80610693575060005460ff16155b6106e8576040517f08c379a000000000000000000000000000000000000000000000000000000000815260040180806020018281038252602e815260200180610e19602e913960400191505060405180910390fd5b600054610100900460ff1615801561074e57600080547fffffffffffffffffffffffffffffffffffffffffffffffffffffffffffffff007fffffffffffffffffffffffffffffffffffffffffffffffffffffffffffff00ff909116610100171660011790555b73ffffffffffffffffffffffffffffffffffffffff82166107ba576040517f08c379a0000000000000000000000000000000000000000000000000000000008152600401808060200182810382526022815260200180610e7c6022913960400191505060405180910390fd5b600080547fffffffffffffffffffff0000000000000000000000000000000000000000ffff166201000073ffffffffffffffffffffffffffffffffffffffff851690810291909117825560408051928352602083019190915280517f7e644d79422f17c01e4894b5f4f588d331ebfa28653d42ae832dc59e38c9798f9281900390910190a1801561086e57600080547fffffffffffffffffffffffffffffffffffffffffffffffffffffffffffff00ff1690555b5050565b60009081526032602052604090205473ffffffffffffffffffffffffffffffffffffffff1690565b60015473ffffffffffffffffffffffffffffffffffffffff16331461090a576040517f08c379a0000000000000000000000000000000000000000000000000000000008152600401808060200182810382526035815260200180610e476035913960400191505060405180910390fd5b6000805460015473ffffffffffffffffffffffffffffffffffffffff908116620100009081027fffffffffffffffffffff0000000000000000000000000000000000000000ffff8416179384905560408051938290048316808552919094049091166020830152825190927f7e644d79422f17c01e4894b5f4f588d331ebfa28653d42ae832dc59e38c9798f928290030190a150565b60005462010000900473ffffffffffffffffffffffffffffffffffffffff163314610a16576040517f08c379a0000000000000000000000000000000000000000000000000000000008152600401808060200182810382526045815260200180610dd46045913960600191505060405180910390fd5b81610a8257604080517f08c379a000000000000000000000000000000000000000000000000000000000815260206004820152601560248201527f6e616d652063616e206e6f7420626520656d7074790000000000000000000000604482015290519081900360640190fd5b73ffffffffffffffffffffffffffffffffffffffff8116610b0457604080517f08c379a000000000000000000000000000000000000000000000000000000000815260206004820152601360248201527f616464726573732063616e6e6f74206265203000000000000000000000000000604482015290519081900360640190fd5b60008281526032602090815260409182902080547fffffffffffffffffffffffff00000000000000000000000000000000000000001673ffffffffffffffffffffffffffffffffffffffff851690811790915582518581529182015281517fc4377493effe961187873838bd3731307f7f558c661681598f57c5d85831e8b3929181900390910190a15050565b600054610100900460ff1680610baa5750610baa610dcd565b80610bb8575060005460ff16155b610c0d576040517f08c379a000000000000000000000000000000000000000000000000000000000815260040180806020018281038252602e815260200180610e19602e913960400191505060405180910390fd5b600054610100900460ff16158015610c7357600080547fffffffffffffffffffffffffffffffffffffffffffffffffffffffffffffff007fffffffffffffffffffffffffffffffffffffffffffffffffffffffffffff00ff909116610100171660011790555b610c7c8261066c565b801561086e57600080547fffffffffffffffffffffffffffffffffffffffffffffffffffffffffffff00ff1690555050565b60015473ffffffffffffffffffffffffffffffffffffffff1681565b60008381526032602052604081205473ffffffffffffffffffffffffffffffffffffffff16838382610d78576040517f08c379a000000000000000000000000000000000000000000000000000000000815260206004820190815260248201839052908190604401848480828437600083820152604051601f9091017fffffffffffffffffffffffffffffffffffffffffffffffffffffffffffffffe0169092018290039550909350505050fd5b509095945050505050565b60326020526000908152604090205473ffffffffffffffffffffffffffffffffffffffff1681565b60005462010000900473ffffffffffffffffffffffffffffffffffffffff1681565b303b159056fe5368756d41646d696e5570677261646561626c653a206f6e6c792074686520636f6e74726163742061646d696e2063616e20706572666f726d207468697320616374696f6e496e697469616c697a61626c653a20636f6e747261637420697320616c726561647920696e697469616c697a65645368756d41646d696e5570677261646561626c653a206f6e6c792063616e6469646174652063616e206265636f6d652061646d696e5368756d41646d696e5570677261646561626c653a207a65726f2061646472657373a2646970667358221220dcc842bb0b4d75732014e0b4a77430ee3f92b53cda68d141409c8e03bcb7e74864736f6c634300060c0033",
  "linkReferences": {},
  "deployedLinkReferences": {}
}