{
  "_format": "hh-sol-artifact-1",
  "contractName": "ShumAssetUpgradeable",
  "sourceName": "contracts/ShumAssetUpgradeable.sol",
  "abi": [
    {
      "anonymous": false,
      "inputs": [
        {
          "indexed": false,
          "internalType": "address",
          "name": "oldAdmin",
          "type": "address"
        },
        {
          "indexed": false,
          "internalType": "address",
          "name": "newAdmin",
          "type": "address"
        }
      ],
      "name": "AdminChanged",
      "type": "event"
    },
    {
      "anonymous": false,
      "inputs": [
        {
          "indexed": true,
          "internalType": "address",
          "name": "owner",
          "type": "address"
        },
        {
          "indexed": true,
          "internalType": "address",
          "name": "spender",
          "type": "address"
        },
        {
          "indexed": false,
          "internalType": "uint256",
          "name": "value",
          "type": "uint256"
        }
      ],
      "name": "Approval",
      "type": "event"
    },
    {
      "anonymous": false,
      "inputs": [
        {
          "indexed": false,
          "internalType": "bytes32",
          "name": "name",
          "type": "bytes32"
        },
        {
          "indexed": false,
          "internalType": "address",
          "name": "addr",
          "type": "address"
        }
      ],
      "name": "CachedAddressUpdated",
      "type": "event"
    },
    {
      "anonymous": false,
      "inputs": [
        {
          "indexed": false,
          "internalType": "address",
          "name": "oldCandidate",
          "type": "address"
        },
        {
          "indexed": false,
          "internalType": "address",
          "name": "newCandidate",
          "type": "address"
        }
      ],
      "name": "CandidateChanged",
      "type": "event"
    },
    {
      "anonymous": false,
      "inputs": [
        {
          "indexed": true,
          "internalType": "address",
          "name": "from",
          "type": "address"
        },
        {
          "indexed": true,
          "internalType": "address",
          "name": "to",
          "type": "address"
        },
        {
          "indexed": false,
          "internalType": "uint256",
          "name": "value",
          "type": "uint256"
        }
      ],
      "name": "Transfer",
      "type": "event"
    },
    {
      "inputs": [
        {
          "internalType": "address",
          "name": "_admin",
          "type": "address"
        }
      ],
      "name": "__ShumAdminUpgradeable_init",
      "outputs": [],
      "stateMutability": "nonpayable",
      "type": "function"
    },
    {
      "inputs": [
        {
          "internalType": "bytes32",
          "name": "_key",
          "type": "bytes32"
        },
        {
          "internalType": "string",
          "name": "_name",
          "type": "string"
        },
        {
          "internalType": "string",
          "name": "_symbol",
          "type": "string"
        },
        {
          "internalType": "address",
          "name": "_admin",
          "type": "address"
        }
      ],
      "name": "__ShumAssetUpgradeable_init",
      "outputs": [],
      "stateMutability": "nonpayable",
      "type": "function"
    },
    {
      "inputs": [],
      "name": "admin",
      "outputs": [
        {
          "internalType": "address",
          "name": "",
          "type": "address"
        }
      ],
      "stateMutability": "view",
      "type": "function"
    },
    {
      "inputs": [
        {
          "internalType": "address",
          "name": "owner",
          "type": "address"
        },
        {
          "internalType": "address",
          "name": "spender",
          "type": "address"
        }
      ],
      "name": "allowance",
      "outputs": [
        {
          "internalType": "uint256",
          "name": "",
          "type": "uint256"
        }
      ],
      "stateMutability": "view",
      "type": "function"
    },
    {
      "inputs": [
        {
          "internalType": "address",
          "name": "spender",
          "type": "address"
        },
        {
          "internalType": "uint256",
          "name": "amount",
          "type": "uint256"
        }
      ],
      "name": "approve",
      "outputs": [
        {
          "internalType": "bool",
          "name": "",
          "type": "bool"
        }
      ],
      "stateMutability": "nonpayable",
      "type": "function"
    },
    {
      "inputs": [
        {
          "internalType": "address",
          "name": "account",
          "type": "address"
        }
      ],
      "name": "balanceOf",
      "outputs": [
        {
          "internalType": "uint256",
          "name": "",
          "type": "uint256"
        }
      ],
      "stateMutability": "view",
      "type": "function"
    },
    {
      "inputs": [],
      "name": "becomeAdmin",
      "outputs": [],
      "stateMutability": "nonpayable",
      "type": "function"
    },
    {
      "inputs": [
        {
          "internalType": "address",
          "name": "account",
          "type": "address"
        },
        {
          "internalType": "uint256",
          "name": "amount",
          "type": "uint256"
        }
      ],
      "name": "burn",
      "outputs": [],
      "stateMutability": "nonpayable",
      "type": "function"
    },
    {
      "inputs": [],
      "name": "candidate",
      "outputs": [
        {
          "internalType": "address",
          "name": "",
          "type": "address"
        }
      ],
      "stateMutability": "view",
      "type": "function"
    },
    {
      "inputs": [],
      "name": "decimals",
      "outputs": [
        {
          "internalType": "uint8",
          "name": "",
          "type": "uint8"
        }
      ],
      "stateMutability": "view",
      "type": "function"
    },
    {
      "inputs": [
        {
          "internalType": "address",
          "name": "spender",
          "type": "address"
        },
        {
          "internalType": "uint256",
          "name": "subtractedValue",
          "type": "uint256"
        }
      ],
      "name": "decreaseAllowance",
      "outputs": [
        {
          "internalType": "bool",
          "name": "",
          "type": "bool"
        }
      ],
      "stateMutability": "nonpayable",
      "type": "function"
    },
    {
      "inputs": [
        {
          "internalType": "address",
          "name": "spender",
          "type": "address"
        },
        {
          "internalType": "uint256",
          "name": "addedValue",
          "type": "uint256"
        }
      ],
      "name": "increaseAllowance",
      "outputs": [
        {
          "internalType": "bool",
          "name": "",
          "type": "bool"
        }
      ],
      "stateMutability": "nonpayable",
      "type": "function"
    },
    {
      "inputs": [],
      "name": "keyName",
      "outputs": [
        {
          "internalType": "bytes32",
          "name": "",
          "type": "bytes32"
        }
      ],
      "stateMutability": "view",
      "type": "function"
    },
    {
      "inputs": [
        {
          "internalType": "address",
          "name": "account",
          "type": "address"
        },
        {
          "internalType": "uint256",
          "name": "amount",
          "type": "uint256"
        }
      ],
      "name": "mint",
      "outputs": [],
      "stateMutability": "nonpayable",
      "type": "function"
    },
    {
      "inputs": [
        {
          "internalType": "address",
          "name": "from",
          "type": "address"
        },
        {
          "internalType": "address",
          "name": "to",
          "type": "address"
        },
        {
          "internalType": "uint256",
          "name": "amount",
          "type": "uint256"
        }
      ],
      "name": "move",
      "outputs": [],
      "stateMutability": "nonpayable",
      "type": "function"
    },
    {
      "inputs": [],
      "name": "name",
      "outputs": [
        {
          "internalType": "string",
          "name": "",
          "type": "string"
        }
      ],
      "stateMutability": "view",
      "type": "function"
    },
    {
      "inputs": [
        {
          "internalType": "address",
          "name": "_candidate",
          "type": "address"
        }
      ],
      "name": "setCandidate",
      "outputs": [],
      "stateMutability": "nonpayable",
      "type": "function"
    },
    {
      "inputs": [],
      "name": "symbol",
      "outputs": [
        {
          "internalType": "string",
          "name": "",
          "type": "string"
        }
      ],
      "stateMutability": "view",
      "type": "function"
    },
    {
      "inputs": [],
      "name": "totalSupply",
      "outputs": [
        {
          "internalType": "uint256",
          "name": "",
          "type": "uint256"
        }
      ],
      "stateMutability": "view",
      "type": "function"
    },
    {
      "inputs": [
        {
          "internalType": "address",
          "name": "recipient",
          "type": "address"
        },
        {
          "internalType": "uint256",
          "name": "amount",
          "type": "uint256"
        }
      ],
      "name": "transfer",
      "outputs": [
        {
          "internalType": "bool",
          "name": "",
          "type": "bool"
        }
      ],
      "stateMutability": "nonpayable",
      "type": "function"
    },
    {
      "inputs": [
        {
          "internalType": "address",
          "name": "sender",
          "type": "address"
        },
        {
          "internalType": "address",
          "name": "recipient",
          "type": "address"
        },
        {
          "internalType": "uint256",
          "name": "amount",
          "type": "uint256"
        }
      ],
      "name": "transferFrom",
      "outputs": [
        {
          "internalType": "bool",
          "name": "",
          "type": "bool"
        }
      ],
      "stateMutability": "nonpayable",
      "type": "function"
    },
    {
      "inputs": [
        {
          "internalType": "contract IShumAddressStorage",
          "name": "_addressStorage",
          "type": "address"
        }
      ],
      "name": "updateAddressCache",
      "outputs": [],
      "stateMutability": "nonpayable",
      "type": "function"
    }
  ],
  "bytecode": "0x608060405234801561001057600080fd5b506122d3806100206000396000f3fe608060405234801561001057600080fd5b50600436106101825760003560e01c80636c8381f8116100d8578063a9059cbb1161008c578063dd62ed3e11610066578063dd62ed3e14610687578063f851a440146106c2578063fa3caae0146106ca57610182565b8063a9059cbb146104bf578063bb35783b146104f8578063c3a73e171461053b57610182565b806395d89b41116100bd57806395d89b41146104455780639dc29fac1461044d578063a457c2d71461048657610182565b80636c8381f8146103e157806370a082311461041257610182565b806323b872dd1161013a5780633950935111610114578063395093511461033c57806340c10f19146103755780635a5f14c8146103ae57610182565b806323b872dd146102d357806325971dff14610316578063313ce5671461031e57610182565b8063095ea7b31161016b578063095ea7b3146102395780631733c9c81461028657806318160ddd146102b957610182565b806306fdde031461018757806307880b7f14610204575b600080fd5b61018f6106d2565b6040805160208082528351818301528351919283929083019185019080838360005b838110156101c95781810151838201526020016101b1565b50505050905090810190601f1680156101f65780820380516001836020036101000a031916815260200191505b509250505060405180910390f35b6102376004803603602081101561021a57600080fd5b503573ffffffffffffffffffffffffffffffffffffffff16610786565b005b6102726004803603604081101561024f57600080fd5b5073ffffffffffffffffffffffffffffffffffffffff813516906020013561087d565b604080519115158252519081900360200190f35b6102376004803603602081101561029c57600080fd5b503573ffffffffffffffffffffffffffffffffffffffff1661089a565b6102c1610a9a565b60408051918252519081900360200190f35b610272600480360360608110156102e957600080fd5b5073ffffffffffffffffffffffffffffffffffffffff813581169160208101359091169060400135610aa0565b610237610b41565b610326610c3a565b6040805160ff9092168252519081900360200190f35b6102726004803603604081101561035257600080fd5b5073ffffffffffffffffffffffffffffffffffffffff8135169060200135610c43565b6102376004803603604081101561038b57600080fd5b5073ffffffffffffffffffffffffffffffffffffffff8135169060200135610c9e565b610237600480360360208110156103c457600080fd5b503573ffffffffffffffffffffffffffffffffffffffff16610dc0565b6103e9610f8c565b6040805173ffffffffffffffffffffffffffffffffffffffff9092168252519081900360200190f35b6102c16004803603602081101561042857600080fd5b503573ffffffffffffffffffffffffffffffffffffffff16610fa8565b61018f610fd0565b6102376004803603604081101561046357600080fd5b5073ffffffffffffffffffffffffffffffffffffffff813516906020013561104f565b6102726004803603604081101561049c57600080fd5b5073ffffffffffffffffffffffffffffffffffffffff8135169060200135611171565b610272600480360360408110156104d557600080fd5b5073ffffffffffffffffffffffffffffffffffffffff81351690602001356111e6565b6102376004803603606081101561050e57600080fd5b5073ffffffffffffffffffffffffffffffffffffffff8135811691602081013590911690604001356111fa565b6102376004803603608081101561055157600080fd5b8135919081019060408101602082013564010000000081111561057357600080fd5b82018360208201111561058557600080fd5b803590602001918460018302840111640100000000831117156105a757600080fd5b91908080601f01602080910402602001604051908101604052809392919081815260200183838082843760009201919091525092959493602081019350359150506401000000008111156105fa57600080fd5b82018360208201111561060c57600080fd5b8035906020019184600183028401116401000000008311171561062e57600080fd5b91908080601f0160208091040260200160405190810160405280939291908181526020018383808284376000920191909152509295505050903573ffffffffffffffffffffffffffffffffffffffff1691506113229050565b6102c16004803603604081101561069d57600080fd5b5073ffffffffffffffffffffffffffffffffffffffff81358116916020013516611452565b6103e961148a565b6102c16114a6565b60368054604080516020601f60027fffffffffffffffffffffffffffffffffffffffffffffffffffffffffffffffff61010060018816150201909516949094049384018190048102820181019092528281526060939092909183018282801561077c5780601f106107515761010080835404028352916020019161077c565b820191906000526020600020905b81548152906001019060200180831161075f57829003601f168201915b5050505050905090565b60655473ffffffffffffffffffffffffffffffffffffffff1633146107f6576040517f08c379a00000000000000000000000000000000000000000000000000000000081526004018080602001828103825260458152602001806120cb6045913960600191505060405180910390fd5b6066805473ffffffffffffffffffffffffffffffffffffffff8381167fffffffffffffffffffffffff0000000000000000000000000000000000000000831617928390556040805192821680845293909116602083015280517f7f730391c4f0fa1bea34bcb9bff8c30a079b21a0359759160cb990648ab84c729281900390910190a15050565b600061089161088a6114ac565b84846114b0565b50600192915050565b600054610100900460ff16806108b357506108b36115f7565b806108c1575060005460ff16155b610916576040517f08c379a000000000000000000000000000000000000000000000000000000000815260040180806020018281038252602e815260200180612110602e913960400191505060405180910390fd5b600054610100900460ff1615801561097c57600080547fffffffffffffffffffffffffffffffffffffffffffffffffffffffffffffff007fffffffffffffffffffffffffffffffffffffffffffffffffffffffffffff00ff909116610100171660011790555b73ffffffffffffffffffffffffffffffffffffffff82166109e8576040517f08c379a000000000000000000000000000000000000000000000000000000000815260040180806020018281038252602281526020018061227c6022913960400191505060405180910390fd5b606580547fffffffffffffffffffffffff00000000000000000000000000000000000000001673ffffffffffffffffffffffffffffffffffffffff84169081179091556040805160008152602081019290925280517f7e644d79422f17c01e4894b5f4f588d331ebfa28653d42ae832dc59e38c9798f9281900390910190a18015610a9657600080547fffffffffffffffffffffffffffffffffffffffffffffffffffffffffffff00ff1690555b5050565b60355490565b6000610aad8484846115fd565b610b3784610ab96114ac565b610b328560405180606001604052806028815260200161213e6028913973ffffffffffffffffffffffffffffffffffffffff8a16600090815260346020526040812090610b046114ac565b73ffffffffffffffffffffffffffffffffffffffff16815260208101919091526040016000205491906117cf565b6114b0565b5060019392505050565b60665473ffffffffffffffffffffffffffffffffffffffff163314610bb1576040517f08c379a00000000000000000000000000000000000000000000000000000000081526004018080602001828103825260358152602001806121876035913960400191505060405180910390fd5b606580546066547fffffffffffffffffffffffff0000000000000000000000000000000000000000821673ffffffffffffffffffffffffffffffffffffffff91821617928390556040805192821680845293909116602083015280517f7e644d79422f17c01e4894b5f4f588d331ebfa28653d42ae832dc59e38c9798f9281900390910190a150565b60385460ff1690565b6000610891610c506114ac565b84610b328560346000610c616114ac565b73ffffffffffffffffffffffffffffffffffffffff908116825260208083019390935260409182016000908120918c168152925290205490611880565b609854604080517f91d148540000000000000000000000000000000000000000000000000000000081527f49535355455f41535345540000000000000000000000000000000000000000006004820152336024820152905173ffffffffffffffffffffffffffffffffffffffff909216916391d1485491604480820192602092909190829003018186803b158015610d3557600080fd5b505afa158015610d49573d6000803e3d6000fd5b505050506040513d6020811015610d5f57600080fd5b5051610db6576040517f08c379a000000000000000000000000000000000000000000000000000000000815260040180806020018281038252602a8152602001806120a1602a913960400191505060405180910390fd5b610a9682826118fb565b60655473ffffffffffffffffffffffffffffffffffffffff163314610e30576040517f08c379a00000000000000000000000000000000000000000000000000000000081526004018080602001828103825260458152602001806120cb6045913960600191505060405180910390fd5b8073ffffffffffffffffffffffffffffffffffffffff1663768911da6040518163ffffffff1660e01b815260040180807f5368756d416363657373436f6e74726f6c00000000000000000000000000000081525060200180602001828103825260238152602001806120366023913960400191505060206040518083038186803b158015610ebd57600080fd5b505afa158015610ed1573d6000803e3d6000fd5b505050506040513d6020811015610ee757600080fd5b5051609880547fffffffffffffffffffffffff00000000000000000000000000000000000000001673ffffffffffffffffffffffffffffffffffffffff9283161790819055604080517f5368756d416363657373436f6e74726f6c000000000000000000000000000000815291909216602082015281517f17b158864f8c520aff3282c940ec6a731d26235b9b00b651c0dd1dafb3170f5f929181900390910190a150565b60665473ffffffffffffffffffffffffffffffffffffffff1681565b73ffffffffffffffffffffffffffffffffffffffff1660009081526033602052604090205490565b60378054604080516020601f60027fffffffffffffffffffffffffffffffffffffffffffffffffffffffffffffffff61010060018816150201909516949094049384018190048102820181019092528281526060939092909183018282801561077c5780601f106107515761010080835404028352916020019161077c565b609854604080517f91d148540000000000000000000000000000000000000000000000000000000081527f4255524e5f4153534554000000000000000000000000000000000000000000006004820152336024820152905173ffffffffffffffffffffffffffffffffffffffff909216916391d1485491604480820192602092909190829003018186803b1580156110e657600080fd5b505afa1580156110fa573d6000803e3d6000fd5b505050506040513d602081101561111057600080fd5b5051611167576040517f08c379a00000000000000000000000000000000000000000000000000000000081526004018080602001828103825260298152602001806122536029913960400191505060405180910390fd5b610a968282611a2e565b600061089161117e6114ac565b84610b328560405180606001604052806025815260200161222e60259139603460006111a86114ac565b73ffffffffffffffffffffffffffffffffffffffff908116825260208083019390935260409182016000908120918d168152925290205491906117cf565b60006108916111f36114ac565b84846115fd565b609854604080517f91d148540000000000000000000000000000000000000000000000000000000081527f4d4f56455f4153534554000000000000000000000000000000000000000000006004820152336024820152905173ffffffffffffffffffffffffffffffffffffffff909216916391d1485491604480820192602092909190829003018186803b15801561129157600080fd5b505afa1580156112a5573d6000803e3d6000fd5b505050506040513d60208110156112bb57600080fd5b5051611312576040517f08c379a00000000000000000000000000000000000000000000000000000000081526004018080602001828103825260298152602001806122056029913960400191505060405180910390fd5b61131d8383836115fd565b505050565b600054610100900460ff168061133b575061133b6115f7565b80611349575060005460ff16155b61139e576040517f08c379a000000000000000000000000000000000000000000000000000000000815260040180806020018281038252602e815260200180612110602e913960400191505060405180910390fd5b600054610100900460ff1615801561140457600080547fffffffffffffffffffffffffffffffffffffffffffffffffffffffffffffff007fffffffffffffffffffffffffffffffffffffffffffffffffffffffffffff00ff909116610100171660011790555b61140e8484611b78565b6114178261089a565b6097859055801561144b57600080547fffffffffffffffffffffffffffffffffffffffffffffffffffffffffffff00ff1690555b5050505050565b73ffffffffffffffffffffffffffffffffffffffff918216600090815260346020908152604080832093909416825291909152205490565b60655473ffffffffffffffffffffffffffffffffffffffff1681565b60975490565b3390565b73ffffffffffffffffffffffffffffffffffffffff831661151c576040517f08c379a00000000000000000000000000000000000000000000000000000000081526004018080602001828103825260248152602001806121e16024913960400191505060405180910390fd5b73ffffffffffffffffffffffffffffffffffffffff8216611588576040517f08c379a00000000000000000000000000000000000000000000000000000000081526004018080602001828103825260228152602001806120596022913960400191505060405180910390fd5b73ffffffffffffffffffffffffffffffffffffffff808416600081815260346020908152604080832094871680845294825291829020859055815185815291517f8c5be1e5ebec7d5bd14f71427d1e84f3dd0314c0f7b2291e5b200ac8c7c3b9259281900390910190a3505050565b303b1590565b73ffffffffffffffffffffffffffffffffffffffff8316611669576040517f08c379a00000000000000000000000000000000000000000000000000000000081526004018080602001828103825260258152602001806121bc6025913960400191505060405180910390fd5b73ffffffffffffffffffffffffffffffffffffffff82166116d5576040517f08c379a0000000000000000000000000000000000000000000000000000000008152600401808060200182810382526023815260200180611ff16023913960400191505060405180910390fd5b6116e083838361131d565b61172a8160405180606001604052806026815260200161207b6026913973ffffffffffffffffffffffffffffffffffffffff861660009081526033602052604090205491906117cf565b73ffffffffffffffffffffffffffffffffffffffff80851660009081526033602052604080822093909355908416815220546117669082611880565b73ffffffffffffffffffffffffffffffffffffffff80841660008181526033602090815260409182902094909455805185815290519193928716927fddf252ad1be2c89b69c2b068fc378daa952ba7f163c4a11628f55a4df523b3ef92918290030190a3505050565b60008184841115611878576040517f08c379a00000000000000000000000000000000000000000000000000000000081526004018080602001828103825283818151815260200191508051906020019080838360005b8381101561183d578181015183820152602001611825565b50505050905090810190601f16801561186a5780820380516001836020036101000a031916815260200191505b509250505060405180910390fd5b505050900390565b6000828201838110156118f457604080517f08c379a000000000000000000000000000000000000000000000000000000000815260206004820152601b60248201527f536166654d6174683a206164646974696f6e206f766572666c6f770000000000604482015290519081900360640190fd5b9392505050565b73ffffffffffffffffffffffffffffffffffffffff821661197d57604080517f08c379a000000000000000000000000000000000000000000000000000000000815260206004820152601f60248201527f45524332303a206d696e7420746f20746865207a65726f206164647265737300604482015290519081900360640190fd5b6119896000838361131d565b6035546119969082611880565b60355573ffffffffffffffffffffffffffffffffffffffff82166000908152603360205260409020546119c99082611880565b73ffffffffffffffffffffffffffffffffffffffff831660008181526033602090815260408083209490945583518581529351929391927fddf252ad1be2c89b69c2b068fc378daa952ba7f163c4a11628f55a4df523b3ef9281900390910190a35050565b73ffffffffffffffffffffffffffffffffffffffff8216611a9a576040517f08c379a00000000000000000000000000000000000000000000000000000000081526004018080602001828103825260218152602001806121666021913960400191505060405180910390fd5b611aa68260008361131d565b611af0816040518060600160405280602281526020016120146022913973ffffffffffffffffffffffffffffffffffffffff851660009081526033602052604090205491906117cf565b73ffffffffffffffffffffffffffffffffffffffff8316600090815260336020526040902055603554611b239082611c9f565b60355560408051828152905160009173ffffffffffffffffffffffffffffffffffffffff8516917fddf252ad1be2c89b69c2b068fc378daa952ba7f163c4a11628f55a4df523b3ef9181900360200190a35050565b600054610100900460ff1680611b915750611b916115f7565b80611b9f575060005460ff16155b611bf4576040517f08c379a000000000000000000000000000000000000000000000000000000000815260040180806020018281038252602e815260200180612110602e913960400191505060405180910390fd5b600054610100900460ff16158015611c5a57600080547fffffffffffffffffffffffffffffffffffffffffffffffffffffffffffffff007fffffffffffffffffffffffffffffffffffffffffffffffffffffffffffff00ff909116610100171660011790555b611c62611ce1565b611c6c8383611df5565b801561131d57600080547fffffffffffffffffffffffffffffffffffffffffffffffffffffffffffff00ff169055505050565b60006118f483836040518060400160405280601e81526020017f536166654d6174683a207375627472616374696f6e206f766572666c6f7700008152506117cf565b600054610100900460ff1680611cfa5750611cfa6115f7565b80611d08575060005460ff16155b611d5d576040517f08c379a000000000000000000000000000000000000000000000000000000000815260040180806020018281038252602e815260200180612110602e913960400191505060405180910390fd5b600054610100900460ff16158015611dc357600080547fffffffffffffffffffffffffffffffffffffffffffffffffffffffffffffff007fffffffffffffffffffffffffffffffffffffffffffffffffffffffffffff00ff909116610100171660011790555b8015611df257600080547fffffffffffffffffffffffffffffffffffffffffffffffffffffffffffff00ff1690555b50565b600054610100900460ff1680611e0e5750611e0e6115f7565b80611e1c575060005460ff16155b611e71576040517f08c379a000000000000000000000000000000000000000000000000000000000815260040180806020018281038252602e815260200180612110602e913960400191505060405180910390fd5b600054610100900460ff16158015611ed757600080547fffffffffffffffffffffffffffffffffffffffffffffffffffffffffffffff007fffffffffffffffffffffffffffffffffffffffffffffffffffffffffffff00ff909116610100171660011790555b8251611eea906036906020860190611f5d565b508151611efe906037906020850190611f5d565b50603880547fffffffffffffffffffffffffffffffffffffffffffffffffffffffffffffff00166012179055801561131d57600080547fffffffffffffffffffffffffffffffffffffffffffffffffffffffffffff00ff169055505050565b828054600181600116156101000203166002900490600052602060002090601f016020900481019282601f10611f9e57805160ff1916838001178555611fcb565b82800160010185558215611fcb579182015b82811115611fcb578251825591602001919060010190611fb0565b50611fd7929150611fdb565b5090565b5b80821115611fd75760008155600101611fdc56fe45524332303a207472616e7366657220746f20746865207a65726f206164647265737345524332303a206275726e20616d6f756e7420657863656564732062616c616e63655368756d416363657373436f6e74726f6c2061646472657373206e6f742076616c696445524332303a20617070726f766520746f20746865207a65726f206164647265737345524332303a207472616e7366657220616d6f756e7420657863656564732062616c616e63655368756d41737365745570677261646561626c653a206e6f742049535355455f415353455420726f6c655368756d41646d696e5570677261646561626c653a206f6e6c792074686520636f6e74726163742061646d696e2063616e20706572666f726d207468697320616374696f6e496e697469616c697a61626c653a20636f6e747261637420697320616c726561647920696e697469616c697a656445524332303a207472616e7366657220616d6f756e74206578636565647320616c6c6f77616e636545524332303a206275726e2066726f6d20746865207a65726f20616464726573735368756d41646d696e5570677261646561626c653a206f6e6c792063616e6469646174652063616e206265636f6d652061646d696e45524332303a207472616e736665722066726f6d20746865207a65726f206164647265737345524332303a20617070726f76652066726f6d20746865207a65726f20616464726573735368756d41737365745570677261646561626c653a206e6f74204d4f56455f415353455420726f6c6545524332303a2064656372656173656420616c6c6f77616e63652062656c6f77207a65726f5368756d41737365745570677261646561626c653a206e6f74204255524e5f415353455420726f6c655368756d41646d696e5570677261646561626c653a207a65726f2061646472657373a2646970667358221220d6e2909c14f6a014b13f1b1909108e2c7007427bba6edba7625eda22d827ee0964736f6c634300060c0033",
  "linkReferences": {},
  "deployedLinkReferences": {}
}