{
  "_format": "hh-sol-artifact-1",
  "contractName": "ShumCollateralSystem",
  "sourceName": "contracts/ShumCollateralSystem.sol",
  "abi": [
    {
      "anonymous": false,
      "inputs": [
        {
          "indexed": false,
          "internalType": "address",
          "name": "oldAdmin",
          "type": "address"
        },
        {
          "indexed": false,
          "internalType": "address",
          "name": "newAdmin",
          "type": "address"
        }
      ],
      "name": "AdminChanged",
      "type": "event"
    },
    {
      "anonymous": false,
      "inputs": [
        {
          "indexed": false,
          "internalType": "bytes32",
          "name": "name",
          "type": "bytes32"
        },
        {
          "indexed": false,
          "internalType": "address",
          "name": "addr",
          "type": "address"
        }
      ],
      "name": "CachedAddressUpdated",
      "type": "event"
    },
    {
      "anonymous": false,
      "inputs": [
        {
          "indexed": false,
          "internalType": "address",
          "name": "oldCandidate",
          "type": "address"
        },
        {
          "indexed": false,
          "internalType": "address",
          "name": "newCandidate",
          "type": "address"
        }
      ],
      "name": "CandidateChanged",
      "type": "event"
    },
    {
      "anonymous": false,
      "inputs": [
        {
          "indexed": false,
          "internalType": "address",
          "name": "user",
          "type": "address"
        },
        {
          "indexed": false,
          "internalType": "bytes32",
          "name": "_currency",
          "type": "bytes32"
        },
        {
          "indexed": false,
          "internalType": "uint256",
          "name": "_amount",
          "type": "uint256"
        },
        {
          "indexed": false,
          "internalType": "uint256",
          "name": "_userTotal",
          "type": "uint256"
        }
      ],
      "name": "CollateralLog",
      "type": "event"
    },
    {
      "anonymous": false,
      "inputs": [
        {
          "indexed": false,
          "internalType": "address",
          "name": "fromUser",
          "type": "address"
        },
        {
          "indexed": false,
          "internalType": "address",
          "name": "toUser",
          "type": "address"
        },
        {
          "indexed": false,
          "internalType": "bytes32",
          "name": "currency",
          "type": "bytes32"
        },
        {
          "indexed": false,
          "internalType": "uint256",
          "name": "amount",
          "type": "uint256"
        }
      ],
      "name": "CollateralMoved",
      "type": "event"
    },
    {
      "anonymous": false,
      "inputs": [
        {
          "indexed": false,
          "internalType": "address",
          "name": "user",
          "type": "address"
        },
        {
          "indexed": false,
          "internalType": "bytes32",
          "name": "_currency",
          "type": "bytes32"
        },
        {
          "indexed": false,
          "internalType": "uint256",
          "name": "_amount",
          "type": "uint256"
        },
        {
          "indexed": false,
          "internalType": "uint256",
          "name": "_userTotal",
          "type": "uint256"
        }
      ],
      "name": "CollateralUnlockReward",
      "type": "event"
    },
    {
      "anonymous": false,
      "inputs": [
        {
          "indexed": false,
          "internalType": "address",
          "name": "account",
          "type": "address"
        }
      ],
      "name": "Paused",
      "type": "event"
    },
    {
      "anonymous": false,
      "inputs": [
        {
          "indexed": false,
          "internalType": "address",
          "name": "user",
          "type": "address"
        },
        {
          "indexed": false,
          "internalType": "bytes32",
          "name": "_currency",
          "type": "bytes32"
        },
        {
          "indexed": false,
          "internalType": "uint256",
          "name": "_amount",
          "type": "uint256"
        },
        {
          "indexed": false,
          "internalType": "uint256",
          "name": "_userTotal",
          "type": "uint256"
        }
      ],
      "name": "RedeemCollateral",
      "type": "event"
    },
    {
      "anonymous": false,
      "inputs": [
        {
          "indexed": false,
          "internalType": "address",
          "name": "account",
          "type": "address"
        }
      ],
      "name": "Unpaused",
      "type": "event"
    },
    {
      "anonymous": false,
      "inputs": [
        {
          "indexed": false,
          "internalType": "bytes32",
          "name": "symbol",
          "type": "bytes32"
        },
        {
          "indexed": false,
          "internalType": "address",
          "name": "tokenAddr",
          "type": "address"
        },
        {
          "indexed": false,
          "internalType": "uint256",
          "name": "minCollateral",
          "type": "uint256"
        },
        {
          "indexed": false,
          "internalType": "bool",
          "name": "close",
          "type": "bool"
        }
      ],
      "name": "UpdateTokenSetting",
      "type": "event"
    },
    {
      "inputs": [
        {
          "internalType": "bytes32",
          "name": "_currency",
          "type": "bytes32"
        },
        {
          "internalType": "uint256",
          "name": "_amount",
          "type": "uint256"
        }
      ],
      "name": "Collateral",
      "outputs": [
        {
          "internalType": "bool",
          "name": "",
          "type": "bool"
        }
      ],
      "stateMutability": "nonpayable",
      "type": "function"
    },
    {
      "inputs": [],
      "name": "Currency_ETH",
      "outputs": [
        {
          "internalType": "bytes32",
          "name": "",
          "type": "bytes32"
        }
      ],
      "stateMutability": "view",
      "type": "function"
    },
    {
      "inputs": [],
      "name": "Currency_SHUM",
      "outputs": [
        {
          "internalType": "bytes32",
          "name": "",
          "type": "bytes32"
        }
      ],
      "stateMutability": "view",
      "type": "function"
    },
    {
      "inputs": [],
      "name": "GetSystemTotalCollateralInUsd",
      "outputs": [
        {
          "internalType": "uint256",
          "name": "rTotal",
          "type": "uint256"
        }
      ],
      "stateMutability": "view",
      "type": "function"
    },
    {
      "inputs": [
        {
          "internalType": "address",
          "name": "_user",
          "type": "address"
        },
        {
          "internalType": "bytes32",
          "name": "_currency",
          "type": "bytes32"
        }
      ],
      "name": "GetUserCollateral",
      "outputs": [
        {
          "internalType": "uint256",
          "name": "",
          "type": "uint256"
        }
      ],
      "stateMutability": "view",
      "type": "function"
    },
    {
      "inputs": [
        {
          "internalType": "address",
          "name": "_user",
          "type": "address"
        }
      ],
      "name": "GetUserCollaterals",
      "outputs": [
        {
          "internalType": "bytes32[]",
          "name": "",
          "type": "bytes32[]"
        },
        {
          "internalType": "uint256[]",
          "name": "",
          "type": "uint256[]"
        }
      ],
      "stateMutability": "view",
      "type": "function"
    },
    {
      "inputs": [
        {
          "internalType": "address",
          "name": "_user",
          "type": "address"
        }
      ],
      "name": "GetUserTotalCollateralInUsd",
      "outputs": [
        {
          "internalType": "uint256",
          "name": "rTotal",
          "type": "uint256"
        }
      ],
      "stateMutability": "view",
      "type": "function"
    },
    {
      "inputs": [
        {
          "internalType": "address",
          "name": "_user",
          "type": "address"
        }
      ],
      "name": "IsSatisfyTargetRatio",
      "outputs": [
        {
          "internalType": "bool",
          "name": "",
          "type": "bool"
        }
      ],
      "stateMutability": "view",
      "type": "function"
    },
    {
      "inputs": [
        {
          "internalType": "address",
          "name": "_user",
          "type": "address"
        }
      ],
      "name": "MaxRedeemableInUsd",
      "outputs": [
        {
          "internalType": "uint256",
          "name": "",
          "type": "uint256"
        }
      ],
      "stateMutability": "view",
      "type": "function"
    },
    {
      "inputs": [
        {
          "internalType": "bytes32",
          "name": "_currency",
          "type": "bytes32"
        },
        {
          "internalType": "uint256",
          "name": "_amount",
          "type": "uint256"
        }
      ],
      "name": "Redeem",
      "outputs": [
        {
          "internalType": "bool",
          "name": "",
          "type": "bool"
        }
      ],
      "stateMutability": "nonpayable",
      "type": "function"
    },
    {
      "inputs": [
        {
          "internalType": "bytes32",
          "name": "_currency",
          "type": "bytes32"
        }
      ],
      "name": "RedeemMax",
      "outputs": [],
      "stateMutability": "nonpayable",
      "type": "function"
    },
    {
      "inputs": [
        {
          "internalType": "bytes32",
          "name": "_currency",
          "type": "bytes32"
        },
        {
          "internalType": "address",
          "name": "_tokenAddr",
          "type": "address"
        },
        {
          "internalType": "uint256",
          "name": "_minCollateral",
          "type": "uint256"
        },
        {
          "internalType": "bool",
          "name": "_close",
          "type": "bool"
        }
      ],
      "name": "UpdateTokenInfo",
      "outputs": [
        {
          "internalType": "bool",
          "name": "",
          "type": "bool"
        }
      ],
      "stateMutability": "nonpayable",
      "type": "function"
    },
    {
      "inputs": [
        {
          "internalType": "bytes32[]",
          "name": "_symbols",
          "type": "bytes32[]"
        },
        {
          "internalType": "address[]",
          "name": "_tokenAddrs",
          "type": "address[]"
        },
        {
          "internalType": "uint256[]",
          "name": "_minCollateral",
          "type": "uint256[]"
        },
        {
          "internalType": "bool[]",
          "name": "_closes",
          "type": "bool[]"
        }
      ],
      "name": "UpdateTokenInfos",
      "outputs": [
        {
          "internalType": "bool",
          "name": "",
          "type": "bool"
        }
      ],
      "stateMutability": "nonpayable",
      "type": "function"
    },
    {
      "inputs": [
        {
          "internalType": "address",
          "name": "_admin",
          "type": "address"
        }
      ],
      "name": "__ShumAdminUpgradeable_init",
      "outputs": [],
      "stateMutability": "nonpayable",
      "type": "function"
    },
    {
      "inputs": [
        {
          "internalType": "address",
          "name": "_admin",
          "type": "address"
        }
      ],
      "name": "__ShumCollateralSystem_init",
      "outputs": [],
      "stateMutability": "nonpayable",
      "type": "function"
    },
    {
      "inputs": [],
      "name": "admin",
      "outputs": [
        {
          "internalType": "address",
          "name": "",
          "type": "address"
        }
      ],
      "stateMutability": "view",
      "type": "function"
    },
    {
      "inputs": [],
      "name": "becomeAdmin",
      "outputs": [],
      "stateMutability": "nonpayable",
      "type": "function"
    },
    {
      "inputs": [],
      "name": "buildBurnSystem",
      "outputs": [
        {
          "internalType": "contract IShumBuildBurnSystem",
          "name": "",
          "type": "address"
        }
      ],
      "stateMutability": "view",
      "type": "function"
    },
    {
      "inputs": [
        {
          "internalType": "uint256",
          "name": "burnAmount",
          "type": "uint256"
        },
        {
          "internalType": "bytes32",
          "name": "unstakeCurrency",
          "type": "bytes32"
        },
        {
          "internalType": "uint256",
          "name": "unstakeAmount",
          "type": "uint256"
        }
      ],
      "name": "burnAndUnstake",
      "outputs": [],
      "stateMutability": "nonpayable",
      "type": "function"
    },
    {
      "inputs": [
        {
          "internalType": "uint256",
          "name": "burnAmount",
          "type": "uint256"
        },
        {
          "internalType": "bytes32",
          "name": "unstakeCurrency",
          "type": "bytes32"
        }
      ],
      "name": "burnAndUnstakeMax",
      "outputs": [],
      "stateMutability": "nonpayable",
      "type": "function"
    },
    {
      "inputs": [],
      "name": "candidate",
      "outputs": [
        {
          "internalType": "address",
          "name": "",
          "type": "address"
        }
      ],
      "stateMutability": "view",
      "type": "function"
    },
    {
      "inputs": [
        {
          "internalType": "address",
          "name": "user",
          "type": "address"
        },
        {
          "internalType": "address",
          "name": "rewarder",
          "type": "address"
        },
        {
          "internalType": "bytes32",
          "name": "currency",
          "type": "bytes32"
        },
        {
          "internalType": "uint256",
          "name": "amount",
          "type": "uint256"
        }
      ],
      "name": "collateralFromUnlockReward",
      "outputs": [],
      "stateMutability": "nonpayable",
      "type": "function"
    },
    {
      "inputs": [],
      "name": "debtSystem",
      "outputs": [
        {
          "internalType": "contract IShumDebtSystem",
          "name": "",
          "type": "address"
        }
      ],
      "stateMutability": "view",
      "type": "function"
    },
    {
      "inputs": [
        {
          "internalType": "address",
          "name": "user",
          "type": "address"
        }
      ],
      "name": "getFreeCollateralInUsd",
      "outputs": [
        {
          "internalType": "uint256",
          "name": "",
          "type": "uint256"
        }
      ],
      "stateMutability": "view",
      "type": "function"
    },
    {
      "inputs": [
        {
          "internalType": "address",
          "name": "_user",
          "type": "address"
        }
      ],
      "name": "getUserShumCollateralBreakdown",
      "outputs": [
        {
          "internalType": "uint256",
          "name": "staked",
          "type": "uint256"
        },
        {
          "internalType": "uint256",
          "name": "locked",
          "type": "uint256"
        }
      ],
      "stateMutability": "view",
      "type": "function"
    },
    {
      "inputs": [],
      "name": "liquidation",
      "outputs": [
        {
          "internalType": "address",
          "name": "",
          "type": "address"
        }
      ],
      "stateMutability": "view",
      "type": "function"
    },
    {
      "inputs": [],
      "name": "mConfig",
      "outputs": [
        {
          "internalType": "contract IShumConfig",
          "name": "",
          "type": "address"
        }
      ],
      "stateMutability": "view",
      "type": "function"
    },
    {
      "inputs": [],
      "name": "mRewardLocker",
      "outputs": [
        {
          "internalType": "contract IShumRewardLocker",
          "name": "",
          "type": "address"
        }
      ],
      "stateMutability": "view",
      "type": "function"
    },
    {
      "inputs": [
        {
          "internalType": "address",
          "name": "user",
          "type": "address"
        }
      ],
      "name": "maxRedeemableShum",
      "outputs": [
        {
          "internalType": "uint256",
          "name": "",
          "type": "uint256"
        }
      ],
      "stateMutability": "view",
      "type": "function"
    },
    {
      "inputs": [
        {
          "internalType": "bytes32",
          "name": "_currency",
          "type": "bytes32"
        },
        {
          "internalType": "address[]",
          "name": "_users",
          "type": "address[]"
        },
        {
          "internalType": "uint256[]",
          "name": "_amounts",
          "type": "uint256[]"
        }
      ],
      "name": "migrateCollateral",
      "outputs": [
        {
          "internalType": "bool",
          "name": "",
          "type": "bool"
        }
      ],
      "stateMutability": "nonpayable",
      "type": "function"
    },
    {
      "inputs": [
        {
          "internalType": "address",
          "name": "fromUser",
          "type": "address"
        },
        {
          "internalType": "address",
          "name": "toUser",
          "type": "address"
        },
        {
          "internalType": "bytes32",
          "name": "currency",
          "type": "bytes32"
        },
        {
          "internalType": "uint256",
          "name": "amount",
          "type": "uint256"
        }
      ],
      "name": "moveCollateral",
      "outputs": [],
      "stateMutability": "nonpayable",
      "type": "function"
    },
    {
      "inputs": [],
      "name": "paused",
      "outputs": [
        {
          "internalType": "bool",
          "name": "",
          "type": "bool"
        }
      ],
      "stateMutability": "view",
      "type": "function"
    },
    {
      "inputs": [],
      "name": "priceGetter",
      "outputs": [
        {
          "internalType": "contract IShumPrices",
          "name": "",
          "type": "address"
        }
      ],
      "stateMutability": "view",
      "type": "function"
    },
    {
      "inputs": [
        {
          "internalType": "address",
          "name": "_candidate",
          "type": "address"
        }
      ],
      "name": "setCandidate",
      "outputs": [],
      "stateMutability": "nonpayable",
      "type": "function"
    },
    {
      "inputs": [
        {
          "internalType": "bool",
          "name": "_paused",
          "type": "bool"
        }
      ],
      "name": "setPaused",
      "outputs": [],
      "stateMutability": "nonpayable",
      "type": "function"
    },
    {
      "inputs": [
        {
          "internalType": "bytes32",
          "name": "stakeCurrency",
          "type": "bytes32"
        },
        {
          "internalType": "uint256",
          "name": "stakeAmount",
          "type": "uint256"
        },
        {
          "internalType": "uint256",
          "name": "buildAmount",
          "type": "uint256"
        }
      ],
      "name": "stakeAndBuild",
      "outputs": [],
      "stateMutability": "nonpayable",
      "type": "function"
    },
    {
      "inputs": [
        {
          "internalType": "bytes32",
          "name": "stakeCurrency",
          "type": "bytes32"
        },
        {
          "internalType": "uint256",
          "name": "stakeAmount",
          "type": "uint256"
        }
      ],
      "name": "stakeAndBuildMax",
      "outputs": [],
      "stateMutability": "nonpayable",
      "type": "function"
    },
    {
      "inputs": [
        {
          "internalType": "bytes32",
          "name": "",
          "type": "bytes32"
        }
      ],
      "name": "tokenInfos",
      "outputs": [
        {
          "internalType": "address",
          "name": "tokenAddr",
          "type": "address"
        },
        {
          "internalType": "uint256",
          "name": "minCollateral",
          "type": "uint256"
        },
        {
          "internalType": "uint256",
          "name": "totalCollateral",
          "type": "uint256"
        },
        {
          "internalType": "bool",
          "name": "bClose",
          "type": "bool"
        }
      ],
      "stateMutability": "view",
      "type": "function"
    },
    {
      "inputs": [
        {
          "internalType": "uint256",
          "name": "",
          "type": "uint256"
        }
      ],
      "name": "tokenSymbol",
      "outputs": [
        {
          "internalType": "bytes32",
          "name": "",
          "type": "bytes32"
        }
      ],
      "stateMutability": "view",
      "type": "function"
    },
    {
      "inputs": [],
      "name": "uniqueId",
      "outputs": [
        {
          "internalType": "uint256",
          "name": "",
          "type": "uint256"
        }
      ],
      "stateMutability": "view",
      "type": "function"
    },
    {
      "inputs": [
        {
          "internalType": "contract IShumAddressStorage",
          "name": "_addressStorage",
          "type": "address"
        }
      ],
      "name": "updateAddressCache",
      "outputs": [],
      "stateMutability": "nonpayable",
      "type": "function"
    },
    {
      "inputs": [
        {
          "internalType": "address",
          "name": "",
          "type": "address"
        },
        {
          "internalType": "bytes32",
          "name": "",
          "type": "bytes32"
        }
      ],
      "name": "userCollateralData",
      "outputs": [
        {
          "internalType": "uint256",
          "name": "collateral",
          "type": "uint256"
        }
      ],
      "stateMutability": "view",
      "type": "function"
    }
  ],
  "bytecode": "0x608060405234801561001057600080fd5b506158ac80620000216000396000f3fe608060405234801561001057600080fd5b50600436106102de5760003560e01c8063629c52a911610186578063c08f73b6116100e3578063f563feec11610097578063f8aa882e11610071578063f8aa882e14610b0a578063f9d7cc0014610b53578063ff06a5d414610b5b576102de565b8063f563feec14610969578063f72d54261461099c578063f851a44014610b02576102de565b8063ceed1b90116100c8578063ceed1b901461093c578063e05b0cc214610944578063f2dfbf6614610961576102de565b8063c08f73b6146108f6578063c19bff3114610919576102de565b806390f1f17b1161013a578063abd496da1161011f578063abd496da14610857578063acb0c6041461088a578063bc65d434146108c3576102de565b806390f1f17b146107f35780639235f45f1461084f576102de565b806375f93fa81161016b57806375f93fa8146106fc5780637d11b7fc146107045780637e2748f614610727576102de565b8063629c52a9146106ec5780636c8381f8146106f4576102de565b806346a00af91161023f5780635594e89a116101f35780635af87ef5116101cd5780635af87ef5146106905780635c975abb146106dc5780635d521a34146106e4576102de565b80635594e89a146105ed578063592315d1146106165780635a5f14c81461065d576102de565b80634bf70272116102245780634bf70272146104d557806351260791146105b257806352adb889146105e5576102de565b806346a00af91461049c5780634b86f75f146104cd576102de565b8063193e85c3116102965780632b53acab1161027b5780632b53acab146103fd5780632ef402f514610446578063466119e014610469576102de565b8063193e85c3146103cc57806325971dff146103f5576102de565b806316c38b3c116102c757806316c38b3c1461034b5780631733c9c81461036a57806317fd1d801461039d576102de565b806307880b7f146102e357806313edf8ca14610318575b600080fd5b610316600480360360208110156102f957600080fd5b503573ffffffffffffffffffffffffffffffffffffffff16610b94565b005b6103166004803603602081101561032e57600080fd5b503573ffffffffffffffffffffffffffffffffffffffff16610c91565b6103166004803603602081101561036157600080fd5b50351515610daf565b6103166004803603602081101561038057600080fd5b503573ffffffffffffffffffffffffffffffffffffffff16610e43565b6103ba600480360360208110156103b357600080fd5b5035611048565b60408051918252519081900360200190f35b610316600480360360608110156103e257600080fd5b5080359060208101359060400135611066565b6103166111ea565b6103166004803603608081101561041357600080fd5b5073ffffffffffffffffffffffffffffffffffffffff8135811691602081013590911690604081013590606001356112f0565b6103166004803603604081101561045c57600080fd5b5080359060200135611630565b6103ba6004803603602081101561047f57600080fd5b503573ffffffffffffffffffffffffffffffffffffffff16611795565b6104a4611949565b6040805173ffffffffffffffffffffffffffffffffffffffff9092168252519081900360200190f35b6104a4611965565b61059e600480360360608110156104eb57600080fd5b8135919081019060408101602082013564010000000081111561050d57600080fd5b82018360208201111561051f57600080fd5b8035906020019184602083028401116401000000008311171561054157600080fd5b91939092909160208101903564010000000081111561055f57600080fd5b82018360208201111561057157600080fd5b8035906020019184602083028401116401000000008311171561059357600080fd5b509092509050611981565b604080519115158252519081900360200190f35b6103ba600480360360208110156105c857600080fd5b503573ffffffffffffffffffffffffffffffffffffffff16611d03565b6104a4612079565b6103166004803603606081101561060357600080fd5b5080359060208101359060400135612095565b61059e6004803603608081101561062c57600080fd5b5080359073ffffffffffffffffffffffffffffffffffffffff6020820135169060408101359060600135151561221a565b6103166004803603602081101561067357600080fd5b503573ffffffffffffffffffffffffffffffffffffffff166122a6565b6106c3600480360360208110156106a657600080fd5b503573ffffffffffffffffffffffffffffffffffffffff16612c1b565b6040805192835260208301919091528051918290030190f35b61059e612cfe565b6103ba612d08565b6103ba612d2c565b6104a4612d32565b6103ba612d4e565b6103166004803603604081101561071a57600080fd5b5080359060200135612f89565b61075a6004803603602081101561073d57600080fd5b503573ffffffffffffffffffffffffffffffffffffffff166130ef565b604051808060200180602001838103835285818151815260200191508051906020019060200280838360005b8381101561079e578181015183820152602001610786565b50505050905001838103825284818151815260200191508051906020019060200280838360005b838110156107dd5781810151838201526020016107c5565b5050505090500194505050505060405180910390f35b6108106004803603602081101561080957600080fd5b5035613365565b6040805173ffffffffffffffffffffffffffffffffffffffff909516855260208501939093528383019190915215156060830152519081900360800190f35b6104a46133a6565b6103ba6004803603602081101561086d57600080fd5b503573ffffffffffffffffffffffffffffffffffffffff166133c2565b6103ba600480360360408110156108a057600080fd5b5073ffffffffffffffffffffffffffffffffffffffff813516906020013561372a565b61059e600480360360208110156108d957600080fd5b503573ffffffffffffffffffffffffffffffffffffffff16613747565b61059e6004803603604081101561090c57600080fd5b5080359060200135613951565b61059e6004803603604081101561092f57600080fd5b50803590602001356139da565b6104a4613a65565b6103166004803603602081101561095a57600080fd5b5035613a81565b6104a4613afd565b6103ba6004803603602081101561097f57600080fd5b503573ffffffffffffffffffffffffffffffffffffffff16613b19565b61059e600480360360808110156109b257600080fd5b8101906020810181356401000000008111156109cd57600080fd5b8201836020820111156109df57600080fd5b80359060200191846020830284011164010000000083111715610a0157600080fd5b919390929091602081019035640100000000811115610a1f57600080fd5b820183602082011115610a3157600080fd5b80359060200191846020830284011164010000000083111715610a5357600080fd5b919390929091602081019035640100000000811115610a7157600080fd5b820183602082011115610a8357600080fd5b80359060200191846020830284011164010000000083111715610aa557600080fd5b919390929091602081019035640100000000811115610ac357600080fd5b820183602082011115610ad557600080fd5b80359060200191846020830284011164010000000083111715610af757600080fd5b509092509050613b24565b6104a4613d75565b61031660048036036080811015610b2057600080fd5b5073ffffffffffffffffffffffffffffffffffffffff813581169160208101359091169060408101359060600135613d97565b6103ba613f85565b6103ba60048036036040811015610b7157600080fd5b5073ffffffffffffffffffffffffffffffffffffffff8135169060200135613fa9565b60005462010000900473ffffffffffffffffffffffffffffffffffffffff163314610c0a576040517f08c379a00000000000000000000000000000000000000000000000000000000081526004018080602001828103825260458152602001806156c56045913960600191505060405180910390fd5b6001805473ffffffffffffffffffffffffffffffffffffffff8381167fffffffffffffffffffffffff0000000000000000000000000000000000000000831617928390556040805192821680845293909116602083015280517f7f730391c4f0fa1bea34bcb9bff8c30a079b21a0359759160cb990648ab84c729281900390910190a15050565b600054610100900460ff1680610caa5750610caa6140d4565b80610cb8575060005460ff16155b610d0d576040517f08c379a000000000000000000000000000000000000000000000000000000000815260040180806020018281038252602e81526020018061570a602e913960400191505060405180910390fd5b600054610100900460ff16158015610d7357600080547fffffffffffffffffffffffffffffffffffffffffffffffffffffffffffffff007fffffffffffffffffffffffffffffffffffffffffffffffffffffffffffff00ff909116610100171660011790555b610d7c82610e43565b8015610dab57600080547fffffffffffffffffffffffffffffffffffffffffffffffffffffffffffff00ff1690555b5050565b60005462010000900473ffffffffffffffffffffffffffffffffffffffff163314610e25576040517f08c379a00000000000000000000000000000000000000000000000000000000081526004018080602001828103825260458152602001806156c56045913960600191505060405180910390fd5b8015610e3857610e336140da565b610e40565b610e406141ca565b50565b600054610100900460ff1680610e5c5750610e5c6140d4565b80610e6a575060005460ff16155b610ebf576040517f08c379a000000000000000000000000000000000000000000000000000000000815260040180806020018281038252602e81526020018061570a602e913960400191505060405180910390fd5b600054610100900460ff16158015610f2557600080547fffffffffffffffffffffffffffffffffffffffffffffffffffffffffffffff007fffffffffffffffffffffffffffffffffffffffffffffffffffffffffffff00ff909116610100171660011790555b73ffffffffffffffffffffffffffffffffffffffff8216610f91576040517f08c379a00000000000000000000000000000000000000000000000000000000081526004018080602001828103825260228152602001806158556022913960400191505060405180910390fd5b600080547fffffffffffffffffffff0000000000000000000000000000000000000000ffff166201000073ffffffffffffffffffffffffffffffffffffffff851690810291909117825560408051928352602083019190915280517f7e644d79422f17c01e4894b5f4f588d331ebfa28653d42ae832dc59e38c9798f9281900390910190a18015610dab57600080547fffffffffffffffffffffffffffffffffffffffffffffffffffffffffffff00ff1690555050565b609c818154811061105557fe5b600091825260209091200154905081565b60645460ff16156110d857604080517f08c379a000000000000000000000000000000000000000000000000000000000815260206004820152601060248201527f5061757361626c653a2070617573656400000000000000000000000000000000604482015290519081900360640190fd5b60008311806110e75750600081115b61113c576040517f08c379a00000000000000000000000000000000000000000000000000000000081526004018080602001828103825260218152602001806156a46021913960400191505060405180910390fd5b82156111d457609e54604080517fafd9613b00000000000000000000000000000000000000000000000000000000815233600482015260248101869052905173ffffffffffffffffffffffffffffffffffffffff9092169163afd9613b9160448082019260009290919082900301818387803b1580156111bb57600080fd5b505af11580156111cf573d6000803e3d6000fd5b505050505b80156111e5576111e533838361428c565b505050565b60015473ffffffffffffffffffffffffffffffffffffffff16331461125a576040517f08c379a00000000000000000000000000000000000000000000000000000000081526004018080602001828103825260358152602001806157dc6035913960400191505060405180910390fd5b6000805460015473ffffffffffffffffffffffffffffffffffffffff908116620100009081027fffffffffffffffffffff0000000000000000000000000000000000000000ffff8416179384905560408051938290048316808552919094049091166020830152825190927f7e644d79422f17c01e4894b5f4f588d331ebfa28653d42ae832dc59e38c9798f928290030190a150565b60645460ff161561136257604080517f08c379a000000000000000000000000000000000000000000000000000000000815260206004820152601060248201527f5061757361626c653a2070617573656400000000000000000000000000000000604482015290519081900360640190fd5b60995473ffffffffffffffffffffffffffffffffffffffff1633146113d2576040517f08c379a00000000000000000000000000000000000000000000000000000000081526004018080602001828103825260278152602001806156236027913960400191505060405180910390fd5b73ffffffffffffffffffffffffffffffffffffffff841661143e576040517f08c379a00000000000000000000000000000000000000000000000000000000081526004018080602001828103825260318152602001806157386031913960400191505060405180910390fd5b60008111611497576040517f08c379a00000000000000000000000000000000000000000000000000000000081526004018080602001828103825260338152602001806155586033913960400191505060405180910390fd5b6000828152609b60205260409020805473ffffffffffffffffffffffffffffffffffffffff16611512576040517f08c379a000000000000000000000000000000000000000000000000000000000815260040180806020018281038252602a81526020018061567a602a913960400191505060405180910390fd5b80546115369073ffffffffffffffffffffffffffffffffffffffff1685308561460d565b73ffffffffffffffffffffffffffffffffffffffff85166000908152609d602090815260408083208684529091529020546115719083614809565b73ffffffffffffffffffffffffffffffffffffffff86166000908152609d6020908152604080832087845290915290205560028101546115b19083614809565b600282015573ffffffffffffffffffffffffffffffffffffffff85166000818152609d602090815260408083208784528252918290205482519384529083018690528282018590526060830152517ff5b0efea6f2680c45f4bb43dfd7ba41e7aefe993b0b28c861c2e11e923343f849181900360800190a15050505050565b60645460ff16156116a257604080517f08c379a000000000000000000000000000000000000000000000000000000000815260206004820152601060248201527f5061757361626c653a2070617573656400000000000000000000000000000000604482015290519081900360640190fd5b600081116116fb576040517f08c379a00000000000000000000000000000000000000000000000000000000081526004018080602001828103825260218152602001806156a46021913960400191505060405180910390fd5b61170633838361487d565b50609e54604080517f0d46754f000000000000000000000000000000000000000000000000000000008152336004820152905173ffffffffffffffffffffffffffffffffffffffff90921691630d46754f9160248082019260009290919082900301818387803b15801561177957600080fd5b505af115801561178d573d6000803e3d6000fd5b505050505050565b6000806117a183611d03565b609754604080517f1882d09000000000000000000000000000000000000000000000000000000000815273ffffffffffffffffffffffffffffffffffffffff87811660048301528251949550600094931692631882d09092602480840193919291829003018186803b15801561181657600080fd5b505afa15801561182a573d6000803e3d6000fd5b505050506040513d604081101561184057600080fd5b505190508061185157509050611944565b609854604080517fbd02d0f50000000000000000000000000000000000000000000000000000000081527f4275696c64526174696f000000000000000000000000000000000000000000006004820152905160009273ffffffffffffffffffffffffffffffffffffffff169163bd02d0f5916024808301926020929190829003018186803b1580156118e257600080fd5b505afa1580156118f6573d6000803e3d6000fd5b505050506040513d602081101561190c57600080fd5b50519050600061191c8383614e3c565b905080841015611933576000945050505050611944565b61193d8482614e5a565b9450505050505b919050565b60985473ffffffffffffffffffffffffffffffffffffffff1681565b60975473ffffffffffffffffffffffffffffffffffffffff1681565b6000805462010000900473ffffffffffffffffffffffffffffffffffffffff1633146119f8576040517f08c379a00000000000000000000000000000000000000000000000000000000081526004018080602001828103825260458152602001806156c56045913960600191505060405180910390fd5b6000868152609b6020526040902054611a269073ffffffffffffffffffffffffffffffffffffffff16614e9c565b611a9157604080517f08c379a000000000000000000000000000000000000000000000000000000000815260206004820152601460248201527f496e76616c696420746f6b656e2073796d626f6c000000000000000000000000604482015290519081900360640190fd5b6000868152609b60205260409020600381015460ff1615611b1357604080517f08c379a000000000000000000000000000000000000000000000000000000000815260206004820152601460248201527f5468697320746f6b656e20697320636c6f736564000000000000000000000000604482015290519081900360640190fd5b848314611b8157604080517f08c379a000000000000000000000000000000000000000000000000000000000815260206004820152600f60248201527f4c656e677468206d69736d617463680000000000000000000000000000000000604482015290519081900360640190fd5b60005b83811015611cf8576000878783818110611b9a57fe5b9050602002013573ffffffffffffffffffffffffffffffffffffffff1690506000868684818110611bc757fe5b905060200201359050611c3681609d60008573ffffffffffffffffffffffffffffffffffffffff1673ffffffffffffffffffffffffffffffffffffffff16815260200190815260200160002060008d81526020019081526020016000206000015461480990919063ffffffff16565b73ffffffffffffffffffffffffffffffffffffffff83166000908152609d602090815260408083208e84529091529020556002840154611c769082614809565b600285015573ffffffffffffffffffffffffffffffffffffffff82166000818152609d602090815260408083208e84528252918290205482519384529083018d90528282018490526060830152517fe25398ee94a2ec2dde5992b338a76ddd3a7af4d596cf2d00feba7770b31de2999181900360800190a15050600101611b84565b505095945050505050565b6000805b609c54811015611ef9576000609c8281548110611d2057fe5b600091825260208083209091015473ffffffffffffffffffffffffffffffffffffffff87168352609d825260408084208285529092529120549091507f5348554d00000000000000000000000000000000000000000000000000000000821415611e3257609954604080517f70a0823100000000000000000000000000000000000000000000000000000000815273ffffffffffffffffffffffffffffffffffffffff88811660048301529151611e2f9392909216916370a0823191602480820192602092909190829003018186803b158015611dfc57600080fd5b505afa158015611e10573d6000803e3d6000fd5b505050506040513d6020811015611e2657600080fd5b50518290614809565b90505b8015611eef57609654604080517f31d98b3f000000000000000000000000000000000000000000000000000000008152600481018590529051611eec92611ee59273ffffffffffffffffffffffffffffffffffffffff909116916331d98b3f91602480820192602092909190829003018186803b158015611eb257600080fd5b505afa158015611ec6573d6000803e3d6000fd5b505050506040513d6020811015611edc57600080fd5b50518390614ea2565b8590614809565b93505b5050600101611d07565b5073ffffffffffffffffffffffffffffffffffffffff82166000908152609d602090815260408083207f455448000000000000000000000000000000000000000000000000000000000084529091529020541561194457609654604080517f31d98b3f0000000000000000000000000000000000000000000000000000000081527f4554480000000000000000000000000000000000000000000000000000000000600482015290516120739261206c9273ffffffffffffffffffffffffffffffffffffffff909116916331d98b3f91602480820192602092909190829003018186803b158015611fe957600080fd5b505afa158015611ffd573d6000803e3d6000fd5b505050506040513d602081101561201357600080fd5b505173ffffffffffffffffffffffffffffffffffffffff85166000908152609d602090815260408083207f4554480000000000000000000000000000000000000000000000000000000000845290915290205490614ea2565b8290614809565b92915050565b609e5473ffffffffffffffffffffffffffffffffffffffff1681565b60645460ff161561210757604080517f08c379a000000000000000000000000000000000000000000000000000000000815260206004820152601060248201527f5061757361626c653a2070617573656400000000000000000000000000000000604482015290519081900360640190fd5b60008211806121165750600081115b61216b576040517f08c379a00000000000000000000000000000000000000000000000000000000081526004018080602001828103825260218152602001806156a46021913960400191505060405180910390fd5b811561217e5761217c33848461487d565b505b80156111e557609e54604080517f53add9aa00000000000000000000000000000000000000000000000000000000815233600482015260248101849052905173ffffffffffffffffffffffffffffffffffffffff909216916353add9aa9160448082019260009290919082900301818387803b1580156121fd57600080fd5b505af1158015612211573d6000803e3d6000fd5b50505050505050565b6000805462010000900473ffffffffffffffffffffffffffffffffffffffff163314612291576040517f08c379a00000000000000000000000000000000000000000000000000000000081526004018080602001828103825260458152602001806156c56045913960600191505060405180910390fd5b61229d85858585614ec6565b95945050505050565b60005462010000900473ffffffffffffffffffffffffffffffffffffffff16331461231c576040517f08c379a00000000000000000000000000000000000000000000000000000000081526004018080602001828103825260458152602001806156c56045913960600191505060405180910390fd5b604080517f768911da0000000000000000000000000000000000000000000000000000000081527f5368756d50726963657300000000000000000000000000000000000000000000600482015260248101829052601c60448201527f5368756d5072696365732061646472657373206e6f742076616c6964000000006064820152905173ffffffffffffffffffffffffffffffffffffffff83169163768911da916084808301926020929190829003018186803b1580156123dc57600080fd5b505afa1580156123f0573d6000803e3d6000fd5b505050506040513d602081101561240657600080fd5b5051609680547fffffffffffffffffffffffff00000000000000000000000000000000000000001673ffffffffffffffffffffffffffffffffffffffff928316179055604080517f768911da0000000000000000000000000000000000000000000000000000000081527f5368756d4465627453797374656d0000000000000000000000000000000000006004820152602481018290526020604482018190527f5368756d4465627453797374656d2061646472657373206e6f742076616c6964606483015291519284169263768911da92608480840193919291829003018186803b1580156124f557600080fd5b505afa158015612509573d6000803e3d6000fd5b505050506040513d602081101561251f57600080fd5b5051609780547fffffffffffffffffffffffff00000000000000000000000000000000000000001673ffffffffffffffffffffffffffffffffffffffff928316179055604080517f768911da0000000000000000000000000000000000000000000000000000000081527f5368756d436f6e66696700000000000000000000000000000000000000000000600482015260248101829052601c60448201527f5368756d436f6e6669672061646472657373206e6f742076616c696400000000606482015290519183169163768911da91608480820192602092909190829003018186803b15801561260f57600080fd5b505afa158015612623573d6000803e3d6000fd5b505050506040513d602081101561263957600080fd5b5051609880547fffffffffffffffffffffffff00000000000000000000000000000000000000001673ffffffffffffffffffffffffffffffffffffffff928316179055604080517f768911da0000000000000000000000000000000000000000000000000000000081527f5368756d5265776172644c6f636b65720000000000000000000000000000000060048201908152602482019283526022604483018190529385169363768911da93919260640190615601823960400191505060206040518083038186803b15801561270e57600080fd5b505afa158015612722573d6000803e3d6000fd5b505050506040513d602081101561273857600080fd5b5051609980547fffffffffffffffffffffffff00000000000000000000000000000000000000001673ffffffffffffffffffffffffffffffffffffffff928316179055604080517f768911da0000000000000000000000000000000000000000000000000000000081527f5368756d4275696c644275726e53797374656d0000000000000000000000000060048201908152602482019283526025604483018190529385169363768911da939192606401906155dc823960400191505060206040518083038186803b15801561280d57600080fd5b505afa158015612821573d6000803e3d6000fd5b505050506040513d602081101561283757600080fd5b5051609e80547fffffffffffffffffffffffff00000000000000000000000000000000000000001673ffffffffffffffffffffffffffffffffffffffff928316179055604080517f768911da0000000000000000000000000000000000000000000000000000000081527f5368756d4c69717569646174696f6e000000000000000000000000000000000060048201908152602482019283526021604483018190529385169363768911da93919260640190615811823960400191505060206040518083038186803b15801561290c57600080fd5b505afa158015612920573d6000803e3d6000fd5b505050506040513d602081101561293657600080fd5b5051609f80547fffffffffffffffffffffffff00000000000000000000000000000000000000001673ffffffffffffffffffffffffffffffffffffffff928316179055609654604080517f5368756d50726963657300000000000000000000000000000000000000000000815291909216602082015281517f17b158864f8c520aff3282c940ec6a731d26235b9b00b651c0dd1dafb3170f5f929181900390910190a1609754604080517f5368756d4465627453797374656d000000000000000000000000000000000000815273ffffffffffffffffffffffffffffffffffffffff909216602083015280517f17b158864f8c520aff3282c940ec6a731d26235b9b00b651c0dd1dafb3170f5f9281900390910190a1609854604080517f5368756d436f6e66696700000000000000000000000000000000000000000000815273ffffffffffffffffffffffffffffffffffffffff909216602083015280517f17b158864f8c520aff3282c940ec6a731d26235b9b00b651c0dd1dafb3170f5f9281900390910190a1609954604080517f5368756d5265776172644c6f636b657200000000000000000000000000000000815273ffffffffffffffffffffffffffffffffffffffff909216602083015280517f17b158864f8c520aff3282c940ec6a731d26235b9b00b651c0dd1dafb3170f5f9281900390910190a1609e54604080517f5368756d4275696c644275726e53797374656d00000000000000000000000000815273ffffffffffffffffffffffffffffffffffffffff909216602083015280517f17b158864f8c520aff3282c940ec6a731d26235b9b00b651c0dd1dafb3170f5f9281900390910190a1609f54604080517f5368756d4c69717569646174696f6e0000000000000000000000000000000000815273ffffffffffffffffffffffffffffffffffffffff909216602083015280517f17b158864f8c520aff3282c940ec6a731d26235b9b00b651c0dd1dafb3170f5f9281900390910190a150565b73ffffffffffffffffffffffffffffffffffffffff8082166000818152609d602090815260408083207f5348554d00000000000000000000000000000000000000000000000000000000845282528083205460995482517f70a08231000000000000000000000000000000000000000000000000000000008152600481019690965291519395869591949216926370a0823192602480840193829003018186803b158015612cc857600080fd5b505afa158015612cdc573d6000803e3d6000fd5b505050506040513d6020811015612cf257600080fd5b50519092509050915091565b60645460ff165b90565b7f455448000000000000000000000000000000000000000000000000000000000081565b609a5481565b60015473ffffffffffffffffffffffffffffffffffffffff1681565b6000805b609c54811015612eb1576000609c8281548110612d6b57fe5b6000918252602080832090910154808352609b9091526040909120600201549091507f5348554d00000000000000000000000000000000000000000000000000000000821415612e2457609954604080517f05a9f2740000000000000000000000000000000000000000000000000000000081529051612e219273ffffffffffffffffffffffffffffffffffffffff16916305a9f274916004808301926020929190829003018186803b158015611dfc57600080fd5b90505b8015612ea757609654604080517f31d98b3f000000000000000000000000000000000000000000000000000000008152600481018590529051612ea492611ee59273ffffffffffffffffffffffffffffffffffffffff909116916331d98b3f91602480820192602092909190829003018186803b158015611eb257600080fd5b93505b5050600101612d52565b504715612d0557609654604080517f31d98b3f0000000000000000000000000000000000000000000000000000000081527f455448000000000000000000000000000000000000000000000000000000000060048201529051612f849261206c9273ffffffffffffffffffffffffffffffffffffffff909116916331d98b3f91602480820192602092909190829003018186803b158015612f5157600080fd5b505afa158015612f65573d6000803e3d6000fd5b505050506040513d6020811015612f7b57600080fd5b50514790614ea2565b905090565b60645460ff1615612ffb57604080517f08c379a000000000000000000000000000000000000000000000000000000000815260206004820152601060248201527f5061757361626c653a2070617573656400000000000000000000000000000000604482015290519081900360640190fd5b60008211613054576040517f08c379a00000000000000000000000000000000000000000000000000000000081526004018080602001828103825260218152602001806156a46021913960400191505060405180910390fd5b609e54604080517fafd9613b00000000000000000000000000000000000000000000000000000000815233600482015260248101859052905173ffffffffffffffffffffffffffffffffffffffff9092169163afd9613b9160448082019260009290919082900301818387803b1580156130cd57600080fd5b505af11580156130e1573d6000803e3d6000fd5b50505050610dab33826152ad565b6060806060609c8054905060010167ffffffffffffffff8111801561311357600080fd5b5060405190808252806020026020018201604052801561313d578160200160208202803683370190505b50609c5490915060609060010167ffffffffffffffff8111801561316057600080fd5b5060405190808252806020026020018201604052801561318a578160200160208202803683370190505b5090506000805b609c5481101561325d576000609c82815481106131aa57fe5b600091825260208083209091015473ffffffffffffffffffffffffffffffffffffffff8b168352609d825260408084208285529092529120549091501561325457808584815181106131f857fe5b60209081029190910181019190915273ffffffffffffffffffffffffffffffffffffffff89166000908152609d825260408082208483529092522054845185908590811061324257fe5b60209081029190910101526001909201915b50600101613191565b5073ffffffffffffffffffffffffffffffffffffffff86166000908152609d602090815260408083207f455448000000000000000000000000000000000000000000000000000000000084529091529020541561335a577f45544800000000000000000000000000000000000000000000000000000000008382815181106132e157fe5b60209081029190910181019190915273ffffffffffffffffffffffffffffffffffffffff87166000908152609d825260408082207f455448000000000000000000000000000000000000000000000000000000000083529092522054825183908390811061334b57fe5b60209081029190910101526001015b509092509050915091565b609b60205260009081526040902080546001820154600283015460039093015473ffffffffffffffffffffffffffffffffffffffff90921692909160ff1684565b60995473ffffffffffffffffffffffffffffffffffffffff1681565b609754604080517f1882d09000000000000000000000000000000000000000000000000000000000815273ffffffffffffffffffffffffffffffffffffffff848116600483015282516000948594921692631882d090926024808301939192829003018186803b15801561343557600080fd5b505afa158015613449573d6000803e3d6000fd5b505050506040513d604081101561345f57600080fd5b505173ffffffffffffffffffffffffffffffffffffffff84166000908152609d602090815260408083207f5348554d000000000000000000000000000000000000000000000000000000008452909152902054909150816134c35791506119449050565b609854604080517fbd02d0f50000000000000000000000000000000000000000000000000000000081527f4275696c64526174696f000000000000000000000000000000000000000000006004820152905160009273ffffffffffffffffffffffffffffffffffffffff169163bd02d0f5916024808301926020929190829003018186803b15801561355457600080fd5b505afa158015613568573d6000803e3d6000fd5b505050506040513d602081101561357e57600080fd5b50519050600061358e8483614e3c565b609654604080517f31d98b3f0000000000000000000000000000000000000000000000000000000081527f5348554d00000000000000000000000000000000000000000000000000000000600482015290519293506000926136599273ffffffffffffffffffffffffffffffffffffffff16916331d98b3f916024808301926020929190829003018186803b15801561362657600080fd5b505afa15801561363a573d6000803e3d6000fd5b505050506040513d602081101561365057600080fd5b50518390614e3c565b609954604080517f70a0823100000000000000000000000000000000000000000000000000000000815273ffffffffffffffffffffffffffffffffffffffff8b81166004830152915193945060009391909216916370a08231916024808301926020929190829003018186803b1580156136d257600080fd5b505afa1580156136e6573d6000803e3d6000fd5b505050506040513d60208110156136fc57600080fd5b5051905061371d85613718846137128386614809565b90614e5a565b615358565b9650505050505050611944565b609d60209081526000928352604080842090915290825290205481565b609754604080517f1882d09000000000000000000000000000000000000000000000000000000000815273ffffffffffffffffffffffffffffffffffffffff848116600483015282516000948594921692631882d090926024808301939192829003018186803b1580156137ba57600080fd5b505afa1580156137ce573d6000803e3d6000fd5b505050506040513d60408110156137e457600080fd5b50519050806137f7576001915050611944565b609854604080517f4d6daf04000000000000000000000000000000000000000000000000000000008152905160009273ffffffffffffffffffffffffffffffffffffffff169163bd02d0f5918391634d6daf04916004808301926020929190829003018186803b15801561386a57600080fd5b505afa15801561387e573d6000803e3d6000fd5b505050506040513d602081101561389457600080fd5b5051604080517fffffffff0000000000000000000000000000000000000000000000000000000060e085901b1681526004810192909252516024808301926020929190829003018186803b1580156138eb57600080fd5b505afa1580156138ff573d6000803e3d6000fd5b505050506040513d602081101561391557600080fd5b50519050600061392485611d03565b9050806139375760009350505050611944565b60006139438483614e3c565b929092111595945050505050565b60645460009060ff16156139c657604080517f08c379a000000000000000000000000000000000000000000000000000000000815260206004820152601060248201527f5061757361626c653a2070617573656400000000000000000000000000000000604482015290519081900360640190fd5b336139d281858561487d565b949350505050565b60645460009060ff1615613a4f57604080517f08c379a000000000000000000000000000000000000000000000000000000000815260206004820152601060248201527f5061757361626c653a2070617573656400000000000000000000000000000000604482015290519081900360640190fd5b33613a5b81858561428c565b5060019392505050565b60965473ffffffffffffffffffffffffffffffffffffffff1681565b60645460ff1615613af357604080517f08c379a000000000000000000000000000000000000000000000000000000000815260206004820152601060248201527f5061757361626c653a2070617573656400000000000000000000000000000000604482015290519081900360640190fd5b610e4033826152ad565b609f5473ffffffffffffffffffffffffffffffffffffffff1681565b600061207382611795565b6000805462010000900473ffffffffffffffffffffffffffffffffffffffff163314613b9b576040517f08c379a00000000000000000000000000000000000000000000000000000000081526004018080602001828103825260458152602001806156c56045913960600191505060405180910390fd5b878614613c0957604080517f08c379a000000000000000000000000000000000000000000000000000000000815260206004820152601660248201527f6c656e677468206f66206172726179206e6f7420657100000000000000000000604482015290519081900360640190fd5b878414613c7757604080517f08c379a000000000000000000000000000000000000000000000000000000000815260206004820152601660248201527f6c656e677468206f66206172726179206e6f7420657100000000000000000000604482015290519081900360640190fd5b878214613ce557604080517f08c379a000000000000000000000000000000000000000000000000000000000815260206004820152601660248201527f6c656e677468206f66206172726179206e6f7420657100000000000000000000604482015290519081900360640190fd5b60005b88811015613d6557613d5c8a8a83818110613cff57fe5b90506020020135898984818110613d1257fe5b9050602002013573ffffffffffffffffffffffffffffffffffffffff16888885818110613d3b57fe5b90506020020135878786818110613d4e57fe5b905060200201351515614ec6565b50600101613ce8565b5060019998505050505050505050565b60005462010000900473ffffffffffffffffffffffffffffffffffffffff1681565b60645460ff1615613e0957604080517f08c379a000000000000000000000000000000000000000000000000000000000815260206004820152601060248201527f5061757361626c653a2070617573656400000000000000000000000000000000604482015290519081900360640190fd5b609f5473ffffffffffffffffffffffffffffffffffffffff163314613e79576040517f08c379a00000000000000000000000000000000000000000000000000000000081526004018080602001828103825260258152602001806157b76025913960400191505060405180910390fd5b73ffffffffffffffffffffffffffffffffffffffff84166000908152609d60209081526040808320858452909152902054613eb49082614e5a565b73ffffffffffffffffffffffffffffffffffffffff8086166000908152609d60208181526040808420888552825280842095909555928716825282528281208582529091522054613f059082614809565b73ffffffffffffffffffffffffffffffffffffffff8085166000818152609d602090815260408083208884528252918290209490945580519288168352928201528082018490526060810183905290517fe4fa410d7e823b3d775924f31bdd53c525ad4b4f3b9f6f3b7ac80d650e1f857a9181900360800190a150505050565b7f5348554d0000000000000000000000000000000000000000000000000000000081565b6000817f5348554d0000000000000000000000000000000000000000000000000000000014614009575073ffffffffffffffffffffffffffffffffffffffff82166000908152609d60209081526040808320848452909152902054612073565b73ffffffffffffffffffffffffffffffffffffffff8084166000818152609d602090815260408083208784528252918290205460995483517f70a08231000000000000000000000000000000000000000000000000000000008152600481019590955292516140cd95919493909116926370a08231926024808301939192829003018186803b15801561409b57600080fd5b505afa1580156140af573d6000803e3d6000fd5b505050506040513d60208110156140c557600080fd5b505190614809565b9392505050565b303b1590565b60645460ff161561414c57604080517f08c379a000000000000000000000000000000000000000000000000000000000815260206004820152601060248201527f5061757361626c653a2070617573656400000000000000000000000000000000604482015290519081900360640190fd5b606480547fffffffffffffffffffffffffffffffffffffffffffffffffffffffffffffff001660011790557f62e78cea01bee320cd4e420270b5ea74000d11b0c9f74754ebdbfc544b05a2586141a061536e565b6040805173ffffffffffffffffffffffffffffffffffffffff9092168252519081900360200190a1565b60645460ff1661423b57604080517f08c379a000000000000000000000000000000000000000000000000000000000815260206004820152601460248201527f5061757361626c653a206e6f7420706175736564000000000000000000000000604482015290519081900360640190fd5b606480547fffffffffffffffffffffffffffffffffffffffffffffffffffffffffffffff001690557f5db9ee0a495bf2e6ff9c91a7834c1ba4fdd244a5e8aa4e537bd38aeae4b073aa6141a061536e565b7f5348554d000000000000000000000000000000000000000000000000000000008214614304576040517f08c379a000000000000000000000000000000000000000000000000000000000815260040180806020018281038252602c81526020018061558b602c913960400191505060405180910390fd5b6000811161435d576040517f08c379a00000000000000000000000000000000000000000000000000000000081526004018080602001828103825260218152602001806156a46021913960400191505060405180910390fd5b6000614368846133c2565b9050808211156143c3576040517f08c379a000000000000000000000000000000000000000000000000000000000815260040180806020018281038252602d815260200180615769602d913960400191505060405180910390fd5b73ffffffffffffffffffffffffffffffffffffffff84166000908152609d602090815260408083207f5348554d00000000000000000000000000000000000000000000000000000000845290915290205461441e9083614e5a565b73ffffffffffffffffffffffffffffffffffffffff85166000908152609d602090815260408083207f5348554d000000000000000000000000000000000000000000000000000000008452825290912091909155609b90527f6620d32a309fc48f06b21e60d41fbe0b4844334191c1f7379a52ee57327c38cc547f6620d32a309fc48f06b21e60d41fbe0b4844334191c1f7379a52ee57327c38ca906144c49084614e5a565b60028201558054604080517fa9059cbb00000000000000000000000000000000000000000000000000000000815273ffffffffffffffffffffffffffffffffffffffff8881166004830152602482018790529151919092169163a9059cbb9160448083019260209291908290030181600087803b15801561454457600080fd5b505af1158015614558573d6000803e3d6000fd5b505050506040513d602081101561456e57600080fd5b505073ffffffffffffffffffffffffffffffffffffffff85166000818152609d602090815260408083207f5348554d0000000000000000000000000000000000000000000000000000000080855290835292819020548151948552918401929092528282018690526060830152517ffa659da0063f4e5cf39c3b6dae863e789ab69f82e82925c28cae633a81b2b65d9181900360800190a15050505050565b600060608573ffffffffffffffffffffffffffffffffffffffff166040518060600160405280602581526020016155b76025913980516020918201206040805173ffffffffffffffffffffffffffffffffffffffff808b166024830152891660448201526064808201899052825180830390910181526084909101825292830180517bffffffffffffffffffffffffffffffffffffffffffffffffffffffff167fffffffff00000000000000000000000000000000000000000000000000000000909316929092178252518251909182918083835b6020831061471f57805182527fffffffffffffffffffffffffffffffffffffffffffffffffffffffffffffffe090920191602091820191016146e2565b6001836020036101000a0380198251168184511680821785525050505050509050019150506000604051808303816000865af19150503d8060008114614781576040519150601f19603f3d011682016040523d82523d6000602084013e614786565b606091505b50915091508180156147b45750805115806147b457508080602001905160208110156147b157600080fd5b50515b61178d576040517f08c379a00000000000000000000000000000000000000000000000000000000081526004018080602001828103825260238152602001806158326023913960400191505060405180910390fd5b6000828201838110156140cd57604080517f08c379a000000000000000000000000000000000000000000000000000000000815260206004820152601b60248201527f536166654d6174683a206164646974696f6e206f766572666c6f770000000000604482015290519081900360640190fd5b60645460009060ff16156148f257604080517f08c379a000000000000000000000000000000000000000000000000000000000815260206004820152601060248201527f5061757361626c653a2070617573656400000000000000000000000000000000604482015290519081900360640190fd5b6000838152609b60205260409020546149209073ffffffffffffffffffffffffffffffffffffffff16614e9c565b61498b57604080517f08c379a000000000000000000000000000000000000000000000000000000000815260206004820152601460248201527f496e76616c696420746f6b656e2073796d626f6c000000000000000000000000604482015290519081900360640190fd5b6000838152609b6020526040902060018101548311614a0b57604080517f08c379a000000000000000000000000000000000000000000000000000000000815260206004820152601b60248201527f436f6c6c61746572616c20616d6f756e7420746f6f20736d616c6c0000000000604482015290519081900360640190fd5b600381015460ff1615614a7f57604080517f08c379a000000000000000000000000000000000000000000000000000000000815260206004820152601460248201527f5468697320746f6b656e20697320636c6f736564000000000000000000000000604482015290519081900360640190fd5b6000848152609b60209081526040918290205482517f70a0823100000000000000000000000000000000000000000000000000000000815273ffffffffffffffffffffffffffffffffffffffff898116600483015293519390911692869284926370a082319260248083019392829003018186803b158015614b0057600080fd5b505afa158015614b14573d6000803e3d6000fd5b505050506040513d6020811015614b2a57600080fd5b50511015614b9957604080517f08c379a000000000000000000000000000000000000000000000000000000000815260206004820152601460248201527f696e73756666696369656e742062616c616e6365000000000000000000000000604482015290519081900360640190fd5b604080517fdd62ed3e00000000000000000000000000000000000000000000000000000000815273ffffffffffffffffffffffffffffffffffffffff88811660048301523060248301529151869284169163dd62ed3e916044808301926020929190829003018186803b158015614c0f57600080fd5b505afa158015614c23573d6000803e3d6000fd5b505050506040513d6020811015614c3957600080fd5b50511015614c92576040517f08c379a000000000000000000000000000000000000000000000000000000000815260040180806020018281038252603081526020018061564a6030913960400191505060405180910390fd5b604080517f23b872dd00000000000000000000000000000000000000000000000000000000815273ffffffffffffffffffffffffffffffffffffffff8881166004830152306024830152604482018790529151918316916323b872dd916064808201926020929091908290030181600087803b158015614d1157600080fd5b505af1158015614d25573d6000803e3d6000fd5b505050506040513d6020811015614d3b57600080fd5b505073ffffffffffffffffffffffffffffffffffffffff86166000908152609d60209081526040808320888452909152902054614d789085614809565b73ffffffffffffffffffffffffffffffffffffffff87166000908152609d602090815260408083208984529091529020556002820154614db89085614809565b600283015573ffffffffffffffffffffffffffffffffffffffff86166000818152609d602090815260408083208984528252918290205482519384529083018890528282018790526060830152517fe25398ee94a2ec2dde5992b338a76ddd3a7af4d596cf2d00feba7770b31de2999181900360800190a150600195945050505050565b60006140cd82614e5485670de0b6b3a7640000615372565b906153e5565b60006140cd83836040518060400160405280601e81526020017f536166654d6174683a207375627472616374696f6e206f766572666c6f770000815250615427565b3b151590565b6000670de0b6b3a7640000614eb78484615372565b81614ebe57fe5b049392505050565b600084811a60f81b7fff0000000000000000000000000000000000000000000000000000000000000016614f5b57604080517f08c379a000000000000000000000000000000000000000000000000000000000815260206004820152601360248201527f73796d626f6c2063616e6e6f7420656d70747900000000000000000000000000604482015290519081900360640190fd5b7f4554480000000000000000000000000000000000000000000000000000000000851415614fea57604080517f08c379a000000000000000000000000000000000000000000000000000000000815260206004820152601560248201527f45544820697320757365642062792073797374656d0000000000000000000000604482015290519081900360640190fd5b73ffffffffffffffffffffffffffffffffffffffff841661506c57604080517f08c379a000000000000000000000000000000000000000000000000000000000815260206004820152601960248201527f746f6b656e20616464726573732063616e6e6f74207a65726f00000000000000604482015290519081900360640190fd5b61508b8473ffffffffffffffffffffffffffffffffffffffff16614e9c565b6150f657604080517f08c379a000000000000000000000000000000000000000000000000000000000815260206004820152601f60248201527f746f6b656e2061646472657373206973206e6f74206120636f6e747261637400604482015290519081900360640190fd5b6000858152609b602052604090205473ffffffffffffffffffffffffffffffffffffffff1661515557609c80546001810182556000919091527faf85b9071dfafeac1409d3f1d19bafc9bc7c37974cde8df0ee6168f0086e539c018590555b6000609b600087815260200190815260200160002060020154905060405180608001604052808673ffffffffffffffffffffffffffffffffffffffff168152602001858152602001828152602001841515815250609b600088815260200190815260200160002060008201518160000160006101000a81548173ffffffffffffffffffffffffffffffffffffffff021916908373ffffffffffffffffffffffffffffffffffffffff160217905550602082015181600101556040820151816002015560608201518160030160006101000a81548160ff0219169083151502179055509050507fb8ccd92c8fb24731fb4c076a82ecc0f1ff41af213ec928f550aa42fa8e5aee8c86868686604051808581526020018473ffffffffffffffffffffffffffffffffffffffff168152602001838152602001821515815260200194505050505060405180910390a150600195945050505050565b7f5348554d000000000000000000000000000000000000000000000000000000008114615325576040517f08c379a000000000000000000000000000000000000000000000000000000000815260040180806020018281038252602c81526020018061558b602c913960400191505060405180910390fd5b610dab827f5348554d00000000000000000000000000000000000000000000000000000000615353856133c2565b61428c565b600081831061536757816140cd565b5090919050565b3390565b60008261538157506000612073565b8282028284828161538e57fe5b04146140cd576040517f08c379a00000000000000000000000000000000000000000000000000000000081526004018080602001828103825260218152602001806157966021913960400191505060405180910390fd5b60006140cd83836040518060400160405280601a81526020017f536166654d6174683a206469766973696f6e206279207a65726f0000000000008152506154d8565b600081848411156154d0576040517f08c379a00000000000000000000000000000000000000000000000000000000081526004018080602001828103825283818151815260200191508051906020019080838360005b8381101561549557818101518382015260200161547d565b50505050905090810190601f1680156154c25780820380516001836020036101000a031916815260200191505b509250505060405180910390fd5b505050900390565b60008183615541576040517f08c379a000000000000000000000000000000000000000000000000000000000815260206004820181815283516024840152835190928392604490910191908501908083836000831561549557818101518382015260200161547d565b50600083858161554d57fe5b049594505050505056fe5368756d436f6c6c61746572616c53797374656d3a20436f6c6c61746572616c20616d6f756e74206d757374206265203e20305368756d436f6c6c61746572616c53797374656d3a206f6e6c79205368756d20697320737570706f727465647472616e7366657246726f6d28616464726573732c616464726573732c75696e74323536295368756d4275696c644275726e53797374656d2061646472657373206e6f742076616c69645368756d5265776172644c6f636b65722061646472657373206e6f742076616c69645368756d436f6c6c61746572616c53797374656d3a206e6f7420726577617264206c6f636b6572696e73756666696369656e7420616c6c6f77616e63652c206e65656420617070726f7665206d6f726520616d6f756e745368756d436f6c6c61746572616c53797374656d3a20496e76616c696420746f6b656e2073796d626f6c5368756d436f6c6c61746572616c53797374656d3a207a65726f20616d6f756e745368756d41646d696e5570677261646561626c653a206f6e6c792074686520636f6e74726163742061646d696e2063616e20706572666f726d207468697320616374696f6e496e697469616c697a61626c653a20636f6e747261637420697320616c726561647920696e697469616c697a65645368756d436f6c6c61746572616c53797374656d3a205573657220616464726573732063616e6e6f74206265207a65726f5368756d436f6c6c61746572616c53797374656d3a20696e73756666696369656e7420636f6c6c61746572616c536166654d6174683a206d756c7469706c69636174696f6e206f766572666c6f775368756d436f6c6c61746572616c53797374656d3a206e6f74206c69717569646174696f6e5368756d41646d696e5570677261646561626c653a206f6e6c792063616e6469646174652063616e206265636f6d652061646d696e5368756d4c69717569646174696f6e2061646472657373206e6f742076616c69645472616e7366657248656c7065723a207472616e7366657246726f6d206661696c65645368756d41646d696e5570677261646561626c653a207a65726f2061646472657373a264697066735822122096f85922f28be24d0976235306c2e85105df26dc0a113ffd7d7a8352223d399a64736f6c634300060c0033",
  "linkReferences": {},
  "deployedLinkReferences": {}
}