{
  "_format": "hh-sol-artifact-1",
  "contractName": "ShumConfig",
  "sourceName": "contracts/ShumConfig.sol",
  "abi": [
    {
      "anonymous": false,
      "inputs": [
        {
          "indexed": false,
          "internalType": "address",
          "name": "oldAdmin",
          "type": "address"
        },
        {
          "indexed": false,
          "internalType": "address",
          "name": "newAdmin",
          "type": "address"
        }
      ],
      "name": "AdminChanged",
      "type": "event"
    },
    {
      "anonymous": false,
      "inputs": [
        {
          "indexed": false,
          "internalType": "address",
          "name": "oldCandidate",
          "type": "address"
        },
        {
          "indexed": false,
          "internalType": "address",
          "name": "newCandidate",
          "type": "address"
        }
      ],
      "name": "CandidateChanged",
      "type": "event"
    },
    {
      "anonymous": false,
      "inputs": [
        {
          "indexed": false,
          "internalType": "bytes32",
          "name": "key",
          "type": "bytes32"
        },
        {
          "indexed": false,
          "internalType": "uint256",
          "name": "value",
          "type": "uint256"
        }
      ],
      "name": "SetUintConfig",
      "type": "event"
    },
    {
      "inputs": [],
      "name": "BUILD_RATIO",
      "outputs": [
        {
          "internalType": "bytes32",
          "name": "",
          "type": "bytes32"
        }
      ],
      "stateMutability": "view",
      "type": "function"
    },
    {
      "inputs": [
        {
          "internalType": "address",
          "name": "_admin",
          "type": "address"
        }
      ],
      "name": "__ShumAdminUpgradeable_init",
      "outputs": [],
      "stateMutability": "nonpayable",
      "type": "function"
    },
    {
      "inputs": [
        {
          "internalType": "address",
          "name": "_admin",
          "type": "address"
        }
      ],
      "name": "__ShumConfig_init",
      "outputs": [],
      "stateMutability": "nonpayable",
      "type": "function"
    },
    {
      "inputs": [],
      "name": "admin",
      "outputs": [
        {
          "internalType": "address",
          "name": "",
          "type": "address"
        }
      ],
      "stateMutability": "view",
      "type": "function"
    },
    {
      "inputs": [
        {
          "internalType": "bytes32[]",
          "name": "names",
          "type": "bytes32[]"
        },
        {
          "internalType": "uint256[]",
          "name": "values",
          "type": "uint256[]"
        }
      ],
      "name": "batchSet",
      "outputs": [],
      "stateMutability": "nonpayable",
      "type": "function"
    },
    {
      "inputs": [],
      "name": "becomeAdmin",
      "outputs": [],
      "stateMutability": "nonpayable",
      "type": "function"
    },
    {
      "inputs": [],
      "name": "candidate",
      "outputs": [
        {
          "internalType": "address",
          "name": "",
          "type": "address"
        }
      ],
      "stateMutability": "view",
      "type": "function"
    },
    {
      "inputs": [
        {
          "internalType": "bytes32",
          "name": "key",
          "type": "bytes32"
        }
      ],
      "name": "deleteUint",
      "outputs": [],
      "stateMutability": "nonpayable",
      "type": "function"
    },
    {
      "inputs": [
        {
          "internalType": "bytes32",
          "name": "key",
          "type": "bytes32"
        }
      ],
      "name": "getUint",
      "outputs": [
        {
          "internalType": "uint256",
          "name": "",
          "type": "uint256"
        }
      ],
      "stateMutability": "view",
      "type": "function"
    },
    {
      "inputs": [
        {
          "internalType": "address",
          "name": "_candidate",
          "type": "address"
        }
      ],
      "name": "setCandidate",
      "outputs": [],
      "stateMutability": "nonpayable",
      "type": "function"
    },
    {
      "inputs": [
        {
          "internalType": "bytes32",
          "name": "key",
          "type": "bytes32"
        },
        {
          "internalType": "uint256",
          "name": "value",
          "type": "uint256"
        }
      ],
      "name": "setUint",
      "outputs": [],
      "stateMutability": "nonpayable",
      "type": "function"
    }
  ],
  "bytecode": "0x608060405234801561001057600080fd5b50610ca9806100206000396000f3fe608060405234801561001057600080fd5b50600436106100c95760003560e01c80636c8381f811610081578063e2a4853a1161005b578063e2a4853a1461029b578063e2b202bf146102be578063f851a440146102db576100c9565b80636c8381f81461021a57806389be01961461024b578063bd02d0f51461027e576100c9565b806325971dff116100b257806325971dff146101365780634d6daf041461013e57806362b12feb14610158576100c9565b806307880b7f146100ce5780631733c9c814610103575b600080fd5b610101600480360360208110156100e457600080fd5b503573ffffffffffffffffffffffffffffffffffffffff166102e3565b005b6101016004803603602081101561011957600080fd5b503573ffffffffffffffffffffffffffffffffffffffff166103e0565b6101016105e6565b6101466106ec565b60408051918252519081900360200190f35b6101016004803603604081101561016e57600080fd5b81019060208101813564010000000081111561018957600080fd5b82018360208201111561019b57600080fd5b803590602001918460208302840111640100000000831117156101bd57600080fd5b9193909290916020810190356401000000008111156101db57600080fd5b8201836020820111156101ed57600080fd5b8035906020019184602083028401116401000000008311171561020f57600080fd5b509092509050610710565b6102226108a9565b6040805173ffffffffffffffffffffffffffffffffffffffff9092168252519081900360200190f35b6101016004803603602081101561026157600080fd5b503573ffffffffffffffffffffffffffffffffffffffff166108c5565b6101466004803603602081101561029457600080fd5b50356109e2565b610101600480360360408110156102b157600080fd5b50803590602001356109f4565b610101600480360360208110156102d457600080fd5b5035610abb565b610222610b81565b60005462010000900473ffffffffffffffffffffffffffffffffffffffff163314610359576040517f08c379a0000000000000000000000000000000000000000000000000000000008152600401808060200182810382526045815260200180610baa6045913960600191505060405180910390fd5b6001805473ffffffffffffffffffffffffffffffffffffffff8381167fffffffffffffffffffffffff0000000000000000000000000000000000000000831617928390556040805192821680845293909116602083015280517f7f730391c4f0fa1bea34bcb9bff8c30a079b21a0359759160cb990648ab84c729281900390910190a15050565b600054610100900460ff16806103f957506103f9610ba3565b80610407575060005460ff16155b61045c576040517f08c379a000000000000000000000000000000000000000000000000000000000815260040180806020018281038252602e815260200180610bef602e913960400191505060405180910390fd5b600054610100900460ff161580156104c257600080547fffffffffffffffffffffffffffffffffffffffffffffffffffffffffffffff007fffffffffffffffffffffffffffffffffffffffffffffffffffffffffffff00ff909116610100171660011790555b73ffffffffffffffffffffffffffffffffffffffff821661052e576040517f08c379a0000000000000000000000000000000000000000000000000000000008152600401808060200182810382526022815260200180610c526022913960400191505060405180910390fd5b600080547fffffffffffffffffffff0000000000000000000000000000000000000000ffff166201000073ffffffffffffffffffffffffffffffffffffffff851690810291909117825560408051928352602083019190915280517f7e644d79422f17c01e4894b5f4f588d331ebfa28653d42ae832dc59e38c9798f9281900390910190a180156105e257600080547fffffffffffffffffffffffffffffffffffffffffffffffffffffffffffff00ff1690555b5050565b60015473ffffffffffffffffffffffffffffffffffffffff163314610656576040517f08c379a0000000000000000000000000000000000000000000000000000000008152600401808060200182810382526035815260200180610c1d6035913960400191505060405180910390fd5b6000805460015473ffffffffffffffffffffffffffffffffffffffff908116620100009081027fffffffffffffffffffff0000000000000000000000000000000000000000ffff8416179384905560408051938290048316808552919094049091166020830152825190927f7e644d79422f17c01e4894b5f4f588d331ebfa28653d42ae832dc59e38c9798f928290030190a150565b7f4275696c64526174696f0000000000000000000000000000000000000000000081565b60005462010000900473ffffffffffffffffffffffffffffffffffffffff163314610786576040517f08c379a0000000000000000000000000000000000000000000000000000000008152600401808060200182810382526045815260200180610baa6045913960600191505060405180910390fd5b8281146107f457604080517f08c379a000000000000000000000000000000000000000000000000000000000815260206004820152601860248201527f496e707574206c656e67746873206d757374206d617463680000000000000000604482015290519081900360640190fd5b60005b838110156108a25782828281811061080b57fe5b905060200201356032600087878581811061082257fe5b905060200201358152602001908152602001600020819055507f7a94ff4a6f535d3c32d95ee8133406802cfc54b8a1e2b2221bc78df903b40c2585858381811061086857fe5b9050602002013584848481811061087b57fe5b604080519485526020918202939093013590840152508051918290030190a16001016107f7565b5050505050565b60015473ffffffffffffffffffffffffffffffffffffffff1681565b600054610100900460ff16806108de57506108de610ba3565b806108ec575060005460ff16155b610941576040517f08c379a000000000000000000000000000000000000000000000000000000000815260040180806020018281038252602e815260200180610bef602e913960400191505060405180910390fd5b600054610100900460ff161580156109a757600080547fffffffffffffffffffffffffffffffffffffffffffffffffffffffffffffff007fffffffffffffffffffffffffffffffffffffffffffffffffffffffffffff00ff909116610100171660011790555b6109b0826103e0565b80156105e257600080547fffffffffffffffffffffffffffffffffffffffffffffffffffffffffffff00ff1690555050565b60009081526032602052604090205490565b60005462010000900473ffffffffffffffffffffffffffffffffffffffff163314610a6a576040517f08c379a0000000000000000000000000000000000000000000000000000000008152600401808060200182810382526045815260200180610baa6045913960600191505060405180910390fd5b600082815260326020908152604091829020839055815184815290810183905281517f7a94ff4a6f535d3c32d95ee8133406802cfc54b8a1e2b2221bc78df903b40c25929181900390910190a15050565b60005462010000900473ffffffffffffffffffffffffffffffffffffffff163314610b31576040517f08c379a0000000000000000000000000000000000000000000000000000000008152600401808060200182810382526045815260200180610baa6045913960600191505060405180910390fd5b600081815260326020908152604080832083905580518481529182019290925281517f7a94ff4a6f535d3c32d95ee8133406802cfc54b8a1e2b2221bc78df903b40c25929181900390910190a150565b60005462010000900473ffffffffffffffffffffffffffffffffffffffff1681565b303b159056fe5368756d41646d696e5570677261646561626c653a206f6e6c792074686520636f6e74726163742061646d696e2063616e20706572666f726d207468697320616374696f6e496e697469616c697a61626c653a20636f6e747261637420697320616c726561647920696e697469616c697a65645368756d41646d696e5570677261646561626c653a206f6e6c792063616e6469646174652063616e206265636f6d652061646d696e5368756d41646d696e5570677261646561626c653a207a65726f2061646472657373a2646970667358221220fe8f5e9cca0c4cf96dd7a2ee7dd86d5ff0c87c04c15020d7a3269ef00d0e0e1464736f6c634300060c0033",
  "linkReferences": {},
  "deployedLinkReferences": {}
}