{
  "_format": "hh-sol-artifact-1",
  "contractName": "ShumExchangeSystem",
  "sourceName": "contracts/ShumExchangeSystem.sol",
  "abi": [
    {
      "anonymous": false,
      "inputs": [
        {
          "indexed": false,
          "internalType": "address",
          "name": "oldAdmin",
          "type": "address"
        },
        {
          "indexed": false,
          "internalType": "address",
          "name": "newAdmin",
          "type": "address"
        }
      ],
      "name": "AdminChanged",
      "type": "event"
    },
    {
      "anonymous": false,
      "inputs": [
        {
          "indexed": false,
          "internalType": "bytes32",
          "name": "name",
          "type": "bytes32"
        },
        {
          "indexed": false,
          "internalType": "address",
          "name": "addr",
          "type": "address"
        }
      ],
      "name": "CachedAddressUpdated",
      "type": "event"
    },
    {
      "anonymous": false,
      "inputs": [
        {
          "indexed": false,
          "internalType": "address",
          "name": "oldCandidate",
          "type": "address"
        },
        {
          "indexed": false,
          "internalType": "address",
          "name": "newCandidate",
          "type": "address"
        }
      ],
      "name": "CandidateChanged",
      "type": "event"
    },
    {
      "anonymous": false,
      "inputs": [
        {
          "indexed": false,
          "internalType": "address",
          "name": "fromAddr",
          "type": "address"
        },
        {
          "indexed": false,
          "internalType": "bytes32",
          "name": "sourceKey",
          "type": "bytes32"
        },
        {
          "indexed": false,
          "internalType": "uint256",
          "name": "sourceAmount",
          "type": "uint256"
        },
        {
          "indexed": false,
          "internalType": "address",
          "name": "destAddr",
          "type": "address"
        },
        {
          "indexed": false,
          "internalType": "bytes32",
          "name": "destKey",
          "type": "bytes32"
        },
        {
          "indexed": false,
          "internalType": "uint256",
          "name": "destRecived",
          "type": "uint256"
        },
        {
          "indexed": false,
          "internalType": "uint256",
          "name": "feeForPool",
          "type": "uint256"
        },
        {
          "indexed": false,
          "internalType": "uint256",
          "name": "feeForFoundation",
          "type": "uint256"
        }
      ],
      "name": "ExchangeAsset",
      "type": "event"
    },
    {
      "anonymous": false,
      "inputs": [
        {
          "indexed": false,
          "internalType": "bool",
          "name": "oldValue",
          "type": "bool"
        },
        {
          "indexed": false,
          "internalType": "bool",
          "name": "newValue",
          "type": "bool"
        }
      ],
      "name": "ExitPositionOnlyChanged",
      "type": "event"
    },
    {
      "anonymous": false,
      "inputs": [
        {
          "indexed": false,
          "internalType": "address",
          "name": "oldHolder",
          "type": "address"
        },
        {
          "indexed": false,
          "internalType": "address",
          "name": "newHolder",
          "type": "address"
        }
      ],
      "name": "FoundationFeeHolderChanged",
      "type": "event"
    },
    {
      "anonymous": false,
      "inputs": [
        {
          "indexed": false,
          "internalType": "uint256",
          "name": "id",
          "type": "uint256"
        },
        {
          "indexed": false,
          "internalType": "address",
          "name": "fromAddr",
          "type": "address"
        },
        {
          "indexed": false,
          "internalType": "address",
          "name": "destAddr",
          "type": "address"
        },
        {
          "indexed": false,
          "internalType": "uint256",
          "name": "fromAmount",
          "type": "uint256"
        },
        {
          "indexed": false,
          "internalType": "bytes32",
          "name": "fromCurrency",
          "type": "bytes32"
        },
        {
          "indexed": false,
          "internalType": "bytes32",
          "name": "toCurrency",
          "type": "bytes32"
        }
      ],
      "name": "PendingExchangeAdded",
      "type": "event"
    },
    {
      "anonymous": false,
      "inputs": [
        {
          "indexed": false,
          "internalType": "uint256",
          "name": "id",
          "type": "uint256"
        }
      ],
      "name": "PendingExchangeReverted",
      "type": "event"
    },
    {
      "anonymous": false,
      "inputs": [
        {
          "indexed": false,
          "internalType": "uint256",
          "name": "id",
          "type": "uint256"
        },
        {
          "indexed": false,
          "internalType": "address",
          "name": "settler",
          "type": "address"
        },
        {
          "indexed": false,
          "internalType": "uint256",
          "name": "destRecived",
          "type": "uint256"
        },
        {
          "indexed": false,
          "internalType": "uint256",
          "name": "feeForPool",
          "type": "uint256"
        },
        {
          "indexed": false,
          "internalType": "uint256",
          "name": "feeForFoundation",
          "type": "uint256"
        }
      ],
      "name": "PendingExchangeSettled",
      "type": "event"
    },
    {
      "inputs": [
        {
          "internalType": "address",
          "name": "_admin",
          "type": "address"
        }
      ],
      "name": "__ShumAdminUpgradeable_init",
      "outputs": [],
      "stateMutability": "nonpayable",
      "type": "function"
    },
    {
      "inputs": [
        {
          "internalType": "address",
          "name": "_admin",
          "type": "address"
        }
      ],
      "name": "__ShumExchangeSystem_init",
      "outputs": [],
      "stateMutability": "nonpayable",
      "type": "function"
    },
    {
      "inputs": [],
      "name": "admin",
      "outputs": [
        {
          "internalType": "address",
          "name": "",
          "type": "address"
        }
      ],
      "stateMutability": "view",
      "type": "function"
    },
    {
      "inputs": [],
      "name": "becomeAdmin",
      "outputs": [],
      "stateMutability": "nonpayable",
      "type": "function"
    },
    {
      "inputs": [],
      "name": "candidate",
      "outputs": [
        {
          "internalType": "address",
          "name": "",
          "type": "address"
        }
      ],
      "stateMutability": "view",
      "type": "function"
    },
    {
      "inputs": [
        {
          "internalType": "bytes32",
          "name": "sourceKey",
          "type": "bytes32"
        },
        {
          "internalType": "uint256",
          "name": "sourceAmount",
          "type": "uint256"
        },
        {
          "internalType": "address",
          "name": "destAddr",
          "type": "address"
        },
        {
          "internalType": "bytes32",
          "name": "destKey",
          "type": "bytes32"
        }
      ],
      "name": "exchange",
      "outputs": [],
      "stateMutability": "nonpayable",
      "type": "function"
    },
    {
      "inputs": [],
      "name": "exitPositionOnly",
      "outputs": [
        {
          "internalType": "bool",
          "name": "",
          "type": "bool"
        }
      ],
      "stateMutability": "view",
      "type": "function"
    },
    {
      "inputs": [],
      "name": "lastPendingExchangeEntryId",
      "outputs": [
        {
          "internalType": "uint256",
          "name": "",
          "type": "uint256"
        }
      ],
      "stateMutability": "view",
      "type": "function"
    },
    {
      "inputs": [
        {
          "internalType": "uint256",
          "name": "",
          "type": "uint256"
        }
      ],
      "name": "pendingExchangeEntries",
      "outputs": [
        {
          "internalType": "uint64",
          "name": "id",
          "type": "uint64"
        },
        {
          "internalType": "uint64",
          "name": "timestamp",
          "type": "uint64"
        },
        {
          "internalType": "address",
          "name": "fromAddr",
          "type": "address"
        },
        {
          "internalType": "address",
          "name": "destAddr",
          "type": "address"
        },
        {
          "internalType": "uint256",
          "name": "fromAmount",
          "type": "uint256"
        },
        {
          "internalType": "bytes32",
          "name": "fromCurrency",
          "type": "bytes32"
        },
        {
          "internalType": "bytes32",
          "name": "toCurrency",
          "type": "bytes32"
        }
      ],
      "stateMutability": "view",
      "type": "function"
    },
    {
      "inputs": [
        {
          "internalType": "uint256",
          "name": "pendingExchangeEntryId",
          "type": "uint256"
        }
      ],
      "name": "revert",
      "outputs": [],
      "stateMutability": "nonpayable",
      "type": "function"
    },
    {
      "inputs": [
        {
          "internalType": "address",
          "name": "_candidate",
          "type": "address"
        }
      ],
      "name": "setCandidate",
      "outputs": [],
      "stateMutability": "nonpayable",
      "type": "function"
    },
    {
      "inputs": [
        {
          "internalType": "bool",
          "name": "newValue",
          "type": "bool"
        }
      ],
      "name": "setExitPositionOnly",
      "outputs": [],
      "stateMutability": "nonpayable",
      "type": "function"
    },
    {
      "inputs": [
        {
          "internalType": "address",
          "name": "_foundationFeeHolder",
          "type": "address"
        }
      ],
      "name": "setFoundationFeeHolder",
      "outputs": [],
      "stateMutability": "nonpayable",
      "type": "function"
    },
    {
      "inputs": [
        {
          "internalType": "uint256",
          "name": "pendingExchangeEntryId",
          "type": "uint256"
        }
      ],
      "name": "settle",
      "outputs": [],
      "stateMutability": "nonpayable",
      "type": "function"
    },
    {
      "inputs": [
        {
          "internalType": "contract IShumAddressStorage",
          "name": "_addressStorage",
          "type": "address"
        }
      ],
      "name": "updateAddressCache",
      "outputs": [],
      "stateMutability": "nonpayable",
      "type": "function"
    }
  ],
  "bytecode": "0x608060405234801561001057600080fd5b5061336e806100206000396000f3fe608060405234801561001057600080fd5b50600436106100f55760003560e01c8063896bd9a211610097578063cd5d72be11610066578063cd5d72be1461032d578063d8d41a6414610347578063f851a44014610366578063fcc903071461036e576100f5565b8063896bd9a21461021d5780638df8280014610298578063a742ca02146102b5578063bdf4480e146102fa576100f5565b806334938187116100d3578063349381871461016a5780635a5f14c8146101865780636c8381f8146101b957806378ebc0be146101ea576100f5565b806307880b7f146100fa5780631733c9c81461012f57806325971dff14610162575b600080fd5b61012d6004803603602081101561011057600080fd5b503573ffffffffffffffffffffffffffffffffffffffff1661038b565b005b61012d6004803603602081101561014557600080fd5b503573ffffffffffffffffffffffffffffffffffffffff16610488565b61012d61068e565b610172610794565b604080519115158252519081900360200190f35b61012d6004803603602081101561019c57600080fd5b503573ffffffffffffffffffffffffffffffffffffffff166107b5565b6101c1610dca565b6040805173ffffffffffffffffffffffffffffffffffffffff9092168252519081900360200190f35b61012d6004803603602081101561020057600080fd5b503573ffffffffffffffffffffffffffffffffffffffff16610de6565b61023a6004803603602081101561023357600080fd5b5035610fd9565b6040805167ffffffffffffffff988916815296909716602087015273ffffffffffffffffffffffffffffffffffffffff94851686880152929093166060850152608084015260a083019190915260c082015290519081900360e00190f35b61012d600480360360208110156102ae57600080fd5b5035611040565b61012d600480360360808110156102cb57600080fd5b5080359060208101359073ffffffffffffffffffffffffffffffffffffffff604082013516906060013561104d565b61012d6004803603602081101561031057600080fd5b503573ffffffffffffffffffffffffffffffffffffffff16611060565b61033561117d565b60408051918252519081900360200190f35b61012d6004803603602081101561035d57600080fd5b50351515611183565b6101c1611306565b61012d6004803603602081101561038457600080fd5b5035611328565b60005462010000900473ffffffffffffffffffffffffffffffffffffffff163314610401576040517f08c379a00000000000000000000000000000000000000000000000000000000081526004018080602001828103825260458152602001806130d86045913960600191505060405180910390fd5b6001805473ffffffffffffffffffffffffffffffffffffffff8381167fffffffffffffffffffffffff0000000000000000000000000000000000000000831617928390556040805192821680845293909116602083015280517f7f730391c4f0fa1bea34bcb9bff8c30a079b21a0359759160cb990648ab84c729281900390910190a15050565b600054610100900460ff16806104a157506104a1611332565b806104af575060005460ff16155b610504576040517f08c379a000000000000000000000000000000000000000000000000000000000815260040180806020018281038252602e81526020018061311d602e913960400191505060405180910390fd5b600054610100900460ff1615801561056a57600080547fffffffffffffffffffffffffffffffffffffffffffffffffffffffffffffff007fffffffffffffffffffffffffffffffffffffffffffffffffffffffffffff00ff909116610100171660011790555b73ffffffffffffffffffffffffffffffffffffffff82166105d6576040517f08c379a00000000000000000000000000000000000000000000000000000000081526004018080602001828103825260228152602001806133176022913960400191505060405180910390fd5b600080547fffffffffffffffffffff0000000000000000000000000000000000000000ffff166201000073ffffffffffffffffffffffffffffffffffffffff851690810291909117825560408051928352602083019190915280517f7e644d79422f17c01e4894b5f4f588d331ebfa28653d42ae832dc59e38c9798f9281900390910190a1801561068a57600080547fffffffffffffffffffffffffffffffffffffffffffffffffffffffffffff00ff1690555b5050565b60015473ffffffffffffffffffffffffffffffffffffffff1633146106fe576040517f08c379a00000000000000000000000000000000000000000000000000000000081526004018080602001828103825260358152602001806132136035913960400191505060405180910390fd5b6000805460015473ffffffffffffffffffffffffffffffffffffffff908116620100009081027fffffffffffffffffffff0000000000000000000000000000000000000000ffff8416179384905560408051938290048316808552919094049091166020830152825190927f7e644d79422f17c01e4894b5f4f588d331ebfa28653d42ae832dc59e38c9798f928290030190a150565b60365474010000000000000000000000000000000000000000900460ff1681565b60005462010000900473ffffffffffffffffffffffffffffffffffffffff16331461082b576040517f08c379a00000000000000000000000000000000000000000000000000000000081526004018080602001828103825260458152602001806130d86045913960600191505060405180910390fd5b604080517f768911da0000000000000000000000000000000000000000000000000000000081527f5368756d417373657453797374656d000000000000000000000000000000000060048201526024810182905260006044820152905173ffffffffffffffffffffffffffffffffffffffff83169163768911da916084808301926020929190829003018186803b1580156108c557600080fd5b505afa1580156108d9573d6000803e3d6000fd5b505050506040513d60208110156108ef57600080fd5b5051603280547fffffffffffffffffffffffff00000000000000000000000000000000000000001673ffffffffffffffffffffffffffffffffffffffff928316179055604080517f768911da0000000000000000000000000000000000000000000000000000000081527f5368756d507269636573000000000000000000000000000000000000000000006004820152602481018290526000604482015290519183169163768911da91608480820192602092909190829003018186803b1580156109b957600080fd5b505afa1580156109cd573d6000803e3d6000fd5b505050506040513d60208110156109e357600080fd5b5051603380547fffffffffffffffffffffffff00000000000000000000000000000000000000001673ffffffffffffffffffffffffffffffffffffffff928316179055604080517f768911da0000000000000000000000000000000000000000000000000000000081527f5368756d436f6e666967000000000000000000000000000000000000000000006004820152602481018290526000604482015290519183169163768911da91608480820192602092909190829003018186803b158015610aad57600080fd5b505afa158015610ac1573d6000803e3d6000fd5b505050506040513d6020811015610ad757600080fd5b5051603480547fffffffffffffffffffffffff00000000000000000000000000000000000000001673ffffffffffffffffffffffffffffffffffffffff928316179055604080517f768911da0000000000000000000000000000000000000000000000000000000081527f5368756d52657761726453797374656d000000000000000000000000000000006004820152602481018290526000604482015290519183169163768911da91608480820192602092909190829003018186803b158015610ba157600080fd5b505afa158015610bb5573d6000803e3d6000fd5b505050506040513d6020811015610bcb57600080fd5b5051603580547fffffffffffffffffffffffff00000000000000000000000000000000000000001673ffffffffffffffffffffffffffffffffffffffff928316179055603254604080517f5368756d417373657453797374656d0000000000000000000000000000000000815291909216602082015281517f17b158864f8c520aff3282c940ec6a731d26235b9b00b651c0dd1dafb3170f5f929181900390910190a1603354604080517f5368756d50726963657300000000000000000000000000000000000000000000815273ffffffffffffffffffffffffffffffffffffffff909216602083015280517f17b158864f8c520aff3282c940ec6a731d26235b9b00b651c0dd1dafb3170f5f9281900390910190a1603454604080517f5368756d436f6e66696700000000000000000000000000000000000000000000815273ffffffffffffffffffffffffffffffffffffffff909216602083015280517f17b158864f8c520aff3282c940ec6a731d26235b9b00b651c0dd1dafb3170f5f9281900390910190a1603554604080517f5368756d52657761726453797374656d00000000000000000000000000000000815273ffffffffffffffffffffffffffffffffffffffff909216602083015280517f17b158864f8c520aff3282c940ec6a731d26235b9b00b651c0dd1dafb3170f5f9281900390910190a150565b60015473ffffffffffffffffffffffffffffffffffffffff1681565b60005462010000900473ffffffffffffffffffffffffffffffffffffffff163314610e5c576040517f08c379a00000000000000000000000000000000000000000000000000000000081526004018080602001828103825260458152602001806130d86045913960600191505060405180910390fd5b73ffffffffffffffffffffffffffffffffffffffff8116610ede57604080517f08c379a000000000000000000000000000000000000000000000000000000000815260206004820181905260248201527f5368756d45786368616e676553797374656d3a207a65726f2061646472657373604482015290519081900360640190fd5b60365473ffffffffffffffffffffffffffffffffffffffff82811691161415610f52576040517f08c379a000000000000000000000000000000000000000000000000000000000815260040180806020018281038252603581526020018061304d6035913960400191505060405180910390fd5b6036805473ffffffffffffffffffffffffffffffffffffffff8381167fffffffffffffffffffffffff0000000000000000000000000000000000000000831617928390556040805192821680845293909116602083015280517fcabde22613e39ed1c8b90350ad1ae3add701158bdb714ad20f957a66e46603f99281900390910190a15050565b60386020526000908152604090208054600182015460028301546003840154600485015460059095015467ffffffffffffffff8086169668010000000000000000909604169473ffffffffffffffffffffffffffffffffffffffff94851694909316929087565b61104a8133611338565b50565b61105a338585858561223f565b50505050565b600054610100900460ff16806110795750611079611332565b80611087575060005460ff16155b6110dc576040517f08c379a000000000000000000000000000000000000000000000000000000000815260040180806020018281038252602e81526020018061311d602e913960400191505060405180910390fd5b600054610100900460ff1615801561114257600080547fffffffffffffffffffffffffffffffffffffffffffffffffffffffffffffff007fffffffffffffffffffffffffffffffffffffffffffffffffffffffffffff00ff909116610100171660011790555b61114b82610488565b801561068a57600080547fffffffffffffffffffffffffffffffffffffffffffffffffffffffffffff00ff1690555050565b60375481565b60005462010000900473ffffffffffffffffffffffffffffffffffffffff1633146111f9576040517f08c379a00000000000000000000000000000000000000000000000000000000081526004018080602001828103825260458152602001806130d86045913960600191505060405180910390fd5b60365460ff740100000000000000000000000000000000000000009091041615158115151415611274576040517f08c379a00000000000000000000000000000000000000000000000000000000081526004018080602001828103825260258152602001806131c26025913960400191505060405180910390fd5b60368054821515740100000000000000000000000000000000000000008181027fffffffffffffffffffffff00ffffffffffffffffffffffffffffffffffffffff8416179093556040805160ff949093049390931680151583526020830191909152825190927f7e8d80276f3c46ca7cf8c3fb5a8ed9b360d0a4600b9e1fe7fc994824375a93dc928290030190a15050565b60005462010000900473ffffffffffffffffffffffffffffffffffffffff1681565b61104a813361281e565b303b1590565b611340612fde565b50600082815260386020908152604091829020825160e081018452815467ffffffffffffffff808216808452680100000000000000009092041693820193909352600182015473ffffffffffffffffffffffffffffffffffffffff908116948201949094526002820154909316606084015260038101546080840152600481015460a08401526005015460c0830152611424576040517f08c379a000000000000000000000000000000000000000000000000000000000815260040180806020018281038252602b81526020018061314b602b913960400191505060405180910390fd5b603454604080517fbd02d0f50000000000000000000000000000000000000000000000000000000081527f5472616465536574746c656d656e7444656c61790000000000000000000000006004820152905160009273ffffffffffffffffffffffffffffffffffffffff169163bd02d0f5916024808301926020929190829003018186803b1580156114b557600080fd5b505afa1580156114c9573d6000803e3d6000fd5b505050506040513d60208110156114df57600080fd5b5051603454604080517fbd02d0f50000000000000000000000000000000000000000000000000000000081527f547261646552657665727444656c6179000000000000000000000000000000006004820152905192935060009273ffffffffffffffffffffffffffffffffffffffff9092169163bd02d0f591602480820192602092909190829003018186803b15801561157857600080fd5b505afa15801561158c573d6000803e3d6000fd5b505050506040513d60208110156115a257600080fd5b50519050816115fc576040517f08c379a000000000000000000000000000000000000000000000000000000000815260040180806020018281038252602c8152602001806131e7602c913960400191505060405180910390fd5b60008111611655576040517f08c379a00000000000000000000000000000000000000000000000000000000081526004018080602001828103825260288152602001806130b06028913960400191505060405180910390fd5b81836020015167ffffffffffffffff16014210156116be576040517f08c379a000000000000000000000000000000000000000000000000000000000815260040180806020018281038252602f815260200180613272602f913960400191505060405180910390fd5b80836020015167ffffffffffffffff1601421115611727576040517f08c379a000000000000000000000000000000000000000000000000000000000815260040180806020018281038252603281526020018061301b6032913960400191505060405180910390fd5b60325460a0840151604080517f768911da0000000000000000000000000000000000000000000000000000000081526004810183815260248201928352602a6044830181905260009573ffffffffffffffffffffffffffffffffffffffff169463768911da949093909160649091019061324882396040019250505060206040518083038186803b1580156117bb57600080fd5b505afa1580156117cf573d6000803e3d6000fd5b505050506040513d60208110156117e557600080fd5b505160325460c0860151604080517f768911da000000000000000000000000000000000000000000000000000000008152600481018381526024820192835260286044830181905295965060009573ffffffffffffffffffffffffffffffffffffffff9095169463768911da94939192606401906132cb82396040019250505060206040518083038186803b15801561187d57600080fd5b505afa158015611891573d6000803e3d6000fd5b505050506040513d60208110156118a757600080fd5b505160335460a0870151608088015160c0890151604080517fee52a2f30000000000000000000000000000000000000000000000000000000081526004810194909452602484019290925260448301525192935060009273ffffffffffffffffffffffffffffffffffffffff9092169163ee52a2f391606480820192602092909190829003018186803b15801561193d57600080fd5b505afa158015611951573d6000803e3d6000fd5b505050506040513d602081101561196757600080fd5b50519050806119c1576040517f08c379a00000000000000000000000000000000000000000000000000000000081526004018080602001828103825260248152602001806132f36024913960400191505060405180910390fd5b60345460c0870151604080517fbd02d0f500000000000000000000000000000000000000000000000000000000815260048101929092525160009273ffffffffffffffffffffffffffffffffffffffff169163bd02d0f5916024808301926020929190829003018186803b158015611a3857600080fd5b505afa158015611a4c573d6000803e3d6000fd5b505050506040513d6020811015611a6257600080fd5b5051604080517f907af6c00000000000000000000000000000000000000000000000000000000081529051919250600091611b1291611b0b91859173__$b8d33eeb36ac0d1e81cd70156e0043e778$__9163907af6c091600480820192602092909190829003018186803b158015611ad957600080fd5b505af4158015611aed573d6000803e3d6000fd5b505050506040513d6020811015611b0357600080fd5b505190612cb1565b8490612cfc565b90506000611b208483612cb1565b60335460c08b0151604080517f15d8eeba000000000000000000000000000000000000000000000000000000008152905193945060009373ffffffffffffffffffffffffffffffffffffffff9093169263ee52a2f39291869185916315d8eeba916004808301926020929190829003018186803b158015611ba057600080fd5b505afa158015611bb4573d6000803e3d6000fd5b505050506040513d6020811015611bca57600080fd5b5051604080517fffffffff0000000000000000000000000000000000000000000000000000000060e087901b168152600481019490945260248401929092526044830152516064808301926020929190829003018186803b158015611c2e57600080fd5b505afa158015611c42573d6000803e3d6000fd5b505050506040513d6020811015611c5857600080fd5b505160365490915060009073ffffffffffffffffffffffffffffffffffffffff16611c8557506000611d6d565b603454604080517fbd02d0f50000000000000000000000000000000000000000000000000000000081527f466f756e646174696f6e46656553706c697400000000000000000000000000006004820152905160009273ffffffffffffffffffffffffffffffffffffffff169163bd02d0f5916024808301926020929190829003018186803b158015611d1657600080fd5b505afa158015611d2a573d6000803e3d6000fd5b505050506040513d6020811015611d4057600080fd5b5051905080611d525760009150611d6b565b611d5c8382612cfc565b9150611d688383612cb1565b92505b505b603254603354604080517f15d8eeba000000000000000000000000000000000000000000000000000000008152905160009373ffffffffffffffffffffffffffffffffffffffff9081169363768911da939116916315d8eeba91600480820192602092909190829003018186803b158015611de757600080fd5b505afa158015611dfb573d6000803e3d6000fd5b505050506040513d6020811015611e1157600080fd5b5051604080517fffffffff0000000000000000000000000000000000000000000000000000000060e085901b1681526004810183815260248201928352602e604483018190529092916064019061308282396040019250505060206040518083038186803b158015611e8257600080fd5b505afa158015611e96573d6000803e3d6000fd5b505050506040513d6020811015611eac57600080fd5b505190508215611f4a57603554604080517f40c10f1900000000000000000000000000000000000000000000000000000000815273ffffffffffffffffffffffffffffffffffffffff9283166004820152602481018690529051918316916340c10f199160448082019260009290919082900301818387803b158015611f3157600080fd5b505af1158015611f45573d6000803e3d6000fd5b505050505b8115611fe457603654604080517f40c10f1900000000000000000000000000000000000000000000000000000000815273ffffffffffffffffffffffffffffffffffffffff9283166004820152602481018590529051918316916340c10f199160448082019260009290919082900301818387803b158015611fcb57600080fd5b505af1158015611fdf573d6000803e3d6000fd5b505050505b60808c0151604080517f9dc29fac00000000000000000000000000000000000000000000000000000000815230600482015260248101929092525173ffffffffffffffffffffffffffffffffffffffff8b1691639dc29fac91604480830192600092919082900301818387803b15801561205d57600080fd5b505af1158015612071573d6000803e3d6000fd5b505050508773ffffffffffffffffffffffffffffffffffffffff166340c10f198d60600151876040518363ffffffff1660e01b8152600401808373ffffffffffffffffffffffffffffffffffffffff16815260200182815260200192505050600060405180830381600087803b1580156120ea57600080fd5b505af11580156120fe573d6000803e3d6000fd5b50505050603860008f8152602001908152602001600020600080820160006101000a81549067ffffffffffffffff02191690556000820160086101000a81549067ffffffffffffffff02191690556001820160006101000a81549073ffffffffffffffffffffffffffffffffffffffff02191690556002820160006101000a81549073ffffffffffffffffffffffffffffffffffffffff021916905560038201600090556004820160009055600582016000905550507f294326ba97b3f6180491a5766b80aa7734496d7853114ebc895c767bc2ab0e468c600001518e878686604051808667ffffffffffffffff1681526020018573ffffffffffffffffffffffffffffffffffffffff1681526020018481526020018381526020018281526020019550505050505060405180910390a15050505050505050505050505050565b61227d6040518060400160405280600181526020017f3100000000000000000000000000000000000000000000000000000000000000815250612d20565b60365474010000000000000000000000000000000000000000900460ff1615612318577f73555344000000000000000000000000000000000000000000000000000000008114612318576040517f08c379a000000000000000000000000000000000000000000000000000000000815260040180806020018281038252602a8152602001806132a1602a913960400191505060405180910390fd5b6123566040518060400160405280600181526020017f3200000000000000000000000000000000000000000000000000000000000000815250612d20565b6032546123789073ffffffffffffffffffffffffffffffffffffffff16612e12565b603254604080517f768911da000000000000000000000000000000000000000000000000000000008152600481018481526024820192835260286044830181905273ffffffffffffffffffffffffffffffffffffffff9094169363768911da93869390916064909101906132cb82396040019250505060206040518083038186803b15801561240657600080fd5b505afa15801561241a573d6000803e3d6000fd5b505050506040513d602081101561243057600080fd5b505060408051808201909152600181527f3300000000000000000000000000000000000000000000000000000000000000602082015261246f90612d20565b603254604080517f768911da0000000000000000000000000000000000000000000000000000000081526004810187815260248201928352602a6044830181905260009473ffffffffffffffffffffffffffffffffffffffff169363768911da938a939260649091019061324882396040019250505060206040518083038186803b1580156124fd57600080fd5b505afa158015612511573d6000803e3d6000fd5b505050506040513d602081101561252757600080fd5b5051604080517fbb35783b00000000000000000000000000000000000000000000000000000000815273ffffffffffffffffffffffffffffffffffffffff89811660048301523060248301526044820188905291519293509083169163bb35783b9160648082019260009290919082900301818387803b1580156125aa57600080fd5b505af11580156125be573d6000803e3d6000fd5b505050506125ca612fde565b6040518060e0016040528060376000815460010191905081905567ffffffffffffffff1681526020014267ffffffffffffffff1681526020018873ffffffffffffffffffffffffffffffffffffffff1681526020018573ffffffffffffffffffffffffffffffffffffffff1681526020018681526020018781526020018481525090508060386000836000015167ffffffffffffffff16815260200190815260200160002060008201518160000160006101000a81548167ffffffffffffffff021916908367ffffffffffffffff16021790555060208201518160000160086101000a81548167ffffffffffffffff021916908367ffffffffffffffff16021790555060408201518160010160006101000a81548173ffffffffffffffffffffffffffffffffffffffff021916908373ffffffffffffffffffffffffffffffffffffffff16021790555060608201518160020160006101000a81548173ffffffffffffffffffffffffffffffffffffffff021916908373ffffffffffffffffffffffffffffffffffffffff1602179055506080820151816003015560a0820151816004015560c082015181600501559050507f60e876ffeda9093127dc8640a033c7e04db47b91b58a7f0e78eb7d52562d362481600001518886888a88604051808767ffffffffffffffff1681526020018673ffffffffffffffffffffffffffffffffffffffff1681526020018573ffffffffffffffffffffffffffffffffffffffff168152602001848152602001838152602001828152602001965050505050505060405180910390a150505050505050565b612826612fde565b50600082815260386020908152604091829020825160e081018452815467ffffffffffffffff808216808452680100000000000000009092041693820193909352600182015473ffffffffffffffffffffffffffffffffffffffff908116948201949094526002820154909316606084015260038101546080840152600481015460a08401526005015460c083015261290a576040517f08c379a000000000000000000000000000000000000000000000000000000000815260040180806020018281038252602b81526020018061314b602b913960400191505060405180910390fd5b603454604080517fbd02d0f50000000000000000000000000000000000000000000000000000000081527f547261646552657665727444656c6179000000000000000000000000000000006004820152905160009273ffffffffffffffffffffffffffffffffffffffff169163bd02d0f5916024808301926020929190829003018186803b15801561299b57600080fd5b505afa1580156129af573d6000803e3d6000fd5b505050506040513d60208110156129c557600080fd5b5051905080612a1f576040517f08c379a00000000000000000000000000000000000000000000000000000000081526004018080602001828103825260288152602001806130b06028913960400191505060405180910390fd5b80826020015167ffffffffffffffff16014211612a87576040517f08c379a000000000000000000000000000000000000000000000000000000000815260040180806020018281038252602b815260200180613197602b913960400191505060405180910390fd5b60325460a0830151604080517f768911da0000000000000000000000000000000000000000000000000000000081526004810183815260248201928352602a6044830181905260009573ffffffffffffffffffffffffffffffffffffffff169463768911da949093909160649091019061324882396040019250505060206040518083038186803b158015612b1b57600080fd5b505afa158015612b2f573d6000803e3d6000fd5b505050506040513d6020811015612b4557600080fd5b5051604080850151608086015182517fbb35783b00000000000000000000000000000000000000000000000000000000815230600482015273ffffffffffffffffffffffffffffffffffffffff92831660248201526044810191909152915192935083169163bb35783b9160648082019260009290919082900301818387803b158015612bd157600080fd5b505af1158015612be5573d6000803e3d6000fd5b505050600086815260386020908152604080832080547fffffffffffffffffffffffffffffffff000000000000000000000000000000001681556001810180547fffffffffffffffffffffffff000000000000000000000000000000000000000090811690915560028201805490911690556003810184905560048101849055600501929092558551825167ffffffffffffffff909116815291517f175f0c84f551b67a31e8cca5a55fa66184a65cf9263c6f5a52aa9156e12e0fef9350918290030190a15050505050565b6000612cf383836040518060400160405280601e81526020017f536166654d6174683a207375627472616374696f6e206f766572666c6f770000815250612e99565b90505b92915050565b6000670de0b6b3a7640000612d118484612f4a565b81612d1857fe5b049392505050565b61104a816040516024018080602001828103825283818151815260200191508051906020019080838360005b83811015612d64578181015183820152602001612d4c565b50505050905090810190601f168015612d915780820380516001836020036101000a031916815260200191505b50604080517fffffffffffffffffffffffffffffffffffffffffffffffffffffffffffffffe08184030181529190526020810180517bffffffffffffffffffffffffffffffffffffffffffffffffffffffff167f41304fac000000000000000000000000000000000000000000000000000000001790529250612fbd915050565b6040805173ffffffffffffffffffffffffffffffffffffffff83166024808301919091528251808303909101815260449091019091526020810180517bffffffffffffffffffffffffffffffffffffffffffffffffffffffff167f2c2ecbc20000000000000000000000000000000000000000000000000000000017905261104a90612fbd565b60008184841115612f42576040517f08c379a00000000000000000000000000000000000000000000000000000000081526004018080602001828103825283818151815260200191508051906020019080838360005b83811015612f07578181015183820152602001612eef565b50505050905090810190601f168015612f345780820380516001836020036101000a031916815260200191505b509250505060405180910390fd5b505050900390565b600082612f5957506000612cf6565b82820282848281612f6657fe5b0414612cf3576040517f08c379a00000000000000000000000000000000000000000000000000000000081526004018080602001828103825260218152602001806131766021913960400191505060405180910390fd5b80516a636f6e736f6c652e6c6f67602083016000808483855afa5050505050565b6040805160e081018252600080825260208201819052918101829052606081018290526080810182905260a0810182905260c08101919091529056fe5368756d45786368616e676553797374656d3a2074726164652063616e206f6e6c79206265207265766572746564206e6f775368756d45786368616e676553797374656d3a20666f756e646174696f6e2066656520686f6c646572206e6f74206368616e6765645368756d45786368616e676553797374656d3a206661696c656420746f20676574206c55534420616464726573735368756d45786368616e676553797374656d3a207265766572742064656c6179206e6f74207365745368756d41646d696e5570677261646561626c653a206f6e6c792074686520636f6e74726163742061646d696e2063616e20706572666f726d207468697320616374696f6e496e697469616c697a61626c653a20636f6e747261637420697320616c726561647920696e697469616c697a65645368756d45786368616e676553797374656d3a2070656e64696e6720656e747279206e6f7420666f756e64536166654d6174683a206d756c7469706c69636174696f6e206f766572666c6f775368756d45786368616e676553797374656d3a207265766572742064656c6179206e6f74207061737365645368756d45786368616e676553797374656d3a2076616c7565206e6f74206368616e6765645368756d45786368616e676553797374656d3a20736574746c656d656e742064656c6179206e6f74207365745368756d41646d696e5570677261646561626c653a206f6e6c792063616e6469646174652063616e206265636f6d652061646d696e5368756d45786368616e676553797374656d3a20736f75726365206173736574206e6f7420666f756e645368756d45786368616e676553797374656d3a20736574746c656d656e742064656c6179206e6f74207061737365645368756d45786368616e676553797374656d3a2063616e206f6e6c79206578697420706f736974696f6e5368756d45786368616e676553797374656d3a2064657374206173736574206e6f7420666f756e645368756d45786368616e676553797374656d3a207a65726f206465737420616d6f756e745368756d41646d696e5570677261646561626c653a207a65726f2061646472657373a2646970667358221220e8471ef3f0615a62642b74f7e301c6e370b8f3f54a835ec999da6e845911a22464736f6c634300060c0033",
  "linkReferences": {
    "contracts/SafeDecimalMath.sol": {
      "SafeDecimalMath": [
        {
          "length": 20,
          "start": 6847
        }
      ]
    }
  },
  "deployedLinkReferences": {
    "contracts/SafeDecimalMath.sol": {
      "SafeDecimalMath": [
        {
          "length": 20,
          "start": 6815
        }
      ]
    }
  }
}