{
  "_format": "hh-sol-artifact-1",
  "contractName": "ShumBuildBurnSystem",
  "sourceName": "contracts/ShumBuildBurnSystem.sol",
  "abi": [
    {
      "anonymous": false,
      "inputs": [
        {
          "indexed": false,
          "internalType": "address",
          "name": "oldAdmin",
          "type": "address"
        },
        {
          "indexed": false,
          "internalType": "address",
          "name": "newAdmin",
          "type": "address"
        }
      ],
      "name": "AdminChanged",
      "type": "event"
    },
    {
      "anonymous": false,
      "inputs": [
        {
          "indexed": false,
          "internalType": "bytes32",
          "name": "name",
          "type": "bytes32"
        },
        {
          "indexed": false,
          "internalType": "address",
          "name": "addr",
          "type": "address"
        }
      ],
      "name": "CachedAddressUpdated",
      "type": "event"
    },
    {
      "anonymous": false,
      "inputs": [
        {
          "indexed": false,
          "internalType": "address",
          "name": "oldCandidate",
          "type": "address"
        },
        {
          "indexed": false,
          "internalType": "address",
          "name": "newCandidate",
          "type": "address"
        }
      ],
      "name": "CandidateChanged",
      "type": "event"
    },
    {
      "anonymous": false,
      "inputs": [
        {
          "indexed": false,
          "internalType": "address",
          "name": "account",
          "type": "address"
        }
      ],
      "name": "Paused",
      "type": "event"
    },
    {
      "anonymous": false,
      "inputs": [
        {
          "indexed": false,
          "internalType": "address",
          "name": "account",
          "type": "address"
        }
      ],
      "name": "Unpaused",
      "type": "event"
    },
    {
      "anonymous": false,
      "inputs": [
        {
          "indexed": false,
          "internalType": "address",
          "name": "oldAddr",
          "type": "address"
        },
        {
          "indexed": false,
          "internalType": "address",
          "name": "newAddr",
          "type": "address"
        }
      ],
      "name": "UpdateLusdToken",
      "type": "event"
    },
    {
      "inputs": [
        {
          "internalType": "uint256",
          "name": "amount",
          "type": "uint256"
        }
      ],
      "name": "BuildAsset",
      "outputs": [
        {
          "internalType": "bool",
          "name": "",
          "type": "bool"
        }
      ],
      "stateMutability": "nonpayable",
      "type": "function"
    },
    {
      "inputs": [],
      "name": "BuildMaxAsset",
      "outputs": [],
      "stateMutability": "nonpayable",
      "type": "function"
    },
    {
      "inputs": [
        {
          "internalType": "uint256",
          "name": "amount",
          "type": "uint256"
        }
      ],
      "name": "BurnAsset",
      "outputs": [
        {
          "internalType": "bool",
          "name": "",
          "type": "bool"
        }
      ],
      "stateMutability": "nonpayable",
      "type": "function"
    },
    {
      "inputs": [],
      "name": "BurnAssetToTarget",
      "outputs": [
        {
          "internalType": "bool",
          "name": "",
          "type": "bool"
        }
      ],
      "stateMutability": "nonpayable",
      "type": "function"
    },
    {
      "inputs": [
        {
          "internalType": "address",
          "name": "user",
          "type": "address"
        }
      ],
      "name": "MaxCanBuildAsset",
      "outputs": [
        {
          "internalType": "uint256",
          "name": "",
          "type": "uint256"
        }
      ],
      "stateMutability": "view",
      "type": "function"
    },
    {
      "inputs": [
        {
          "internalType": "address",
          "name": "_address",
          "type": "address"
        }
      ],
      "name": "SetSusdTokenAddress",
      "outputs": [],
      "stateMutability": "nonpayable",
      "type": "function"
    },
    {
      "inputs": [
        {
          "internalType": "address",
          "name": "_admin",
          "type": "address"
        }
      ],
      "name": "__ShumAdminUpgradeable_init",
      "outputs": [],
      "stateMutability": "nonpayable",
      "type": "function"
    },
    {
      "inputs": [
        {
          "internalType": "address",
          "name": "admin",
          "type": "address"
        },
        {
          "internalType": "address",
          "name": "_sUSDTokenAddr",
          "type": "address"
        }
      ],
      "name": "__ShumBuildBurnSystem_init",
      "outputs": [],
      "stateMutability": "nonpayable",
      "type": "function"
    },
    {
      "inputs": [],
      "name": "admin",
      "outputs": [
        {
          "internalType": "address",
          "name": "",
          "type": "address"
        }
      ],
      "stateMutability": "view",
      "type": "function"
    },
    {
      "inputs": [],
      "name": "becomeAdmin",
      "outputs": [],
      "stateMutability": "nonpayable",
      "type": "function"
    },
    {
      "inputs": [
        {
          "internalType": "address",
          "name": "user",
          "type": "address"
        },
        {
          "internalType": "uint256",
          "name": "amount",
          "type": "uint256"
        }
      ],
      "name": "buildFromCollateralSys",
      "outputs": [],
      "stateMutability": "nonpayable",
      "type": "function"
    },
    {
      "inputs": [
        {
          "internalType": "address",
          "name": "user",
          "type": "address"
        }
      ],
      "name": "buildMaxFromCollateralSys",
      "outputs": [],
      "stateMutability": "nonpayable",
      "type": "function"
    },
    {
      "inputs": [
        {
          "internalType": "address",
          "name": "user",
          "type": "address"
        },
        {
          "internalType": "address",
          "name": "liquidator",
          "type": "address"
        },
        {
          "internalType": "uint256",
          "name": "amount",
          "type": "uint256"
        }
      ],
      "name": "burnForLiquidation",
      "outputs": [],
      "stateMutability": "nonpayable",
      "type": "function"
    },
    {
      "inputs": [
        {
          "internalType": "address",
          "name": "user",
          "type": "address"
        },
        {
          "internalType": "uint256",
          "name": "amount",
          "type": "uint256"
        }
      ],
      "name": "burnFromCollateralSys",
      "outputs": [],
      "stateMutability": "nonpayable",
      "type": "function"
    },
    {
      "inputs": [],
      "name": "candidate",
      "outputs": [
        {
          "internalType": "address",
          "name": "",
          "type": "address"
        }
      ],
      "stateMutability": "view",
      "type": "function"
    },
    {
      "inputs": [],
      "name": "paused",
      "outputs": [
        {
          "internalType": "bool",
          "name": "",
          "type": "bool"
        }
      ],
      "stateMutability": "view",
      "type": "function"
    },
    {
      "inputs": [
        {
          "internalType": "address",
          "name": "_candidate",
          "type": "address"
        }
      ],
      "name": "setCandidate",
      "outputs": [],
      "stateMutability": "nonpayable",
      "type": "function"
    },
    {
      "inputs": [
        {
          "internalType": "bool",
          "name": "_paused",
          "type": "bool"
        }
      ],
      "name": "setPaused",
      "outputs": [],
      "stateMutability": "nonpayable",
      "type": "function"
    },
    {
      "inputs": [
        {
          "internalType": "contract IShumAddressStorage",
          "name": "_addressStorage",
          "type": "address"
        }
      ],
      "name": "updateAddressCache",
      "outputs": [],
      "stateMutability": "nonpayable",
      "type": "function"
    }
  ],
  "bytecode": "0x608060405234801561001057600080fd5b50612ef0806100206000396000f3fe608060405234801561001057600080fd5b50600436106101515760003560e01c80636c8381f8116100cd578063c4d14e5611610081578063f22f9a4411610066578063f22f9a44146103ea578063f851a44014610407578063ff9227ce1461040f57610151565b8063c4d14e561461039d578063f06f6bbd146103e257610151565b8063afd9613b116100b2578063afd9613b1461030c578063b28e6a2814610345578063b390bb561461038057610151565b80636c8381f8146102d3578063a42a06d31461030457610151565b80631733c9c81161012457806353add9aa1161010957806353add9aa1461024b5780635a5f14c8146102845780635c975abb146102b757610151565b80631733c9c81461021057806325971dff1461024357610151565b806307880b7f146101565780630d46754f1461018b5780631449c477146101be57806316c38b3c146101f1575b600080fd5b6101896004803603602081101561016c57600080fd5b503573ffffffffffffffffffffffffffffffffffffffff16610452565b005b610189600480360360208110156101a157600080fd5b503573ffffffffffffffffffffffffffffffffffffffff1661054f565b610189600480360360208110156101d457600080fd5b503573ffffffffffffffffffffffffffffffffffffffff1661063d565b6101896004803603602081101561020757600080fd5b5035151561074f565b6101896004803603602081101561022657600080fd5b503573ffffffffffffffffffffffffffffffffffffffff166107e0565b6101896109e6565b6101896004803603604081101561026157600080fd5b5073ffffffffffffffffffffffffffffffffffffffff8135169060200135610aec565b6101896004803603602081101561029a57600080fd5b503573ffffffffffffffffffffffffffffffffffffffff16610bdd565b6102bf6113ec565b604080519115158252519081900360200190f35b6102db6113f5565b6040805173ffffffffffffffffffffffffffffffffffffffff9092168252519081900360200190f35b610189611411565b6101896004803603604081101561032257600080fd5b5073ffffffffffffffffffffffffffffffffffffffff813516906020013561148e565b6101896004803603604081101561035b57600080fd5b5073ffffffffffffffffffffffffffffffffffffffff8135811691602001351661157b565b6102bf6004803603602081101561039657600080fd5b50356116d9565b6103d0600480360360208110156103b357600080fd5b503573ffffffffffffffffffffffffffffffffffffffff16611760565b60408051918252519081900360200190f35b6102bf6119d6565b6102bf6004803603602081101561040057600080fd5b5035611e0c565b6102db611e96565b6101896004803603606081101561042557600080fd5b5073ffffffffffffffffffffffffffffffffffffffff813581169160208101359091169060400135611eb8565b60005462010000900473ffffffffffffffffffffffffffffffffffffffff1633146104c8576040517f08c379a0000000000000000000000000000000000000000000000000000000008152600401808060200182810382526045815260200180612d316045913960600191505060405180910390fd5b6001805473ffffffffffffffffffffffffffffffffffffffff8381167fffffffffffffffffffffffff0000000000000000000000000000000000000000831617928390556040805192821680845293909116602083015280517f7f730391c4f0fa1bea34bcb9bff8c30a079b21a0359759160cb990648ab84c729281900390910190a15050565b60645460ff16156105c157604080517f08c379a000000000000000000000000000000000000000000000000000000000815260206004820152601060248201527f5061757361626c653a2070617573656400000000000000000000000000000000604482015290519081900360640190fd5b60995473ffffffffffffffffffffffffffffffffffffffff163314610631576040517f08c379a000000000000000000000000000000000000000000000000000000000815260040180806020018281038252602a815260200180612df3602a913960400191505060405180910390fd5b61063a81611fa5565b50565b60005462010000900473ffffffffffffffffffffffffffffffffffffffff1633146106b3576040517f08c379a0000000000000000000000000000000000000000000000000000000008152600401808060200182810382526045815260200180612d316045913960600191505060405180910390fd5b6096546040805173ffffffffffffffffffffffffffffffffffffffff9283168152918316602083015280517f1d874926a78c182b4824609bc4068a5db0de62896be4a392d42938c1a31009999281900390910190a1609680547fffffffffffffffffffffffff00000000000000000000000000000000000000001673ffffffffffffffffffffffffffffffffffffffff92909216919091179055565b60005462010000900473ffffffffffffffffffffffffffffffffffffffff1633146107c5576040517f08c379a0000000000000000000000000000000000000000000000000000000008152600401808060200182810382526045815260200180612d316045913960600191505060405180910390fd5b80156107d8576107d3611fbc565b61063a565b61063a6120ac565b600054610100900460ff16806107f957506107f961216e565b80610807575060005460ff16155b61085c576040517f08c379a000000000000000000000000000000000000000000000000000000000815260040180806020018281038252602e815260200180612d76602e913960400191505060405180910390fd5b600054610100900460ff161580156108c257600080547fffffffffffffffffffffffffffffffffffffffffffffffffffffffffffffff007fffffffffffffffffffffffffffffffffffffffffffffffffffffffffffff00ff909116610100171660011790555b73ffffffffffffffffffffffffffffffffffffffff821661092e576040517f08c379a0000000000000000000000000000000000000000000000000000000008152600401808060200182810382526022815260200180612e996022913960400191505060405180910390fd5b600080547fffffffffffffffffffff0000000000000000000000000000000000000000ffff166201000073ffffffffffffffffffffffffffffffffffffffff851690810291909117825560408051928352602083019190915280517f7e644d79422f17c01e4894b5f4f588d331ebfa28653d42ae832dc59e38c9798f9281900390910190a180156109e257600080547fffffffffffffffffffffffffffffffffffffffffffffffffffffffffffff00ff1690555b5050565b60015473ffffffffffffffffffffffffffffffffffffffff163314610a56576040517f08c379a0000000000000000000000000000000000000000000000000000000008152600401808060200182810382526035815260200180612e1d6035913960400191505060405180910390fd5b6000805460015473ffffffffffffffffffffffffffffffffffffffff908116620100009081027fffffffffffffffffffff0000000000000000000000000000000000000000ffff8416179384905560408051938290048316808552919094049091166020830152825190927f7e644d79422f17c01e4894b5f4f588d331ebfa28653d42ae832dc59e38c9798f928290030190a150565b60645460ff1615610b5e57604080517f08c379a000000000000000000000000000000000000000000000000000000000815260206004820152601060248201527f5061757361626c653a2070617573656400000000000000000000000000000000604482015290519081900360640190fd5b60995473ffffffffffffffffffffffffffffffffffffffff163314610bce576040517f08c379a000000000000000000000000000000000000000000000000000000000815260040180806020018281038252602a815260200180612df3602a913960400191505060405180910390fd5b610bd88282612174565b505050565b60005462010000900473ffffffffffffffffffffffffffffffffffffffff163314610c53576040517f08c379a0000000000000000000000000000000000000000000000000000000008152600401808060200182810382526045815260200180612d316045913960600191505060405180910390fd5b604080517f768911da0000000000000000000000000000000000000000000000000000000081527f5368756d50726963657300000000000000000000000000000000000000000000600482015260248101829052601c60448201527f5368756d5072696365732061646472657373206e6f742076616c6964000000006064820152905173ffffffffffffffffffffffffffffffffffffffff83169163768911da916084808301926020929190829003018186803b158015610d1357600080fd5b505afa158015610d27573d6000803e3d6000fd5b505050506040513d6020811015610d3d57600080fd5b5051609880547fffffffffffffffffffffffff00000000000000000000000000000000000000001673ffffffffffffffffffffffffffffffffffffffff928316179055604080517f768911da0000000000000000000000000000000000000000000000000000000081527f5368756d4465627453797374656d0000000000000000000000000000000000006004820152602481018290526020604482018190527f5368756d4465627453797374656d2061646472657373206e6f742076616c6964606483015291519284169263768911da92608480840193919291829003018186803b158015610e2c57600080fd5b505afa158015610e40573d6000803e3d6000fd5b505050506040513d6020811015610e5657600080fd5b5051609780547fffffffffffffffffffffffff00000000000000000000000000000000000000001673ffffffffffffffffffffffffffffffffffffffff928316179055604080517f768911da0000000000000000000000000000000000000000000000000000000081527f5368756d436f6c6c61746572616c53797374656d000000000000000000000000600482019081526024820192835260266044830181905260009486169363768911da939091606490910190612e73823960400191505060206040518083038186803b158015610f2f57600080fd5b505afa158015610f43573d6000803e3d6000fd5b505050506040513d6020811015610f5957600080fd5b5051609980547fffffffffffffffffffffffff00000000000000000000000000000000000000001673ffffffffffffffffffffffffffffffffffffffff80841691909117909155604080517f768911da0000000000000000000000000000000000000000000000000000000081527f5368756d436f6e66696700000000000000000000000000000000000000000000600482015260248101829052601c60448201527f5368756d436f6e6669672061646472657373206e6f742076616c696400000000606482015290519293509084169163768911da91608480820192602092909190829003018186803b15801561105057600080fd5b505afa158015611064573d6000803e3d6000fd5b505050506040513d602081101561107a57600080fd5b5051609a80547fffffffffffffffffffffffff00000000000000000000000000000000000000001673ffffffffffffffffffffffffffffffffffffffff928316179055604080517f768911da0000000000000000000000000000000000000000000000000000000081527f5368756d4c69717569646174696f6e000000000000000000000000000000000060048201908152602482019283526021604483018190529386169363768911da93919260640190612e52823960400191505060206040518083038186803b15801561114f57600080fd5b505afa158015611163573d6000803e3d6000fd5b505050506040513d602081101561117957600080fd5b5051609b80547fffffffffffffffffffffffff00000000000000000000000000000000000000001673ffffffffffffffffffffffffffffffffffffffff928316179055609854604080517f5368756d50726963657300000000000000000000000000000000000000000000815291909216602082015281517f17b158864f8c520aff3282c940ec6a731d26235b9b00b651c0dd1dafb3170f5f929181900390910190a1609754604080517f5368756d4465627453797374656d000000000000000000000000000000000000815273ffffffffffffffffffffffffffffffffffffffff909216602083015280517f17b158864f8c520aff3282c940ec6a731d26235b9b00b651c0dd1dafb3170f5f9281900390910190a1609954604080517f5368756d436f6c6c61746572616c53797374656d000000000000000000000000815273ffffffffffffffffffffffffffffffffffffffff909216602083015280517f17b158864f8c520aff3282c940ec6a731d26235b9b00b651c0dd1dafb3170f5f9281900390910190a1609a54604080517f5368756d436f6e66696700000000000000000000000000000000000000000000815273ffffffffffffffffffffffffffffffffffffffff909216602083015280517f17b158864f8c520aff3282c940ec6a731d26235b9b00b651c0dd1dafb3170f5f9281900390910190a1609b54604080517f5368756d4c69717569646174696f6e0000000000000000000000000000000000815273ffffffffffffffffffffffffffffffffffffffff909216602083015280517f17b158864f8c520aff3282c940ec6a731d26235b9b00b651c0dd1dafb3170f5f9281900390910190a15050565b60645460ff1690565b60015473ffffffffffffffffffffffffffffffffffffffff1681565b60645460ff161561148357604080517f08c379a000000000000000000000000000000000000000000000000000000000815260206004820152601060248201527f5061757361626c653a2070617573656400000000000000000000000000000000604482015290519081900360640190fd5b61148c33611fa5565b565b60645460ff161561150057604080517f08c379a000000000000000000000000000000000000000000000000000000000815260206004820152601060248201527f5061757361626c653a2070617573656400000000000000000000000000000000604482015290519081900360640190fd5b60995473ffffffffffffffffffffffffffffffffffffffff163314611570576040517f08c379a000000000000000000000000000000000000000000000000000000000815260040180806020018281038252602a815260200180612df3602a913960400191505060405180910390fd5b6109e282838361265d565b600054610100900460ff1680611594575061159461216e565b806115a2575060005460ff16155b6115f7576040517f08c379a000000000000000000000000000000000000000000000000000000000815260040180806020018281038252602e815260200180612d76602e913960400191505060405180910390fd5b600054610100900460ff1615801561165d57600080547fffffffffffffffffffffffffffffffffffffffffffffffffffffffffffffff007fffffffffffffffffffffffffffffffffffffffffffffffffffffffffffff00ff909116610100171660011790555b611666836107e0565b609680547fffffffffffffffffffffffff00000000000000000000000000000000000000001673ffffffffffffffffffffffffffffffffffffffff84161790558015610bd857600080547fffffffffffffffffffffffffffffffffffffffffffffffffffffffffffff00ff169055505050565b60645460009060ff161561174e57604080517f08c379a000000000000000000000000000000000000000000000000000000000815260206004820152601060248201527f5061757361626c653a2070617573656400000000000000000000000000000000604482015290519081900360640190fd5b336117598184612174565b9392505050565b609a54604080517f4d6daf040000000000000000000000000000000000000000000000000000000081529051600092839273ffffffffffffffffffffffffffffffffffffffff9091169163bd02d0f5918391634d6daf0491600480820192602092909190829003018186803b1580156117d857600080fd5b505afa1580156117ec573d6000803e3d6000fd5b505050506040513d602081101561180257600080fd5b5051604080517fffffffff0000000000000000000000000000000000000000000000000000000060e085901b1681526004810192909252516024808301926020929190829003018186803b15801561185957600080fd5b505afa15801561186d573d6000803e3d6000fd5b505050506040513d602081101561188357600080fd5b5051604080517f907af6c000000000000000000000000000000000000000000000000000000000815290519192506000916119ce9173__$b8d33eeb36ac0d1e81cd70156e0043e778$__9163907af6c091600480820192602092909190829003018186803b1580156118f457600080fd5b505af4158015611908573d6000803e3d6000fd5b505050506040513d602081101561191e57600080fd5b5051609954604080517ff563feec00000000000000000000000000000000000000000000000000000000815273ffffffffffffffffffffffffffffffffffffffff898116600483015291516119c8938893169163f563feec916024808301926020929190829003018186803b15801561199657600080fd5b505afa1580156119aa573d6000803e3d6000fd5b505050506040513d60208110156119c057600080fd5b5051906129ff565b90612a72565b949350505050565b60645460009060ff1615611a4b57604080517f08c379a000000000000000000000000000000000000000000000000000000000815260206004820152601060248201527f5061757361626c653a2070617573656400000000000000000000000000000000604482015290519081900360640190fd5b609a54604080517f4d6daf040000000000000000000000000000000000000000000000000000000081529051339260009273ffffffffffffffffffffffffffffffffffffffff9091169163bd02d0f5918391634d6daf0491600480820192602092909190829003018186803b158015611ac357600080fd5b505afa158015611ad7573d6000803e3d6000fd5b505050506040513d6020811015611aed57600080fd5b5051604080517fffffffff0000000000000000000000000000000000000000000000000000000060e085901b1681526004810192909252516024808301926020929190829003018186803b158015611b4457600080fd5b505afa158015611b58573d6000803e3d6000fd5b505050506040513d6020811015611b6e57600080fd5b5051609954604080517f5126079100000000000000000000000000000000000000000000000000000000815273ffffffffffffffffffffffffffffffffffffffff8681166004830152915193945060009391909216916351260791916024808301926020929190829003018186803b158015611be957600080fd5b505afa158015611bfd573d6000803e3d6000fd5b505050506040513d6020811015611c1357600080fd5b505190506000611c238284612ab4565b609754604080517f1882d09000000000000000000000000000000000000000000000000000000000815273ffffffffffffffffffffffffffffffffffffffff88811660048301528251949550600094931692631882d09092602480840193919291829003018186803b158015611c9857600080fd5b505afa158015611cac573d6000803e3d6000fd5b505050506040513d6040811015611cc257600080fd5b50519050818111611d3457604080517f08c379a000000000000000000000000000000000000000000000000000000000815260206004820152601e60248201527f596f75206d617962652077616e74206275696c6420746f207461726765740000604482015290519081900360640190fd5b6000611d408284612ad8565b609654604080517f70a0823100000000000000000000000000000000000000000000000000000000815273ffffffffffffffffffffffffffffffffffffffff8a81166004830152915193945060009391909216916370a08231916024808301926020929190829003018186803b158015611db957600080fd5b505afa158015611dcd573d6000803e3d6000fd5b505050506040513d6020811015611de357600080fd5b5051905081811015611df3578091505b611dfe87888461265d565b600197505050505050505090565b60645460009060ff1615611e8157604080517f08c379a000000000000000000000000000000000000000000000000000000000815260206004820152601060248201527f5061757361626c653a2070617573656400000000000000000000000000000000604482015290519081900360640190fd5b33611e8d81808561265d565b50600192915050565b60005462010000900473ffffffffffffffffffffffffffffffffffffffff1681565b60645460ff1615611f2a57604080517f08c379a000000000000000000000000000000000000000000000000000000000815260206004820152601060248201527f5061757361626c653a2070617573656400000000000000000000000000000000604482015290519081900360640190fd5b609b5473ffffffffffffffffffffffffffffffffffffffff163314611f9a576040517f08c379a0000000000000000000000000000000000000000000000000000000008152600401808060200182810382526024815260200180612d0d6024913960400191505060405180910390fd5b610bd883838361265d565b6000611fb082611760565b9050610bd88282612174565b60645460ff161561202e57604080517f08c379a000000000000000000000000000000000000000000000000000000000815260206004820152601060248201527f5061757361626c653a2070617573656400000000000000000000000000000000604482015290519081900360640190fd5b606480547fffffffffffffffffffffffffffffffffffffffffffffffffffffffffffffff001660011790557f62e78cea01bee320cd4e420270b5ea74000d11b0c9f74754ebdbfc544b05a258612082612b1a565b6040805173ffffffffffffffffffffffffffffffffffffffff9092168252519081900360200190a1565b60645460ff1661211d57604080517f08c379a000000000000000000000000000000000000000000000000000000000815260206004820152601460248201527f5061757361626c653a206e6f7420706175736564000000000000000000000000604482015290519081900360640190fd5b606480547fffffffffffffffffffffffffffffffffffffffffffffffffffffffffffffff001690557f5db9ee0a495bf2e6ff9c91a7834c1ba4fdd244a5e8aa4e537bd38aeae4b073aa612082612b1a565b303b1590565b609a54604080517f4d6daf040000000000000000000000000000000000000000000000000000000081529051600092839273ffffffffffffffffffffffffffffffffffffffff9091169163bd02d0f5918391634d6daf0491600480820192602092909190829003018186803b1580156121ec57600080fd5b505afa158015612200573d6000803e3d6000fd5b505050506040513d602081101561221657600080fd5b5051604080517fffffffff0000000000000000000000000000000000000000000000000000000060e085901b1681526004810192909252516024808301926020929190829003018186803b15801561226d57600080fd5b505afa158015612281573d6000803e3d6000fd5b505050506040513d602081101561229757600080fd5b5051609954604080517ff563feec00000000000000000000000000000000000000000000000000000000815273ffffffffffffffffffffffffffffffffffffffff88811660048301529151939450600093612347938693169163f563feec916024808301926020929190829003018186803b15801561231557600080fd5b505afa158015612329573d6000803e3d6000fd5b505050506040513d602081101561233f57600080fd5b505190612ab4565b9050808411156123a2576040517f08c379a000000000000000000000000000000000000000000000000000000000815260040180806020018281038252602e815260200180612dc5602e913960400191505060405180910390fd5b609754604080517f1882d09000000000000000000000000000000000000000000000000000000000815273ffffffffffffffffffffffffffffffffffffffff888116600483015282516000948594921692631882d090926024808301939192829003018186803b15801561241557600080fd5b505afa158015612429573d6000803e3d6000fd5b505050506040513d604081101561243f57600080fd5b508051602090910151909250905060006124598288612b1e565b905060006124678883612b92565b905060006124e58273__$b8d33eeb36ac0d1e81cd70156e0043e778$__63d5e5e6e66040518163ffffffff1660e01b815260040160206040518083038186803b1580156124b357600080fd5b505af41580156124c7573d6000803e3d6000fd5b505050506040513d60208110156124dd57600080fd5b505190612ad8565b905081851561250557612502846124fc888d612b1e565b90612b92565b90505b609754604080517f028667d300000000000000000000000000000000000000000000000000000000815273ffffffffffffffffffffffffffffffffffffffff8e8116600483015260248201859052604482018690529151919092169163028667d391606480830192600092919082900301818387803b15801561258757600080fd5b505af115801561259b573d6000803e3d6000fd5b50505050609660009054906101000a900473ffffffffffffffffffffffffffffffffffffffff1673ffffffffffffffffffffffffffffffffffffffff166340c10f198c8c6040518363ffffffff1660e01b8152600401808373ffffffffffffffffffffffffffffffffffffffff16815260200182815260200192505050600060405180830381600087803b15801561263257600080fd5b505af1158015612646573d6000803e3d6000fd5b505050506001985050505050505050505b92915050565b600081116126cc57604080517f08c379a000000000000000000000000000000000000000000000000000000000815260206004820152600f60248201527f616d6f756e74206e656564203e20300000000000000000000000000000000000604482015290519081900360640190fd5b609754604080517f1882d09000000000000000000000000000000000000000000000000000000000815273ffffffffffffffffffffffffffffffffffffffff868116600483015282516000948594921692631882d090926024808301939192829003018186803b15801561273f57600080fd5b505afa158015612753573d6000803e3d6000fd5b505050506040513d604081101561276957600080fd5b5080516020909101519092509050816127e357604080517f08c379a000000000000000000000000000000000000000000000000000000000815260206004820152601060248201527f6e6f20646562742c206e6f206275726e00000000000000000000000000000000604482015290519081900360640190fd5b60008383106127f257836127f4565b825b609654604080517f9dc29fac00000000000000000000000000000000000000000000000000000000815273ffffffffffffffffffffffffffffffffffffffff8981166004830152602482018590529151939450911691639dc29fac9160448082019260009290919082900301818387803b15801561287157600080fd5b505af1158015612885573d6000803e3d6000fd5b50505050600061289e8284612ad890919063ffffffff16565b9050600081156129345760006128b48484612b92565b90506129308173__$b8d33eeb36ac0d1e81cd70156e0043e778$__63d5e5e6e66040518163ffffffff1660e01b815260040160206040518083038186803b1580156128fe57600080fd5b505af4158015612912573d6000803e3d6000fd5b505050506040513d602081101561292857600080fd5b505190612b1e565b9150505b60008386111561295a57600061294a8786612ad8565b90506129568185612b92565b9150505b609754604080517f028667d300000000000000000000000000000000000000000000000000000000815273ffffffffffffffffffffffffffffffffffffffff8c8116600483015260248201859052604482018690529151919092169163028667d391606480830192600092919082900301818387803b1580156129dc57600080fd5b505af11580156129f0573d6000803e3d6000fd5b50505050505050505050505050565b600082612a0e57506000612657565b82820282848281612a1b57fe5b0414611759576040517f08c379a0000000000000000000000000000000000000000000000000000000008152600401808060200182810382526021815260200180612da46021913960400191505060405180910390fd5b600061175983836040518060400160405280601a81526020017f536166654d6174683a206469766973696f6e206279207a65726f000000000000815250612bab565b6000670de0b6b3a7640000612ac984846129ff565b81612ad057fe5b049392505050565b600061175983836040518060400160405280601e81526020017f536166654d6174683a207375627472616374696f6e206f766572666c6f770000815250612c67565b3390565b60008282018381101561175957604080517f08c379a000000000000000000000000000000000000000000000000000000000815260206004820152601b60248201527f536166654d6174683a206164646974696f6e206f766572666c6f770000000000604482015290519081900360640190fd5b600061175983836b033b2e3c9fd0803ce8000000612cdb565b60008183612c51576040517f08c379a00000000000000000000000000000000000000000000000000000000081526004018080602001828103825283818151815260200191508051906020019080838360005b83811015612c16578181015183820152602001612bfe565b50505050905090810190601f168015612c435780820380516001836020036101000a031916815260200191505b509250505060405180910390fd5b506000838581612c5d57fe5b0495945050505050565b60008184841115612cd3576040517f08c379a0000000000000000000000000000000000000000000000000000000008152602060048201818152835160248401528351909283926044909101919085019080838360008315612c16578181015183820152602001612bfe565b505050900390565b600080612cef846119c887600a87026129ff565b90506005600a820610612d0057600a015b600a900494935050505056fe5368756d4275696c644275726e53797374656d3a206e6f74206c69717569646174696f6e5368756d41646d696e5570677261646561626c653a206f6e6c792074686520636f6e74726163742061646d696e2063616e20706572666f726d207468697320616374696f6e496e697469616c697a61626c653a20636f6e747261637420697320616c726561647920696e697469616c697a6564536166654d6174683a206d756c7469706c69636174696f6e206f766572666c6f774275696c6420616d6f756e7420746f6f206269672c20796f75206e656564206d6f726520636f6c6c61746572616c5368756d4275696c644275726e53797374656d3a206e6f7420636f6c6c61746572616c2073797374656d5368756d41646d696e5570677261646561626c653a206f6e6c792063616e6469646174652063616e206265636f6d652061646d696e5368756d4c69717569646174696f6e2061646472657373206e6f742076616c69645368756d436f6c6c61746572616c53797374656d2061646472657373206e6f742076616c69645368756d41646d696e5570677261646561626c653a207a65726f2061646472657373a264697066735822122049d5dff1141a35653514b41cacb6e28ecf2f7980c6343213f47c340f6c82b36f64736f6c634300060c0033",
  "linkReferences": {
    "contracts/SafeDecimalMath.sol": {
      "SafeDecimalMath": [
        {
          "length": 20,
          "start": 6362
        },
        {
          "length": 20,
          "start": 9361
        },
        {
          "length": 20,
          "start": 10460
        }
      ]
    }
  },
  "deployedLinkReferences": {
    "contracts/SafeDecimalMath.sol": {
      "SafeDecimalMath": [
        {
          "length": 20,
          "start": 6330
        },
        {
          "length": 20,
          "start": 9329
        },
        {
          "length": 20,
          "start": 10428
        }
      ]
    }
  }
}