{
  "_format": "hh-sol-artifact-1",
  "contractName": "ShumAssetSystem",
  "sourceName": "contracts/ShumAssetSystem.sol",
  "abi": [
    {
      "anonymous": false,
      "inputs": [
        {
          "indexed": false,
          "internalType": "address",
          "name": "oldAdmin",
          "type": "address"
        },
        {
          "indexed": false,
          "internalType": "address",
          "name": "newAdmin",
          "type": "address"
        }
      ],
      "name": "AdminChanged",
      "type": "event"
    },
    {
      "anonymous": false,
      "inputs": [
        {
          "indexed": false,
          "internalType": "bytes32",
          "name": "name",
          "type": "bytes32"
        },
        {
          "indexed": false,
          "internalType": "address",
          "name": "asset",
          "type": "address"
        }
      ],
      "name": "AssetAdded",
      "type": "event"
    },
    {
      "anonymous": false,
      "inputs": [
        {
          "indexed": false,
          "internalType": "bytes32",
          "name": "name",
          "type": "bytes32"
        },
        {
          "indexed": false,
          "internalType": "address",
          "name": "asset",
          "type": "address"
        }
      ],
      "name": "AssetRemoved",
      "type": "event"
    },
    {
      "anonymous": false,
      "inputs": [
        {
          "indexed": false,
          "internalType": "address",
          "name": "oldCandidate",
          "type": "address"
        },
        {
          "indexed": false,
          "internalType": "address",
          "name": "newCandidate",
          "type": "address"
        }
      ],
      "name": "CandidateChanged",
      "type": "event"
    },
    {
      "anonymous": false,
      "inputs": [
        {
          "indexed": false,
          "internalType": "bytes32",
          "name": "name",
          "type": "bytes32"
        },
        {
          "indexed": false,
          "internalType": "address",
          "name": "addr",
          "type": "address"
        }
      ],
      "name": "StorageAddressUpdated",
      "type": "event"
    },
    {
      "inputs": [
        {
          "internalType": "address",
          "name": "_admin",
          "type": "address"
        }
      ],
      "name": "__ShumAddressStorage_init",
      "outputs": [],
      "stateMutability": "nonpayable",
      "type": "function"
    },
    {
      "inputs": [
        {
          "internalType": "address",
          "name": "_admin",
          "type": "address"
        }
      ],
      "name": "__ShumAdminUpgradeable_init",
      "outputs": [],
      "stateMutability": "nonpayable",
      "type": "function"
    },
    {
      "inputs": [
        {
          "internalType": "address",
          "name": "_admin",
          "type": "address"
        }
      ],
      "name": "__ShumAssetSystem_init",
      "outputs": [],
      "stateMutability": "nonpayable",
      "type": "function"
    },
    {
      "inputs": [
        {
          "internalType": "contract IShumAsset",
          "name": "asset",
          "type": "address"
        }
      ],
      "name": "addAsset",
      "outputs": [],
      "stateMutability": "nonpayable",
      "type": "function"
    },
    {
      "inputs": [],
      "name": "admin",
      "outputs": [
        {
          "internalType": "address",
          "name": "",
          "type": "address"
        }
      ],
      "stateMutability": "view",
      "type": "function"
    },
    {
      "inputs": [],
      "name": "assetNumber",
      "outputs": [
        {
          "internalType": "uint256",
          "name": "",
          "type": "uint256"
        }
      ],
      "stateMutability": "view",
      "type": "function"
    },
    {
      "inputs": [],
      "name": "becomeAdmin",
      "outputs": [],
      "stateMutability": "nonpayable",
      "type": "function"
    },
    {
      "inputs": [],
      "name": "candidate",
      "outputs": [
        {
          "internalType": "address",
          "name": "",
          "type": "address"
        }
      ],
      "stateMutability": "view",
      "type": "function"
    },
    {
      "inputs": [
        {
          "internalType": "bytes32",
          "name": "name",
          "type": "bytes32"
        }
      ],
      "name": "getAddress",
      "outputs": [
        {
          "internalType": "address",
          "name": "",
          "type": "address"
        }
      ],
      "stateMutability": "view",
      "type": "function"
    },
    {
      "inputs": [
        {
          "internalType": "bytes32",
          "name": "name",
          "type": "bytes32"
        },
        {
          "internalType": "string",
          "name": "reason",
          "type": "string"
        }
      ],
      "name": "getAddressWithRequire",
      "outputs": [
        {
          "internalType": "address",
          "name": "",
          "type": "address"
        }
      ],
      "stateMutability": "view",
      "type": "function"
    },
    {
      "inputs": [],
      "name": "getAssetAddresses",
      "outputs": [
        {
          "internalType": "address[]",
          "name": "",
          "type": "address[]"
        }
      ],
      "stateMutability": "view",
      "type": "function"
    },
    {
      "inputs": [
        {
          "internalType": "address",
          "name": "",
          "type": "address"
        }
      ],
      "name": "mAddress2Names",
      "outputs": [
        {
          "internalType": "bytes32",
          "name": "",
          "type": "bytes32"
        }
      ],
      "stateMutability": "view",
      "type": "function"
    },
    {
      "inputs": [
        {
          "internalType": "bytes32",
          "name": "",
          "type": "bytes32"
        }
      ],
      "name": "mAddrs",
      "outputs": [
        {
          "internalType": "address",
          "name": "",
          "type": "address"
        }
      ],
      "stateMutability": "view",
      "type": "function"
    },
    {
      "inputs": [
        {
          "internalType": "uint256",
          "name": "",
          "type": "uint256"
        }
      ],
      "name": "mAssetList",
      "outputs": [
        {
          "internalType": "contract IShumAsset",
          "name": "",
          "type": "address"
        }
      ],
      "stateMutability": "view",
      "type": "function"
    },
    {
      "inputs": [
        {
          "internalType": "bytes32",
          "name": "name",
          "type": "bytes32"
        }
      ],
      "name": "removeAsset",
      "outputs": [],
      "stateMutability": "nonpayable",
      "type": "function"
    },
    {
      "inputs": [
        {
          "internalType": "address",
          "name": "_candidate",
          "type": "address"
        }
      ],
      "name": "setCandidate",
      "outputs": [],
      "stateMutability": "nonpayable",
      "type": "function"
    },
    {
      "inputs": [],
      "name": "totalAssetsInUsd",
      "outputs": [
        {
          "internalType": "uint256",
          "name": "rTotal",
          "type": "uint256"
        }
      ],
      "stateMutability": "view",
      "type": "function"
    },
    {
      "inputs": [
        {
          "internalType": "bytes32",
          "name": "name",
          "type": "bytes32"
        },
        {
          "internalType": "address",
          "name": "dest",
          "type": "address"
        }
      ],
      "name": "update",
      "outputs": [],
      "stateMutability": "nonpayable",
      "type": "function"
    },
    {
      "inputs": [
        {
          "internalType": "bytes32[]",
          "name": "names",
          "type": "bytes32[]"
        },
        {
          "internalType": "address[]",
          "name": "destinations",
          "type": "address[]"
        }
      ],
      "name": "updateAll",
      "outputs": [],
      "stateMutability": "nonpayable",
      "type": "function"
    }
  ],
  "bytecode": "0x608060405234801561001057600080fd5b50611d70806100206000396000f3fe608060405234801561001057600080fd5b50600436106101515760003560e01c806367b61981116100cd578063837592db11610081578063d091dfc311610066578063d091dfc3146104fe578063f5d129891461051b578063f851a4401461052357610151565b8063837592db1461048957806387685fb9146104a657610151565b806370c076ba116100b257806370c076ba146103ed578063768911da1461040a578063827c15671461048157610151565b806367b61981146103b25780636c8381f8146103e557610151565b8063239cdfe411610124578063298410e511610109578063298410e5146103015780634ae2ffc0146103345780634fb068c51461036d57610151565b8063239cdfe4146102c657806325971dff146102f957610151565b8063046624271461015657806307880b7f1461021a5780631733c9c81461024d57806321f8a72114610280575b600080fd5b6102186004803603604081101561016c57600080fd5b81019060208101813564010000000081111561018757600080fd5b82018360208201111561019957600080fd5b803590602001918460208302840111640100000000831117156101bb57600080fd5b9193909290916020810190356401000000008111156101d957600080fd5b8201836020820111156101eb57600080fd5b8035906020019184602083028401116401000000008311171561020d57600080fd5b50909250905061052b565b005b6102186004803603602081101561023057600080fd5b503573ffffffffffffffffffffffffffffffffffffffff16610744565b6102186004803603602081101561026357600080fd5b503573ffffffffffffffffffffffffffffffffffffffff16610841565b61029d6004803603602081101561029657600080fd5b5035610a47565b6040805173ffffffffffffffffffffffffffffffffffffffff9092168252519081900360200190f35b610218600480360360208110156102dc57600080fd5b503573ffffffffffffffffffffffffffffffffffffffff16610a6f565b610218610b8c565b6102186004803603602081101561031757600080fd5b503573ffffffffffffffffffffffffffffffffffffffff16610c92565b6102186004803603604081101561034a57600080fd5b508035906020013573ffffffffffffffffffffffffffffffffffffffff16610f76565b6103a06004803603602081101561038357600080fd5b503573ffffffffffffffffffffffffffffffffffffffff16611167565b60408051918252519081900360200190f35b610218600480360360208110156103c857600080fd5b503573ffffffffffffffffffffffffffffffffffffffff16611179565b61029d611264565b61029d6004803603602081101561040357600080fd5b5035611280565b61029d6004803603604081101561042057600080fd5b8135919081019060408101602082013564010000000081111561044257600080fd5b82018360208201111561045457600080fd5b8035906020019184600183028401116401000000008311171561047657600080fd5b5090925090506112b4565b6103a061136d565b6102186004803603602081101561049f57600080fd5b5035611373565b6104ae6116c5565b60408051602080825283518183015283519192839290830191858101910280838360005b838110156104ea5781810151838201526020016104d2565b505050509050019250505060405180910390f35b61029d6004803603602081101561051457600080fd5b5035611794565b6103a06117bc565b61029d611b13565b60005462010000900473ffffffffffffffffffffffffffffffffffffffff1633146105a1576040517f08c379a0000000000000000000000000000000000000000000000000000000008152600401808060200182810382526045815260200180611c506045913960600191505060405180910390fd5b82811461060f57604080517f08c379a000000000000000000000000000000000000000000000000000000000815260206004820152601860248201527f496e707574206c656e67746873206d757374206d617463680000000000000000604482015290519081900360640190fd5b60005b8381101561073d5782828281811061062657fe5b9050602002013573ffffffffffffffffffffffffffffffffffffffff166032600087878581811061065357fe5b90506020020135815260200190815260200160002060006101000a81548173ffffffffffffffffffffffffffffffffffffffff021916908373ffffffffffffffffffffffffffffffffffffffff1602179055507fc4377493effe961187873838bd3731307f7f558c661681598f57c5d85831e8b38585838181106106d357fe5b905060200201358484848181106106e657fe5b9050602002013573ffffffffffffffffffffffffffffffffffffffff16604051808381526020018273ffffffffffffffffffffffffffffffffffffffff1681526020019250505060405180910390a1600101610612565b5050505050565b60005462010000900473ffffffffffffffffffffffffffffffffffffffff1633146107ba576040517f08c379a0000000000000000000000000000000000000000000000000000000008152600401808060200182810382526045815260200180611c506045913960600191505060405180910390fd5b6001805473ffffffffffffffffffffffffffffffffffffffff8381167fffffffffffffffffffffffff0000000000000000000000000000000000000000831617928390556040805192821680845293909116602083015280517f7f730391c4f0fa1bea34bcb9bff8c30a079b21a0359759160cb990648ab84c729281900390910190a15050565b600054610100900460ff168061085a575061085a611b35565b80610868575060005460ff16155b6108bd576040517f08c379a000000000000000000000000000000000000000000000000000000000815260040180806020018281038252602e815260200180611c95602e913960400191505060405180910390fd5b600054610100900460ff1615801561092357600080547fffffffffffffffffffffffffffffffffffffffffffffffffffffffffffffff007fffffffffffffffffffffffffffffffffffffffffffffffffffffffffffff00ff909116610100171660011790555b73ffffffffffffffffffffffffffffffffffffffff821661098f576040517f08c379a0000000000000000000000000000000000000000000000000000000008152600401808060200182810382526022815260200180611d196022913960400191505060405180910390fd5b600080547fffffffffffffffffffff0000000000000000000000000000000000000000ffff166201000073ffffffffffffffffffffffffffffffffffffffff851690810291909117825560408051928352602083019190915280517f7e644d79422f17c01e4894b5f4f588d331ebfa28653d42ae832dc59e38c9798f9281900390910190a18015610a4357600080547fffffffffffffffffffffffffffffffffffffffffffffffffffffffffffff00ff1690555b5050565b60009081526032602052604090205473ffffffffffffffffffffffffffffffffffffffff1690565b600054610100900460ff1680610a885750610a88611b35565b80610a96575060005460ff16155b610aeb576040517f08c379a000000000000000000000000000000000000000000000000000000000815260040180806020018281038252602e815260200180611c95602e913960400191505060405180910390fd5b600054610100900460ff16158015610b5157600080547fffffffffffffffffffffffffffffffffffffffffffffffffffffffffffffff007fffffffffffffffffffffffffffffffffffffffffffffffffffffffffffff00ff909116610100171660011790555b610b5a82611179565b8015610a4357600080547fffffffffffffffffffffffffffffffffffffffffffffffffffffffffffff00ff1690555050565b60015473ffffffffffffffffffffffffffffffffffffffff163314610bfc576040517f08c379a0000000000000000000000000000000000000000000000000000000008152600401808060200182810382526035815260200180611ce46035913960400191505060405180910390fd5b6000805460015473ffffffffffffffffffffffffffffffffffffffff908116620100009081027fffffffffffffffffffff0000000000000000000000000000000000000000ffff8416179384905560408051938290048316808552919094049091166020830152825190927f7e644d79422f17c01e4894b5f4f588d331ebfa28653d42ae832dc59e38c9798f928290030190a150565b60005462010000900473ffffffffffffffffffffffffffffffffffffffff163314610d08576040517f08c379a0000000000000000000000000000000000000000000000000000000008152600401808060200182810382526045815260200180611c506045913960600191505060405180910390fd5b60008173ffffffffffffffffffffffffffffffffffffffff1663fa3caae06040518163ffffffff1660e01b815260040160206040518083038186803b158015610d5057600080fd5b505afa158015610d64573d6000803e3d6000fd5b505050506040513d6020811015610d7a57600080fd5b505160008181526032602052604090205490915073ffffffffffffffffffffffffffffffffffffffff1615610e1057604080517f08c379a000000000000000000000000000000000000000000000000000000000815260206004820152601460248201527f417373657420616c726561647920657869737473000000000000000000000000604482015290519081900360640190fd5b73ffffffffffffffffffffffffffffffffffffffff821660009081526065602052604090205415610ea257604080517f08c379a000000000000000000000000000000000000000000000000000000000815260206004820152601c60248201527f4173736574206164647265737320616c72656164792065786973747300000000604482015290519081900360640190fd5b60648054600181019091557f26700e13983fefbd9cf16da2ed70fa5c6798ac55062a4803121a869731e308d201805473ffffffffffffffffffffffffffffffffffffffff84167fffffffffffffffffffffffff00000000000000000000000000000000000000009182168117909255600083815260326020908152604080832080549094168517909355838252606581529082902084905581518481529081019290925280517f40f827e634613815ed6a93089e5fbbf24ed40bdb9390d7ae0f08dc64a03fe5759281900390910190a15050565b60005462010000900473ffffffffffffffffffffffffffffffffffffffff163314610fec576040517f08c379a0000000000000000000000000000000000000000000000000000000008152600401808060200182810382526045815260200180611c506045913960600191505060405180910390fd5b8161105857604080517f08c379a000000000000000000000000000000000000000000000000000000000815260206004820152601560248201527f6e616d652063616e206e6f7420626520656d7074790000000000000000000000604482015290519081900360640190fd5b73ffffffffffffffffffffffffffffffffffffffff81166110da57604080517f08c379a000000000000000000000000000000000000000000000000000000000815260206004820152601360248201527f616464726573732063616e6e6f74206265203000000000000000000000000000604482015290519081900360640190fd5b60008281526032602090815260409182902080547fffffffffffffffffffffffff00000000000000000000000000000000000000001673ffffffffffffffffffffffffffffffffffffffff851690811790915582518581529182015281517fc4377493effe961187873838bd3731307f7f558c661681598f57c5d85831e8b3929181900390910190a15050565b60656020526000908152604090205481565b600054610100900460ff16806111925750611192611b35565b806111a0575060005460ff16155b6111f5576040517f08c379a000000000000000000000000000000000000000000000000000000000815260040180806020018281038252602e815260200180611c95602e913960400191505060405180910390fd5b600054610100900460ff1615801561125b57600080547fffffffffffffffffffffffffffffffffffffffffffffffffffffffffffffff007fffffffffffffffffffffffffffffffffffffffffffffffffffffffffffff00ff909116610100171660011790555b610b5a82610841565b60015473ffffffffffffffffffffffffffffffffffffffff1681565b6064818154811061128d57fe5b60009182526020909120015473ffffffffffffffffffffffffffffffffffffffff16905081565b60008381526032602052604081205473ffffffffffffffffffffffffffffffffffffffff16838382611362576040517f08c379a000000000000000000000000000000000000000000000000000000000815260206004820190815260248201839052908190604401848480828437600083820152604051601f9091017fffffffffffffffffffffffffffffffffffffffffffffffffffffffffffffffe0169092018290039550909350505050fd5b509095945050505050565b60645490565b60005462010000900473ffffffffffffffffffffffffffffffffffffffff1633146113e9576040517f08c379a0000000000000000000000000000000000000000000000000000000008152600401808060200182810382526045815260200180611c506045913960600191505060405180910390fd5b60008181526032602052604090205473ffffffffffffffffffffffffffffffffffffffff168061147a57604080517f08c379a000000000000000000000000000000000000000000000000000000000815260206004820152601460248201527f617373657420646f6573206e6f74206578697374000000000000000000000000604482015290519081900360640190fd5b60005b60645481101561162c578173ffffffffffffffffffffffffffffffffffffffff16606482815481106114ab57fe5b60009182526020909120015473ffffffffffffffffffffffffffffffffffffffff16141561162457606481815481106114e057fe5b600091825260209091200180547fffffffffffffffffffffffff0000000000000000000000000000000000000000169055606480547fffffffffffffffffffffffffffffffffffffffffffffffffffffffffffffffff810190811061154157fe5b6000918252602090912001546064805473ffffffffffffffffffffffffffffffffffffffff909216918390811061157457fe5b9060005260206000200160006101000a81548173ffffffffffffffffffffffffffffffffffffffff021916908373ffffffffffffffffffffffffffffffffffffffff16021790555060648054806115c757fe5b60008281526020902081017fffffffffffffffffffffffffffffffffffffffffffffffffffffffffffffffff90810180547fffffffffffffffffffffffff000000000000000000000000000000000000000016905501905561162c565b60010161147d565b5073ffffffffffffffffffffffffffffffffffffffff81166000818152606560209081526040808320839055858352603282529182902080547fffffffffffffffffffffffff000000000000000000000000000000000000000016905581518581529081019290925280517f9d181adb70e733f5235f839c1eed929407ea8526e41d01f49b9fef703e78dddf9281900390910190a15050565b606454606090819067ffffffffffffffff811180156116e357600080fd5b5060405190808252806020026020018201604052801561170d578160200160208202803683370190505b50905060005b60645481101561178e576064818154811061172a57fe5b9060005260206000200160009054906101000a900473ffffffffffffffffffffffffffffffffffffffff1682828151811061176157fe5b73ffffffffffffffffffffffffffffffffffffffff90921660209283029190910190910152600101611713565b50905090565b60326020526000908152604090205473ffffffffffffffffffffffffffffffffffffffff1681565b7f5368756d50726963657300000000000000000000000000000000000000000000600090815260326020527fec6a92297b5e33fa130b9487ea491ebc73653636388df9486f460bb3c16a07b25473ffffffffffffffffffffffffffffffffffffffff1661188a57604080517f08c379a000000000000000000000000000000000000000000000000000000000815260206004820181905260248201527f5368756d50726963657320616464726573732063616e6e6f7420616363657373604482015290519081900360640190fd5b7f5368756d50726963657300000000000000000000000000000000000000000000600090815260326020527fec6a92297b5e33fa130b9487ea491ebc73653636388df9486f460bb3c16a07b25473ffffffffffffffffffffffffffffffffffffffff16905b606454811015611b0e5760008273ffffffffffffffffffffffffffffffffffffffff166331d98b3f6064848154811061192457fe5b60009182526020918290200154604080517ffa3caae0000000000000000000000000000000000000000000000000000000008152905173ffffffffffffffffffffffffffffffffffffffff9092169263fa3caae092600480840193829003018186803b15801561199357600080fd5b505afa1580156119a7573d6000803e3d6000fd5b505050506040513d60208110156119bd57600080fd5b5051604080517fffffffff0000000000000000000000000000000000000000000000000000000060e085901b1681526004810192909252516024808301926020929190829003018186803b158015611a1457600080fd5b505afa158015611a28573d6000803e3d6000fd5b505050506040513d6020811015611a3e57600080fd5b505160648054919250611b0391611afc91849186908110611a5b57fe5b60009182526020918290200154604080517f18160ddd000000000000000000000000000000000000000000000000000000008152905173ffffffffffffffffffffffffffffffffffffffff909216926318160ddd92600480840193829003018186803b158015611aca57600080fd5b505afa158015611ade573d6000803e3d6000fd5b505050506040513d6020811015611af457600080fd5b505190611b3b565b8590611b61565b9350506001016118ef565b505090565b60005462010000900473ffffffffffffffffffffffffffffffffffffffff1681565b303b1590565b6000670de0b6b3a7640000611b508484611bdc565b81611b5757fe5b0490505b92915050565b600082820183811015611bd557604080517f08c379a000000000000000000000000000000000000000000000000000000000815260206004820152601b60248201527f536166654d6174683a206164646974696f6e206f766572666c6f770000000000604482015290519081900360640190fd5b9392505050565b600082611beb57506000611b5b565b82820282848281611bf857fe5b0414611bd5576040517f08c379a0000000000000000000000000000000000000000000000000000000008152600401808060200182810382526021815260200180611cc36021913960400191505060405180910390fdfe5368756d41646d696e5570677261646561626c653a206f6e6c792074686520636f6e74726163742061646d696e2063616e20706572666f726d207468697320616374696f6e496e697469616c697a61626c653a20636f6e747261637420697320616c726561647920696e697469616c697a6564536166654d6174683a206d756c7469706c69636174696f6e206f766572666c6f775368756d41646d696e5570677261646561626c653a206f6e6c792063616e6469646174652063616e206265636f6d652061646d696e5368756d41646d696e5570677261646561626c653a207a65726f2061646472657373a2646970667358221220b8570c7ef9f54663ac423129da50cd83f21e4d88ceca0576e78f7ce06d21342a64736f6c634300060c0033",
  "linkReferences": {},
  "deployedLinkReferences": {}
}