{
  "_format": "hh-sol-artifact-1",
  "contractName": "MockShumRewardLocker",
  "sourceName": "contracts/mock/MockShumRewardLocker.sol",
  "abi": [
    {
      "inputs": [
        {
          "internalType": "address",
          "name": "_user",
          "type": "address"
        },
        {
          "internalType": "uint256",
          "name": "_amount",
          "type": "uint256"
        },
        {
          "internalType": "uint256",
          "name": "_lockTo",
          "type": "uint256"
        }
      ],
      "name": "addReward",
      "outputs": [],
      "stateMutability": "nonpayable",
      "type": "function"
    },
    {
      "inputs": [],
      "name": "lastAppendRewardCall",
      "outputs": [
        {
          "internalType": "address",
          "name": "_user",
          "type": "address"
        },
        {
          "internalType": "uint256",
          "name": "_amount",
          "type": "uint256"
        },
        {
          "internalType": "uint256",
          "name": "_lockTo",
          "type": "uint256"
        }
      ],
      "stateMutability": "view",
      "type": "function"
    }
  ],
  "bytecode": "0x608060405234801561001057600080fd5b50610249806100206000396000f3fe608060405234801561001057600080fd5b50600436106100365760003560e01c806337a435121461003b57806344ea559a14610078575b600080fd5b6100436100b9565b6040805173ffffffffffffffffffffffffffffffffffffffff9094168452602084019290925282820152519081900360600190f35b6100b76004803603606081101561008e57600080fd5b5073ffffffffffffffffffffffffffffffffffffffff8135169060208101359060400135610130565b005b6000806000806000600160008054905003815481106100d457fe5b600091825260209182902060408051606081018252600393909302909101805473ffffffffffffffffffffffffffffffffffffffff16808452600182015494840185905260029091015492909101829052969195509350915050565b6040805160608101825273ffffffffffffffffffffffffffffffffffffffff9485168152602081019384529081019182526000805460018101825590805290517f290decd9548b62a8d60345a988386fc84ba6bc95484008f6362f93160ef3e563600390920291820180547fffffffffffffffffffffffff000000000000000000000000000000000000000016919095161790935590517f290decd9548b62a8d60345a988386fc84ba6bc95484008f6362f93160ef3e564830155517f290decd9548b62a8d60345a988386fc84ba6bc95484008f6362f93160ef3e5659091015556fea2646970667358221220b35ffc2b6427a7ed682eb63e677fce1575e69770b0489e43715d7be1ab5a8d2064736f6c63430007060033",
  "linkReferences": {},
  "deployedLinkReferences": {}
}