{
  "_format": "hh-sol-artifact-1",
  "contractName": "ShumErc20Bridge",
  "sourceName": "contracts/ShumErc20Bridge.sol",
  "abi": [
    {
      "anonymous": false,
      "inputs": [
        {
          "indexed": false,
          "internalType": "address",
          "name": "oldAdmin",
          "type": "address"
        },
        {
          "indexed": false,
          "internalType": "address",
          "name": "newAdmin",
          "type": "address"
        }
      ],
      "name": "AdminChanged",
      "type": "event"
    },
    {
      "anonymous": false,
      "inputs": [
        {
          "indexed": false,
          "internalType": "address",
          "name": "oldCandidate",
          "type": "address"
        },
        {
          "indexed": false,
          "internalType": "address",
          "name": "newCandidate",
          "type": "address"
        }
      ],
      "name": "CandidateChanged",
      "type": "event"
    },
    {
      "anonymous": false,
      "inputs": [
        {
          "indexed": false,
          "internalType": "bytes32",
          "name": "tokenKey",
          "type": "bytes32"
        },
        {
          "indexed": false,
          "internalType": "uint256",
          "name": "chainId",
          "type": "uint256"
        }
      ],
      "name": "ChainSupportForTokenAdded",
      "type": "event"
    },
    {
      "anonymous": false,
      "inputs": [
        {
          "indexed": false,
          "internalType": "bytes32",
          "name": "tokenKey",
          "type": "bytes32"
        },
        {
          "indexed": false,
          "internalType": "uint256",
          "name": "chainId",
          "type": "uint256"
        }
      ],
      "name": "ChainSupportForTokenDropped",
      "type": "event"
    },
    {
      "anonymous": false,
      "inputs": [
        {
          "indexed": false,
          "internalType": "address",
          "name": "oldRelayer",
          "type": "address"
        },
        {
          "indexed": false,
          "internalType": "address",
          "name": "newRelayer",
          "type": "address"
        }
      ],
      "name": "RelayerChanged",
      "type": "event"
    },
    {
      "anonymous": false,
      "inputs": [
        {
          "indexed": false,
          "internalType": "bytes32",
          "name": "tokenKey",
          "type": "bytes32"
        },
        {
          "indexed": false,
          "internalType": "address",
          "name": "tokenAddress",
          "type": "address"
        },
        {
          "indexed": false,
          "internalType": "uint8",
          "name": "lockType",
          "type": "uint8"
        }
      ],
      "name": "TokenAdded",
      "type": "event"
    },
    {
      "anonymous": false,
      "inputs": [
        {
          "indexed": false,
          "internalType": "uint256",
          "name": "srcChainId",
          "type": "uint256"
        },
        {
          "indexed": false,
          "internalType": "uint256",
          "name": "destChainId",
          "type": "uint256"
        },
        {
          "indexed": false,
          "internalType": "uint256",
          "name": "depositId",
          "type": "uint256"
        },
        {
          "indexed": false,
          "internalType": "bytes32",
          "name": "depositor",
          "type": "bytes32"
        },
        {
          "indexed": false,
          "internalType": "bytes32",
          "name": "recipient",
          "type": "bytes32"
        },
        {
          "indexed": false,
          "internalType": "bytes32",
          "name": "currency",
          "type": "bytes32"
        },
        {
          "indexed": false,
          "internalType": "uint256",
          "name": "amount",
          "type": "uint256"
        }
      ],
      "name": "TokenDeposited",
      "type": "event"
    },
    {
      "anonymous": false,
      "inputs": [
        {
          "indexed": false,
          "internalType": "bytes32",
          "name": "tokenKey",
          "type": "bytes32"
        }
      ],
      "name": "TokenRemoved",
      "type": "event"
    },
    {
      "anonymous": false,
      "inputs": [
        {
          "indexed": false,
          "internalType": "uint256",
          "name": "srcChainId",
          "type": "uint256"
        },
        {
          "indexed": false,
          "internalType": "uint256",
          "name": "destChainId",
          "type": "uint256"
        },
        {
          "indexed": false,
          "internalType": "uint256",
          "name": "depositId",
          "type": "uint256"
        },
        {
          "indexed": false,
          "internalType": "bytes32",
          "name": "depositor",
          "type": "bytes32"
        },
        {
          "indexed": false,
          "internalType": "bytes32",
          "name": "recipient",
          "type": "bytes32"
        },
        {
          "indexed": false,
          "internalType": "bytes32",
          "name": "currency",
          "type": "bytes32"
        },
        {
          "indexed": false,
          "internalType": "uint256",
          "name": "amount",
          "type": "uint256"
        }
      ],
      "name": "TokenWithdrawn",
      "type": "event"
    },
    {
      "inputs": [],
      "name": "DEPOSIT_TYPEHASH",
      "outputs": [
        {
          "internalType": "bytes32",
          "name": "",
          "type": "bytes32"
        }
      ],
      "stateMutability": "view",
      "type": "function"
    },
    {
      "inputs": [],
      "name": "DOMAIN_SEPARATOR",
      "outputs": [
        {
          "internalType": "bytes32",
          "name": "",
          "type": "bytes32"
        }
      ],
      "stateMutability": "view",
      "type": "function"
    },
    {
      "inputs": [],
      "name": "TOKEN_LOCK_TYPE_MINT_BURN",
      "outputs": [
        {
          "internalType": "uint8",
          "name": "",
          "type": "uint8"
        }
      ],
      "stateMutability": "view",
      "type": "function"
    },
    {
      "inputs": [],
      "name": "TOKEN_LOCK_TYPE_TRANSFER",
      "outputs": [
        {
          "internalType": "uint8",
          "name": "",
          "type": "uint8"
        }
      ],
      "stateMutability": "view",
      "type": "function"
    },
    {
      "inputs": [
        {
          "internalType": "address",
          "name": "_admin",
          "type": "address"
        }
      ],
      "name": "__ShumAdminUpgradeable_init",
      "outputs": [],
      "stateMutability": "nonpayable",
      "type": "function"
    },
    {
      "inputs": [
        {
          "internalType": "address",
          "name": "_relayer",
          "type": "address"
        },
        {
          "internalType": "address",
          "name": "_admin",
          "type": "address"
        }
      ],
      "name": "__ShumErc20Bridge_init",
      "outputs": [],
      "stateMutability": "nonpayable",
      "type": "function"
    },
    {
      "inputs": [
        {
          "internalType": "bytes32",
          "name": "tokenKey",
          "type": "bytes32"
        },
        {
          "internalType": "uint256",
          "name": "chainId",
          "type": "uint256"
        }
      ],
      "name": "addChainSupportForToken",
      "outputs": [],
      "stateMutability": "nonpayable",
      "type": "function"
    },
    {
      "inputs": [
        {
          "internalType": "bytes32",
          "name": "tokenKey",
          "type": "bytes32"
        },
        {
          "internalType": "address",
          "name": "tokenAddress",
          "type": "address"
        },
        {
          "internalType": "uint8",
          "name": "lockType",
          "type": "uint8"
        }
      ],
      "name": "addToken",
      "outputs": [],
      "stateMutability": "nonpayable",
      "type": "function"
    },
    {
      "inputs": [],
      "name": "admin",
      "outputs": [
        {
          "internalType": "address",
          "name": "",
          "type": "address"
        }
      ],
      "stateMutability": "view",
      "type": "function"
    },
    {
      "inputs": [],
      "name": "becomeAdmin",
      "outputs": [],
      "stateMutability": "nonpayable",
      "type": "function"
    },
    {
      "inputs": [],
      "name": "candidate",
      "outputs": [
        {
          "internalType": "address",
          "name": "",
          "type": "address"
        }
      ],
      "stateMutability": "view",
      "type": "function"
    },
    {
      "inputs": [],
      "name": "currentChainId",
      "outputs": [
        {
          "internalType": "uint256",
          "name": "",
          "type": "uint256"
        }
      ],
      "stateMutability": "view",
      "type": "function"
    },
    {
      "inputs": [
        {
          "internalType": "bytes32",
          "name": "token",
          "type": "bytes32"
        },
        {
          "internalType": "uint256",
          "name": "amount",
          "type": "uint256"
        },
        {
          "internalType": "uint256",
          "name": "destChainId",
          "type": "uint256"
        },
        {
          "internalType": "bytes32",
          "name": "recipient",
          "type": "bytes32"
        }
      ],
      "name": "deposit",
      "outputs": [],
      "stateMutability": "nonpayable",
      "type": "function"
    },
    {
      "inputs": [],
      "name": "depositCount",
      "outputs": [
        {
          "internalType": "uint256",
          "name": "",
          "type": "uint256"
        }
      ],
      "stateMutability": "view",
      "type": "function"
    },
    {
      "inputs": [
        {
          "internalType": "bytes32",
          "name": "tokenKey",
          "type": "bytes32"
        },
        {
          "internalType": "uint256",
          "name": "chainId",
          "type": "uint256"
        }
      ],
      "name": "dropChainSupportForToken",
      "outputs": [],
      "stateMutability": "nonpayable",
      "type": "function"
    },
    {
      "inputs": [
        {
          "internalType": "bytes32",
          "name": "tokenKey",
          "type": "bytes32"
        }
      ],
      "name": "getTokenAddress",
      "outputs": [
        {
          "internalType": "address",
          "name": "",
          "type": "address"
        }
      ],
      "stateMutability": "view",
      "type": "function"
    },
    {
      "inputs": [
        {
          "internalType": "bytes32",
          "name": "tokenKey",
          "type": "bytes32"
        }
      ],
      "name": "getTokenLockType",
      "outputs": [
        {
          "internalType": "uint8",
          "name": "",
          "type": "uint8"
        }
      ],
      "stateMutability": "view",
      "type": "function"
    },
    {
      "inputs": [
        {
          "internalType": "bytes32",
          "name": "tokenKey",
          "type": "bytes32"
        },
        {
          "internalType": "uint256",
          "name": "chainId",
          "type": "uint256"
        }
      ],
      "name": "isTokenSupportedOnChain",
      "outputs": [
        {
          "internalType": "bool",
          "name": "",
          "type": "bool"
        }
      ],
      "stateMutability": "view",
      "type": "function"
    },
    {
      "inputs": [],
      "name": "relayer",
      "outputs": [
        {
          "internalType": "address",
          "name": "",
          "type": "address"
        }
      ],
      "stateMutability": "view",
      "type": "function"
    },
    {
      "inputs": [
        {
          "internalType": "bytes32",
          "name": "tokenKey",
          "type": "bytes32"
        }
      ],
      "name": "removeToken",
      "outputs": [],
      "stateMutability": "nonpayable",
      "type": "function"
    },
    {
      "inputs": [
        {
          "internalType": "address",
          "name": "_candidate",
          "type": "address"
        }
      ],
      "name": "setCandidate",
      "outputs": [],
      "stateMutability": "nonpayable",
      "type": "function"
    },
    {
      "inputs": [
        {
          "internalType": "address",
          "name": "_relayer",
          "type": "address"
        }
      ],
      "name": "setRelayer",
      "outputs": [],
      "stateMutability": "nonpayable",
      "type": "function"
    },
    {
      "inputs": [
        {
          "internalType": "bytes32",
          "name": "",
          "type": "bytes32"
        }
      ],
      "name": "tokenInfos",
      "outputs": [
        {
          "internalType": "address",
          "name": "tokenAddress",
          "type": "address"
        },
        {
          "internalType": "uint8",
          "name": "lockType",
          "type": "uint8"
        }
      ],
      "stateMutability": "view",
      "type": "function"
    },
    {
      "inputs": [
        {
          "internalType": "bytes32",
          "name": "",
          "type": "bytes32"
        },
        {
          "internalType": "uint256",
          "name": "",
          "type": "uint256"
        }
      ],
      "name": "tokenSupportedOnChain",
      "outputs": [
        {
          "internalType": "bool",
          "name": "",
          "type": "bool"
        }
      ],
      "stateMutability": "view",
      "type": "function"
    },
    {
      "inputs": [
        {
          "internalType": "uint256",
          "name": "srcChainId",
          "type": "uint256"
        },
        {
          "internalType": "uint256",
          "name": "destChainId",
          "type": "uint256"
        },
        {
          "internalType": "uint256",
          "name": "depositId",
          "type": "uint256"
        },
        {
          "internalType": "bytes32",
          "name": "depositor",
          "type": "bytes32"
        },
        {
          "internalType": "bytes32",
          "name": "recipient",
          "type": "bytes32"
        },
        {
          "internalType": "bytes32",
          "name": "currency",
          "type": "bytes32"
        },
        {
          "internalType": "uint256",
          "name": "amount",
          "type": "uint256"
        },
        {
          "internalType": "bytes",
          "name": "signature",
          "type": "bytes"
        }
      ],
      "name": "withdraw",
      "outputs": [],
      "stateMutability": "nonpayable",
      "type": "function"
    },
    {
      "inputs": [
        {
          "internalType": "uint256",
          "name": "",
          "type": "uint256"
        },
        {
          "internalType": "uint256",
          "name": "",
          "type": "uint256"
        }
      ],
      "name": "withdrawnDeposits",
      "outputs": [
        {
          "internalType": "bool",
          "name": "",
          "type": "bool"
        }
      ],
      "stateMutability": "view",
      "type": "function"
    }
  ],
  "bytecode": "0x608060405234801561001057600080fd5b50612948806100206000396000f3fe608060405234801561001057600080fd5b50600436106101ae5760003560e01c80636548e9bc116100ee57806390f1f17b11610097578063b12e441011610071578063b12e441014610517578063b594909114610534578063d22ed8b614610576578063f851a44014610599576101ae565b806390f1f17b14610485578063a59d71fc146104d4578063a8d6e15d1461050f576101ae565b80636dea0619116100c85780636dea0619146103c35780637ba898f7146104605780638406c0791461047d576101ae565b80636548e9bc146103575780636c8381f81461038a5780636cbadbfa146103bb576101ae565b80632dfdf0b51161015b57806348825e941161013557806348825e94146102eb5780634c5dd3f3146102f35780634ff5174c146103165780636025e49214610339576101ae565b80632dfdf0b51461029a5780633644e515146102b457806339eeee44146102bc576101ae565b8063224e74621161018c578063224e74621461025257806325971dff1461026f5780632bca8a7514610277576101ae565b80630589b8b2146101b357806307880b7f146101ea5780631733c9c81461021f575b600080fd5b6101d6600480360360408110156101c957600080fd5b50803590602001356105a1565b604080519115158252519081900360200190f35b61021d6004803603602081101561020057600080fd5b503573ffffffffffffffffffffffffffffffffffffffff166105c1565b005b61021d6004803603602081101561023557600080fd5b503573ffffffffffffffffffffffffffffffffffffffff166106be565b61021d6004803603602081101561026857600080fd5b50356108c4565b61021d610a20565b6101d66004803603604081101561028d57600080fd5b5080359060200135610b26565b6102a2610b46565b60408051918252519081900360200190f35b6102a2610b4c565b61021d600480360360808110156102d257600080fd5b5080359060208101359060408101359060600135610b52565b6102a2610f1f565b61021d6004803603604081101561030957600080fd5b5080359060200135610f43565b61021d6004803603604081101561032c57600080fd5b50803590602001356110ab565b610341611225565b6040805160ff9092168252519081900360200190f35b61021d6004803603602081101561036d57600080fd5b503573ffffffffffffffffffffffffffffffffffffffff1661122a565b6103926112ac565b6040805173ffffffffffffffffffffffffffffffffffffffff9092168252519081900360200190f35b6102a26112c8565b61021d60048036036101008110156103da57600080fd5b81359160208101359160408201359160608101359160808201359160a08101359160c08201359190810190610100810160e082013564010000000081111561042157600080fd5b82018360208201111561043357600080fd5b8035906020019184600183028401116401000000008311171561045557600080fd5b5090925090506112ce565b6103416004803603602081101561047657600080fd5b5035611832565b61039261185f565b6104a26004803603602081101561049b57600080fd5b503561187b565b6040805173ffffffffffffffffffffffffffffffffffffffff909316835260ff90911660208301528051918290030190f35b61021d600480360360408110156104ea57600080fd5b5073ffffffffffffffffffffffffffffffffffffffff813581169160200135166118c0565b610341611af0565b6103926004803603602081101561052d57600080fd5b5035611af5565b61021d6004803603606081101561054a57600080fd5b50803590602081013573ffffffffffffffffffffffffffffffffffffffff16906040013560ff16611b1d565b6101d66004803603604081101561058c57600080fd5b5080359060200135611dea565b610392611e0a565b603660209081526000928352604080842090915290825290205460ff1681565b60005462010000900473ffffffffffffffffffffffffffffffffffffffff163314610637576040517f08c379a000000000000000000000000000000000000000000000000000000000815260040180806020018281038252604581526020018061273b6045913960600191505060405180910390fd5b6001805473ffffffffffffffffffffffffffffffffffffffff8381167fffffffffffffffffffffffff0000000000000000000000000000000000000000831617928390556040805192821680845293909116602083015280517f7f730391c4f0fa1bea34bcb9bff8c30a079b21a0359759160cb990648ab84c729281900390910190a15050565b600054610100900460ff16806106d757506106d7611e2c565b806106e5575060005460ff16155b61073a576040517f08c379a000000000000000000000000000000000000000000000000000000000815260040180806020018281038252602e815260200180612780602e913960400191505060405180910390fd5b600054610100900460ff161580156107a057600080547fffffffffffffffffffffffffffffffffffffffffffffffffffffffffffffff007fffffffffffffffffffffffffffffffffffffffffffffffffffffffffffff00ff909116610100171660011790555b73ffffffffffffffffffffffffffffffffffffffff821661080c576040517f08c379a00000000000000000000000000000000000000000000000000000000081526004018080602001828103825260228152602001806128f16022913960400191505060405180910390fd5b600080547fffffffffffffffffffff0000000000000000000000000000000000000000ffff166201000073ffffffffffffffffffffffffffffffffffffffff851690810291909117825560408051928352602083019190915280517f7e644d79422f17c01e4894b5f4f588d331ebfa28653d42ae832dc59e38c9798f9281900390910190a180156108c057600080547fffffffffffffffffffffffffffffffffffffffffffffffffffffffffffff00ff1690555b5050565b60005462010000900473ffffffffffffffffffffffffffffffffffffffff16331461093a576040517f08c379a000000000000000000000000000000000000000000000000000000000815260040180806020018281038252604581526020018061273b6045913960600191505060405180910390fd5b60008181526035602052604090205473ffffffffffffffffffffffffffffffffffffffff166109b4576040517f08c379a00000000000000000000000000000000000000000000000000000000081526004018080602001828103825260268152602001806127156026913960400191505060405180910390fd5b60008181526035602090815260409182902080547fffffffffffffffffffffff000000000000000000000000000000000000000000169055815183815291517f27b51627532fe8cd0df946e5a9590efb06cc367d3d611c1e4084c7e1dccb3ab49281900390910190a150565b60015473ffffffffffffffffffffffffffffffffffffffff163314610a90576040517f08c379a00000000000000000000000000000000000000000000000000000000081526004018080602001828103825260358152602001806128506035913960400191505060405180910390fd5b6000805460015473ffffffffffffffffffffffffffffffffffffffff908116620100009081027fffffffffffffffffffff0000000000000000000000000000000000000000ffff8416179384905560408051938290048316808552919094049091166020830152825190927f7e644d79422f17c01e4894b5f4f588d331ebfa28653d42ae832dc59e38c9798f928290030190a150565b603760209081526000928352604080842090915290825290205460ff1681565b60345481565b60385481565b60008481526035602090815260409182902082518084019093525473ffffffffffffffffffffffffffffffffffffffff81168084527401000000000000000000000000000000000000000090910460ff1691830191909152610c1557604080517f08c379a000000000000000000000000000000000000000000000000000000000815260206004820181905260248201527f5368756d45726332304272696467653a20746f6b656e206e6f7420666f756e64604482015290519081900360640190fd5b60008411610c6e576040517f08c379a00000000000000000000000000000000000000000000000000000000081526004018080602001828103825260288152602001806127d06028913960400191505060405180910390fd5b603254831415610cc9576040517f08c379a00000000000000000000000000000000000000000000000000000000081526004018080602001828103825260308152602001806127f86030913960400191505060405180910390fd5b610cd38584611dea565b610d28576040517f08c379a000000000000000000000000000000000000000000000000000000000815260040180806020018281038252602d81526020018061265b602d913960400191505060405180910390fd5b81610d9457604080517f08c379a000000000000000000000000000000000000000000000000000000000815260206004820152601d60248201527f5368756d45726332304272696467653a207a65726f2061646472657373000000604482015290519081900360640190fd5b603480546001908101909155602082015160ff161415610dc1578051610dbc90333087611e32565b610eb7565b602081015160ff1660021415610e66578051604080517f9dc29fac00000000000000000000000000000000000000000000000000000000815233600482015260248101879052905173ffffffffffffffffffffffffffffffffffffffff90921691639dc29fac9160448082019260009290919082900301818387803b158015610e4957600080fd5b505af1158015610e5d573d6000803e3d6000fd5b50505050610eb7565b6040517f08c379a00000000000000000000000000000000000000000000000000000000081526004018080602001828103825260288152602001806128286028913960400191505060405180910390fd5b6032546034546040805192835260208301869052828101919091523360608301526080820184905260a0820187905260c08201869052517fe048043259af829807fad585485c031d37a62916d79cf4ed94a2c6e7e61f4fb09181900360e00190a15050505050565b7f7dea0ff38c20ec194d3cb84e9720e47fce7770d8b28af58ea15562bc9cf5286081565b60005462010000900473ffffffffffffffffffffffffffffffffffffffff163314610fb9576040517f08c379a000000000000000000000000000000000000000000000000000000000815260040180806020018281038252604581526020018061273b6045913960600191505060405180910390fd5b600082815260366020908152604080832084845290915290205460ff161561102c576040517f08c379a00000000000000000000000000000000000000000000000000000000081526004018080602001828103825260228152602001806126396022913960400191505060405180910390fd5b600082815260366020908152604080832084845282529182902080547fffffffffffffffffffffffffffffffffffffffffffffffffffffffffffffff00166001179055815184815290810183905281517f71d564e28114f33667381ae9c6bfadc1254fab8fb4e6a9606bfa512cb5e7df49929181900390910190a15050565b60005462010000900473ffffffffffffffffffffffffffffffffffffffff163314611121576040517f08c379a000000000000000000000000000000000000000000000000000000000815260040180806020018281038252604581526020018061273b6045913960600191505060405180910390fd5b600082815260366020908152604080832084845290915290205460ff166111a957604080517f08c379a000000000000000000000000000000000000000000000000000000000815260206004820152601e60248201527f5368756d45726332304272696467653a206e6f7420737570706f727465640000604482015290519081900360640190fd5b600082815260366020908152604080832084845282529182902080547fffffffffffffffffffffffffffffffffffffffffffffffffffffffffffffff00169055815184815290810183905281517fb8a301810556c08eff893eded78cbada9895cdb3c3976c53f3c48073e23d2422929181900390910190a15050565b600181565b60005462010000900473ffffffffffffffffffffffffffffffffffffffff1633146112a0576040517f08c379a000000000000000000000000000000000000000000000000000000000815260040180806020018281038252604581526020018061273b6045913960600191505060405180910390fd5b6112a981612035565b50565b60015473ffffffffffffffffffffffffffffffffffffffff1681565b60325481565b603254881461133e57604080517f08c379a000000000000000000000000000000000000000000000000000000000815260206004820152601c60248201527f5368756d45726332304272696467653a2077726f6e6720636861696e00000000604482015290519081900360640190fd5b60008981526037602090815260408083208a845290915290205460ff16156113b1576040517f08c379a00000000000000000000000000000000000000000000000000000000081526004018080602001828103825260228152602001806126f36022913960400191505060405180910390fd5b8461141d57604080517f08c379a000000000000000000000000000000000000000000000000000000000815260206004820152601d60248201527f5368756d45726332304272696467653a207a65726f2061646472657373000000604482015290519081900360640190fd5b60008311611476576040517f08c379a00000000000000000000000000000000000000000000000000000000081526004018080602001828103825260288152602001806127d06028913960400191505060405180910390fd5b60008481526035602090815260409182902082518084019093525473ffffffffffffffffffffffffffffffffffffffff81168084527401000000000000000000000000000000000000000090910460ff169183019190915261153957604080517f08c379a000000000000000000000000000000000000000000000000000000000815260206004820181905260248201527f5368756d45726332304272696467653a20746f6b656e206e6f7420666f756e64604482015290519081900360640190fd5b603854604080517f7dea0ff38c20ec194d3cb84e9720e47fce7770d8b28af58ea15562bc9cf528606020808301919091528183018e9052606082018d9052608082018c905260a082018b905260c082018a905260e0820189905261010080830189905283518084039091018152610120830184528051908201207f1901000000000000000000000000000000000000000000000000000000000000610140840152610142830194909452610162808301949094528251808303909401845261018282018084528451948201949094206101a2601f880183900490920283018201909352858452919260009261164a928891889182910183828082843760009201919091525086939250506121b29050565b60335490915073ffffffffffffffffffffffffffffffffffffffff8083169116146116c0576040517f08c379a00000000000000000000000000000000000000000000000000000000081526004018080602001828103825260228152602001806128aa6022913960400191505060405180910390fd5b60008c81526037602090815260408083208d8452825290912080547fffffffffffffffffffffffffffffffffffffffffffffffffffffffffffffff0016600190811790915590840151899160ff91909116141561172957835161172490828961242c565b6117c7565b602084015160ff1660021415610e6657836000015173ffffffffffffffffffffffffffffffffffffffff166340c10f1982896040518363ffffffff1660e01b8152600401808373ffffffffffffffffffffffffffffffffffffffff16815260200182815260200192505050600060405180830381600087803b1580156117ae57600080fd5b505af11580156117c2573d6000803e3d6000fd5b505050505b604080518e8152602081018e90528082018d9052606081018c9052608081018b905260a081018a905260c0810189905290517f7b585240ba8820bb7f974aecfbf00d525f6a451106a775438a3f64c48875d5709181900360e00190a150505050505050505050505050565b60009081526035602052604090205474010000000000000000000000000000000000000000900460ff1690565b60335473ffffffffffffffffffffffffffffffffffffffff1681565b60356020526000908152604090205473ffffffffffffffffffffffffffffffffffffffff81169074010000000000000000000000000000000000000000900460ff1682565b600054610100900460ff16806118d957506118d9611e2c565b806118e7575060005460ff16155b61193c576040517f08c379a000000000000000000000000000000000000000000000000000000000815260040180806020018281038252602e815260200180612780602e913960400191505060405180910390fd5b600054610100900460ff161580156119a257600080547fffffffffffffffffffffffffffffffffffffffffffffffffffffffffffffff007fffffffffffffffffffffffffffffffffffffffffffffffffffffffffffff00ff909116610100171660011790555b6119ab826106be565b6119b483612035565b466032819055604080518082018252600481527f5368756d0000000000000000000000000000000000000000000000000000000060209182015281518083018352600181527f31000000000000000000000000000000000000000000000000000000000000009082015281517f8b73c3c69bb8fe3d512ecc4cf759cc79239f7b179b0ffacaa9a75d522b39400f818301527fe99fb28557d5c729b150f108198ae8d900399ece94a7806fcc3c29ff25579985818401527fc89efdaa54c0f20c7adf612882df0950f5a951637e0307cdcb4c672f298b8bc6606082015260808101939093523060a0808501919091528251808503909101815260c090930190915281519101206038558015611aeb57600080547fffffffffffffffffffffffffffffffffffffffffffffffffffffffffffff00ff1690555b505050565b600281565b60009081526035602052604090205473ffffffffffffffffffffffffffffffffffffffff1690565b60005462010000900473ffffffffffffffffffffffffffffffffffffffff163314611b93576040517f08c379a000000000000000000000000000000000000000000000000000000000815260040180806020018281038252604581526020018061273b6045913960600191505060405180910390fd5b60008381526035602052604090205473ffffffffffffffffffffffffffffffffffffffff1615611c0e576040517f08c379a00000000000000000000000000000000000000000000000000000000081526004018080602001828103825260258152602001806128cc6025913960400191505060405180910390fd5b73ffffffffffffffffffffffffffffffffffffffff8216611c9057604080517f08c379a000000000000000000000000000000000000000000000000000000000815260206004820152601d60248201527f5368756d45726332304272696467653a207a65726f2061646472657373000000604482015290519081900360640190fd5b60ff811660011480611ca5575060ff81166002145b611cfa576040517f08c379a00000000000000000000000000000000000000000000000000000000081526004018080602001828103825260288152602001806128286028913960400191505060405180910390fd5b60408051808201825273ffffffffffffffffffffffffffffffffffffffff80851680835260ff808616602080860182815260008b81526035835288902096518754915190941674010000000000000000000000000000000000000000027fffffffffffffffffffffff00ffffffffffffffffffffffffffffffffffffffff949096167fffffffffffffffffffffffff00000000000000000000000000000000000000009091161792909216939093179093558351878152928301528183015290517fd9c6008de31d775aae4523eb2e6e6565ea965cabb3eac06153885621c3ddb0359181900360600190a1505050565b600091825260366020908152604080842092845291905290205460ff1690565b60005462010000900473ffffffffffffffffffffffffffffffffffffffff1681565b303b1590565b6000808573ffffffffffffffffffffffffffffffffffffffff166040518060600160405280602581526020016126ac6025913980516020918201206040805173ffffffffffffffffffffffffffffffffffffffff808b166024830152891660448201526064808201899052825180830390910181526084909101825292830180517bffffffffffffffffffffffffffffffffffffffffffffffffffffffff167fffffffff00000000000000000000000000000000000000000000000000000000909316929092178252518251909182918083835b60208310611f4357805182527fffffffffffffffffffffffffffffffffffffffffffffffffffffffffffffffe09092019160209182019101611f06565b6001836020036101000a0380198251168184511680821785525050505050509050019150506000604051808303816000865af19150503d8060008114611fa5576040519150601f19603f3d011682016040523d82523d6000602084013e611faa565b606091505b5091509150818015611fd8575080511580611fd85750808060200190516020811015611fd557600080fd5b50515b61202d576040517f08c379a00000000000000000000000000000000000000000000000000000000081526004018080602001828103825260258152602001806128856025913960400191505060405180910390fd5b505050505050565b73ffffffffffffffffffffffffffffffffffffffff81166120b757604080517f08c379a000000000000000000000000000000000000000000000000000000000815260206004820152601d60248201527f5368756d45726332304272696467653a207a65726f2061646472657373000000604482015290519081900360640190fd5b60335473ffffffffffffffffffffffffffffffffffffffff8281169116141561212b576040517f08c379a00000000000000000000000000000000000000000000000000000000081526004018080602001828103825260248152602001806126886024913960400191505060405180910390fd5b6033805473ffffffffffffffffffffffffffffffffffffffff8381167fffffffffffffffffffffffff0000000000000000000000000000000000000000831617928390556040805192821680845293909116602083015280517f18f08848c5694a025f9966c34ff2367f32a1a8275663b282ee01f4338b0454909281900390910190a15050565b6000815160411461222457604080517f08c379a000000000000000000000000000000000000000000000000000000000815260206004820152601f60248201527f45434453413a20696e76616c6964207369676e6174757265206c656e67746800604482015290519081900360640190fd5b60208201516040830151606084015160001a7f7fffffffffffffffffffffffffffffff5d576e7357a4501ddfe92f46681b20a08211156122af576040517f08c379a00000000000000000000000000000000000000000000000000000000081526004018080602001828103825260228152602001806126d16022913960400191505060405180910390fd5b8060ff16601b14806122c457508060ff16601c145b612319576040517f08c379a00000000000000000000000000000000000000000000000000000000081526004018080602001828103825260228152602001806127ae6022913960400191505060405180910390fd5b600060018783868660405160008152602001604052604051808581526020018460ff1681526020018381526020018281526020019450505050506020604051602081039080840390855afa158015612375573d6000803e3d6000fd5b50506040517fffffffffffffffffffffffffffffffffffffffffffffffffffffffffffffffe0015191505073ffffffffffffffffffffffffffffffffffffffff811661242257604080517f08c379a000000000000000000000000000000000000000000000000000000000815260206004820152601860248201527f45434453413a20696e76616c6964207369676e61747572650000000000000000604482015290519081900360640190fd5b9695505050505050565b604080518082018252601981527f7472616e7366657228616464726573732c75696e743235362900000000000000602091820152815173ffffffffffffffffffffffffffffffffffffffff85811660248301526044808301869052845180840390910181526064909201845291810180517bffffffffffffffffffffffffffffffffffffffffffffffffffffffff167fa9059cbb0000000000000000000000000000000000000000000000000000000017815292518151600094859489169392918291908083835b6020831061253157805182527fffffffffffffffffffffffffffffffffffffffffffffffffffffffffffffffe090920191602091820191016124f4565b6001836020036101000a0380198251168184511680821785525050505050509050019150506000604051808303816000865af19150503d8060008114612593576040519150601f19603f3d011682016040523d82523d6000602084013e612598565b606091505b50915091508180156125c65750805115806125c657508080602001905160208110156125c357600080fd5b50515b61263157604080517f08c379a000000000000000000000000000000000000000000000000000000000815260206004820181905260248201527f5368756d45726332304272696467653a207472616e73666572206661696c6564604482015290519081900360640190fd5b505050505056fe5368756d45726332304272696467653a20616c726561647920737570706f727465645368756d45726332304272696467653a20746f6b656e206e6f7420737570706f72746564206f6e20636861696e5368756d45726332304272696467653a2072656c61796572206e6f74206368616e6765647472616e7366657246726f6d28616464726573732c616464726573732c75696e743235362945434453413a20696e76616c6964207369676e6174757265202773272076616c75655368756d45726332304272696467653a20616c72656164792077697468647261776e5368756d45726332304272696467653a20746f6b656e20646f6573206e6f74206578697374735368756d41646d696e5570677261646561626c653a206f6e6c792074686520636f6e74726163742061646d696e2063616e20706572666f726d207468697320616374696f6e496e697469616c697a61626c653a20636f6e747261637420697320616c726561647920696e697469616c697a656445434453413a20696e76616c6964207369676e6174757265202776272076616c75655368756d45726332304272696467653a20616d6f756e74206d75737420626520706f7369746976655368756d45726332304272696467653a2064657374206d75737420626520646966666572656e742066726f6d207372635368756d45726332304272696467653a20756e6b6e6f776e20746f6b656e206c6f636b20747970655368756d41646d696e5570677261646561626c653a206f6e6c792063616e6469646174652063616e206265636f6d652061646d696e5368756d45726332304272696467653a207472616e736665722066726f6d206661696c65645368756d45726332304272696467653a20696e76616c6964207369676e61747572655368756d45726332304272696467653a20746f6b656e20616c7265616479206578697374735368756d41646d696e5570677261646561626c653a207a65726f2061646472657373a264697066735822122044418f20060a9987fd084b00e39577e6b558ad634f3758439b64e48e02a87d6164736f6c63430007060033",
  "linkReferences": {},
  "deployedLinkReferences": {}
}