{
  "_format": "hh-sol-artifact-1",
  "contractName": "ShumDebtSystem",
  "sourceName": "contracts/ShumDebtSystem.sol",
  "abi": [
    {
      "anonymous": false,
      "inputs": [
        {
          "indexed": false,
          "internalType": "address",
          "name": "oldAdmin",
          "type": "address"
        },
        {
          "indexed": false,
          "internalType": "address",
          "name": "newAdmin",
          "type": "address"
        }
      ],
      "name": "AdminChanged",
      "type": "event"
    },
    {
      "anonymous": false,
      "inputs": [
        {
          "indexed": false,
          "internalType": "bytes32",
          "name": "name",
          "type": "bytes32"
        },
        {
          "indexed": false,
          "internalType": "address",
          "name": "addr",
          "type": "address"
        }
      ],
      "name": "CachedAddressUpdated",
      "type": "event"
    },
    {
      "anonymous": false,
      "inputs": [
        {
          "indexed": false,
          "internalType": "address",
          "name": "oldCandidate",
          "type": "address"
        },
        {
          "indexed": false,
          "internalType": "address",
          "name": "newCandidate",
          "type": "address"
        }
      ],
      "name": "CandidateChanged",
      "type": "event"
    },
    {
      "anonymous": false,
      "inputs": [
        {
          "indexed": false,
          "internalType": "uint256",
          "name": "index",
          "type": "uint256"
        },
        {
          "indexed": false,
          "internalType": "uint256",
          "name": "newFactor",
          "type": "uint256"
        },
        {
          "indexed": false,
          "internalType": "uint256",
          "name": "timestamp",
          "type": "uint256"
        }
      ],
      "name": "PushDebtLog",
      "type": "event"
    },
    {
      "anonymous": false,
      "inputs": [
        {
          "indexed": false,
          "internalType": "address",
          "name": "oldAddr",
          "type": "address"
        },
        {
          "indexed": false,
          "internalType": "address",
          "name": "newAddr",
          "type": "address"
        }
      ],
      "name": "UpdateAddressStorage",
      "type": "event"
    },
    {
      "anonymous": false,
      "inputs": [
        {
          "indexed": false,
          "internalType": "address",
          "name": "addr",
          "type": "address"
        },
        {
          "indexed": false,
          "internalType": "uint256",
          "name": "debtProportion",
          "type": "uint256"
        },
        {
          "indexed": false,
          "internalType": "uint256",
          "name": "debtFactor",
          "type": "uint256"
        },
        {
          "indexed": false,
          "internalType": "uint256",
          "name": "timestamp",
          "type": "uint256"
        }
      ],
      "name": "UpdateUserDebtLog",
      "type": "event"
    },
    {
      "inputs": [
        {
          "internalType": "address",
          "name": "_user",
          "type": "address"
        }
      ],
      "name": "GetUserCurrentDebtProportion",
      "outputs": [
        {
          "internalType": "uint256",
          "name": "",
          "type": "uint256"
        }
      ],
      "stateMutability": "view",
      "type": "function"
    },
    {
      "inputs": [
        {
          "internalType": "address",
          "name": "_user",
          "type": "address"
        }
      ],
      "name": "GetUserDebtBalanceInUsd",
      "outputs": [
        {
          "internalType": "uint256",
          "name": "",
          "type": "uint256"
        },
        {
          "internalType": "uint256",
          "name": "",
          "type": "uint256"
        }
      ],
      "stateMutability": "view",
      "type": "function"
    },
    {
      "inputs": [
        {
          "internalType": "address",
          "name": "_user",
          "type": "address"
        }
      ],
      "name": "GetUserDebtData",
      "outputs": [
        {
          "internalType": "uint256",
          "name": "debtProportion",
          "type": "uint256"
        },
        {
          "internalType": "uint256",
          "name": "debtFactor",
          "type": "uint256"
        }
      ],
      "stateMutability": "view",
      "type": "function"
    },
    {
      "inputs": [],
      "name": "LastSystemDebtFactor",
      "outputs": [
        {
          "internalType": "uint256",
          "name": "",
          "type": "uint256"
        }
      ],
      "stateMutability": "view",
      "type": "function"
    },
    {
      "inputs": [],
      "name": "MAX_DEL_PER_TIME",
      "outputs": [
        {
          "internalType": "uint256",
          "name": "",
          "type": "uint256"
        }
      ],
      "stateMutability": "view",
      "type": "function"
    },
    {
      "inputs": [
        {
          "internalType": "uint256",
          "name": "_factor",
          "type": "uint256"
        }
      ],
      "name": "PushDebtFactor",
      "outputs": [],
      "stateMutability": "nonpayable",
      "type": "function"
    },
    {
      "inputs": [
        {
          "internalType": "uint256",
          "name": "index",
          "type": "uint256"
        }
      ],
      "name": "SetLastCloseFeePeriodAt",
      "outputs": [],
      "stateMutability": "nonpayable",
      "type": "function"
    },
    {
      "inputs": [
        {
          "internalType": "address",
          "name": "_user",
          "type": "address"
        },
        {
          "internalType": "uint256",
          "name": "_debtProportion",
          "type": "uint256"
        },
        {
          "internalType": "uint256",
          "name": "_factor",
          "type": "uint256"
        }
      ],
      "name": "UpdateDebt",
      "outputs": [],
      "stateMutability": "nonpayable",
      "type": "function"
    },
    {
      "inputs": [
        {
          "internalType": "address",
          "name": "_user",
          "type": "address"
        },
        {
          "internalType": "uint256",
          "name": "_debtProportion",
          "type": "uint256"
        }
      ],
      "name": "UpdateUserDebt",
      "outputs": [],
      "stateMutability": "nonpayable",
      "type": "function"
    },
    {
      "inputs": [
        {
          "internalType": "address",
          "name": "_admin",
          "type": "address"
        }
      ],
      "name": "__ShumAdminUpgradeable_init",
      "outputs": [],
      "stateMutability": "nonpayable",
      "type": "function"
    },
    {
      "inputs": [
        {
          "internalType": "address",
          "name": "_admin",
          "type": "address"
        }
      ],
      "name": "__ShumDebtSystem_init",
      "outputs": [],
      "stateMutability": "nonpayable",
      "type": "function"
    },
    {
      "inputs": [],
      "name": "admin",
      "outputs": [
        {
          "internalType": "address",
          "name": "",
          "type": "address"
        }
      ],
      "stateMutability": "view",
      "type": "function"
    },
    {
      "inputs": [],
      "name": "becomeAdmin",
      "outputs": [],
      "stateMutability": "nonpayable",
      "type": "function"
    },
    {
      "inputs": [],
      "name": "candidate",
      "outputs": [
        {
          "internalType": "address",
          "name": "",
          "type": "address"
        }
      ],
      "stateMutability": "view",
      "type": "function"
    },
    {
      "inputs": [],
      "name": "debtCurrentIndex",
      "outputs": [
        {
          "internalType": "uint256",
          "name": "",
          "type": "uint256"
        }
      ],
      "stateMutability": "view",
      "type": "function"
    },
    {
      "inputs": [
        {
          "internalType": "address[]",
          "name": "users",
          "type": "address[]"
        },
        {
          "internalType": "uint256[]",
          "name": "debtProportions",
          "type": "uint256[]"
        },
        {
          "internalType": "uint256[]",
          "name": "debtFactors",
          "type": "uint256[]"
        },
        {
          "internalType": "uint256[]",
          "name": "timestamps",
          "type": "uint256[]"
        }
      ],
      "name": "importDebtData",
      "outputs": [],
      "stateMutability": "nonpayable",
      "type": "function"
    },
    {
      "inputs": [],
      "name": "lastCloseAt",
      "outputs": [
        {
          "internalType": "uint256",
          "name": "",
          "type": "uint256"
        }
      ],
      "stateMutability": "view",
      "type": "function"
    },
    {
      "inputs": [
        {
          "internalType": "uint256",
          "name": "",
          "type": "uint256"
        }
      ],
      "name": "lastDebtFactors",
      "outputs": [
        {
          "internalType": "uint256",
          "name": "",
          "type": "uint256"
        }
      ],
      "stateMutability": "view",
      "type": "function"
    },
    {
      "inputs": [],
      "name": "lastDeletTo",
      "outputs": [
        {
          "internalType": "uint256",
          "name": "",
          "type": "uint256"
        }
      ],
      "stateMutability": "view",
      "type": "function"
    },
    {
      "inputs": [
        {
          "internalType": "address",
          "name": "_candidate",
          "type": "address"
        }
      ],
      "name": "setCandidate",
      "outputs": [],
      "stateMutability": "nonpayable",
      "type": "function"
    },
    {
      "inputs": [
        {
          "internalType": "contract IShumAddressStorage",
          "name": "_addressStorage",
          "type": "address"
        }
      ],
      "name": "updateAddressCache",
      "outputs": [],
      "stateMutability": "nonpayable",
      "type": "function"
    },
    {
      "inputs": [
        {
          "internalType": "address",
          "name": "",
          "type": "address"
        }
      ],
      "name": "userDebtState",
      "outputs": [
        {
          "internalType": "uint256",
          "name": "debtProportion",
          "type": "uint256"
        },
        {
          "internalType": "uint256",
          "name": "debtFactor",
          "type": "uint256"
        }
      ],
      "stateMutability": "view",
      "type": "function"
    }
  ],
  "bytecode": "0x608060405234801561001057600080fd5b50612232806100206000396000f3fe608060405234801561001057600080fd5b50600436106101825760003560e01c806363bc6c4a116100d8578063cb6a11051161008c578063f851a44011610066578063f851a440146105bd578063f86dfd5e146105c5578063f9c9e059146105cd57610182565b8063cb6a110514610549578063d6ad05b014610551578063e8b1b8e51461058457610182565b80636da8e464116100bd5780636da8e464146104c657806384b5d5a6146104e3578063c158ef181461051657610182565b806363bc6c4a146104625780636c8381f81461049557610182565b80631882d0901161013a5780632798e8c1116101145780632798e8c1146102c157806329dbf38a146102c95780635a5f14c81461042f57610182565b80631882d090146102655780631b72d16d146102b157806325971dff146102b957610182565b80630b921df61161016b5780630b921df6146101fb57806311b46426146102155780631733c9c81461023257610182565b8063028667d31461018757806307880b7f146101c8575b600080fd5b6101c66004803603606081101561019d57600080fd5b5073ffffffffffffffffffffffffffffffffffffffff81351690602081013590604001356105ea565b005b6101c6600480360360208110156101de57600080fd5b503573ffffffffffffffffffffffffffffffffffffffff166107a9565b6102036108a6565b60408051918252519081900360200190f35b6101c66004803603602081101561022b57600080fd5b50356108ac565b6101c66004803603602081101561024857600080fd5b503573ffffffffffffffffffffffffffffffffffffffff16610a5f565b6102986004803603602081101561027b57600080fd5b503573ffffffffffffffffffffffffffffffffffffffff16610c64565b6040805192835260208301919091528051918290030190f35b610203610d88565b6101c6610d8e565b610203610e94565b6101c6600480360360808110156102df57600080fd5b8101906020810181356401000000008111156102fa57600080fd5b82018360208201111561030c57600080fd5b8035906020019184602083028401116401000000008311171561032e57600080fd5b91939092909160208101903564010000000081111561034c57600080fd5b82018360208201111561035e57600080fd5b8035906020019184602083028401116401000000008311171561038057600080fd5b91939092909160208101903564010000000081111561039e57600080fd5b8201836020820111156103b057600080fd5b803590602001918460208302840111640100000000831117156103d257600080fd5b9193909290916020810190356401000000008111156103f057600080fd5b82018360208201111561040257600080fd5b8035906020019184602083028401116401000000008311171561042457600080fd5b509092509050610e99565b6101c66004803603602081101561044557600080fd5b503573ffffffffffffffffffffffffffffffffffffffff1661112c565b6102986004803603602081101561047857600080fd5b503573ffffffffffffffffffffffffffffffffffffffff16611471565b61049d61148a565b6040805173ffffffffffffffffffffffffffffffffffffffff9092168252519081900360200190f35b6101c6600480360360208110156104dc57600080fd5b50356114a6565b610298600480360360208110156104f957600080fd5b503573ffffffffffffffffffffffffffffffffffffffff1661171e565b6102036004803603602081101561052c57600080fd5b503573ffffffffffffffffffffffffffffffffffffffff1661174e565b6102036117a8565b6101c66004803603602081101561056757600080fd5b503573ffffffffffffffffffffffffffffffffffffffff166117b8565b6101c66004803603604081101561059a57600080fd5b5073ffffffffffffffffffffffffffffffffffffffff81351690602001356118d5565b61049d611a8a565b610203611aac565b610203600480360360208110156105e357600080fd5b5035611ab2565b603254604080517f435e60ae0000000000000000000000000000000000000000000000000000000081529051339273ffffffffffffffffffffffffffffffffffffffff16916391d1485491839163435e60ae916004808301926020929190829003018186803b15801561065c57600080fd5b505afa158015610670573d6000803e3d6000fd5b505050506040513d602081101561068657600080fd5b5051604080517fffffffff0000000000000000000000000000000000000000000000000000000060e085901b168152600481019290925273ffffffffffffffffffffffffffffffffffffffff85166024830152516044808301926020929190829003018186803b1580156106f957600080fd5b505afa15801561070d573d6000803e3d6000fd5b505050506040513d602081101561072357600080fd5b505161079057604080517f08c379a000000000000000000000000000000000000000000000000000000000815260206004820152601c60248201527f4e65656420646562742073797374656d2061636365737320726f6c6500000000604482015290519081900360640190fd5b61079982611ac4565b6107a38484611ca1565b50505050565b60005462010000900473ffffffffffffffffffffffffffffffffffffffff16331461081f576040517f08c379a00000000000000000000000000000000000000000000000000000000081526004018080602001828103825260458152602001806120cf6045913960600191505060405180910390fd5b6001805473ffffffffffffffffffffffffffffffffffffffff8381167fffffffffffffffffffffffff0000000000000000000000000000000000000000831617928390556040805192821680845293909116602083015280517f7f730391c4f0fa1bea34bcb9bff8c30a079b21a0359759160cb990648ab84c729281900390910190a15050565b60375481565b603254604080517f435e60ae0000000000000000000000000000000000000000000000000000000081529051339273ffffffffffffffffffffffffffffffffffffffff16916391d1485491839163435e60ae916004808301926020929190829003018186803b15801561091e57600080fd5b505afa158015610932573d6000803e3d6000fd5b505050506040513d602081101561094857600080fd5b5051604080517fffffffff0000000000000000000000000000000000000000000000000000000060e085901b168152600481019290925273ffffffffffffffffffffffffffffffffffffffff85166024830152516044808301926020929190829003018186803b1580156109bb57600080fd5b505afa1580156109cf573d6000803e3d6000fd5b505050506040513d60208110156109e557600080fd5b5051610a5257604080517f08c379a000000000000000000000000000000000000000000000000000000000815260206004820152601c60248201527f4e65656420646562742073797374656d2061636365737320726f6c6500000000604482015290519081900360640190fd5b610a5b82611ac4565b5050565b600054610100900460ff1680610a785750610a78611d47565b80610a86575060005460ff16155b610adb576040517f08c379a000000000000000000000000000000000000000000000000000000000815260040180806020018281038252602e815260200180612114602e913960400191505060405180910390fd5b600054610100900460ff16158015610b4157600080547fffffffffffffffffffffffffffffffffffffffffffffffffffffffffffffff007fffffffffffffffffffffffffffffffffffffffffffffffffffffffffffff00ff909116610100171660011790555b73ffffffffffffffffffffffffffffffffffffffff8216610bad576040517f08c379a00000000000000000000000000000000000000000000000000000000081526004018080602001828103825260228152602001806121db6022913960400191505060405180910390fd5b600080547fffffffffffffffffffff0000000000000000000000000000000000000000ffff166201000073ffffffffffffffffffffffffffffffffffffffff851690810291909117825560408051928352602083019190915280517f7e644d79422f17c01e4894b5f4f588d331ebfa28653d42ae832dc59e38c9798f9281900390910190a18015610a5b57600080547fffffffffffffffffffffffffffffffffffffffffffffffffffffffffffff00ff1690555050565b6000806000603360009054906101000a900473ffffffffffffffffffffffffffffffffffffffff1673ffffffffffffffffffffffffffffffffffffffff1663f5d129896040518163ffffffff1660e01b815260040160206040518083038186803b158015610cd157600080fd5b505afa158015610ce5573d6000803e3d6000fd5b505050506040513d6020811015610cfb57600080fd5b505173ffffffffffffffffffffffffffffffffffffffff8516600090815260346020526040902080546001909101549192509081610d425760008394509450505050610d83565b6000610d6083610d5a84610d54611d4d565b90611e09565b90611e2b565b90506000610d79610d7483610d5a88611e44565b611e54565b9650939450505050505b915091565b60385481565b60015473ffffffffffffffffffffffffffffffffffffffff163314610dfe576040517f08c379a00000000000000000000000000000000000000000000000000000000081526004018080602001828103825260358152602001806121856035913960400191505060405180910390fd5b6000805460015473ffffffffffffffffffffffffffffffffffffffff908116620100009081027fffffffffffffffffffff0000000000000000000000000000000000000000ffff8416179384905560408051938290048316808552919094049091166020830152825190927f7e644d79422f17c01e4894b5f4f588d331ebfa28653d42ae832dc59e38c9798f928290030190a150565b603281565b60005462010000900473ffffffffffffffffffffffffffffffffffffffff163314610f0f576040517f08c379a00000000000000000000000000000000000000000000000000000000081526004018080602001828103825260458152602001806120cf6045913960600191505060405180910390fd5b8685148015610f1d57508483145b8015610f2857508281145b610f9357604080517f08c379a000000000000000000000000000000000000000000000000000000000815260206004820152600f60248201527f4c656e677468206d69736d617463680000000000000000000000000000000000604482015290519081900360640190fd5b60005b87811015611118576000898983818110610fac57fe5b9050602002013573ffffffffffffffffffffffffffffffffffffffff1690506000888884818110610fd957fe5b9050602002013590506000878785818110610ff057fe5b905060200201359050600086868681811061100757fe5b60365488016000818152603560209081526040808320899055805180820182528a81528083018a815273ffffffffffffffffffffffffffffffffffffffff8d16855260348452938290209051815592516001909301929092558151838152808201899052930294909401358285018190529351939450927f1345e5daa594ed7ed493e06d665e6b39a1f69ea4b659acb6d7275811c5e562c492509081900360600190a16040805173ffffffffffffffffffffffffffffffffffffffff87168152602081018690528082018590526060810184905290517fe96553ace55db523d8581e9dee58a2f07c39a19bdf39e690347a1b61c21ac6179181900360800190a1505060019093019250610f96915050565b505060368054909601909555505050505050565b60005462010000900473ffffffffffffffffffffffffffffffffffffffff1633146111a2576040517f08c379a00000000000000000000000000000000000000000000000000000000081526004018080602001828103825260458152602001806120cf6045913960600191505060405180910390fd5b8073ffffffffffffffffffffffffffffffffffffffff1663768911da6040518163ffffffff1660e01b815260040180807f5368756d416363657373436f6e74726f6c00000000000000000000000000000081525060200180602001828103825260238152602001806120ac6023913960400191505060206040518083038186803b15801561122f57600080fd5b505afa158015611243573d6000803e3d6000fd5b505050506040513d602081101561125957600080fd5b5051603280547fffffffffffffffffffffffff00000000000000000000000000000000000000001673ffffffffffffffffffffffffffffffffffffffff928316179055604080517f768911da0000000000000000000000000000000000000000000000000000000081527f5368756d417373657453797374656d000000000000000000000000000000000060048201908152602482019283526021604483018190529385169363768911da939192606401906121ba823960400191505060206040518083038186803b15801561132e57600080fd5b505afa158015611342573d6000803e3d6000fd5b505050506040513d602081101561135857600080fd5b5051603380547fffffffffffffffffffffffff00000000000000000000000000000000000000001673ffffffffffffffffffffffffffffffffffffffff928316179055603254604080517f5368756d416363657373436f6e74726f6c000000000000000000000000000000815291909216602082015281517f17b158864f8c520aff3282c940ec6a731d26235b9b00b651c0dd1dafb3170f5f929181900390910190a1603354604080517f5368756d417373657453797374656d0000000000000000000000000000000000815273ffffffffffffffffffffffffffffffffffffffff909216602083015280517f17b158864f8c520aff3282c940ec6a731d26235b9b00b651c0dd1dafb3170f5f9281900390910190a150565b6034602052600090815260409020805460019091015482565b60015473ffffffffffffffffffffffffffffffffffffffff1681565b603254604080517f435e60ae0000000000000000000000000000000000000000000000000000000081529051339273ffffffffffffffffffffffffffffffffffffffff16916391d1485491839163435e60ae916004808301926020929190829003018186803b15801561151857600080fd5b505afa15801561152c573d6000803e3d6000fd5b505050506040513d602081101561154257600080fd5b5051604080517fffffffff0000000000000000000000000000000000000000000000000000000060e085901b168152600481019290925273ffffffffffffffffffffffffffffffffffffffff85166024830152516044808301926020929190829003018186803b1580156115b557600080fd5b505afa1580156115c9573d6000803e3d6000fd5b505050506040513d60208110156115df57600080fd5b505161164c57604080517f08c379a000000000000000000000000000000000000000000000000000000000815260206004820152601c60248201527f4e65656420646562742073797374656d2061636365737320726f6c6500000000604482015290519081900360640190fd5b6037548210156116a7576040517f08c379a00000000000000000000000000000000000000000000000000000000081526004018080602001828103825260228152602001806121636022913960400191505060405180910390fd5b60365482111561171857604080517f08c379a000000000000000000000000000000000000000000000000000000000815260206004820152601d60248201527f43616e206e6f7420636c6f73652061742066757475726520696e646578000000604482015290519081900360640190fd5b50603755565b73ffffffffffffffffffffffffffffffffffffffff16600090815260346020526040902080546001909101549091565b73ffffffffffffffffffffffffffffffffffffffff8116600090815260346020526040812080546001909101548161178b576000925050506117a3565b600061179d83610d5a84610d54611d4d565b93505050505b919050565b60006117b2611d4d565b90505b90565b600054610100900460ff16806117d157506117d1611d47565b806117df575060005460ff16155b611834576040517f08c379a000000000000000000000000000000000000000000000000000000000815260040180806020018281038252602e815260200180612114602e913960400191505060405180910390fd5b600054610100900460ff1615801561189a57600080547fffffffffffffffffffffffffffffffffffffffffffffffffffffffffffffff007fffffffffffffffffffffffffffffffffffffffffffffffffffffffffffff00ff909116610100171660011790555b6118a382610a5f565b8015610a5b57600080547fffffffffffffffffffffffffffffffffffffffffffffffffffffffffffff00ff1690555050565b603254604080517f435e60ae0000000000000000000000000000000000000000000000000000000081529051339273ffffffffffffffffffffffffffffffffffffffff16916391d1485491839163435e60ae916004808301926020929190829003018186803b15801561194757600080fd5b505afa15801561195b573d6000803e3d6000fd5b505050506040513d602081101561197157600080fd5b5051604080517fffffffff0000000000000000000000000000000000000000000000000000000060e085901b168152600481019290925273ffffffffffffffffffffffffffffffffffffffff85166024830152516044808301926020929190829003018186803b1580156119e457600080fd5b505afa1580156119f8573d6000803e3d6000fd5b505050506040513d6020811015611a0e57600080fd5b5051611a7b57604080517f08c379a000000000000000000000000000000000000000000000000000000000815260206004820152601c60248201527f4e65656420646562742073797374656d2061636365737320726f6c6500000000604482015290519081900360640190fd5b611a858383611ca1565b505050565b60005462010000900473ffffffffffffffffffffffffffffffffffffffff1681565b60365481565b60356020526000908152604090205481565b6036541580611b0457506036547fffffffffffffffffffffffffffffffffffffffffffffffffffffffffffffffff01600090815260356020526040902054155b15611b905773__$b8d33eeb36ac0d1e81cd70156e0043e778$__63d5e5e6e66040518163ffffffff1660e01b815260040160206040518083038186803b158015611b4d57600080fd5b505af4158015611b61573d6000803e3d6000fd5b505050506040513d6020811015611b7757600080fd5b5051603654600090815260356020526040902055611be1565b6036547fffffffffffffffffffffffffffffffffffffffffffffffffffffffffffffffff01600090815260356020526040902054611bce9082611e2b565b6036546000908152603560205260409020555b603654600081815260356020908152604091829020548251938452908301524282820152517f1345e5daa594ed7ed493e06d665e6b39a1f69ea4b659acb6d7275811c5e562c49181900360600190a1603654611c3e906001611e76565b6036556037546038541015611c9e576038546037540360328111611c625780611c65565b60325b6038549091505b81811015611c8b57600081815260356020526040812055600101611c6c565b50603854611c999082611e76565b603855505b50565b73ffffffffffffffffffffffffffffffffffffffff82166000908152603460205260409020819055611cd1611d4d565b73ffffffffffffffffffffffffffffffffffffffff8316600081815260346020908152604091829020600101849055815192835282018490528181019290925242606082015290517fe96553ace55db523d8581e9dee58a2f07c39a19bdf39e690347a1b61c21ac6179181900360800190a15050565b303b1590565b600060365460001415611dd15773__$b8d33eeb36ac0d1e81cd70156e0043e778$__63d5e5e6e66040518163ffffffff1660e01b815260040160206040518083038186803b158015611d9e57600080fd5b505af4158015611db2573d6000803e3d6000fd5b505050506040513d6020811015611dc857600080fd5b505190506117b5565b506036547fffffffffffffffffffffffffffffffffffffffffffffffffffffffffffffffff0160009081526035602052604090205490565b6000611e2283836b033b2e3c9fd0803ce8000000611eea565b90505b92915050565b6000611e2283836b033b2e3c9fd0803ce8000000611f24565b6000611e2582633b9aca00611f49565b60006305f5e10082046005600a820610611e6c57600a015b600a900492915050565b600082820183811015611e2257604080517f08c379a000000000000000000000000000000000000000000000000000000000815260206004820152601b60248201527f536166654d6174683a206164646974696f6e206f766572666c6f770000000000604482015290519081900360640190fd5b600080611f0484611efe87600a8702611f49565b90611fbc565b90506005600a825b0610611f1657600a015b600a815b0495945050505050565b600080600a8304611f358686611f49565b81611f3c57fe5b0490506005600a82611f0c565b600082611f5857506000611e25565b82820282848281611f6557fe5b0414611e22576040517f08c379a00000000000000000000000000000000000000000000000000000000081526004018080602001828103825260218152602001806121426021913960400191505060405180910390fd5b6000611e2283836040518060400160405280601a81526020017f536166654d6174683a206469766973696f6e206279207a65726f0000000000008152506000818361209f576040517f08c379a00000000000000000000000000000000000000000000000000000000081526004018080602001828103825283818151815260200191508051906020019080838360005b8381101561206457818101518382015260200161204c565b50505050905090810190601f1680156120915780820380516001836020036101000a031916815260200191505b509250505060405180910390fd5b506000838581611f1a57fefe5368756d416363657373436f6e74726f6c2061646472657373206e6f742076616c69645368756d41646d696e5570677261646561626c653a206f6e6c792074686520636f6e74726163742061646d696e2063616e20706572666f726d207468697320616374696f6e496e697469616c697a61626c653a20636f6e747261637420697320616c726561647920696e697469616c697a6564536166654d6174683a206d756c7469706c69636174696f6e206f766572666c6f77436c6f736520696e6465782063616e206e6f742072657475726e20746f20706173735368756d41646d696e5570677261646561626c653a206f6e6c792063616e6469646174652063616e206265636f6d652061646d696e5368756d417373657453797374656d2061646472657373206e6f742076616c69645368756d41646d696e5570677261646561626c653a207a65726f2061646472657373a2646970667358221220362a41b2a37eb1e8c94a68a39fcbb5acf655c70aee2e89cdefd5d4e1116b8c3364736f6c634300060c0033",
  "linkReferences": {
    "contracts/SafeDecimalMath.sol": {
      "SafeDecimalMath": [
        {
          "length": 20,
          "start": 6955
        },
        {
          "length": 20,
          "start": 7548
        }
      ]
    }
  },
  "deployedLinkReferences": {
    "contracts/SafeDecimalMath.sol": {
      "SafeDecimalMath": [
        {
          "length": 20,
          "start": 6923
        },
        {
          "length": 20,
          "start": 7516
        }
      ]
    }
  }
}