{
  "_format": "hh-sol-artifact-1",
  "contractName": "ShumFinance",
  "sourceName": "contracts/ShumFinanceToken.sol",
  "abi": [
    {
      "anonymous": false,
      "inputs": [
        {
          "indexed": false,
          "internalType": "address",
          "name": "oldAdmin",
          "type": "address"
        },
        {
          "indexed": false,
          "internalType": "address",
          "name": "newAdmin",
          "type": "address"
        }
      ],
      "name": "AdminChanged",
      "type": "event"
    },
    {
      "anonymous": false,
      "inputs": [
        {
          "indexed": true,
          "internalType": "address",
          "name": "owner",
          "type": "address"
        },
        {
          "indexed": true,
          "internalType": "address",
          "name": "spender",
          "type": "address"
        },
        {
          "indexed": false,
          "internalType": "uint256",
          "name": "value",
          "type": "uint256"
        }
      ],
      "name": "Approval",
      "type": "event"
    },
    {
      "anonymous": false,
      "inputs": [
        {
          "indexed": false,
          "internalType": "address",
          "name": "oldCandidate",
          "type": "address"
        },
        {
          "indexed": false,
          "internalType": "address",
          "name": "newCandidate",
          "type": "address"
        }
      ],
      "name": "CandidateChanged",
      "type": "event"
    },
    {
      "anonymous": false,
      "inputs": [
        {
          "indexed": true,
          "internalType": "address",
          "name": "from",
          "type": "address"
        },
        {
          "indexed": true,
          "internalType": "address",
          "name": "to",
          "type": "address"
        },
        {
          "indexed": false,
          "internalType": "uint256",
          "name": "value",
          "type": "uint256"
        }
      ],
      "name": "Transfer",
      "type": "event"
    },
    {
      "inputs": [],
      "name": "MAX_SUPPLY",
      "outputs": [
        {
          "internalType": "uint256",
          "name": "",
          "type": "uint256"
        }
      ],
      "stateMutability": "view",
      "type": "function"
    },
    {
      "inputs": [
        {
          "internalType": "address",
          "name": "_admin",
          "type": "address"
        }
      ],
      "name": "__ShumAdminUpgradeable_init",
      "outputs": [],
      "stateMutability": "nonpayable",
      "type": "function"
    },
    {
      "inputs": [
        {
          "internalType": "address",
          "name": "_admin",
          "type": "address"
        }
      ],
      "name": "__ShumFinance_init",
      "outputs": [],
      "stateMutability": "nonpayable",
      "type": "function"
    },
    {
      "inputs": [],
      "name": "admin",
      "outputs": [
        {
          "internalType": "address",
          "name": "",
          "type": "address"
        }
      ],
      "stateMutability": "view",
      "type": "function"
    },
    {
      "inputs": [
        {
          "internalType": "address",
          "name": "owner",
          "type": "address"
        },
        {
          "internalType": "address",
          "name": "spender",
          "type": "address"
        }
      ],
      "name": "allowance",
      "outputs": [
        {
          "internalType": "uint256",
          "name": "",
          "type": "uint256"
        }
      ],
      "stateMutability": "view",
      "type": "function"
    },
    {
      "inputs": [
        {
          "internalType": "address",
          "name": "spender",
          "type": "address"
        },
        {
          "internalType": "uint256",
          "name": "amount",
          "type": "uint256"
        }
      ],
      "name": "approve",
      "outputs": [
        {
          "internalType": "bool",
          "name": "",
          "type": "bool"
        }
      ],
      "stateMutability": "nonpayable",
      "type": "function"
    },
    {
      "inputs": [
        {
          "internalType": "address",
          "name": "account",
          "type": "address"
        }
      ],
      "name": "balanceOf",
      "outputs": [
        {
          "internalType": "uint256",
          "name": "",
          "type": "uint256"
        }
      ],
      "stateMutability": "view",
      "type": "function"
    },
    {
      "inputs": [],
      "name": "becomeAdmin",
      "outputs": [],
      "stateMutability": "nonpayable",
      "type": "function"
    },
    {
      "inputs": [
        {
          "internalType": "address",
          "name": "account",
          "type": "address"
        },
        {
          "internalType": "uint256",
          "name": "amount",
          "type": "uint256"
        }
      ],
      "name": "burn",
      "outputs": [],
      "stateMutability": "nonpayable",
      "type": "function"
    },
    {
      "inputs": [],
      "name": "candidate",
      "outputs": [
        {
          "internalType": "address",
          "name": "",
          "type": "address"
        }
      ],
      "stateMutability": "view",
      "type": "function"
    },
    {
      "inputs": [],
      "name": "decimals",
      "outputs": [
        {
          "internalType": "uint8",
          "name": "",
          "type": "uint8"
        }
      ],
      "stateMutability": "view",
      "type": "function"
    },
    {
      "inputs": [
        {
          "internalType": "address",
          "name": "spender",
          "type": "address"
        },
        {
          "internalType": "uint256",
          "name": "subtractedValue",
          "type": "uint256"
        }
      ],
      "name": "decreaseAllowance",
      "outputs": [
        {
          "internalType": "bool",
          "name": "",
          "type": "bool"
        }
      ],
      "stateMutability": "nonpayable",
      "type": "function"
    },
    {
      "inputs": [
        {
          "internalType": "address",
          "name": "spender",
          "type": "address"
        },
        {
          "internalType": "uint256",
          "name": "addedValue",
          "type": "uint256"
        }
      ],
      "name": "increaseAllowance",
      "outputs": [
        {
          "internalType": "bool",
          "name": "",
          "type": "bool"
        }
      ],
      "stateMutability": "nonpayable",
      "type": "function"
    },
    {
      "inputs": [
        {
          "internalType": "address",
          "name": "account",
          "type": "address"
        },
        {
          "internalType": "uint256",
          "name": "amount",
          "type": "uint256"
        }
      ],
      "name": "mint",
      "outputs": [],
      "stateMutability": "nonpayable",
      "type": "function"
    },
    {
      "inputs": [],
      "name": "name",
      "outputs": [
        {
          "internalType": "string",
          "name": "",
          "type": "string"
        }
      ],
      "stateMutability": "view",
      "type": "function"
    },
    {
      "inputs": [
        {
          "internalType": "address",
          "name": "_candidate",
          "type": "address"
        }
      ],
      "name": "setCandidate",
      "outputs": [],
      "stateMutability": "nonpayable",
      "type": "function"
    },
    {
      "inputs": [],
      "name": "symbol",
      "outputs": [
        {
          "internalType": "string",
          "name": "",
          "type": "string"
        }
      ],
      "stateMutability": "view",
      "type": "function"
    },
    {
      "inputs": [],
      "name": "totalSupply",
      "outputs": [
        {
          "internalType": "uint256",
          "name": "",
          "type": "uint256"
        }
      ],
      "stateMutability": "view",
      "type": "function"
    },
    {
      "inputs": [
        {
          "internalType": "address",
          "name": "recipient",
          "type": "address"
        },
        {
          "internalType": "uint256",
          "name": "amount",
          "type": "uint256"
        }
      ],
      "name": "transfer",
      "outputs": [
        {
          "internalType": "bool",
          "name": "",
          "type": "bool"
        }
      ],
      "stateMutability": "nonpayable",
      "type": "function"
    },
    {
      "inputs": [
        {
          "internalType": "address",
          "name": "sender",
          "type": "address"
        },
        {
          "internalType": "address",
          "name": "recipient",
          "type": "address"
        },
        {
          "internalType": "uint256",
          "name": "amount",
          "type": "uint256"
        }
      ],
      "name": "transferFrom",
      "outputs": [
        {
          "internalType": "bool",
          "name": "",
          "type": "bool"
        }
      ],
      "stateMutability": "nonpayable",
      "type": "function"
    }
  ],
  "bytecode": "0x608060405234801561001057600080fd5b50611d51806100206000396000f3fe608060405234801561001057600080fd5b506004361061016c5760003560e01c806340c10f19116100cd578063a457c2d711610081578063d2f5713511610066578063d2f57135146104b7578063dd62ed3e146104ea578063f851a440146105255761016c565b8063a457c2d714610445578063a9059cbb1461047e5761016c565b806370a08231116100b257806370a08231146103d157806395d89b41146104045780639dc29fac1461040c5761016c565b806340c10f19146103675780636c8381f8146103a05761016c565b806323b872dd11610124578063313ce56711610109578063313ce5671461030857806332cb6b0c14610326578063395093511461032e5761016c565b806323b872dd146102bd57806325971dff146103005761016c565b8063095ea7b311610155578063095ea7b3146102235780631733c9c81461027057806318160ddd146102a35761016c565b806306fdde031461017157806307880b7f146101ee575b600080fd5b61017961052d565b6040805160208082528351818301528351919283929083019185019080838360005b838110156101b357818101518382015260200161019b565b50505050905090810190601f1680156101e05780820380516001836020036101000a031916815260200191505b509250505060405180910390f35b6102216004803603602081101561020457600080fd5b503573ffffffffffffffffffffffffffffffffffffffff166105e1565b005b61025c6004803603604081101561023957600080fd5b5073ffffffffffffffffffffffffffffffffffffffff81351690602001356106d8565b604080519115158252519081900360200190f35b6102216004803603602081101561028657600080fd5b503573ffffffffffffffffffffffffffffffffffffffff166106f5565b6102ab6108f5565b60408051918252519081900360200190f35b61025c600480360360608110156102d357600080fd5b5073ffffffffffffffffffffffffffffffffffffffff8135811691602081013590911690604001356108fb565b61022161099c565b610310610a95565b6040805160ff9092168252519081900360200190f35b6102ab610a9e565b61025c6004803603604081101561034457600080fd5b5073ffffffffffffffffffffffffffffffffffffffff8135169060200135610aae565b6102216004803603604081101561037d57600080fd5b5073ffffffffffffffffffffffffffffffffffffffff8135169060200135610b09565b6103a8610c0f565b6040805173ffffffffffffffffffffffffffffffffffffffff9092168252519081900360200190f35b6102ab600480360360208110156103e757600080fd5b503573ffffffffffffffffffffffffffffffffffffffff16610c2b565b610179610c53565b6102216004803603604081101561042257600080fd5b5073ffffffffffffffffffffffffffffffffffffffff8135169060200135610cd2565b61025c6004803603604081101561045b57600080fd5b5073ffffffffffffffffffffffffffffffffffffffff8135169060200135610d4c565b61025c6004803603604081101561049457600080fd5b5073ffffffffffffffffffffffffffffffffffffffff8135169060200135610dc1565b610221600480360360208110156104cd57600080fd5b503573ffffffffffffffffffffffffffffffffffffffff16610dd5565b6102ab6004803603604081101561050057600080fd5b5073ffffffffffffffffffffffffffffffffffffffff81358116916020013516610f66565b6103a8610f9e565b60368054604080516020601f60027fffffffffffffffffffffffffffffffffffffffffffffffffffffffffffffffff6101006001881615020190951694909404938401819004810282018101909252828152606093909290918301828280156105d75780601f106105ac576101008083540402835291602001916105d7565b820191906000526020600020905b8154815290600101906020018083116105ba57829003601f168201915b5050505050905090565b60655473ffffffffffffffffffffffffffffffffffffffff163314610651576040517f08c379a0000000000000000000000000000000000000000000000000000000008152600401808060200182810382526045815260200180611b9b6045913960600191505060405180910390fd5b6066805473ffffffffffffffffffffffffffffffffffffffff8381167fffffffffffffffffffffffff0000000000000000000000000000000000000000831617928390556040805192821680845293909116602083015280517f7f730391c4f0fa1bea34bcb9bff8c30a079b21a0359759160cb990648ab84c729281900390910190a15050565b60006106ec6106e5610fba565b8484610fbe565b50600192915050565b600054610100900460ff168061070e575061070e611105565b8061071c575060005460ff16155b610771576040517f08c379a000000000000000000000000000000000000000000000000000000000815260040180806020018281038252602e815260200180611be0602e913960400191505060405180910390fd5b600054610100900460ff161580156107d757600080547fffffffffffffffffffffffffffffffffffffffffffffffffffffffffffffff007fffffffffffffffffffffffffffffffffffffffffffffffffffffffffffff00ff909116610100171660011790555b73ffffffffffffffffffffffffffffffffffffffff8216610843576040517f08c379a0000000000000000000000000000000000000000000000000000000008152600401808060200182810382526022815260200180611cfa6022913960400191505060405180910390fd5b606580547fffffffffffffffffffffffff00000000000000000000000000000000000000001673ffffffffffffffffffffffffffffffffffffffff84169081179091556040805160008152602081019290925280517f7e644d79422f17c01e4894b5f4f588d331ebfa28653d42ae832dc59e38c9798f9281900390910190a180156108f157600080547fffffffffffffffffffffffffffffffffffffffffffffffffffffffffffff00ff1690555b5050565b60355490565b600061090884848461110b565b61099284610914610fba565b61098d85604051806060016040528060288152602001611c0e6028913973ffffffffffffffffffffffffffffffffffffffff8a1660009081526034602052604081209061095f610fba565b73ffffffffffffffffffffffffffffffffffffffff16815260208101919091526040016000205491906112dd565b610fbe565b5060019392505050565b60665473ffffffffffffffffffffffffffffffffffffffff163314610a0c576040517f08c379a0000000000000000000000000000000000000000000000000000000008152600401808060200182810382526035815260200180611c576035913960400191505060405180910390fd5b606580546066547fffffffffffffffffffffffff0000000000000000000000000000000000000000821673ffffffffffffffffffffffffffffffffffffffff91821617928390556040805192821680845293909116602083015280517f7e644d79422f17c01e4894b5f4f588d331ebfa28653d42ae832dc59e38c9798f9281900390910190a150565b60385460ff1690565b6b204fce5e3e2502611000000081565b60006106ec610abb610fba565b8461098d8560346000610acc610fba565b73ffffffffffffffffffffffffffffffffffffffff908116825260208083019390935260409182016000908120918c16815292529020549061138e565b60655473ffffffffffffffffffffffffffffffffffffffff163314610b79576040517f08c379a0000000000000000000000000000000000000000000000000000000008152600401808060200182810382526045815260200180611b9b6045913960600191505060405180910390fd5b6b204fce5e3e25026110000000610b9882610b926108f5565b9061138e565b1115610c0557604080517f08c379a000000000000000000000000000000000000000000000000000000000815260206004820181905260248201527f5368756d46696e616e63653a206d617820737570706c79206578636565646564604482015290519081900360640190fd5b6108f18282611409565b60665473ffffffffffffffffffffffffffffffffffffffff1681565b73ffffffffffffffffffffffffffffffffffffffff1660009081526033602052604090205490565b60378054604080516020601f60027fffffffffffffffffffffffffffffffffffffffffffffffffffffffffffffffff6101006001881615020190951694909404938401819004810282018101909252828152606093909290918301828280156105d75780601f106105ac576101008083540402835291602001916105d7565b60655473ffffffffffffffffffffffffffffffffffffffff163314610d42576040517f08c379a0000000000000000000000000000000000000000000000000000000008152600401808060200182810382526045815260200180611b9b6045913960600191505060405180910390fd5b6108f1828261153c565b60006106ec610d59610fba565b8461098d85604051806060016040528060258152602001611cd56025913960346000610d83610fba565b73ffffffffffffffffffffffffffffffffffffffff908116825260208083019390935260409182016000908120918d168152925290205491906112dd565b60006106ec610dce610fba565b848461110b565b600054610100900460ff1680610dee5750610dee611105565b80610dfc575060005460ff16155b610e51576040517f08c379a000000000000000000000000000000000000000000000000000000000815260040180806020018281038252602e815260200180611be0602e913960400191505060405180910390fd5b600054610100900460ff16158015610eb757600080547fffffffffffffffffffffffffffffffffffffffffffffffffffffffffffffff007fffffffffffffffffffffffffffffffffffffffffffffffffffffffffffff00ff909116610100171660011790555b610f2b6040518060400160405280600a81526020017f5368756d20546f6b656e000000000000000000000000000000000000000000008152506040518060400160405280600481526020017f5348554d00000000000000000000000000000000000000000000000000000000815250611686565b610f34826106f5565b80156108f157600080547fffffffffffffffffffffffffffffffffffffffffffffffffffffffffffff00ff1690555050565b73ffffffffffffffffffffffffffffffffffffffff918216600090815260346020908152604080832093909416825291909152205490565b60655473ffffffffffffffffffffffffffffffffffffffff1681565b3390565b73ffffffffffffffffffffffffffffffffffffffff831661102a576040517f08c379a0000000000000000000000000000000000000000000000000000000008152600401808060200182810382526024815260200180611cb16024913960400191505060405180910390fd5b73ffffffffffffffffffffffffffffffffffffffff8216611096576040517f08c379a0000000000000000000000000000000000000000000000000000000008152600401808060200182810382526022815260200180611b536022913960400191505060405180910390fd5b73ffffffffffffffffffffffffffffffffffffffff808416600081815260346020908152604080832094871680845294825291829020859055815185815291517f8c5be1e5ebec7d5bd14f71427d1e84f3dd0314c0f7b2291e5b200ac8c7c3b9259281900390910190a3505050565b303b1590565b73ffffffffffffffffffffffffffffffffffffffff8316611177576040517f08c379a0000000000000000000000000000000000000000000000000000000008152600401808060200182810382526025815260200180611c8c6025913960400191505060405180910390fd5b73ffffffffffffffffffffffffffffffffffffffff82166111e3576040517f08c379a0000000000000000000000000000000000000000000000000000000008152600401808060200182810382526023815260200180611b0e6023913960400191505060405180910390fd5b6111ee8383836117a9565b61123881604051806060016040528060268152602001611b756026913973ffffffffffffffffffffffffffffffffffffffff861660009081526033602052604090205491906112dd565b73ffffffffffffffffffffffffffffffffffffffff8085166000908152603360205260408082209390935590841681522054611274908261138e565b73ffffffffffffffffffffffffffffffffffffffff80841660008181526033602090815260409182902094909455805185815290519193928716927fddf252ad1be2c89b69c2b068fc378daa952ba7f163c4a11628f55a4df523b3ef92918290030190a3505050565b60008184841115611386576040517f08c379a00000000000000000000000000000000000000000000000000000000081526004018080602001828103825283818151815260200191508051906020019080838360005b8381101561134b578181015183820152602001611333565b50505050905090810190601f1680156113785780820380516001836020036101000a031916815260200191505b509250505060405180910390fd5b505050900390565b60008282018381101561140257604080517f08c379a000000000000000000000000000000000000000000000000000000000815260206004820152601b60248201527f536166654d6174683a206164646974696f6e206f766572666c6f770000000000604482015290519081900360640190fd5b9392505050565b73ffffffffffffffffffffffffffffffffffffffff821661148b57604080517f08c379a000000000000000000000000000000000000000000000000000000000815260206004820152601f60248201527f45524332303a206d696e7420746f20746865207a65726f206164647265737300604482015290519081900360640190fd5b611497600083836117a9565b6035546114a4908261138e565b60355573ffffffffffffffffffffffffffffffffffffffff82166000908152603360205260409020546114d7908261138e565b73ffffffffffffffffffffffffffffffffffffffff831660008181526033602090815260408083209490945583518581529351929391927fddf252ad1be2c89b69c2b068fc378daa952ba7f163c4a11628f55a4df523b3ef9281900390910190a35050565b73ffffffffffffffffffffffffffffffffffffffff82166115a8576040517f08c379a0000000000000000000000000000000000000000000000000000000008152600401808060200182810382526021815260200180611c366021913960400191505060405180910390fd5b6115b4826000836117a9565b6115fe81604051806060016040528060228152602001611b316022913973ffffffffffffffffffffffffffffffffffffffff851660009081526033602052604090205491906112dd565b73ffffffffffffffffffffffffffffffffffffffff831660009081526033602052604090205560355461163190826117ae565b60355560408051828152905160009173ffffffffffffffffffffffffffffffffffffffff8516917fddf252ad1be2c89b69c2b068fc378daa952ba7f163c4a11628f55a4df523b3ef9181900360200190a35050565b600054610100900460ff168061169f575061169f611105565b806116ad575060005460ff16155b611702576040517f08c379a000000000000000000000000000000000000000000000000000000000815260040180806020018281038252602e815260200180611be0602e913960400191505060405180910390fd5b600054610100900460ff1615801561176857600080547fffffffffffffffffffffffffffffffffffffffffffffffffffffffffffffff007fffffffffffffffffffffffffffffffffffffffffffffffffffffffffffff00ff909116610100171660011790555b6117706117f0565b61177a8383611904565b80156117a957600080547fffffffffffffffffffffffffffffffffffffffffffffffffffffffffffff00ff1690555b505050565b600061140283836040518060400160405280601e81526020017f536166654d6174683a207375627472616374696f6e206f766572666c6f7700008152506112dd565b600054610100900460ff16806118095750611809611105565b80611817575060005460ff16155b61186c576040517f08c379a000000000000000000000000000000000000000000000000000000000815260040180806020018281038252602e815260200180611be0602e913960400191505060405180910390fd5b600054610100900460ff161580156118d257600080547fffffffffffffffffffffffffffffffffffffffffffffffffffffffffffffff007fffffffffffffffffffffffffffffffffffffffffffffffffffffffffffff00ff909116610100171660011790555b801561190157600080547fffffffffffffffffffffffffffffffffffffffffffffffffffffffffffff00ff1690555b50565b600054610100900460ff168061191d575061191d611105565b8061192b575060005460ff16155b611980576040517f08c379a000000000000000000000000000000000000000000000000000000000815260040180806020018281038252602e815260200180611be0602e913960400191505060405180910390fd5b600054610100900460ff161580156119e657600080547fffffffffffffffffffffffffffffffffffffffffffffffffffffffffffffff007fffffffffffffffffffffffffffffffffffffffffffffffffffffffffffff00ff909116610100171660011790555b82516119f9906036906020860190611a6c565b508151611a0d906037906020850190611a6c565b50603880547fffffffffffffffffffffffffffffffffffffffffffffffffffffffffffffff0016601217905580156117a957600080547fffffffffffffffffffffffffffffffffffffffffffffffffffffffffffff00ff169055505050565b828054600181600116156101000203166002900490600052602060002090601f016020900481019282611aa25760008555611ae8565b82601f10611abb57805160ff1916838001178555611ae8565b82800160010185558215611ae8579182015b82811115611ae8578251825591602001919060010190611acd565b50611af4929150611af8565b5090565b5b80821115611af45760008155600101611af956fe45524332303a207472616e7366657220746f20746865207a65726f206164647265737345524332303a206275726e20616d6f756e7420657863656564732062616c616e636545524332303a20617070726f766520746f20746865207a65726f206164647265737345524332303a207472616e7366657220616d6f756e7420657863656564732062616c616e63655368756d41646d696e5570677261646561626c653a206f6e6c792074686520636f6e74726163742061646d696e2063616e20706572666f726d207468697320616374696f6e496e697469616c697a61626c653a20636f6e747261637420697320616c726561647920696e697469616c697a656445524332303a207472616e7366657220616d6f756e74206578636565647320616c6c6f77616e636545524332303a206275726e2066726f6d20746865207a65726f20616464726573735368756d41646d696e5570677261646561626c653a206f6e6c792063616e6469646174652063616e206265636f6d652061646d696e45524332303a207472616e736665722066726f6d20746865207a65726f206164647265737345524332303a20617070726f76652066726f6d20746865207a65726f206164647265737345524332303a2064656372656173656420616c6c6f77616e63652062656c6f77207a65726f5368756d41646d696e5570677261646561626c653a207a65726f2061646472657373a2646970667358221220c0621cc9f84a51820454762fd2e658de69fe225528444f69c70da70185a9e78064736f6c63430007060033",
  "linkReferences": {},
  "deployedLinkReferences": {}
}