{
  "_format": "hh-sol-artifact-1",
  "contractName": "ShumRewardLocker",
  "sourceName": "contracts/ShumRewardLocker.sol",
  "abi": [
    {
      "anonymous": false,
      "inputs": [
        {
          "indexed": false,
          "internalType": "address",
          "name": "oldAdmin",
          "type": "address"
        },
        {
          "indexed": false,
          "internalType": "address",
          "name": "newAdmin",
          "type": "address"
        }
      ],
      "name": "AdminChanged",
      "type": "event"
    },
    {
      "anonymous": false,
      "inputs": [
        {
          "indexed": false,
          "internalType": "address",
          "name": "oldCandidate",
          "type": "address"
        },
        {
          "indexed": false,
          "internalType": "address",
          "name": "newCandidate",
          "type": "address"
        }
      ],
      "name": "CandidateChanged",
      "type": "event"
    },
    {
      "anonymous": false,
      "inputs": [
        {
          "indexed": false,
          "internalType": "uint256",
          "name": "entryId",
          "type": "uint256"
        },
        {
          "indexed": false,
          "internalType": "uint256",
          "name": "oldAmount",
          "type": "uint256"
        },
        {
          "indexed": false,
          "internalType": "uint256",
          "name": "newAmount",
          "type": "uint256"
        }
      ],
      "name": "RewardAmountChanged",
      "type": "event"
    },
    {
      "anonymous": false,
      "inputs": [
        {
          "indexed": false,
          "internalType": "uint256",
          "name": "entryId",
          "type": "uint256"
        },
        {
          "indexed": false,
          "internalType": "address",
          "name": "user",
          "type": "address"
        },
        {
          "indexed": false,
          "internalType": "uint256",
          "name": "amount",
          "type": "uint256"
        },
        {
          "indexed": false,
          "internalType": "uint256",
          "name": "unlockTime",
          "type": "uint256"
        }
      ],
      "name": "RewardEntryAdded",
      "type": "event"
    },
    {
      "anonymous": false,
      "inputs": [
        {
          "indexed": false,
          "internalType": "uint256",
          "name": "entryId",
          "type": "uint256"
        }
      ],
      "name": "RewardEntryRemoved",
      "type": "event"
    },
    {
      "inputs": [
        {
          "internalType": "address",
          "name": "_admin",
          "type": "address"
        }
      ],
      "name": "__ShumAdminUpgradeable_init",
      "outputs": [],
      "stateMutability": "nonpayable",
      "type": "function"
    },
    {
      "inputs": [
        {
          "internalType": "address",
          "name": "_shumTokenAddr",
          "type": "address"
        },
        {
          "internalType": "contract IShumAccessControl",
          "name": "_accessCtrl",
          "type": "address"
        },
        {
          "internalType": "address",
          "name": "_admin",
          "type": "address"
        }
      ],
      "name": "__ShumRewardLocker_init",
      "outputs": [],
      "stateMutability": "nonpayable",
      "type": "function"
    },
    {
      "inputs": [],
      "name": "accessCtrl",
      "outputs": [
        {
          "internalType": "contract IShumAccessControl",
          "name": "",
          "type": "address"
        }
      ],
      "stateMutability": "view",
      "type": "function"
    },
    {
      "inputs": [
        {
          "internalType": "address",
          "name": "user",
          "type": "address"
        },
        {
          "internalType": "uint256",
          "name": "amount",
          "type": "uint256"
        },
        {
          "internalType": "uint256",
          "name": "unlockTime",
          "type": "uint256"
        }
      ],
      "name": "addReward",
      "outputs": [],
      "stateMutability": "nonpayable",
      "type": "function"
    },
    {
      "inputs": [],
      "name": "admin",
      "outputs": [
        {
          "internalType": "address",
          "name": "",
          "type": "address"
        }
      ],
      "stateMutability": "view",
      "type": "function"
    },
    {
      "inputs": [
        {
          "internalType": "address",
          "name": "user",
          "type": "address"
        }
      ],
      "name": "balanceOf",
      "outputs": [
        {
          "internalType": "uint256",
          "name": "",
          "type": "uint256"
        }
      ],
      "stateMutability": "view",
      "type": "function"
    },
    {
      "inputs": [],
      "name": "becomeAdmin",
      "outputs": [],
      "stateMutability": "nonpayable",
      "type": "function"
    },
    {
      "inputs": [],
      "name": "candidate",
      "outputs": [
        {
          "internalType": "address",
          "name": "",
          "type": "address"
        }
      ],
      "stateMutability": "view",
      "type": "function"
    },
    {
      "inputs": [],
      "name": "lastRewardEntryId",
      "outputs": [
        {
          "internalType": "uint256",
          "name": "",
          "type": "uint256"
        }
      ],
      "stateMutability": "view",
      "type": "function"
    },
    {
      "inputs": [
        {
          "internalType": "address",
          "name": "",
          "type": "address"
        }
      ],
      "name": "lockedAmountByAddresses",
      "outputs": [
        {
          "internalType": "uint256",
          "name": "",
          "type": "uint256"
        }
      ],
      "stateMutability": "view",
      "type": "function"
    },
    {
      "inputs": [
        {
          "internalType": "address[]",
          "name": "users",
          "type": "address[]"
        },
        {
          "internalType": "uint256[]",
          "name": "amounts",
          "type": "uint256[]"
        },
        {
          "internalType": "uint256[]",
          "name": "unlockTimes",
          "type": "uint256[]"
        }
      ],
      "name": "migrateRewards",
      "outputs": [],
      "stateMutability": "nonpayable",
      "type": "function"
    },
    {
      "inputs": [
        {
          "internalType": "address",
          "name": "from",
          "type": "address"
        },
        {
          "internalType": "address",
          "name": "recipient",
          "type": "address"
        },
        {
          "internalType": "uint256",
          "name": "amount",
          "type": "uint256"
        },
        {
          "internalType": "uint256[]",
          "name": "rewardEntryIds",
          "type": "uint256[]"
        }
      ],
      "name": "moveReward",
      "outputs": [],
      "stateMutability": "nonpayable",
      "type": "function"
    },
    {
      "inputs": [
        {
          "internalType": "address",
          "name": "from",
          "type": "address"
        },
        {
          "internalType": "address",
          "name": "recipient1",
          "type": "address"
        },
        {
          "internalType": "uint256",
          "name": "amount1",
          "type": "uint256"
        },
        {
          "internalType": "address",
          "name": "recipient2",
          "type": "address"
        },
        {
          "internalType": "uint256",
          "name": "amount2",
          "type": "uint256"
        },
        {
          "internalType": "uint256[]",
          "name": "rewardEntryIds",
          "type": "uint256[]"
        }
      ],
      "name": "moveRewardProRata",
      "outputs": [],
      "stateMutability": "nonpayable",
      "type": "function"
    },
    {
      "inputs": [
        {
          "internalType": "uint256",
          "name": "",
          "type": "uint256"
        },
        {
          "internalType": "address",
          "name": "",
          "type": "address"
        }
      ],
      "name": "rewardEntries",
      "outputs": [
        {
          "internalType": "uint216",
          "name": "amount",
          "type": "uint216"
        },
        {
          "internalType": "uint40",
          "name": "unlockTime",
          "type": "uint40"
        }
      ],
      "stateMutability": "view",
      "type": "function"
    },
    {
      "inputs": [
        {
          "internalType": "address",
          "name": "_candidate",
          "type": "address"
        }
      ],
      "name": "setCandidate",
      "outputs": [],
      "stateMutability": "nonpayable",
      "type": "function"
    },
    {
      "inputs": [],
      "name": "shumTokenAddr",
      "outputs": [
        {
          "internalType": "address",
          "name": "",
          "type": "address"
        }
      ],
      "stateMutability": "view",
      "type": "function"
    },
    {
      "inputs": [],
      "name": "totalLockedAmount",
      "outputs": [
        {
          "internalType": "uint256",
          "name": "",
          "type": "uint256"
        }
      ],
      "stateMutability": "view",
      "type": "function"
    }
  ],
  "bytecode": "0x608060405234801561001057600080fd5b50611fba806100206000396000f3fe608060405234801561001057600080fd5b506004361061011b5760003560e01c806381268c1b116100b2578063cf628b7e11610081578063e21d883d11610066578063e21d883d14610571578063ebd707cb146105a4578063f851a440146105ac5761011b565b8063cf628b7e146104c1578063dfeec0fb146105695761011b565b806381268c1b1461036157806388d67c9214610369578063a3cd8c8d14610406578063b0b677561461044b5761011b565b8063350054a6116100ee578063350054a6146101aa57806344ea559a146102be5780636c8381f8146102fd57806370a082311461032e5761011b565b806305a9f2741461012057806307880b7f1461013a5780631733c9c81461016f57806325971dff146101a2575b600080fd5b6101286105b4565b60408051918252519081900360200190f35b61016d6004803603602081101561015057600080fd5b503573ffffffffffffffffffffffffffffffffffffffff166105ba565b005b61016d6004803603602081101561018557600080fd5b503573ffffffffffffffffffffffffffffffffffffffff166106b7565b61016d6108bd565b61016d600480360360608110156101c057600080fd5b8101906020810181356401000000008111156101db57600080fd5b8201836020820111156101ed57600080fd5b8035906020019184602083028401116401000000008311171561020f57600080fd5b91939092909160208101903564010000000081111561022d57600080fd5b82018360208201111561023f57600080fd5b8035906020019184602083028401116401000000008311171561026157600080fd5b91939092909160208101903564010000000081111561027f57600080fd5b82018360208201111561029157600080fd5b803590602001918460208302840111640100000000831117156102b357600080fd5b5090925090506109c3565b61016d600480360360608110156102d457600080fd5b5073ffffffffffffffffffffffffffffffffffffffff8135169060208101359060400135610b7b565b610305610ca3565b6040805173ffffffffffffffffffffffffffffffffffffffff9092168252519081900360200190f35b6101286004803603602081101561034457600080fd5b503573ffffffffffffffffffffffffffffffffffffffff16610cbf565b610305610ce7565b61016d6004803603608081101561037f57600080fd5b73ffffffffffffffffffffffffffffffffffffffff8235811692602081013590911691604082013591908101906080810160608201356401000000008111156103c757600080fd5b8201836020820111156103d957600080fd5b803590602001918460208302840111640100000000831117156103fb57600080fd5b509092509050610d03565b61016d6004803603606081101561041c57600080fd5b5073ffffffffffffffffffffffffffffffffffffffff8135811691602081013582169160409091013516610e32565b6104846004803603604081101561046157600080fd5b508035906020013573ffffffffffffffffffffffffffffffffffffffff166110ab565b604080517affffffffffffffffffffffffffffffffffffffffffffffffffffff909316835264ffffffffff90911660208301528051918290030190f35b61016d600480360360c08110156104d757600080fd5b73ffffffffffffffffffffffffffffffffffffffff823581169260208101358216926040820135926060830135169160808101359181019060c0810160a082013564010000000081111561052a57600080fd5b82018360208201111561053c57600080fd5b8035906020019184602083028401116401000000008311171561055e57600080fd5b50909250905061110d565b610128611234565b6101286004803603602081101561058757600080fd5b503573ffffffffffffffffffffffffffffffffffffffff1661123a565b61030561124c565b610305611268565b60355481565b60005462010000900473ffffffffffffffffffffffffffffffffffffffff163314610630576040517f08c379a0000000000000000000000000000000000000000000000000000000008152600401808060200182810382526045815260200180611dd16045913960600191505060405180910390fd5b6001805473ffffffffffffffffffffffffffffffffffffffff8381167fffffffffffffffffffffffff0000000000000000000000000000000000000000831617928390556040805192821680845293909116602083015280517f7f730391c4f0fa1bea34bcb9bff8c30a079b21a0359759160cb990648ab84c729281900390910190a15050565b600054610100900460ff16806106d057506106d061128a565b806106de575060005460ff16155b610733576040517f08c379a000000000000000000000000000000000000000000000000000000000815260040180806020018281038252602e815260200180611e16602e913960400191505060405180910390fd5b600054610100900460ff1615801561079957600080547fffffffffffffffffffffffffffffffffffffffffffffffffffffffffffffff007fffffffffffffffffffffffffffffffffffffffffffffffffffffffffffff00ff909116610100171660011790555b73ffffffffffffffffffffffffffffffffffffffff8216610805576040517f08c379a0000000000000000000000000000000000000000000000000000000008152600401808060200182810382526022815260200180611f636022913960400191505060405180910390fd5b600080547fffffffffffffffffffff0000000000000000000000000000000000000000ffff166201000073ffffffffffffffffffffffffffffffffffffffff851690810291909117825560408051928352602083019190915280517f7e644d79422f17c01e4894b5f4f588d331ebfa28653d42ae832dc59e38c9798f9281900390910190a180156108b957600080547fffffffffffffffffffffffffffffffffffffffffffffffffffffffffffff00ff1690555b5050565b60015473ffffffffffffffffffffffffffffffffffffffff16331461092d576040517f08c379a0000000000000000000000000000000000000000000000000000000008152600401808060200182810382526035815260200180611f066035913960400191505060405180910390fd5b6000805460015473ffffffffffffffffffffffffffffffffffffffff908116620100009081027fffffffffffffffffffff0000000000000000000000000000000000000000ffff8416179384905560408051938290048316808552919094049091166020830152825190927f7e644d79422f17c01e4894b5f4f588d331ebfa28653d42ae832dc59e38c9798f928290030190a150565b60005462010000900473ffffffffffffffffffffffffffffffffffffffff163314610a39576040517f08c379a0000000000000000000000000000000000000000000000000000000008152600401808060200182810382526045815260200180611dd16045913960600191505060405180910390fd5b84610aa557604080517f08c379a000000000000000000000000000000000000000000000000000000000815260206004820152601d60248201527f5368756d5265776172644c6f636b65723a20656d707479206172726179000000604482015290519081900360640190fd5b8483148015610ab357508281145b610b08576040517f08c379a0000000000000000000000000000000000000000000000000000000008152600401808060200182810382526021815260200180611ebf6021913960400191505060405180910390fd5b60005b85811015610b7257610b6a878783818110610b2257fe5b9050602002013573ffffffffffffffffffffffffffffffffffffffff16868684818110610b4b57fe5b90506020020135858585818110610b5e57fe5b90506020020135611290565b600101610b0b565b50505050505050565b603754604080517f91d148540000000000000000000000000000000000000000000000000000000081527f4c4f434b5f5245574152440000000000000000000000000000000000000000006004820152336024820152905173ffffffffffffffffffffffffffffffffffffffff909216916391d1485491604480820192602092909190829003018186803b158015610c1257600080fd5b505afa158015610c26573d6000803e3d6000fd5b505050506040513d6020811015610c3c57600080fd5b5051610c93576040517f08c379a0000000000000000000000000000000000000000000000000000000008152600401808060200182810382526026815260200180611e656026913960400191505060405180910390fd5b610c9e838383611290565b505050565b60015473ffffffffffffffffffffffffffffffffffffffff1681565b73ffffffffffffffffffffffffffffffffffffffff1660009081526034602052604090205490565b60375473ffffffffffffffffffffffffffffffffffffffff1681565b603754604080517f91d148540000000000000000000000000000000000000000000000000000000081527f4d4f56455f5245574152440000000000000000000000000000000000000000006004820152336024820152905173ffffffffffffffffffffffffffffffffffffffff909216916391d1485491604480820192602092909190829003018186803b158015610d9a57600080fd5b505afa158015610dae573d6000803e3d6000fd5b505050506040513d6020811015610dc457600080fd5b5051610e1b576040517f08c379a0000000000000000000000000000000000000000000000000000000008152600401808060200182810382526026815260200180611dab6026913960400191505060405180910390fd5b610e2b8585856000808787611548565b5050505050565b600054610100900460ff1680610e4b5750610e4b61128a565b80610e59575060005460ff16155b610eae576040517f08c379a000000000000000000000000000000000000000000000000000000000815260040180806020018281038252602e815260200180611e16602e913960400191505060405180910390fd5b600054610100900460ff16158015610f1457600080547fffffffffffffffffffffffffffffffffffffffffffffffffffffffffffffff007fffffffffffffffffffffffffffffffffffffffffffffffffffffffffffff00ff909116610100171660011790555b610f1d826106b7565b73ffffffffffffffffffffffffffffffffffffffff8416610f9f57604080517f08c379a000000000000000000000000000000000000000000000000000000000815260206004820152601e60248201527f5368756d5265776172644c6f636b65723a207a65726f20616464726573730000604482015290519081900360640190fd5b73ffffffffffffffffffffffffffffffffffffffff831661102157604080517f08c379a000000000000000000000000000000000000000000000000000000000815260206004820152601e60248201527f5368756d5265776172644c6f636b65723a207a65726f20616464726573730000604482015290519081900360640190fd5b6036805473ffffffffffffffffffffffffffffffffffffffff8087167fffffffffffffffffffffffff000000000000000000000000000000000000000092831617909255603780549286169290911691909117905580156110a557600080547fffffffffffffffffffffffffffffffffffffffffffffffffffffffffffff00ff1690555b50505050565b60336020908152600092835260408084209091529082529020547affffffffffffffffffffffffffffffffffffffffffffffffffffff8116907b01000000000000000000000000000000000000000000000000000000900464ffffffffff1682565b603754604080517f91d148540000000000000000000000000000000000000000000000000000000081527f4d4f56455f5245574152440000000000000000000000000000000000000000006004820152336024820152905173ffffffffffffffffffffffffffffffffffffffff909216916391d1485491604480820192602092909190829003018186803b1580156111a457600080fd5b505afa1580156111b8573d6000803e3d6000fd5b505050506040513d60208110156111ce57600080fd5b5051611225576040517f08c379a0000000000000000000000000000000000000000000000000000000008152600401808060200182810382526026815260200180611dab6026913960400191505060405180910390fd5b610b7287878787878787611548565b60325481565b60346020526000908152604090205481565b60365473ffffffffffffffffffffffffffffffffffffffff1681565b60005462010000900473ffffffffffffffffffffffffffffffffffffffff1681565b303b1590565b600082116112ff57604080517f08c379a000000000000000000000000000000000000000000000000000000000815260206004820152601d60248201527f5368756d5265776172644c6f636b65723a207a65726f20616d6f756e74000000604482015290519081900360640190fd5b81817affffffffffffffffffffffffffffffffffffffffffffffffffffff82168214611376576040517f08c379a0000000000000000000000000000000000000000000000000000000008152600401808060200182810382526028815260200180611f3b6028913960400191505060405180910390fd5b828164ffffffffff16146113d5576040517f08c379a0000000000000000000000000000000000000000000000000000000008152600401808060200182810382526026815260200180611ee06026913960400191505060405180910390fd5b60328054600101908190556040805180820182527affffffffffffffffffffffffffffffffffffffffffffffffffffff858116825264ffffffffff858116602080850191825260009687526033815285872073ffffffffffffffffffffffffffffffffffffffff8d16885281528587209451855492517fffffffffff000000000000000000000000000000000000000000000000000000909316908516179093167b01000000000000000000000000000000000000000000000000000000919092160217909155603490529020546114ad9085611774565b73ffffffffffffffffffffffffffffffffffffffff86166000908152603460205260409020556035546114e09085611774565b6035556032546040805191825273ffffffffffffffffffffffffffffffffffffffff8716602083015281810186905260608201859052517f845ade075be5216c191d7e445d78bee074ca83508e3d734d19a8ac612bd004dd9181900360800190a15050505050565b60006115548685611774565b905060008111801561158b575073ffffffffffffffffffffffffffffffffffffffff88166000908152603460205260409020548111155b6115e0576040517f08c379a0000000000000000000000000000000000000000000000000000000008152600401808060200182810382526025815260200180611d866025913960400191505060405180910390fd5b73ffffffffffffffffffffffffffffffffffffffff881660009081526034602052604090205461161090826117f1565b73ffffffffffffffffffffffffffffffffffffffff8916600090815260346020526040812091909155869085905b8481101561170657600086868381811061165457fe5b9050602002013590506116e16040518061010001604052808e73ffffffffffffffffffffffffffffffffffffffff1681526020018d73ffffffffffffffffffffffffffffffffffffffff1681526020018c81526020018b73ffffffffffffffffffffffffffffffffffffffff1681526020018a815260200183815260200186815260200185815250611833565b9094509250831580156116f2575082155b156116fd5750611706565b5060010161163e565b5081158015611713575080155b611768576040517f08c379a0000000000000000000000000000000000000000000000000000000008152600401808060200182810382526034815260200180611e8b6034913960400191505060405180910390fd5b50505050505050505050565b6000828201838110156117e857604080517f08c379a000000000000000000000000000000000000000000000000000000000815260206004820152601b60248201527f536166654d6174683a206164646974696f6e206f766572666c6f770000000000604482015290519081900360640190fd5b90505b92915050565b60006117e883836040518060400160405280601e81526020017f536166654d6174683a207375627472616374696f6e206f766572666c6f770000815250611b8f565b60a08101516000908152603360209081526040808320845173ffffffffffffffffffffffffffffffffffffffff16845282528083208151808301909252547affffffffffffffffffffffffffffffffffffffffffffffffffffff81168083527b0100000000000000000000000000000000000000000000000000000090910464ffffffffff169282019290925282916118d85750505060c081015160e0820151611b8a565b60006118f58560e001518660c0015161177490919063ffffffff16565b905060006119248284600001517affffffffffffffffffffffffffffffffffffffffffffffffffffff16611c40565b83519091507affffffffffffffffffffffffffffffffffffffffffffffffffffff168114156119c05760a08601805160009081526033602090815260408083208a5173ffffffffffffffffffffffffffffffffffffffff1684528252808320929092559151815190815290517f3a4184732b5b7b70d5cf3e415cdbc9d202e6b294b82b9e61e536bc76afb12dbc929181900390910190a1611ab6565b82516000906119ec907affffffffffffffffffffffffffffffffffffffffffffffffffffff16836117f1565b60a08801805160009081526033602090815260408083208c5173ffffffffffffffffffffffffffffffffffffffff16845282529182902080547affffffffffffffffffffffffffffffffffffffffffffffffffffff8087167fffffffffff0000000000000000000000000000000000000000000000000000009092169190911790915592518851835191825290931690830152818101839052519192507f7d8f82b4baa5f8119d03533e08deba8f44205d62f04a8376ed2f30bc5858a150919081900360600190a1505b60008082841415611ad257505060c086015160e0870151611b22565b611b138860c00151611b0e611af88b608001518c6040015161177490919063ffffffff16565b60408c0151611b08908890611c56565b90611cc9565b611c40565b9150611b1f83836117f1565b90505b8115611b4257611b42886020015183876020015164ffffffffff16611290565b8015611b6257611b62886060015182876020015164ffffffffff16611290565b60c0880151611b7190836117f1565b60e0890151611b8090836117f1565b9650965050505050505b915091565b60008184841115611c38576040517f08c379a00000000000000000000000000000000000000000000000000000000081526004018080602001828103825283818151815260200191508051906020019080838360005b83811015611bfd578181015183820152602001611be5565b50505050905090810190601f168015611c2a5780820380516001836020036101000a031916815260200191505b509250505060405180910390fd5b505050900390565b6000818310611c4f57816117e8565b5090919050565b600082611c65575060006117eb565b82820282848281611c7257fe5b04146117e8576040517f08c379a0000000000000000000000000000000000000000000000000000000008152600401808060200182810382526021815260200180611e446021913960400191505060405180910390fd5b60006117e883836040518060400160405280601a81526020017f536166654d6174683a206469766973696f6e206279207a65726f00000000000081525060008183611d6f576040517f08c379a0000000000000000000000000000000000000000000000000000000008152602060048201818152835160248401528351909283926044909101919085019080838360008315611bfd578181015183820152602001611be5565b506000838581611d7b57fe5b049594505050505056fe5368756d5265776172644c6f636b65723a20616d6f756e74206f7574206f662072616e67655368756d5265776172644c6f636b65723a206e6f74204d4f56455f52455741524420726f6c655368756d41646d696e5570677261646561626c653a206f6e6c792074686520636f6e74726163742061646d696e2063616e20706572666f726d207468697320616374696f6e496e697469616c697a61626c653a20636f6e747261637420697320616c726561647920696e697469616c697a6564536166654d6174683a206d756c7469706c69636174696f6e206f766572666c6f775368756d5265776172644c6f636b65723a206e6f74204c4f434b5f52455741524420726f6c655368756d5265776172644c6f636b65723a20616d6f756e74206e6f742066696c6c6564207769746820616c6c20656e74726965735368756d5265776172644c6f636b65723a206c656e677468206d69736d617463685368756d5265776172644c6f636b65723a20756e6c6f636b2074696d65206f766572666c6f775368756d41646d696e5570677261646561626c653a206f6e6c792063616e6469646174652063616e206265636f6d652061646d696e5368756d5265776172644c6f636b65723a2072657761726420616d6f756e74206f766572666c6f775368756d41646d696e5570677261646561626c653a207a65726f2061646472657373a2646970667358221220e2b396adea51ec55a4f853d8c5c4458252f7115df16f19b45633d8536855900064736f6c63430007060033",
  "linkReferences": {},
  "deployedLinkReferences": {}
}