{
  "_format": "hh-sol-artifact-1",
  "contractName": "ShumAccessControl",
  "sourceName": "contracts/ShumAccessControl.sol",
  "abi": [
    {
      "anonymous": false,
      "inputs": [
        {
          "indexed": true,
          "internalType": "bytes32",
          "name": "role",
          "type": "bytes32"
        },
        {
          "indexed": true,
          "internalType": "bytes32",
          "name": "previousAdminRole",
          "type": "bytes32"
        },
        {
          "indexed": true,
          "internalType": "bytes32",
          "name": "newAdminRole",
          "type": "bytes32"
        }
      ],
      "name": "RoleAdminChanged",
      "type": "event"
    },
    {
      "anonymous": false,
      "inputs": [
        {
          "indexed": true,
          "internalType": "bytes32",
          "name": "role",
          "type": "bytes32"
        },
        {
          "indexed": true,
          "internalType": "address",
          "name": "account",
          "type": "address"
        },
        {
          "indexed": true,
          "internalType": "address",
          "name": "sender",
          "type": "address"
        }
      ],
      "name": "RoleGranted",
      "type": "event"
    },
    {
      "anonymous": false,
      "inputs": [
        {
          "indexed": true,
          "internalType": "bytes32",
          "name": "role",
          "type": "bytes32"
        },
        {
          "indexed": true,
          "internalType": "address",
          "name": "account",
          "type": "address"
        },
        {
          "indexed": true,
          "internalType": "address",
          "name": "sender",
          "type": "address"
        }
      ],
      "name": "RoleRevoked",
      "type": "event"
    },
    {
      "inputs": [],
      "name": "BURN_ASSET_ROLE",
      "outputs": [
        {
          "internalType": "bytes32",
          "name": "",
          "type": "bytes32"
        }
      ],
      "stateMutability": "view",
      "type": "function"
    },
    {
      "inputs": [],
      "name": "DEBT_SYSTEM",
      "outputs": [
        {
          "internalType": "bytes32",
          "name": "",
          "type": "bytes32"
        }
      ],
      "stateMutability": "view",
      "type": "function"
    },
    {
      "inputs": [],
      "name": "DEFAULT_ADMIN_ROLE",
      "outputs": [
        {
          "internalType": "bytes32",
          "name": "",
          "type": "bytes32"
        }
      ],
      "stateMutability": "view",
      "type": "function"
    },
    {
      "inputs": [],
      "name": "ISSUE_ASSET_ROLE",
      "outputs": [
        {
          "internalType": "bytes32",
          "name": "",
          "type": "bytes32"
        }
      ],
      "stateMutability": "view",
      "type": "function"
    },
    {
      "inputs": [
        {
          "internalType": "address",
          "name": "_address",
          "type": "address"
        }
      ],
      "name": "IsAdmin",
      "outputs": [
        {
          "internalType": "bool",
          "name": "",
          "type": "bool"
        }
      ],
      "stateMutability": "view",
      "type": "function"
    },
    {
      "inputs": [
        {
          "internalType": "address",
          "name": "_address",
          "type": "address"
        }
      ],
      "name": "SetAdmin",
      "outputs": [
        {
          "internalType": "bool",
          "name": "",
          "type": "bool"
        }
      ],
      "stateMutability": "nonpayable",
      "type": "function"
    },
    {
      "inputs": [
        {
          "internalType": "address[]",
          "name": "burner",
          "type": "address[]"
        },
        {
          "internalType": "bool[]",
          "name": "setTo",
          "type": "bool[]"
        }
      ],
      "name": "SetBurnAssetRole",
      "outputs": [],
      "stateMutability": "nonpayable",
      "type": "function"
    },
    {
      "inputs": [
        {
          "internalType": "address[]",
          "name": "_address",
          "type": "address[]"
        },
        {
          "internalType": "bool[]",
          "name": "_setTo",
          "type": "bool[]"
        }
      ],
      "name": "SetDebtSystemRole",
      "outputs": [],
      "stateMutability": "nonpayable",
      "type": "function"
    },
    {
      "inputs": [
        {
          "internalType": "address[]",
          "name": "issuer",
          "type": "address[]"
        },
        {
          "internalType": "bool[]",
          "name": "setTo",
          "type": "bool[]"
        }
      ],
      "name": "SetIssueAssetRole",
      "outputs": [],
      "stateMutability": "nonpayable",
      "type": "function"
    },
    {
      "inputs": [
        {
          "internalType": "bytes32",
          "name": "roleType",
          "type": "bytes32"
        },
        {
          "internalType": "address[]",
          "name": "addresses",
          "type": "address[]"
        },
        {
          "internalType": "bool[]",
          "name": "setTo",
          "type": "bool[]"
        }
      ],
      "name": "SetRoles",
      "outputs": [],
      "stateMutability": "nonpayable",
      "type": "function"
    },
    {
      "inputs": [
        {
          "internalType": "address",
          "name": "admin",
          "type": "address"
        }
      ],
      "name": "__ShumAccessControl_init",
      "outputs": [],
      "stateMutability": "nonpayable",
      "type": "function"
    },
    {
      "inputs": [
        {
          "internalType": "bytes32",
          "name": "role",
          "type": "bytes32"
        }
      ],
      "name": "getRoleAdmin",
      "outputs": [
        {
          "internalType": "bytes32",
          "name": "",
          "type": "bytes32"
        }
      ],
      "stateMutability": "view",
      "type": "function"
    },
    {
      "inputs": [
        {
          "internalType": "bytes32",
          "name": "role",
          "type": "bytes32"
        },
        {
          "internalType": "uint256",
          "name": "index",
          "type": "uint256"
        }
      ],
      "name": "getRoleMember",
      "outputs": [
        {
          "internalType": "address",
          "name": "",
          "type": "address"
        }
      ],
      "stateMutability": "view",
      "type": "function"
    },
    {
      "inputs": [
        {
          "internalType": "bytes32",
          "name": "role",
          "type": "bytes32"
        }
      ],
      "name": "getRoleMemberCount",
      "outputs": [
        {
          "internalType": "uint256",
          "name": "",
          "type": "uint256"
        }
      ],
      "stateMutability": "view",
      "type": "function"
    },
    {
      "inputs": [
        {
          "internalType": "bytes32",
          "name": "role",
          "type": "bytes32"
        },
        {
          "internalType": "address",
          "name": "account",
          "type": "address"
        }
      ],
      "name": "grantRole",
      "outputs": [],
      "stateMutability": "nonpayable",
      "type": "function"
    },
    {
      "inputs": [
        {
          "internalType": "bytes32",
          "name": "role",
          "type": "bytes32"
        },
        {
          "internalType": "address",
          "name": "account",
          "type": "address"
        }
      ],
      "name": "hasRole",
      "outputs": [
        {
          "internalType": "bool",
          "name": "",
          "type": "bool"
        }
      ],
      "stateMutability": "view",
      "type": "function"
    },
    {
      "inputs": [
        {
          "internalType": "bytes32",
          "name": "role",
          "type": "bytes32"
        },
        {
          "internalType": "address",
          "name": "account",
          "type": "address"
        }
      ],
      "name": "renounceRole",
      "outputs": [],
      "stateMutability": "nonpayable",
      "type": "function"
    },
    {
      "inputs": [
        {
          "internalType": "bytes32",
          "name": "role",
          "type": "bytes32"
        },
        {
          "internalType": "address",
          "name": "account",
          "type": "address"
        }
      ],
      "name": "revokeRole",
      "outputs": [],
      "stateMutability": "nonpayable",
      "type": "function"
    }
  ],
  "bytecode": "0x608060405234801561001057600080fd5b50611130806100206000396000f3fe608060405234801561001057600080fd5b50600436106101365760003560e01c8063631036ad116100b2578063a217fddf11610081578063ca15c87311610066578063ca15c8731461057d578063d547741f1461059a578063f0f57a19146105d357610136565b8063a217fddf14610542578063b11e3c1a1461054a57610136565b8063631036ad146103c85780639010d07c1461048a578063901a9e28146104d657806391d148541461050957610136565b806336568abe11610109578063435e60ae116100ee578063435e60ae146102b7578063550f1a91146102bf5780635a2724031461038157610136565b806336568abe1461027657806340c1b478146102af57610136565b80630a36dc4c1461013b578063248a9ca3146101555780632f2ff15d1461017257806335a41034146101ad575b600080fd5b610143610695565b60408051918252519081900360200190f35b6101436004803603602081101561016b57600080fd5b50356106b9565b6101ab6004803603604081101561018857600080fd5b508035906020013573ffffffffffffffffffffffffffffffffffffffff166106d1565b005b6101ab600480360360608110156101c357600080fd5b813591908101906040810160208201356401000000008111156101e557600080fd5b8201836020820111156101f757600080fd5b8035906020019184602083028401116401000000008311171561021957600080fd5b91939092909160208101903564010000000081111561023757600080fd5b82018360208201111561024957600080fd5b8035906020019184602083028401116401000000008311171561026b57600080fd5b509092509050610757565b6101ab6004803603604081101561028c57600080fd5b508035906020013573ffffffffffffffffffffffffffffffffffffffff166107df565b610143610874565b610143610898565b6101ab600480360360408110156102d557600080fd5b8101906020810181356401000000008111156102f057600080fd5b82018360208201111561030257600080fd5b8035906020019184602083028401116401000000008311171561032457600080fd5b91939092909160208101903564010000000081111561034257600080fd5b82018360208201111561035457600080fd5b8035906020019184602083028401116401000000008311171561037657600080fd5b5090925090506108bc565b6103b46004803603602081101561039757600080fd5b503573ffffffffffffffffffffffffffffffffffffffff166108ef565b604080519115158252519081900360200190f35b6101ab600480360360408110156103de57600080fd5b8101906020810181356401000000008111156103f957600080fd5b82018360208201111561040b57600080fd5b8035906020019184602083028401116401000000008311171561042d57600080fd5b91939092909160208101903564010000000081111561044b57600080fd5b82018360208201111561045d57600080fd5b8035906020019184602083028401116401000000008311171561047f57600080fd5b509092509050610970565b6104ad600480360360408110156104a057600080fd5b508035906020013561099d565b6040805173ffffffffffffffffffffffffffffffffffffffff9092168252519081900360200190f35b6101ab600480360360208110156104ec57600080fd5b503573ffffffffffffffffffffffffffffffffffffffff166109be565b6103b46004803603604081101561051f57600080fd5b508035906020013573ffffffffffffffffffffffffffffffffffffffff16610add565b610143610af5565b6103b46004803603602081101561056057600080fd5b503573ffffffffffffffffffffffffffffffffffffffff16610afa565b6101436004803603602081101561059357600080fd5b5035610b06565b6101ab600480360360408110156105b057600080fd5b508035906020013573ffffffffffffffffffffffffffffffffffffffff16610b1d565b6101ab600480360360408110156105e957600080fd5b81019060208101813564010000000081111561060457600080fd5b82018360208201111561061657600080fd5b8035906020019184602083028401116401000000008311171561063857600080fd5b91939092909160208101903564010000000081111561065657600080fd5b82018360208201111561066857600080fd5b8035906020019184602083028401116401000000008311171561068a57600080fd5b509092509050610b90565b7f49535355455f415353455400000000000000000000000000000000000000000081565b6000818152603360205260409020600201545b919050565b6000828152603360205260409020600201546106f4906106ef610bbd565b610add565b610749576040517f08c379a000000000000000000000000000000000000000000000000000000000815260040180806020018281038252602f81526020018061103f602f913960400191505060405180910390fd5b6107538282610bc1565b5050565b61076033610afa565b6107cb57604080517f08c379a000000000000000000000000000000000000000000000000000000000815260206004820152600a60248201527f4f6e6c792061646d696e00000000000000000000000000000000000000000000604482015290519081900360640190fd5b6107d88585858585610c44565b5050505050565b6107e7610bbd565b73ffffffffffffffffffffffffffffffffffffffff168173ffffffffffffffffffffffffffffffffffffffff161461086a576040517f08c379a000000000000000000000000000000000000000000000000000000000815260040180806020018281038252602f8152602001806110cc602f913960400191505060405180910390fd5b6107538282610d4e565b7f4255524e5f41535345540000000000000000000000000000000000000000000081565b7f5368756d4465627453797374656d00000000000000000000000000000000000081565b6108e97f49535355455f415353455400000000000000000000000000000000000000000085858585610c44565b50505050565b60006108fa33610afa565b61096557604080517f08c379a000000000000000000000000000000000000000000000000000000000815260206004820152600a60248201527f4f6e6c792061646d696e00000000000000000000000000000000000000000000604482015290519081900360640190fd5b6106cc600083610749565b6108e97f4255524e5f41535345540000000000000000000000000000000000000000000085858585610c44565b60008281526033602052604081206109b59083610dd1565b90505b92915050565b600054610100900460ff16806109d757506109d7610ddd565b806109e5575060005460ff16155b610a3a576040517f08c379a000000000000000000000000000000000000000000000000000000000815260040180806020018281038252602e81526020018061109e602e913960400191505060405180910390fd5b600054610100900460ff16158015610aa057600080547fffffffffffffffffffffffffffffffffffffffffffffffffffffffffffffff007fffffffffffffffffffffffffffffffffffffffffffffffffffffffffffff00ff909116610100171660011790555b610aab600083610749565b801561075357600080547fffffffffffffffffffffffffffffffffffffffffffffffffffffffffffff00ff1690555050565b60008281526033602052604081206109b59083610de3565b600081565b60006109b88183610add565b60008181526033602052604081206109b890610e05565b600082815260336020526040902060020154610b3b906106ef610bbd565b61086a576040517f08c379a000000000000000000000000000000000000000000000000000000000815260040180806020018281038252603081526020018061106e6030913960400191505060405180910390fd5b6108e97f5368756d4465627453797374656d00000000000000000000000000000000000085858585610c44565b3390565b6000828152603360205260409020610bd99082610e10565b1561075357610be6610bbd565b73ffffffffffffffffffffffffffffffffffffffff168173ffffffffffffffffffffffffffffffffffffffff16837f2f8788117e7eff1d82e926ec794901d17c78024a50270940304540a733656f0d60405160405180910390a45050565b828114610cb257604080517f08c379a000000000000000000000000000000000000000000000000000000000815260206004820152601f60248201527f706172616d657465722061646472657373206c656e677468206e6f7420657100604482015290519081900360640190fd5b60005b83811015610d4657828282818110610cc957fe5b9050602002013515610d0c57610d0786868684818110610ce557fe5b9050602002013573ffffffffffffffffffffffffffffffffffffffff166106d1565b610d3e565b610d3e86868684818110610d1c57fe5b9050602002013573ffffffffffffffffffffffffffffffffffffffff16610b1d565b600101610cb5565b505050505050565b6000828152603360205260409020610d669082610e32565b1561075357610d73610bbd565b73ffffffffffffffffffffffffffffffffffffffff168173ffffffffffffffffffffffffffffffffffffffff16837ff6391f5c32d9c69d2a47ea670b442974b53935d1edc7fd64eb21e047a839171b60405160405180910390a45050565b60006109b58383610e54565b303b1590565b60006109b58373ffffffffffffffffffffffffffffffffffffffff8416610ed2565b60006109b882610eea565b60006109b58373ffffffffffffffffffffffffffffffffffffffff8416610eee565b60006109b58373ffffffffffffffffffffffffffffffffffffffff8416610f38565b81546000908210610eb0576040517f08c379a000000000000000000000000000000000000000000000000000000000815260040180806020018281038252602281526020018061101d6022913960400191505060405180910390fd5b826000018281548110610ebf57fe5b9060005260206000200154905092915050565b60009081526001919091016020526040902054151590565b5490565b6000610efa8383610ed2565b610f30575081546001818101845560008481526020808220909301849055845484825282860190935260409020919091556109b8565b5060006109b8565b600081815260018301602052604081205480156110125783547fffffffffffffffffffffffffffffffffffffffffffffffffffffffffffffffff8083019190810190600090879083908110610f8957fe5b9060005260206000200154905080876000018481548110610fa657fe5b600091825260208083209091019290925582815260018981019092526040902090840190558654879080610fd657fe5b600190038181906000526020600020016000905590558660010160008781526020019081526020016000206000905560019450505050506109b8565b60009150506109b856fe456e756d657261626c655365743a20696e646578206f7574206f6620626f756e6473416363657373436f6e74726f6c3a2073656e646572206d75737420626520616e2061646d696e20746f206772616e74416363657373436f6e74726f6c3a2073656e646572206d75737420626520616e2061646d696e20746f207265766f6b65496e697469616c697a61626c653a20636f6e747261637420697320616c726561647920696e697469616c697a6564416363657373436f6e74726f6c3a2063616e206f6e6c792072656e6f756e636520726f6c657320666f722073656c66a26469706673582212207b1c7f34ebfd450eb5498a466c3401eb49d5a7ca62db75efb45c04267e808e8764736f6c634300060c0033",
  "linkReferences": {},
  "deployedLinkReferences": {}
}