{
  "_format": "hh-sol-artifact-1",
  "contractName": "ShumLiquidation",
  "sourceName": "contracts/ShumLiquidation.sol",
  "abi": [
    {
      "anonymous": false,
      "inputs": [
        {
          "indexed": false,
          "internalType": "address",
          "name": "oldAdmin",
          "type": "address"
        },
        {
          "indexed": false,
          "internalType": "address",
          "name": "newAdmin",
          "type": "address"
        }
      ],
      "name": "AdminChanged",
      "type": "event"
    },
    {
      "anonymous": false,
      "inputs": [
        {
          "indexed": false,
          "internalType": "address",
          "name": "oldCandidate",
          "type": "address"
        },
        {
          "indexed": false,
          "internalType": "address",
          "name": "newCandidate",
          "type": "address"
        }
      ],
      "name": "CandidateChanged",
      "type": "event"
    },
    {
      "anonymous": false,
      "inputs": [
        {
          "indexed": false,
          "internalType": "address",
          "name": "user",
          "type": "address"
        },
        {
          "indexed": false,
          "internalType": "address",
          "name": "marker",
          "type": "address"
        },
        {
          "indexed": false,
          "internalType": "address",
          "name": "liquidator",
          "type": "address"
        },
        {
          "indexed": false,
          "internalType": "uint256",
          "name": "debtBurnt",
          "type": "uint256"
        },
        {
          "indexed": false,
          "internalType": "bytes32",
          "name": "collateralCurrency",
          "type": "bytes32"
        },
        {
          "indexed": false,
          "internalType": "uint256",
          "name": "collateralWithdrawnFromStaked",
          "type": "uint256"
        },
        {
          "indexed": false,
          "internalType": "uint256",
          "name": "collateralWithdrawnFromLocked",
          "type": "uint256"
        },
        {
          "indexed": false,
          "internalType": "uint256",
          "name": "markerReward",
          "type": "uint256"
        },
        {
          "indexed": false,
          "internalType": "uint256",
          "name": "liquidatorReward",
          "type": "uint256"
        }
      ],
      "name": "PositionLiquidated",
      "type": "event"
    },
    {
      "anonymous": false,
      "inputs": [
        {
          "indexed": false,
          "internalType": "address",
          "name": "user",
          "type": "address"
        },
        {
          "indexed": false,
          "internalType": "address",
          "name": "marker",
          "type": "address"
        }
      ],
      "name": "PositionMarked",
      "type": "event"
    },
    {
      "anonymous": false,
      "inputs": [
        {
          "indexed": false,
          "internalType": "address",
          "name": "user",
          "type": "address"
        }
      ],
      "name": "PositionUnmarked",
      "type": "event"
    },
    {
      "inputs": [],
      "name": "BUILD_RATIO_KEY",
      "outputs": [
        {
          "internalType": "bytes32",
          "name": "",
          "type": "bytes32"
        }
      ],
      "stateMutability": "view",
      "type": "function"
    },
    {
      "inputs": [],
      "name": "LIQUIDATION_DELAY_KEY",
      "outputs": [
        {
          "internalType": "bytes32",
          "name": "",
          "type": "bytes32"
        }
      ],
      "stateMutability": "view",
      "type": "function"
    },
    {
      "inputs": [],
      "name": "LIQUIDATION_LIQUIDATOR_REWARD_KEY",
      "outputs": [
        {
          "internalType": "bytes32",
          "name": "",
          "type": "bytes32"
        }
      ],
      "stateMutability": "view",
      "type": "function"
    },
    {
      "inputs": [],
      "name": "LIQUIDATION_MARKER_REWARD_KEY",
      "outputs": [
        {
          "internalType": "bytes32",
          "name": "",
          "type": "bytes32"
        }
      ],
      "stateMutability": "view",
      "type": "function"
    },
    {
      "inputs": [],
      "name": "LIQUIDATION_RATIO_KEY",
      "outputs": [
        {
          "internalType": "bytes32",
          "name": "",
          "type": "bytes32"
        }
      ],
      "stateMutability": "view",
      "type": "function"
    },
    {
      "inputs": [
        {
          "internalType": "address",
          "name": "_admin",
          "type": "address"
        }
      ],
      "name": "__ShumAdminUpgradeable_init",
      "outputs": [],
      "stateMutability": "nonpayable",
      "type": "function"
    },
    {
      "inputs": [
        {
          "internalType": "contract IShumBuildBurnSystem",
          "name": "_shumBuildBurnSystem",
          "type": "address"
        },
        {
          "internalType": "contract IShumCollateralSystem",
          "name": "_shumCollateralSystem",
          "type": "address"
        },
        {
          "internalType": "contract IShumConfig",
          "name": "_shumConfig",
          "type": "address"
        },
        {
          "internalType": "contract IShumDebtSystem",
          "name": "_shumDebtSystem",
          "type": "address"
        },
        {
          "internalType": "contract IShumPrices",
          "name": "_shumPrices",
          "type": "address"
        },
        {
          "internalType": "contract IShumRewardLocker",
          "name": "_shumRewardLocker",
          "type": "address"
        },
        {
          "internalType": "address",
          "name": "_admin",
          "type": "address"
        }
      ],
      "name": "__ShumLiquidation_init",
      "outputs": [],
      "stateMutability": "nonpayable",
      "type": "function"
    },
    {
      "inputs": [],
      "name": "admin",
      "outputs": [
        {
          "internalType": "address",
          "name": "",
          "type": "address"
        }
      ],
      "stateMutability": "view",
      "type": "function"
    },
    {
      "inputs": [],
      "name": "becomeAdmin",
      "outputs": [],
      "stateMutability": "nonpayable",
      "type": "function"
    },
    {
      "inputs": [],
      "name": "candidate",
      "outputs": [
        {
          "internalType": "address",
          "name": "",
          "type": "address"
        }
      ],
      "stateMutability": "view",
      "type": "function"
    },
    {
      "inputs": [
        {
          "internalType": "address",
          "name": "user",
          "type": "address"
        }
      ],
      "name": "getUndercollateralizationMarkMarker",
      "outputs": [
        {
          "internalType": "address",
          "name": "",
          "type": "address"
        }
      ],
      "stateMutability": "view",
      "type": "function"
    },
    {
      "inputs": [
        {
          "internalType": "address",
          "name": "user",
          "type": "address"
        }
      ],
      "name": "getUndercollateralizationMarkTimestamp",
      "outputs": [
        {
          "internalType": "uint256",
          "name": "",
          "type": "uint256"
        }
      ],
      "stateMutability": "view",
      "type": "function"
    },
    {
      "inputs": [
        {
          "internalType": "address",
          "name": "user",
          "type": "address"
        }
      ],
      "name": "isPositionMarkedAsUndercollateralized",
      "outputs": [
        {
          "internalType": "bool",
          "name": "",
          "type": "bool"
        }
      ],
      "stateMutability": "view",
      "type": "function"
    },
    {
      "inputs": [
        {
          "internalType": "address",
          "name": "user",
          "type": "address"
        },
        {
          "internalType": "uint256",
          "name": "lusdToBurn",
          "type": "uint256"
        },
        {
          "internalType": "uint256[]",
          "name": "rewardEntryIds",
          "type": "uint256[]"
        }
      ],
      "name": "liquidatePosition",
      "outputs": [],
      "stateMutability": "nonpayable",
      "type": "function"
    },
    {
      "inputs": [
        {
          "internalType": "address",
          "name": "user",
          "type": "address"
        },
        {
          "internalType": "uint256[]",
          "name": "rewardEntryIds",
          "type": "uint256[]"
        }
      ],
      "name": "liquidatePositionMax",
      "outputs": [],
      "stateMutability": "nonpayable",
      "type": "function"
    },
    {
      "inputs": [
        {
          "internalType": "address",
          "name": "user",
          "type": "address"
        }
      ],
      "name": "markPositionAsUndercollateralized",
      "outputs": [],
      "stateMutability": "nonpayable",
      "type": "function"
    },
    {
      "inputs": [
        {
          "internalType": "address",
          "name": "user",
          "type": "address"
        }
      ],
      "name": "removeUndercollateralizationMark",
      "outputs": [],
      "stateMutability": "nonpayable",
      "type": "function"
    },
    {
      "inputs": [
        {
          "internalType": "address",
          "name": "_candidate",
          "type": "address"
        }
      ],
      "name": "setCandidate",
      "outputs": [],
      "stateMutability": "nonpayable",
      "type": "function"
    },
    {
      "inputs": [
        {
          "internalType": "contract IShumPrices",
          "name": "newShumPrices",
          "type": "address"
        }
      ],
      "name": "setShumPrices",
      "outputs": [],
      "stateMutability": "nonpayable",
      "type": "function"
    },
    {
      "inputs": [],
      "name": "shumBuildBurnSystem",
      "outputs": [
        {
          "internalType": "contract IShumBuildBurnSystem",
          "name": "",
          "type": "address"
        }
      ],
      "stateMutability": "view",
      "type": "function"
    },
    {
      "inputs": [],
      "name": "shumCollateralSystem",
      "outputs": [
        {
          "internalType": "contract IShumCollateralSystem",
          "name": "",
          "type": "address"
        }
      ],
      "stateMutability": "view",
      "type": "function"
    },
    {
      "inputs": [],
      "name": "shumConfig",
      "outputs": [
        {
          "internalType": "contract IShumConfig",
          "name": "",
          "type": "address"
        }
      ],
      "stateMutability": "view",
      "type": "function"
    },
    {
      "inputs": [],
      "name": "shumDebtSystem",
      "outputs": [
        {
          "internalType": "contract IShumDebtSystem",
          "name": "",
          "type": "address"
        }
      ],
      "stateMutability": "view",
      "type": "function"
    },
    {
      "inputs": [],
      "name": "shumPrices",
      "outputs": [
        {
          "internalType": "contract IShumPrices",
          "name": "",
          "type": "address"
        }
      ],
      "stateMutability": "view",
      "type": "function"
    },
    {
      "inputs": [],
      "name": "shumRewardLocker",
      "outputs": [
        {
          "internalType": "contract IShumRewardLocker",
          "name": "",
          "type": "address"
        }
      ],
      "stateMutability": "view",
      "type": "function"
    },
    {
      "inputs": [
        {
          "internalType": "address",
          "name": "",
          "type": "address"
        }
      ],
      "name": "undercollateralizationMarks",
      "outputs": [
        {
          "internalType": "address",
          "name": "marker",
          "type": "address"
        },
        {
          "internalType": "uint64",
          "name": "timestamp",
          "type": "uint64"
        }
      ],
      "stateMutability": "view",
      "type": "function"
    }
  ],
  "bytecode": "0x608060405234801561001057600080fd5b5061325c806100206000396000f3fe608060405234801561001057600080fd5b50600436106101ae5760003560e01c8063a8c5ee80116100ee578063e108cfa211610097578063ef4e0b9611610071578063ef4e0b961461054d578063f5954382146105b9578063f851a440146105c1578063f9edded8146105c9576101ae565b8063e108cfa2146104b0578063e1f3b4d51461053d578063e873b32c14610545576101ae565b8063c76488e0116100c8578063c76488e01461042e578063cf42662514610475578063d707fe11146104a8576101ae565b8063a8c5ee80146103b9578063bc93b189146103c1578063c168672314610426576101ae565b80632287b9471161015b5780632f85936f116101355780632f85936f1461036e57806341de5a68146103a157806364a6c85e146103a95780636c8381f8146103b1576101ae565b80632287b9471461032b57806325971dff1461035e5780632d0ca32214610366576101ae565b80631733c9c81161018c5780631733c9c81461024c5780631a1929781461027f5780631c3df76e14610299576101ae565b806305dffc21146101b357806307880b7f146101e857806310d78cc91461021b575b600080fd5b6101e6600480360360208110156101c957600080fd5b503573ffffffffffffffffffffffffffffffffffffffff166105fc565b005b6101e6600480360360208110156101fe57600080fd5b503573ffffffffffffffffffffffffffffffffffffffff16610823565b610223610920565b6040805173ffffffffffffffffffffffffffffffffffffffff9092168252519081900360200190f35b6101e66004803603602081101561026257600080fd5b503573ffffffffffffffffffffffffffffffffffffffff1661093c565b610287610b42565b60408051918252519081900360200190f35b6101e6600480360360608110156102af57600080fd5b73ffffffffffffffffffffffffffffffffffffffff823516916020810135918101906060810160408201356401000000008111156102ec57600080fd5b8201836020820111156102fe57600080fd5b8035906020019184602083028401116401000000008311171561032057600080fd5b509092509050610b66565b6101e66004803603602081101561034157600080fd5b503573ffffffffffffffffffffffffffffffffffffffff16610c15565b6101e6610d54565b610287610e5a565b6102236004803603602081101561038457600080fd5b503573ffffffffffffffffffffffffffffffffffffffff16610e7e565b610223610ea9565b610287610ec5565b610223610ee9565b610287610f05565b6101e6600480360360e08110156103d757600080fd5b5073ffffffffffffffffffffffffffffffffffffffff8135811691602081013582169160408201358116916060810135821691608082013581169160a081013582169160c09091013516610f29565b6102236113e0565b6104616004803603602081101561044457600080fd5b503573ffffffffffffffffffffffffffffffffffffffff166113fc565b604080519115158252519081900360200190f35b6102876004803603602081101561048b57600080fd5b503573ffffffffffffffffffffffffffffffffffffffff16611448565b610223611492565b6101e6600480360360408110156104c657600080fd5b73ffffffffffffffffffffffffffffffffffffffff82351691908101906040810160208201356401000000008111156104fe57600080fd5b82018360208201111561051057600080fd5b8035906020019184602083028401116401000000008311171561053257600080fd5b5090925090506114ae565b610223611505565b610287611521565b6105806004803603602081101561056357600080fd5b503573ffffffffffffffffffffffffffffffffffffffff16611545565b6040805173ffffffffffffffffffffffffffffffffffffffff909316835267ffffffffffffffff90911660208301528051918290030190f35b610223611591565b6102236115ad565b6101e6600480360360208110156105df57600080fd5b503573ffffffffffffffffffffffffffffffffffffffff166115cf565b610605816113fc565b61067057604080517f08c379a000000000000000000000000000000000000000000000000000000000815260206004820152601b60248201527f5368756d4c69717569646174696f6e3a206e6f74206d61726b65640000000000604482015290519081900360640190fd5b600061067b82611868565b603454604080517fbd02d0f50000000000000000000000000000000000000000000000000000000081527f4275696c64526174696f000000000000000000000000000000000000000000006004820152905192935060009273ffffffffffffffffffffffffffffffffffffffff9092169163bd02d0f591602480820192602092909190829003018186803b15801561071257600080fd5b505afa158015610726573d6000803e3d6000fd5b505050506040513d602081101561073c57600080fd5b505160a083015190915081101561079e576040517f08c379a000000000000000000000000000000000000000000000000000000000815260040180806020018281038252602a8152602001806131b5602a913960400191505060405180910390fd5b73ffffffffffffffffffffffffffffffffffffffff831660008181526038602090815260409182902080547fffffffff00000000000000000000000000000000000000000000000000000000169055815192835290517f2f8cd325cb485626bd1f4b258153ea2c5da433cfee4505572b6abd139a3291bf9281900390910190a1505050565b60005462010000900473ffffffffffffffffffffffffffffffffffffffff163314610899576040517f08c379a000000000000000000000000000000000000000000000000000000000815260040180806020018281038252604581526020018061306d6045913960600191505060405180910390fd5b6001805473ffffffffffffffffffffffffffffffffffffffff8381167fffffffffffffffffffffffff0000000000000000000000000000000000000000831617928390556040805192821680845293909116602083015280517f7f730391c4f0fa1bea34bcb9bff8c30a079b21a0359759160cb990648ab84c729281900390910190a15050565b60325473ffffffffffffffffffffffffffffffffffffffff1681565b600054610100900460ff16806109555750610955611ae3565b80610963575060005460ff16155b6109b8576040517f08c379a000000000000000000000000000000000000000000000000000000000815260040180806020018281038252602e8152602001806130b2602e913960400191505060405180910390fd5b600054610100900460ff16158015610a1e57600080547fffffffffffffffffffffffffffffffffffffffffffffffffffffffffffffff007fffffffffffffffffffffffffffffffffffffffffffffffffffffffffffff00ff909116610100171660011790555b73ffffffffffffffffffffffffffffffffffffffff8216610a8a576040517f08c379a00000000000000000000000000000000000000000000000000000000081526004018080602001828103825260228152602001806132056022913960400191505060405180910390fd5b600080547fffffffffffffffffffff0000000000000000000000000000000000000000ffff166201000073ffffffffffffffffffffffffffffffffffffffff851690810291909117825560408051928352602083019190915280517f7e644d79422f17c01e4894b5f4f588d331ebfa28653d42ae832dc59e38c9798f9281900390910190a18015610b3e57600080547fffffffffffffffffffffffffffffffffffffffffffffffffffffffffffff00ff1690555b5050565b7f4c69717569646174696f6e4c697175696461746f72526577617264000000000081565b60008311610bd557604080517f08c379a000000000000000000000000000000000000000000000000000000000815260206004820152601c60248201527f5368756d4c69717569646174696f6e3a207a65726f20616d6f756e7400000000604482015290519081900360640190fd5b6040805160608101825273ffffffffffffffffffffffffffffffffffffffff86168152336020820152908101849052610c0f908383611ae9565b50505050565b60005462010000900473ffffffffffffffffffffffffffffffffffffffff163314610c8b576040517f08c379a000000000000000000000000000000000000000000000000000000000815260040180806020018281038252604581526020018061306d6045913960600191505060405180910390fd5b73ffffffffffffffffffffffffffffffffffffffff8116610d0d57604080517f08c379a000000000000000000000000000000000000000000000000000000000815260206004820152601d60248201527f5368756d4c69717569646174696f6e3a207a65726f2061646472657373000000604482015290519081900360640190fd5b603680547fffffffffffffffffffffffff00000000000000000000000000000000000000001673ffffffffffffffffffffffffffffffffffffffff92909216919091179055565b60015473ffffffffffffffffffffffffffffffffffffffff163314610dc4576040517f08c379a00000000000000000000000000000000000000000000000000000000081526004018080602001828103825260358152602001806131296035913960400191505060405180910390fd5b6000805460015473ffffffffffffffffffffffffffffffffffffffff908116620100009081027fffffffffffffffffffff0000000000000000000000000000000000000000ffff8416179384905560408051938290048316808552919094049091166020830152825190927f7e644d79422f17c01e4894b5f4f588d331ebfa28653d42ae832dc59e38c9798f928290030190a150565b7f4c69717569646174696f6e526174696f0000000000000000000000000000000081565b73ffffffffffffffffffffffffffffffffffffffff9081166000908152603860205260409020541690565b60355473ffffffffffffffffffffffffffffffffffffffff1681565b7f4275696c64526174696f0000000000000000000000000000000000000000000081565b60015473ffffffffffffffffffffffffffffffffffffffff1681565b7f4c69717569646174696f6e44656c61790000000000000000000000000000000081565b600054610100900460ff1680610f425750610f42611ae3565b80610f50575060005460ff16155b610fa5576040517f08c379a000000000000000000000000000000000000000000000000000000000815260040180806020018281038252602e8152602001806130b2602e913960400191505060405180910390fd5b600054610100900460ff1615801561100b57600080547fffffffffffffffffffffffffffffffffffffffffffffffffffffffffffffff007fffffffffffffffffffffffffffffffffffffffffffffffffffffffffffff00ff909116610100171660011790555b6110148261093c565b73ffffffffffffffffffffffffffffffffffffffff881661109657604080517f08c379a000000000000000000000000000000000000000000000000000000000815260206004820152601d60248201527f5368756d4c69717569646174696f6e3a207a65726f2061646472657373000000604482015290519081900360640190fd5b73ffffffffffffffffffffffffffffffffffffffff871661111857604080517f08c379a000000000000000000000000000000000000000000000000000000000815260206004820152601d60248201527f5368756d4c69717569646174696f6e3a207a65726f2061646472657373000000604482015290519081900360640190fd5b73ffffffffffffffffffffffffffffffffffffffff861661119a57604080517f08c379a000000000000000000000000000000000000000000000000000000000815260206004820152601d60248201527f5368756d4c69717569646174696f6e3a207a65726f2061646472657373000000604482015290519081900360640190fd5b73ffffffffffffffffffffffffffffffffffffffff851661121c57604080517f08c379a000000000000000000000000000000000000000000000000000000000815260206004820152601d60248201527f5368756d4c69717569646174696f6e3a207a65726f2061646472657373000000604482015290519081900360640190fd5b73ffffffffffffffffffffffffffffffffffffffff841661129e57604080517f08c379a000000000000000000000000000000000000000000000000000000000815260206004820152601d60248201527f5368756d4c69717569646174696f6e3a207a65726f2061646472657373000000604482015290519081900360640190fd5b73ffffffffffffffffffffffffffffffffffffffff831661132057604080517f08c379a000000000000000000000000000000000000000000000000000000000815260206004820152601d60248201527f5368756d4c69717569646174696f6e3a207a65726f2061646472657373000000604482015290519081900360640190fd5b603280547fffffffffffffffffffffffff000000000000000000000000000000000000000090811673ffffffffffffffffffffffffffffffffffffffff8b8116919091179092556033805482168a84161790556034805482168984161790556035805482168884161790556036805482168784161790556037805490911691851691909117905580156113d657600080547fffffffffffffffffffffffffffffffffffffffffffffffffffffffffffff00ff1690555b5050505050505050565b60345473ffffffffffffffffffffffffffffffffffffffff1681565b73ffffffffffffffffffffffffffffffffffffffff1660009081526038602052604090205474010000000000000000000000000000000000000000900467ffffffffffffffff16151590565b73ffffffffffffffffffffffffffffffffffffffff1660009081526038602052604090205474010000000000000000000000000000000000000000900467ffffffffffffffff1690565b60335473ffffffffffffffffffffffffffffffffffffffff1681565b61150060405180606001604052808573ffffffffffffffffffffffffffffffffffffffff1681526020013373ffffffffffffffffffffffffffffffffffffffff16815260200160008152508383611ae9565b505050565b60375473ffffffffffffffffffffffffffffffffffffffff1681565b7f4c69717569646174696f6e4d61726b657252657761726400000000000000000081565b60386020526000908152604090205473ffffffffffffffffffffffffffffffffffffffff81169074010000000000000000000000000000000000000000900467ffffffffffffffff1682565b60365473ffffffffffffffffffffffffffffffffffffffff1681565b60005462010000900473ffffffffffffffffffffffffffffffffffffffff1681565b6115d8816113fc565b1561164457604080517f08c379a000000000000000000000000000000000000000000000000000000000815260206004820152601f60248201527f5368756d4c69717569646174696f6e3a20616c7265616479206d61726b656400604482015290519081900360640190fd5b600061164f82611868565b603454604080517fbd02d0f50000000000000000000000000000000000000000000000000000000081527f4c69717569646174696f6e526174696f000000000000000000000000000000006004820152905192935060009273ffffffffffffffffffffffffffffffffffffffff9092169163bd02d0f591602480820192602092909190829003018186803b1580156116e657600080fd5b505afa1580156116fa573d6000803e3d6000fd5b505050506040513d602081101561171057600080fd5b505160a08301519091508110611771576040517f08c379a000000000000000000000000000000000000000000000000000000000815260040180806020018281038252602881526020018061318d6028913960400191505060405180910390fd5b6040805180820182523380825267ffffffffffffffff428116602080850191825273ffffffffffffffffffffffffffffffffffffffff89811660008181526038845288902096518754945190951674010000000000000000000000000000000000000000027fffffffff0000000000000000ffffffffffffffffffffffffffffffffffffffff959092167fffffffffffffffffffffffff0000000000000000000000000000000000000000909416939093179390931692909217909355835192835282015281517f118402bf56ac6135e032e66d70ef7b6d722ffbe3f438445ed132a3df6072a9e6929181900390910190a1505050565b611870612f64565b603554604080517f1882d09000000000000000000000000000000000000000000000000000000000815273ffffffffffffffffffffffffffffffffffffffff858116600483015282516000949190911692631882d0909260248082019391829003018186803b1580156118e257600080fd5b505afa1580156118f6573d6000803e3d6000fd5b505050506040513d604081101561190c57600080fd5b5051603354604080517f5af87ef500000000000000000000000000000000000000000000000000000000815273ffffffffffffffffffffffffffffffffffffffff8781166004830152825194955060009485949190911692635af87ef59260248082019391829003018186803b15801561198557600080fd5b505afa158015611999573d6000803e3d6000fd5b505050506040513d60408110156119af57600080fd5b508051602091820151603654604080517f31d98b3f0000000000000000000000000000000000000000000000000000000081527f5348554d000000000000000000000000000000000000000000000000000000006004820152905193965091945060009373ffffffffffffffffffffffffffffffffffffffff909116926331d98b3f926024808201939291829003018186803b158015611a4e57600080fd5b505afa158015611a62573d6000803e3d6000fd5b505050506040513d6020811015611a7857600080fd5b505190506000611a9282611a8c8686612389565b90612406565b905060008115611aab57611aa6868361242a565b611aae565b60005b6040805160c081018252978852602088019690965294860193909352606085019190915260808401525060a082015292915050565b303b1590565b825173ffffffffffffffffffffffffffffffffffffffff9081166000908152603860209081526040808320815180830183529054808616825274010000000000000000000000000000000000000000900467ffffffffffffffff168184015260345482517fbd02d0f50000000000000000000000000000000000000000000000000000000081527f4c69717569646174696f6e44656c617900000000000000000000000000000000600482015292519195169263bd02d0f59260248082019391829003018186803b158015611bbd57600080fd5b505afa158015611bd1573d6000803e3d6000fd5b505050506040513d6020811015611be757600080fd5b5051602083015190915067ffffffffffffffff16611c50576040517f08c379a000000000000000000000000000000000000000000000000000000000815260040180806020018281038252603381526020018061303a6033913960400191505060405180910390fd5b80826020015167ffffffffffffffff16014211611cb8576040517f08c379a000000000000000000000000000000000000000000000000000000000815260040180806020018281038252602d815260200180612fe4602d913960400191505060405180910390fd5b506000611cc3612448565b90506000611cd48660000151611868565b905081600001518160a0015111611d36576040517f08c379a000000000000000000000000000000000000000000000000000000000815260040180806020018281038252602881526020018061318d6028913960400191505060405180910390fd5b6000611e73611e50611dda8560000151611a8c611d648860400151896020015161238990919063ffffffff16565b73__$b8d33eeb36ac0d1e81cd70156e0043e778$__63907af6c06040518163ffffffff1660e01b815260040160206040518083038186803b158015611da857600080fd5b505af4158015611dbc573d6000803e3d6000fd5b505050506040513d6020811015611dd257600080fd5b505190612389565b73__$b8d33eeb36ac0d1e81cd70156e0043e778$__63907af6c06040518163ffffffff1660e01b815260040160206040518083038186803b158015611e1e57600080fd5b505af4158015611e32573d6000803e3d6000fd5b505050506040513d6020811015611e4857600080fd5b5051906126b5565b84516080850151611e6d91611e659190612406565b8551906126b5565b9061242a565b9050866040015160001415611e8e5760408701819052611eeb565b8087604001511115611eeb576040517f08c379a00000000000000000000000000000000000000000000000000000000081526004018080602001828103825260268152602001806131df6026913960400191505060405180910390fd5b603254875160208901516040808b015181517fff9227ce00000000000000000000000000000000000000000000000000000000815273ffffffffffffffffffffffffffffffffffffffff94851660048201529284166024840152604483015251919092169163ff9227ce91606480830192600092919082900301818387803b158015611f7657600080fd5b505af1158015611f8a573d6000803e3d6000fd5b505050506000611fac88604001518460600151866020015187604001516126f7565b60608101518151919250600091611fc291612389565b90506000611fe18560400151866020015161238990919063ffffffff16565b90506000821161203c576040517f08c379a00000000000000000000000000000000000000000000000000000000081526004018080602001828103825260298152602001806130116029913960400191505060405180910390fd5b80821115612095576040517f08c379a00000000000000000000000000000000000000000000000000000000081526004018080602001828103825260288152602001806131016028913960400191505060405180910390fd5b505060008061210b6040518060a001604052808c6000015173ffffffffffffffffffffffffffffffffffffffff1681526020018c6020015173ffffffffffffffffffffffffffffffffffffffff168152602001856000015181526020018760200151815260200187604001518152508a8a612760565b6020870151919350915061211f90836126b5565b6020860152604085015161213390826126b5565b8560400181815250506000806121da6040518060e001604052808e6000015173ffffffffffffffffffffffffffffffffffffffff1681526020018b6000015173ffffffffffffffffffffffffffffffffffffffff1681526020018e6020015173ffffffffffffffffffffffffffffffffffffffff16815260200187602001518152602001876040015181526020018960200151815260200189604001518152508c8c6129a4565b90925090506121e98483612389565b93506121f58382612389565b925050507f2dac1e571708fe7821d80173441834ac3ac144d318df6bff7ca3e2c68e419e4e8a6000015188600001518c602001518d60400151868689602001518a60400151604051808973ffffffffffffffffffffffffffffffffffffffff1681526020018873ffffffffffffffffffffffffffffffffffffffff1681526020018773ffffffffffffffffffffffffffffffffffffffff168152602001868152602001807f5348554d000000000000000000000000000000000000000000000000000000008152506020018581526020018481526020018381526020018281526020019850505050505050505060405180910390a1838a60400151141561237d57895173ffffffffffffffffffffffffffffffffffffffff90811660009081526038602090815260409182902080547fffffffff000000000000000000000000000000000000000000000000000000001690558c5182519316835290517f2f8cd325cb485626bd1f4b258153ea2c5da433cfee4505572b6abd139a3291bf9281900390910190a15b50505050505050505050565b6000828201838110156123fd57604080517f08c379a000000000000000000000000000000000000000000000000000000000815260206004820152601b60248201527f536166654d6174683a206164646974696f6e206f766572666c6f770000000000604482015290519081900360640190fd5b90505b92915050565b6000670de0b6b3a764000061241b8484612d69565b8161242257fe5b049392505050565b60006123fd8261244285670de0b6b3a7640000612d69565b90612ddc565b612450612f9a565b603454604080517fbd02d0f50000000000000000000000000000000000000000000000000000000081527f4275696c64526174696f000000000000000000000000000000000000000000006004820152905160009273ffffffffffffffffffffffffffffffffffffffff169163bd02d0f5916024808301926020929190829003018186803b1580156124e157600080fd5b505afa1580156124f5573d6000803e3d6000fd5b505050506040513d602081101561250b57600080fd5b5051603454604080517fbd02d0f50000000000000000000000000000000000000000000000000000000081527f4c69717569646174696f6e4d61726b65725265776172640000000000000000006004820152905192935060009273ffffffffffffffffffffffffffffffffffffffff9092169163bd02d0f591602480820192602092909190829003018186803b1580156125a457600080fd5b505afa1580156125b8573d6000803e3d6000fd5b505050506040513d60208110156125ce57600080fd5b5051603454604080517fbd02d0f50000000000000000000000000000000000000000000000000000000081527f4c69717569646174696f6e4c697175696461746f7252657761726400000000006004820152905192935060009273ffffffffffffffffffffffffffffffffffffffff9092169163bd02d0f591602480820192602092909190829003018186803b15801561266757600080fd5b505afa15801561267b573d6000803e3d6000fd5b505050506040513d602081101561269157600080fd5b50516040805160608101825294855260208501939093529183019190915250905090565b60006123fd83836040518060400160405280601e81526020017f536166654d6174683a207375627472616374696f6e206f766572666c6f770000815250612e1e565b6126ff612fbb565b600061270b868661242a565b905060006127198286612406565b905060006127278386612406565b905060006127358383612389565b6040805160808101825295865260208601949094529284019190915250606082015295945050505050565b60008061277585604001518660600151612ecf565b604086015190925061278790836126b5565b905084608001518111156127e6576040517f08c379a000000000000000000000000000000000000000000000000000000000815260040180806020018281038252602f81526020018061315e602f913960400191505060405180910390fd5b81156128b45760335485516020870151604080517ff8aa882e00000000000000000000000000000000000000000000000000000000815273ffffffffffffffffffffffffffffffffffffffff938416600482015291831660248301527f5348554d0000000000000000000000000000000000000000000000000000000060448301526064820186905251919092169163f8aa882e91608480830192600092919082900301818387803b15801561289b57600080fd5b505af11580156128af573d6000803e3d6000fd5b505050505b801561299c5760375485516020808801516040517f88d67c9200000000000000000000000000000000000000000000000000000000815273ffffffffffffffffffffffffffffffffffffffff84811660048301908152838216602484015260448301889052608060648401908152608484018b905291909616956388d67c92959488938c938c9392909160a401908590850280828437600081840152601f19601f8201169050808301925050509650505050505050600060405180830381600087803b15801561298357600080fd5b505af1158015612997573d6000803e3d6000fd5b505050505b935093915050565b60008060006129c48660800151876060015161238990919063ffffffff16565b90506129d4818760a00151612ecf565b92506129e081846126b5565b91508560c00151821115612a3f576040517f08c379a000000000000000000000000000000000000000000000000000000000815260040180806020018281038252602f81526020018061315e602f913960400191505060405180910390fd5b606086015160808701518415612c25576000612a6c846124428b6060015189612d6990919063ffffffff16565b90506000612a7a87836126b5565b9050612a8684836126b5565b9350612a9283826126b5565b6033548b5160208d0151604080517ff8aa882e00000000000000000000000000000000000000000000000000000000815273ffffffffffffffffffffffffffffffffffffffff938416600482015291831660248301527f5348554d000000000000000000000000000000000000000000000000000000006044830152606482018790525193965091169163f8aa882e9160848082019260009290919082900301818387803b158015612b4357600080fd5b505af1158015612b57573d6000803e3d6000fd5b50506033548c516040808f015181517ff8aa882e00000000000000000000000000000000000000000000000000000000815273ffffffffffffffffffffffffffffffffffffffff938416600482015290831660248201527f5348554d00000000000000000000000000000000000000000000000000000000604482015260648101879052905191909216935063f8aa882e9250608480830192600092919082900301818387803b158015612c0a57600080fd5b505af1158015612c1e573d6000803e3d6000fd5b5050505050505b8315612d5e57603760009054906101000a900473ffffffffffffffffffffffffffffffffffffffff1673ffffffffffffffffffffffffffffffffffffffff1663cf628b7e89600001518a60200151858c60400151868d8d6040518863ffffffff1660e01b8152600401808873ffffffffffffffffffffffffffffffffffffffff1681526020018773ffffffffffffffffffffffffffffffffffffffff1681526020018681526020018573ffffffffffffffffffffffffffffffffffffffff168152602001848152602001806020018281038252848482818152602001925060200280828437600081840152601f19601f82011690508083019250505098505050505050505050600060405180830381600087803b158015612d4557600080fd5b505af1158015612d59573d6000803e3d6000fd5b505050505b505050935093915050565b600082612d7857506000612400565b82820282848281612d8557fe5b04146123fd576040517f08c379a00000000000000000000000000000000000000000000000000000000081526004018080602001828103825260218152602001806130e06021913960400191505060405180910390fd5b60006123fd83836040518060400160405280601a81526020017f536166654d6174683a206469766973696f6e206279207a65726f000000000000815250612ee5565b60008184841115612ec7576040517f08c379a00000000000000000000000000000000000000000000000000000000081526004018080602001828103825283818151815260200191508051906020019080838360005b83811015612e8c578181015183820152602001612e74565b50505050905090810190601f168015612eb95780820380516001836020036101000a031916815260200191505b509250505060405180910390fd5b505050900390565b6000818310612ede57816123fd565b5090919050565b60008183612f4e576040517f08c379a0000000000000000000000000000000000000000000000000000000008152602060048201818152835160248401528351909283926044909101919085019080838360008315612e8c578181015183820152602001612e74565b506000838581612f5a57fe5b0495945050505050565b6040518060c001604052806000815260200160008152602001600081526020016000815260200160008152602001600081525090565b60405180606001604052806000815260200160008152602001600081525090565b604051806080016040528060008152602001600081526020016000815260200160008152509056fe5368756d4c69717569646174696f6e3a206c69717569646174696f6e2064656c6179206e6f74207061737365645368756d4c69717569646174696f6e3a206e6f20636f6c6c61746572616c207769746864726177616c5368756d4c69717569646174696f6e3a206e6f74206d61726b656420666f7220756e646572636f6c6c61746572616c697a65645368756d41646d696e5570677261646561626c653a206f6e6c792074686520636f6e74726163742061646d696e2063616e20706572666f726d207468697320616374696f6e496e697469616c697a61626c653a20636f6e747261637420697320616c726561647920696e697469616c697a6564536166654d6174683a206d756c7469706c69636174696f6e206f766572666c6f775368756d4c69717569646174696f6e3a20696e73756666696369656e7420636f6c6c61746572616c5368756d41646d696e5570677261646561626c653a206f6e6c792063616e6469646174652063616e206265636f6d652061646d696e5368756d4c69717569646174696f6e3a20696e73756666696369656e74206c6f636b656420636f6c6c61746572616c5368756d4c69717569646174696f6e3a206e6f7420756e646572636f6c6c61746572616c697a65645368756d4c69717569646174696f6e3a207374696c6c20756e646572636f6c6c61746572616c697a65645368756d4c69717569646174696f6e3a206275726e20616d6f756e7420746f6f206c617267655368756d41646d696e5570677261646561626c653a207a65726f2061646472657373a264697066735822122078e98148683d7c14ab7e53054e30d9470701c0b66c0601d7b30a61e2568afab164736f6c63430007060033",
  "linkReferences": {
    "contracts/SafeDecimalMath.sol": {
      "SafeDecimalMath": [
        {
          "length": 20,
          "start": 7558
        },
        {
          "length": 20,
          "start": 7676
        }
      ]
    }
  },
  "deployedLinkReferences": {
    "contracts/SafeDecimalMath.sol": {
      "SafeDecimalMath": [
        {
          "length": 20,
          "start": 7526
        },
        {
          "length": 20,
          "start": 7644
        }
      ]
    }
  }
}