{
  "_format": "hh-sol-artifact-1",
  "contractName": "ShumVaultFixedRewardPool",
  "sourceName": "contracts/ShumVaultFixedRewardPool.sol",
  "abi": [
    {
      "anonymous": false,
      "inputs": [
        {
          "indexed": true,
          "internalType": "address",
          "name": "previousOwner",
          "type": "address"
        },
        {
          "indexed": true,
          "internalType": "address",
          "name": "newOwner",
          "type": "address"
        }
      ],
      "name": "OwnershipTransferred",
      "type": "event"
    },
    {
      "anonymous": false,
      "inputs": [
        {
          "indexed": false,
          "internalType": "uint256",
          "name": "startTime",
          "type": "uint256"
        },
        {
          "indexed": false,
          "internalType": "uint256",
          "name": "rewardPerSecond",
          "type": "uint256"
        },
        {
          "indexed": false,
          "internalType": "address",
          "name": "stakeToken",
          "type": "address"
        },
        {
          "indexed": false,
          "internalType": "address",
          "name": "rewardToken",
          "type": "address"
        }
      ],
      "name": "PoolInitialized",
      "type": "event"
    },
    {
      "anonymous": false,
      "inputs": [
        {
          "indexed": true,
          "internalType": "address",
          "name": "staker",
          "type": "address"
        },
        {
          "indexed": false,
          "internalType": "address",
          "name": "token",
          "type": "address"
        },
        {
          "indexed": false,
          "internalType": "uint256",
          "name": "amount",
          "type": "uint256"
        }
      ],
      "name": "RewardClaimed",
      "type": "event"
    },
    {
      "anonymous": false,
      "inputs": [
        {
          "indexed": false,
          "internalType": "uint256",
          "name": "oldRewardPerSecond",
          "type": "uint256"
        },
        {
          "indexed": false,
          "internalType": "uint256",
          "name": "newRewardPerSecond",
          "type": "uint256"
        }
      ],
      "name": "RewardPerSecondChanged",
      "type": "event"
    },
    {
      "anonymous": false,
      "inputs": [
        {
          "indexed": true,
          "internalType": "address",
          "name": "staker",
          "type": "address"
        },
        {
          "indexed": false,
          "internalType": "address",
          "name": "token",
          "type": "address"
        },
        {
          "indexed": false,
          "internalType": "uint256",
          "name": "amount",
          "type": "uint256"
        }
      ],
      "name": "Staked",
      "type": "event"
    },
    {
      "anonymous": false,
      "inputs": [
        {
          "indexed": true,
          "internalType": "address",
          "name": "staker",
          "type": "address"
        },
        {
          "indexed": false,
          "internalType": "address",
          "name": "token",
          "type": "address"
        },
        {
          "indexed": false,
          "internalType": "uint256",
          "name": "amount",
          "type": "uint256"
        }
      ],
      "name": "Unstaked",
      "type": "event"
    },
    {
      "inputs": [
        {
          "internalType": "uint256",
          "name": "_startTime",
          "type": "uint256"
        },
        {
          "internalType": "uint256",
          "name": "_rewardPerSecond",
          "type": "uint256"
        },
        {
          "internalType": "address",
          "name": "_stakeToken",
          "type": "address"
        },
        {
          "internalType": "address",
          "name": "_rewardToken",
          "type": "address"
        }
      ],
      "name": "__ShumVaultFixedRewardPool_init",
      "outputs": [],
      "stateMutability": "nonpayable",
      "type": "function"
    },
    {
      "inputs": [],
      "name": "accuRewardLastUpdateTime",
      "outputs": [
        {
          "internalType": "uint256",
          "name": "",
          "type": "uint256"
        }
      ],
      "stateMutability": "view",
      "type": "function"
    },
    {
      "inputs": [],
      "name": "accuRewardPerShare",
      "outputs": [
        {
          "internalType": "uint256",
          "name": "",
          "type": "uint256"
        }
      ],
      "stateMutability": "view",
      "type": "function"
    },
    {
      "inputs": [],
      "name": "claimReward",
      "outputs": [],
      "stateMutability": "nonpayable",
      "type": "function"
    },
    {
      "inputs": [
        {
          "internalType": "address",
          "name": "staker",
          "type": "address"
        }
      ],
      "name": "getReward",
      "outputs": [
        {
          "internalType": "uint256",
          "name": "",
          "type": "uint256"
        }
      ],
      "stateMutability": "view",
      "type": "function"
    },
    {
      "inputs": [],
      "name": "owner",
      "outputs": [
        {
          "internalType": "address",
          "name": "",
          "type": "address"
        }
      ],
      "stateMutability": "view",
      "type": "function"
    },
    {
      "inputs": [],
      "name": "renounceOwnership",
      "outputs": [],
      "stateMutability": "nonpayable",
      "type": "function"
    },
    {
      "inputs": [],
      "name": "rewardPerSecond",
      "outputs": [
        {
          "internalType": "uint256",
          "name": "",
          "type": "uint256"
        }
      ],
      "stateMutability": "view",
      "type": "function"
    },
    {
      "inputs": [],
      "name": "rewardToken",
      "outputs": [
        {
          "internalType": "address",
          "name": "",
          "type": "address"
        }
      ],
      "stateMutability": "view",
      "type": "function"
    },
    {
      "inputs": [
        {
          "internalType": "uint256",
          "name": "newRewardPerSecond",
          "type": "uint256"
        }
      ],
      "name": "setRewardPerSecond",
      "outputs": [],
      "stateMutability": "nonpayable",
      "type": "function"
    },
    {
      "inputs": [
        {
          "internalType": "uint256",
          "name": "amount",
          "type": "uint256"
        }
      ],
      "name": "stake",
      "outputs": [],
      "stateMutability": "nonpayable",
      "type": "function"
    },
    {
      "inputs": [],
      "name": "stakeToken",
      "outputs": [
        {
          "internalType": "address",
          "name": "",
          "type": "address"
        }
      ],
      "stateMutability": "view",
      "type": "function"
    },
    {
      "inputs": [],
      "name": "startTime",
      "outputs": [
        {
          "internalType": "uint256",
          "name": "",
          "type": "uint256"
        }
      ],
      "stateMutability": "view",
      "type": "function"
    },
    {
      "inputs": [],
      "name": "totalStakeAmount",
      "outputs": [
        {
          "internalType": "uint256",
          "name": "",
          "type": "uint256"
        }
      ],
      "stateMutability": "view",
      "type": "function"
    },
    {
      "inputs": [
        {
          "internalType": "address",
          "name": "newOwner",
          "type": "address"
        }
      ],
      "name": "transferOwnership",
      "outputs": [],
      "stateMutability": "nonpayable",
      "type": "function"
    },
    {
      "inputs": [
        {
          "internalType": "uint256",
          "name": "amount",
          "type": "uint256"
        }
      ],
      "name": "unstake",
      "outputs": [],
      "stateMutability": "nonpayable",
      "type": "function"
    },
    {
      "inputs": [
        {
          "internalType": "address",
          "name": "",
          "type": "address"
        }
      ],
      "name": "userData",
      "outputs": [
        {
          "internalType": "uint256",
          "name": "stakeAmount",
          "type": "uint256"
        },
        {
          "internalType": "uint256",
          "name": "pendingReward",
          "type": "uint256"
        },
        {
          "internalType": "uint256",
          "name": "entryAccuRewardPerShare",
          "type": "uint256"
        }
      ],
      "stateMutability": "view",
      "type": "function"
    }
  ],
  "bytecode": "0x608060405234801561001057600080fd5b50611ce0806100206000396000f3fe608060405234801561001057600080fd5b506004361061011b5760003560e01c8063a694fc3a116100b2578063d43d1c0911610081578063e2f67cd711610066578063e2f67cd7146102bf578063f2fde38b146102c7578063f7c618c1146102fa5761011b565b8063d43d1c0914610270578063e0838868146102b75761011b565b8063a694fc3a146101c7578063b88a802f146101e4578063c00007b0146101ec578063c89109131461021f5761011b565b806378e97925116100ee57806378e97925146101955780638da5cb5b146101af5780638f10369a146101b757806394409a56146101bf5761011b565b80632e17de781461012057806351ed6a301461013f57806366da581514610170578063715018a61461018d575b600080fd5b61013d6004803603602081101561013657600080fd5b5035610302565b005b610147610320565b6040805173ffffffffffffffffffffffffffffffffffffffff9092168252519081900360200190f35b61013d6004803603602081101561018657600080fd5b503561033c565b61013d610425565b61019d610525565b60408051918252519081900360200190f35b61014761052b565b61019d610547565b61019d61054d565b61013d600480360360208110156101dd57600080fd5b5035610553565b61013d6105c9565b61019d6004803603602081101561020257600080fd5b503573ffffffffffffffffffffffffffffffffffffffff166106d4565b6102526004803603602081101561023557600080fd5b503573ffffffffffffffffffffffffffffffffffffffff166107ba565b60408051938452602084019290925282820152519081900360600190f35b61013d6004803603608081101561028657600080fd5b5080359060208101359073ffffffffffffffffffffffffffffffffffffffff604082013581169160600135166107db565b61019d610b30565b61019d610b36565b61013d600480360360208110156102dd57600080fd5b503573ffffffffffffffffffffffffffffffffffffffff16610b3c565b610147610cc7565b61030a610ce3565b61031333610d40565b61031d3382610dbe565b50565b60675473ffffffffffffffffffffffffffffffffffffffff1681565b610344610efe565b60335473ffffffffffffffffffffffffffffffffffffffff9081169116146103cd57604080517f08c379a000000000000000000000000000000000000000000000000000000000815260206004820181905260248201527f4f776e61626c653a2063616c6c6572206973206e6f7420746865206f776e6572604482015290519081900360640190fd5b60655442106103de576103de610ce3565b6066805490829055604080518281526020810184905281517fd768458d0d6d457da18a9cf814b6fc4c41cf854fcdb68e248ea9a2ab8c946e51929181900390910190a15050565b61042d610efe565b60335473ffffffffffffffffffffffffffffffffffffffff9081169116146104b657604080517f08c379a000000000000000000000000000000000000000000000000000000000815260206004820181905260248201527f4f776e61626c653a2063616c6c6572206973206e6f7420746865206f776e6572604482015290519081900360640190fd5b60335460405160009173ffffffffffffffffffffffffffffffffffffffff16907f8be0079c531659141344cd1fd0a4f28419497f9722a3daafe3b4186f6b6457e0908390a3603380547fffffffffffffffffffffffff0000000000000000000000000000000000000000169055565b60655481565b60335473ffffffffffffffffffffffffffffffffffffffff1690565b60665481565b60695481565b6065544210156105ae576040517f08c379a000000000000000000000000000000000000000000000000000000000815260040180806020018281038252602a815260200180611c13602a913960400191505060405180910390fd5b6105b6610ce3565b6105bf33610d40565b61031d3382610f02565b6105d1610ce3565b6105da33610d40565b336000908152606c602052604090206001015480610643576040517f08c379a000000000000000000000000000000000000000000000000000000000815260040180806020018281038252602c815260200180611b6c602c913960400191505060405180910390fd5b336000818152606c602052604081206001015560685461067c9173ffffffffffffffffffffffffffffffffffffffff9091169083611043565b6068546040805173ffffffffffffffffffffffffffffffffffffffff909216825260208201839052805133927f0aa4d283470c904c551d18bb894d37e17674920f3261a7f854be501e25f421b792908290030190a250565b73ffffffffffffffffffffffffffffffffffffffff81166000908152606c602090815260408083208151606081018352815481526001820154938101939093526002015490820152606954829061072d57606a54610773565b61077361076a60695461076468056bc75e2d6310000061075e60665461075e606b544261124890919063ffffffff16565b90611293565b90611306565b606a5490611348565b90506107b26107a768056bc75e2d6310000061076461079f86604001518661124890919063ffffffff16565b865190611293565b602084015190611348565b949350505050565b606c6020526000908152604090208054600182015460029092015490919083565b600054610100900460ff16806107f457506107f46113bc565b80610802575060005460ff16155b610857576040517f08c379a000000000000000000000000000000000000000000000000000000000815260040180806020018281038252602e815260200180611bc4602e913960400191505060405180910390fd5b600054610100900460ff161580156108bd57600080547fffffffffffffffffffffffffffffffffffffffffffffffffffffffffffffff007fffffffffffffffffffffffffffffffffffffffffffffffffffffffffffff00ff909116610100171660011790555b6108c56113c2565b42851161091d576040517f08c379a000000000000000000000000000000000000000000000000000000000815260040180806020018281038252602c815260200180611b98602c913960400191505060405180910390fd5b60008411610976576040517f08c379a0000000000000000000000000000000000000000000000000000000008152600401808060200182810382526025815260200180611c636025913960400191505060405180910390fd5b73ffffffffffffffffffffffffffffffffffffffff83166109e2576040517f08c379a0000000000000000000000000000000000000000000000000000000008152600401808060200182810382526026815260200180611c3d6026913960400191505060405180910390fd5b73ffffffffffffffffffffffffffffffffffffffff8216610a4e576040517f08c379a0000000000000000000000000000000000000000000000000000000008152600401808060200182810382526026815260200180611c3d6026913960400191505060405180910390fd5b606585905560668490556067805473ffffffffffffffffffffffffffffffffffffffff8086167fffffffffffffffffffffffff0000000000000000000000000000000000000000928316811790935560688054918616919092168117909155606b8790556040805188815260208101889052808201939093526060830191909152517f03f2421355a474f74e85fd17daae776161634f64ae5bd9fa29bfd607a671764c9181900360800190a18015610b2957600080547fffffffffffffffffffffffffffffffffffffffffffffffffffffffffffff00ff1690555b5050505050565b606a5481565b606b5481565b610b44610efe565b60335473ffffffffffffffffffffffffffffffffffffffff908116911614610bcd57604080517f08c379a000000000000000000000000000000000000000000000000000000000815260206004820181905260248201527f4f776e61626c653a2063616c6c6572206973206e6f7420746865206f776e6572604482015290519081900360640190fd5b73ffffffffffffffffffffffffffffffffffffffff8116610c39576040517f08c379a0000000000000000000000000000000000000000000000000000000008152600401808060200182810382526026815260200180611b466026913960400191505060405180910390fd5b60335460405173ffffffffffffffffffffffffffffffffffffffff8084169216907f8be0079c531659141344cd1fd0a4f28419497f9722a3daafe3b4186f6b6457e090600090a3603380547fffffffffffffffffffffffff00000000000000000000000000000000000000001673ffffffffffffffffffffffffffffffffffffffff92909216919091179055565b60685473ffffffffffffffffffffffffffffffffffffffff1681565b6000610cfa606b544261124890919063ffffffff16565b9050801561031d5760695415610d3957610d3561076a60695461076468056bc75e2d6310000061075e6066548761129390919063ffffffff16565b606a555b42606b5550565b73ffffffffffffffffffffffffffffffffffffffff81166000908152606c602052604081206002810154606a54919291610d7991611248565b90508015610db9578154610dab90610da09068056bc75e2d63100000906107649085611293565b600184015490611348565b6001830155606a5460028301555b505050565b60008111610e17576040517f08c379a0000000000000000000000000000000000000000000000000000000008152600401808060200182810382526034815260200180611aed6034913960400191505060405180910390fd5b73ffffffffffffffffffffffffffffffffffffffff82166000908152606c6020526040902054610e479082611248565b73ffffffffffffffffffffffffffffffffffffffff83166000908152606c6020526040902055606954610e7a9082611248565b606955606754610ea19073ffffffffffffffffffffffffffffffffffffffff168383611043565b6067546040805173ffffffffffffffffffffffffffffffffffffffff9283168152602081018490528151928516927fd8654fcc8cf5b36d30b3f5e4688fc78118e6d68de60b9994e09902268b57c3e3929181900390910190a25050565b3390565b60008111610f5b576040517f08c379a0000000000000000000000000000000000000000000000000000000008152600401808060200182810382526032815260200180611abb6032913960400191505060405180910390fd5b73ffffffffffffffffffffffffffffffffffffffff82166000908152606c6020526040902054610f8b9082611348565b73ffffffffffffffffffffffffffffffffffffffff83166000908152606c6020526040902055606954610fbe9082611348565b606955606754610fe69073ffffffffffffffffffffffffffffffffffffffff168330846114e5565b6067546040805173ffffffffffffffffffffffffffffffffffffffff9283168152602081018490528151928516927f5dac0c1b1112564a045ba943c9d50270893e8e826c49be8e7073adc713ab7bd7929181900390910190a25050565b604080518082018252601981527f7472616e7366657228616464726573732c75696e743235362900000000000000602091820152815173ffffffffffffffffffffffffffffffffffffffff85811660248301526044808301869052845180840390910181526064909201845291810180517bffffffffffffffffffffffffffffffffffffffffffffffffffffffff167fa9059cbb0000000000000000000000000000000000000000000000000000000017815292518151600094859489169392918291908083835b6020831061114857805182527fffffffffffffffffffffffffffffffffffffffffffffffffffffffffffffffe0909201916020918201910161110b565b6001836020036101000a0380198251168184511680821785525050505050509050019150506000604051808303816000865af19150503d80600081146111aa576040519150601f19603f3d011682016040523d82523d6000602084013e6111af565b606091505b50915091508180156111dd5750805115806111dd57508080602001905160208110156111da57600080fd5b50515b610b2957604080517f08c379a000000000000000000000000000000000000000000000000000000000815260206004820152601f60248201527f5472616e7366657248656c7065723a207472616e73666572206661696c656400604482015290519081900360640190fd5b600061128a83836040518060400160405280601e81526020017f536166654d6174683a207375627472616374696f6e206f766572666c6f7700008152506116e8565b90505b92915050565b6000826112a25750600061128d565b828202828482816112af57fe5b041461128a576040517f08c379a0000000000000000000000000000000000000000000000000000000008152600401808060200182810382526021815260200180611bf26021913960400191505060405180910390fd5b600061128a83836040518060400160405280601a81526020017f536166654d6174683a206469766973696f6e206279207a65726f000000000000815250611799565b60008282018381101561128a57604080517f08c379a000000000000000000000000000000000000000000000000000000000815260206004820152601b60248201527f536166654d6174683a206164646974696f6e206f766572666c6f770000000000604482015290519081900360640190fd5b303b1590565b600054610100900460ff16806113db57506113db6113bc565b806113e9575060005460ff16155b61143e576040517f08c379a000000000000000000000000000000000000000000000000000000000815260040180806020018281038252602e815260200180611bc4602e913960400191505060405180910390fd5b600054610100900460ff161580156114a457600080547fffffffffffffffffffffffffffffffffffffffffffffffffffffffffffffff007fffffffffffffffffffffffffffffffffffffffffffffffffffffffffffff00ff909116610100171660011790555b6114ac611818565b6114b461192a565b801561031d57600080547fffffffffffffffffffffffffffffffffffffffffffffffffffffffffffff00ff16905550565b6000808573ffffffffffffffffffffffffffffffffffffffff16604051806060016040528060258152602001611b216025913980516020918201206040805173ffffffffffffffffffffffffffffffffffffffff808b166024830152891660448201526064808201899052825180830390910181526084909101825292830180517bffffffffffffffffffffffffffffffffffffffffffffffffffffffff167fffffffff00000000000000000000000000000000000000000000000000000000909316929092178252518251909182918083835b602083106115f657805182527fffffffffffffffffffffffffffffffffffffffffffffffffffffffffffffffe090920191602091820191016115b9565b6001836020036101000a0380198251168184511680821785525050505050509050019150506000604051808303816000865af19150503d8060008114611658576040519150601f19603f3d011682016040523d82523d6000602084013e61165d565b606091505b509150915081801561168b57508051158061168b575080806020019051602081101561168857600080fd5b50515b6116e0576040517f08c379a0000000000000000000000000000000000000000000000000000000008152600401808060200182810382526023815260200180611c886023913960400191505060405180910390fd5b505050505050565b60008184841115611791576040517f08c379a00000000000000000000000000000000000000000000000000000000081526004018080602001828103825283818151815260200191508051906020019080838360005b8381101561175657818101518382015260200161173e565b50505050905090810190601f1680156117835780820380516001836020036101000a031916815260200191505b509250505060405180910390fd5b505050900390565b60008183611802576040517f08c379a000000000000000000000000000000000000000000000000000000000815260206004820181815283516024840152835190928392604490910191908501908083836000831561175657818101518382015260200161173e565b50600083858161180e57fe5b0495945050505050565b600054610100900460ff168061183157506118316113bc565b8061183f575060005460ff16155b611894576040517f08c379a000000000000000000000000000000000000000000000000000000000815260040180806020018281038252602e815260200180611bc4602e913960400191505060405180910390fd5b600054610100900460ff161580156114b457600080547fffffffffffffffffffffffffffffffffffffffffffffffffffffffffffffff007fffffffffffffffffffffffffffffffffffffffffffffffffffffffffffff00ff90911661010017166001179055801561031d57600080547fffffffffffffffffffffffffffffffffffffffffffffffffffffffffffff00ff16905550565b600054610100900460ff168061194357506119436113bc565b80611951575060005460ff16155b6119a6576040517f08c379a000000000000000000000000000000000000000000000000000000000815260040180806020018281038252602e815260200180611bc4602e913960400191505060405180910390fd5b600054610100900460ff16158015611a0c57600080547fffffffffffffffffffffffffffffffffffffffffffffffffffffffffffffff007fffffffffffffffffffffffffffffffffffffffffffffffffffffffffffff00ff909116610100171660011790555b6000611a16610efe565b603380547fffffffffffffffffffffffff00000000000000000000000000000000000000001673ffffffffffffffffffffffffffffffffffffffff8316908117909155604051919250906000907f8be0079c531659141344cd1fd0a4f28419497f9722a3daafe3b4186f6b6457e0908290a350801561031d57600080547fffffffffffffffffffffffffffffffffffffffffffffffffffffffffffff00ff1690555056fe5368756d5661756c744669786564526577617264506f6f6c3a2063616e6e6f74207374616b65207a65726f20616d6f756e745368756d5661756c744669786564526577617264506f6f6c3a2063616e6e6f7420756e7374616b65207a65726f20616d6f756e747472616e7366657246726f6d28616464726573732c616464726573732c75696e74323536294f776e61626c653a206e6577206f776e657220697320746865207a65726f20616464726573735368756d5661756c744669786564526577617264506f6f6c3a206e6f2072657761726420746f20636c61696d5368756d5661756c744669786564526577617264506f6f6c3a20696e76616c69642073746172742074696d65496e697469616c697a61626c653a20636f6e747261637420697320616c726561647920696e697469616c697a6564536166654d6174683a206d756c7469706c69636174696f6e206f766572666c6f775368756d5661756c744669786564526577617264506f6f6c3a20706f6f6c206e6f7420737461727465645368756d5661756c744669786564526577617264506f6f6c3a207a65726f20616464726573735368756d5661756c744669786564526577617264506f6f6c3a207a65726f207265776172645472616e7366657248656c7065723a207472616e7366657246726f6d206661696c6564a26469706673582212204d098de1b626fa193f7dde7bd601a908e837f769d78f1baafff327b52351182564736f6c63430007060033",
  "linkReferences": {},
  "deployedLinkReferences": {}
}