{
  "_format": "hh-sol-artifact-1",
  "contractName": "MockShumPrices",
  "sourceName": "contracts/mock/MockShumPrices.sol",
  "abi": [
    {
      "inputs": [
        {
          "internalType": "uint256",
          "name": "_stalePeriod",
          "type": "uint256"
        }
      ],
      "stateMutability": "nonpayable",
      "type": "constructor"
    },
    {
      "inputs": [],
      "name": "SUSD",
      "outputs": [
        {
          "internalType": "bytes32",
          "name": "",
          "type": "bytes32"
        }
      ],
      "stateMutability": "view",
      "type": "function"
    },
    {
      "inputs": [
        {
          "internalType": "bytes32",
          "name": "sourceKey",
          "type": "bytes32"
        },
        {
          "internalType": "uint256",
          "name": "sourceAmount",
          "type": "uint256"
        },
        {
          "internalType": "bytes32",
          "name": "destKey",
          "type": "bytes32"
        }
      ],
      "name": "exchange",
      "outputs": [
        {
          "internalType": "uint256",
          "name": "",
          "type": "uint256"
        }
      ],
      "stateMutability": "view",
      "type": "function"
    },
    {
      "inputs": [
        {
          "internalType": "bytes32",
          "name": "currencyKey",
          "type": "bytes32"
        }
      ],
      "name": "getPrice",
      "outputs": [
        {
          "internalType": "uint256",
          "name": "",
          "type": "uint256"
        }
      ],
      "stateMutability": "view",
      "type": "function"
    },
    {
      "inputs": [
        {
          "internalType": "bytes32",
          "name": "currencyKey",
          "type": "bytes32"
        },
        {
          "internalType": "uint256",
          "name": "price",
          "type": "uint256"
        }
      ],
      "name": "setPrice",
      "outputs": [],
      "stateMutability": "nonpayable",
      "type": "function"
    },
    {
      "inputs": [
        {
          "internalType": "bytes32",
          "name": "currencyKey",
          "type": "bytes32"
        },
        {
          "internalType": "uint256",
          "name": "price",
          "type": "uint256"
        },
        {
          "internalType": "uint256",
          "name": "updateTime",
          "type": "uint256"
        }
      ],
      "name": "setPriceAndTime",
      "outputs": [],
      "stateMutability": "nonpayable",
      "type": "function"
    },
    {
      "inputs": [
        {
          "internalType": "uint256",
          "name": "_stalePeriod",
          "type": "uint256"
        }
      ],
      "name": "setStalePeriod",
      "outputs": [],
      "stateMutability": "nonpayable",
      "type": "function"
    }
  ],
  "bytecode": "0x608060405234801561001057600080fd5b506040516106563803806106568339818101604052602081101561003357600080fd5b505160005561060f806100476000396000f3fe608060405234801561001057600080fd5b50600436106100725760003560e01c8063a6f4ab2e11610050578063a6f4ab2e146100d3578063ee52a2f3146100f0578063f53b71d81461011957610072565b806310d8d74d1461007757806315d8eeba1461009c57806331d98b3f146100b6575b600080fd5b61009a6004803603604081101561008d57600080fd5b5080359060200135610142565b005b6100a4610171565b60408051918252519081900360200190f35b6100a4600480360360208110156100cc57600080fd5b5035610195565b61009a600480360360208110156100e957600080fd5b50356101a7565b6100a46004803603606081101561010657600080fd5b50803590602081013590604001356101ac565b61009a6004803603606081101561012f57600080fd5b5080359060208101359060400135610271565b604080518082018252918252426020808401918252600094855260019081905291909320915182559151910155565b7f735553440000000000000000000000000000000000000000000000000000000081565b60006101a08261029c565b5192915050565b600055565b60006101b661057d565b6101bf8561029c565b90506101c961057d565b6101d28461029c565b90506101e18260200151610381565b1580156101f857506101f68160200151610381565b155b61024d576040517f08c379a00000000000000000000000000000000000000000000000000000000081526004018080602001828103825260218152602001806105986021913960400191505060405180910390fd5b80518251610267919061026190889061038b565b906103a7565b9695505050505050565b6040805180820182529283526020808401928352600094855260019081905293209151825551910155565b6102a461057d565b7f735553440000000000000000000000000000000000000000000000000000000082146102f657600082815260016020818152604092839020835180850190945280548452909101549082015261037b565b604051806040016040528073__$b8d33eeb36ac0d1e81cd70156e0043e778$__63907af6c06040518163ffffffff1660e01b815260040160206040518083038186803b15801561034557600080fd5b505af4158015610359573d6000803e3d6000fd5b505050506040513d602081101561036f57600080fd5b50518152426020909101525b92915050565b6000544291011090565b60006103a08383670de0b6b3a76400006103bc565b9392505050565b60006103a08383670de0b6b3a76400006103f5565b600080600a83046103cd868661041b565b816103d457fe5b0490506005600a825b06106103e757600a015b600a815b0495945050505050565b60008061040f8461040987600a870261041b565b9061048e565b90506005600a826103dd565b60008261042a5750600061037b565b8282028284828161043757fe5b04146103a0576040517f08c379a00000000000000000000000000000000000000000000000000000000081526004018080602001828103825260218152602001806105b96021913960400191505060405180910390fd5b60006103a083836040518060400160405280601a81526020017f536166654d6174683a206469766973696f6e206279207a65726f00000000000081525060008183610571576040517f08c379a00000000000000000000000000000000000000000000000000000000081526004018080602001828103825283818151815260200191508051906020019080838360005b8381101561053657818101518382015260200161051e565b50505050905090810190601f1680156105635780820380516001836020036101000a031916815260200191505b509250505060405180910390fd5b5060008385816103eb57fe5b60405180604001604052806000815260200160008152509056fe4d6f636b5368756d5072696365733a207374616c65642070726963652064617461536166654d6174683a206d756c7469706c69636174696f6e206f766572666c6f77a2646970667358221220653c5154132396cf57e76481fa9996092430ed67d70159e7a2470b8cf2e1f28464736f6c634300060c0033",
  "linkReferences": {
    "contracts/SafeDecimalMath.sol": {
      "SafeDecimalMath": [
        {
          "length": 20,
          "start": 842
        }
      ]
    }
  },
  "deployedLinkReferences": {
    "contracts/SafeDecimalMath.sol": {
      "SafeDecimalMath": [
        {
          "length": 20,
          "start": 771
        }
      ]
    }
  }
}