{
  "_format": "hh-sol-artifact-1",
  "contractName": "ShumVaultDynamicInterestPool",
  "sourceName": "contracts/ShumVaultDynamicInterestPool.sol",
  "abi": [
    {
      "anonymous": false,
      "inputs": [
        {
          "indexed": true,
          "internalType": "uint256",
          "name": "periodId",
          "type": "uint256"
        },
        {
          "indexed": false,
          "internalType": "uint256",
          "name": "interestRate",
          "type": "uint256"
        }
      ],
      "name": "InterestRateSet",
      "type": "event"
    },
    {
      "anonymous": false,
      "inputs": [
        {
          "indexed": true,
          "internalType": "address",
          "name": "user",
          "type": "address"
        },
        {
          "indexed": true,
          "internalType": "uint256",
          "name": "periodId",
          "type": "uint256"
        },
        {
          "indexed": false,
          "internalType": "uint256",
          "name": "principal",
          "type": "uint256"
        },
        {
          "indexed": false,
          "internalType": "uint256",
          "name": "interestRate",
          "type": "uint256"
        },
        {
          "indexed": false,
          "internalType": "uint256",
          "name": "interest",
          "type": "uint256"
        }
      ],
      "name": "InterestWithdrawn",
      "type": "event"
    },
    {
      "anonymous": false,
      "inputs": [
        {
          "indexed": true,
          "internalType": "address",
          "name": "previousOwner",
          "type": "address"
        },
        {
          "indexed": true,
          "internalType": "address",
          "name": "newOwner",
          "type": "address"
        }
      ],
      "name": "OwnershipTransferred",
      "type": "event"
    },
    {
      "anonymous": false,
      "inputs": [
        {
          "indexed": false,
          "internalType": "uint256",
          "name": "firstPeriodStartTime",
          "type": "uint256"
        },
        {
          "indexed": false,
          "internalType": "uint256",
          "name": "periodDuration",
          "type": "uint256"
        },
        {
          "indexed": false,
          "internalType": "uint256",
          "name": "totalSubscriptionLimit",
          "type": "uint256"
        },
        {
          "indexed": false,
          "internalType": "uint256",
          "name": "userSubscriptionLimit",
          "type": "uint256"
        },
        {
          "indexed": false,
          "internalType": "address",
          "name": "stakeToken",
          "type": "address"
        },
        {
          "indexed": false,
          "internalType": "address",
          "name": "interestToken",
          "type": "address"
        }
      ],
      "name": "PoolInitialized",
      "type": "event"
    },
    {
      "anonymous": false,
      "inputs": [
        {
          "indexed": true,
          "internalType": "address",
          "name": "user",
          "type": "address"
        },
        {
          "indexed": false,
          "internalType": "uint256",
          "name": "amount",
          "type": "uint256"
        }
      ],
      "name": "PrincipalWithdrawn",
      "type": "event"
    },
    {
      "anonymous": false,
      "inputs": [
        {
          "indexed": true,
          "internalType": "address",
          "name": "user",
          "type": "address"
        },
        {
          "indexed": true,
          "internalType": "uint256",
          "name": "periodId",
          "type": "uint256"
        },
        {
          "indexed": false,
          "internalType": "uint256",
          "name": "amount",
          "type": "uint256"
        }
      ],
      "name": "Subscribed",
      "type": "event"
    },
    {
      "anonymous": false,
      "inputs": [
        {
          "indexed": true,
          "internalType": "address",
          "name": "user",
          "type": "address"
        },
        {
          "indexed": true,
          "internalType": "uint256",
          "name": "periodId",
          "type": "uint256"
        },
        {
          "indexed": false,
          "internalType": "uint256",
          "name": "amount",
          "type": "uint256"
        }
      ],
      "name": "Unsubscribed",
      "type": "event"
    },
    {
      "inputs": [],
      "name": "INTEREST_RATE_UNIT",
      "outputs": [
        {
          "internalType": "uint256",
          "name": "",
          "type": "uint256"
        }
      ],
      "stateMutability": "view",
      "type": "function"
    },
    {
      "inputs": [
        {
          "internalType": "uint256",
          "name": "_firstPeriodStartTime",
          "type": "uint256"
        },
        {
          "internalType": "uint256",
          "name": "_periodDuration",
          "type": "uint256"
        },
        {
          "internalType": "uint256",
          "name": "_totalSubscriptionLimit",
          "type": "uint256"
        },
        {
          "internalType": "uint256",
          "name": "_userSubscriptionLimit",
          "type": "uint256"
        },
        {
          "internalType": "address",
          "name": "_stakeToken",
          "type": "address"
        },
        {
          "internalType": "address",
          "name": "_interestToken",
          "type": "address"
        }
      ],
      "name": "__ShumVaultDynamicInterestPool_init",
      "outputs": [],
      "stateMutability": "nonpayable",
      "type": "function"
    },
    {
      "inputs": [],
      "name": "firstPeriodStartTime",
      "outputs": [
        {
          "internalType": "uint256",
          "name": "",
          "type": "uint256"
        }
      ],
      "stateMutability": "view",
      "type": "function"
    },
    {
      "inputs": [],
      "name": "getCurrentPeriodId",
      "outputs": [
        {
          "internalType": "uint256",
          "name": "",
          "type": "uint256"
        }
      ],
      "stateMutability": "view",
      "type": "function"
    },
    {
      "inputs": [
        {
          "internalType": "address",
          "name": "user",
          "type": "address"
        }
      ],
      "name": "getWithdrawableInterests",
      "outputs": [
        {
          "internalType": "uint256",
          "name": "fromPeriodId",
          "type": "uint256"
        },
        {
          "internalType": "uint256",
          "name": "toPeriodId",
          "type": "uint256"
        },
        {
          "internalType": "uint256",
          "name": "amount",
          "type": "uint256"
        }
      ],
      "stateMutability": "view",
      "type": "function"
    },
    {
      "inputs": [
        {
          "internalType": "address",
          "name": "user",
          "type": "address"
        }
      ],
      "name": "getWithdrawablePrincipal",
      "outputs": [
        {
          "internalType": "uint256",
          "name": "",
          "type": "uint256"
        }
      ],
      "stateMutability": "view",
      "type": "function"
    },
    {
      "inputs": [
        {
          "internalType": "uint256",
          "name": "",
          "type": "uint256"
        }
      ],
      "name": "interestRates",
      "outputs": [
        {
          "internalType": "uint256",
          "name": "",
          "type": "uint256"
        }
      ],
      "stateMutability": "view",
      "type": "function"
    },
    {
      "inputs": [],
      "name": "interestToken",
      "outputs": [
        {
          "internalType": "address",
          "name": "",
          "type": "address"
        }
      ],
      "stateMutability": "view",
      "type": "function"
    },
    {
      "inputs": [],
      "name": "owner",
      "outputs": [
        {
          "internalType": "address",
          "name": "",
          "type": "address"
        }
      ],
      "stateMutability": "view",
      "type": "function"
    },
    {
      "inputs": [],
      "name": "periodDuration",
      "outputs": [
        {
          "internalType": "uint256",
          "name": "",
          "type": "uint256"
        }
      ],
      "stateMutability": "view",
      "type": "function"
    },
    {
      "inputs": [],
      "name": "renounceOwnership",
      "outputs": [],
      "stateMutability": "nonpayable",
      "type": "function"
    },
    {
      "inputs": [
        {
          "internalType": "uint256",
          "name": "periodId",
          "type": "uint256"
        },
        {
          "internalType": "uint256",
          "name": "interestRate",
          "type": "uint256"
        }
      ],
      "name": "setInterestRate",
      "outputs": [],
      "stateMutability": "nonpayable",
      "type": "function"
    },
    {
      "inputs": [],
      "name": "stakeToken",
      "outputs": [
        {
          "internalType": "address",
          "name": "",
          "type": "address"
        }
      ],
      "stateMutability": "view",
      "type": "function"
    },
    {
      "inputs": [
        {
          "internalType": "uint256",
          "name": "amount",
          "type": "uint256"
        }
      ],
      "name": "subscribe",
      "outputs": [],
      "stateMutability": "nonpayable",
      "type": "function"
    },
    {
      "inputs": [],
      "name": "totalSubscribedAmount",
      "outputs": [
        {
          "internalType": "uint256",
          "name": "",
          "type": "uint256"
        }
      ],
      "stateMutability": "view",
      "type": "function"
    },
    {
      "inputs": [],
      "name": "totalSubscriptionLimit",
      "outputs": [
        {
          "internalType": "uint256",
          "name": "",
          "type": "uint256"
        }
      ],
      "stateMutability": "view",
      "type": "function"
    },
    {
      "inputs": [
        {
          "internalType": "address",
          "name": "newOwner",
          "type": "address"
        }
      ],
      "name": "transferOwnership",
      "outputs": [],
      "stateMutability": "nonpayable",
      "type": "function"
    },
    {
      "inputs": [
        {
          "internalType": "uint256",
          "name": "amount",
          "type": "uint256"
        }
      ],
      "name": "unsubscribe",
      "outputs": [],
      "stateMutability": "nonpayable",
      "type": "function"
    },
    {
      "inputs": [
        {
          "internalType": "address",
          "name": "",
          "type": "address"
        }
      ],
      "name": "userData",
      "outputs": [
        {
          "internalType": "uint256",
          "name": "subscribedAmount",
          "type": "uint256"
        },
        {
          "internalType": "int256",
          "name": "pendingAmount",
          "type": "int256"
        },
        {
          "internalType": "uint256",
          "name": "pendingAmountPeriodId",
          "type": "uint256"
        },
        {
          "internalType": "uint256",
          "name": "lastInterestWithdrawalPeriodId",
          "type": "uint256"
        },
        {
          "internalType": "uint256",
          "name": "refundingAmount",
          "type": "uint256"
        },
        {
          "internalType": "uint256",
          "name": "refundPeriodId",
          "type": "uint256"
        }
      ],
      "stateMutability": "view",
      "type": "function"
    },
    {
      "inputs": [],
      "name": "userSubscriptionLimit",
      "outputs": [
        {
          "internalType": "uint256",
          "name": "",
          "type": "uint256"
        }
      ],
      "stateMutability": "view",
      "type": "function"
    },
    {
      "inputs": [
        {
          "internalType": "uint256",
          "name": "periodId",
          "type": "uint256"
        }
      ],
      "name": "withdrawInterest",
      "outputs": [],
      "stateMutability": "nonpayable",
      "type": "function"
    },
    {
      "inputs": [
        {
          "internalType": "uint256",
          "name": "fromPeriodId",
          "type": "uint256"
        },
        {
          "internalType": "uint256",
          "name": "toPeriodId",
          "type": "uint256"
        }
      ],
      "name": "withdrawInterests",
      "outputs": [],
      "stateMutability": "nonpayable",
      "type": "function"
    },
    {
      "inputs": [],
      "name": "withdrawPrincipal",
      "outputs": [],
      "stateMutability": "nonpayable",
      "type": "function"
    }
  ],
  "bytecode": "0x608060405234801561001057600080fd5b50612b65806100206000396000f3fe608060405234801561001057600080fd5b506004361061018d5760003560e01c806379dd1aa4116100e3578063b470aade1161008c578063e1f06f5411610066578063e1f06f5414610416578063e388ff451461041e578063f2fde38b146104265761018d565b8063b470aade14610355578063c89109131461035d578063d7af34b1146103c35761018d565b8063ad0b27fb116100bd578063ad0b27fb14610328578063ae5dbee814610345578063b0140b6f1461034d5761018d565b806379dd1aa4146102d05780638da5cb5b146103035780639a4d8ba11461030b5761018d565b80633a2195d7116101455780635b9dac891161011f5780635b9dac891461029d578063715018a6146102c0578063764b666c146102c85761018d565b80633a2195d714610241578063503aa26b1461026457806351ed6a301461026c5761018d565b806316950cac1161017657806316950cac146101ce578063179b9eec1461021f578063396b6247146102395761018d565b806308669aab146101925780630f574ba7146101b1575b600080fd5b6101af600480360360208110156101a857600080fd5b5035610459565b005b6101af600480360360208110156101c757600080fd5b5035610466565b610201600480360360208110156101e457600080fd5b503573ffffffffffffffffffffffffffffffffffffffff16610470565b60408051938452602084019290925282820152519081900360600190f35b6102276105d6565b60408051918252519081900360200190f35b6102276105dc565b6101af6004803603604081101561025757600080fd5b5080359060200135610607565b61022761068c565b610274610698565b6040805173ffffffffffffffffffffffffffffffffffffffff9092168252519081900360200190f35b6101af600480360360408110156102b357600080fd5b50803590602001356106b4565b6101af6108a7565b6102746109a7565b610227600480360360208110156102e657600080fd5b503573ffffffffffffffffffffffffffffffffffffffff166109c3565b610274610a6d565b6102276004803603602081101561032157600080fd5b5035610a89565b6101af6004803603602081101561033e57600080fd5b5035610a9b565b610227610aa5565b610227610aab565b610227610ab1565b6103906004803603602081101561037357600080fd5b503573ffffffffffffffffffffffffffffffffffffffff16610ab7565b604080519687526020870195909552858501939093526060850191909152608084015260a0830152519081900360c00190f35b6101af600480360360c08110156103d957600080fd5b5080359060208101359060408101359060608101359073ffffffffffffffffffffffffffffffffffffffff608082013581169160a0013516610aec565b6101af610eaf565b610227610eba565b6101af6004803603602081101561043c57600080fd5b503573ffffffffffffffffffffffffffffffffffffffff16610ec0565b610463338261104b565b50565b6104633382611378565b60008060008061047e6105dc565b73ffffffffffffffffffffffffffffffffffffffff86166000908152606c6020908152604091829020825160c081018452815480825260018301549382019390935260028201549381019390935260038101546060840152600481015460808401526005015460a08301529192509061050357600080600094509450945050506105cf565b6060810151600101600080825b858110156105a9576000818152606d60205260409020548061053257506105a9565b855160408701511580159061054a5750828760400151105b156105715761056e61056988602001516105638461138e565b9061140c565b611494565b90505b60019094019361059d610596670de0b6b3a76400006105908486611505565b90611578565b85906115ba565b93505050600101610510565b5081156105bd5782600183850103826105c3565b60008060005b97509750975050505050505b9193909250565b60675481565b600060655442106105ff576066546065544203816105f657fe5b04600101610602565b60005b905090565b6000821180156106175750818110155b61066c576040517f08c379a00000000000000000000000000000000000000000000000000000000081526004018080602001828103825260328152602001806129cb6032913960400191505060405180910390fd5b815b8181116106875761067f338261104b565b60010161066e565b505050565b670de0b6b3a764000081565b60695473ffffffffffffffffffffffffffffffffffffffff1681565b6106bc61162e565b60335473ffffffffffffffffffffffffffffffffffffffff90811691161461074557604080517f08c379a000000000000000000000000000000000000000000000000000000000815260206004820181905260248201527f4f776e61626c653a2063616c6c6572206973206e6f7420746865206f776e6572604482015290519081900360640190fd5b6000821161079e576040517f08c379a000000000000000000000000000000000000000000000000000000000815260040180806020018281038252602f815260200180612695602f913960400191505060405180910390fd5b600081116107f7576040517f08c379a0000000000000000000000000000000000000000000000000000000008152600401808060200182810382526027815260200180612b096027913960400191505060405180910390fd5b6000828152606d60205260409020541561085c576040517f08c379a000000000000000000000000000000000000000000000000000000000815260040180806020018281038252602e81526020018061285a602e913960400191505060405180910390fd5b6000828152606d60209081526040918290208390558151838152915184927f1291737bc1f130247bdde7cb11d5ed967988c2052a47a007b5a2a862ef6048e892908290030190a25050565b6108af61162e565b60335473ffffffffffffffffffffffffffffffffffffffff90811691161461093857604080517f08c379a000000000000000000000000000000000000000000000000000000000815260206004820181905260248201527f4f776e61626c653a2063616c6c6572206973206e6f7420746865206f776e6572604482015290519081900360640190fd5b60335460405160009173ffffffffffffffffffffffffffffffffffffffff16907f8be0079c531659141344cd1fd0a4f28419497f9722a3daafe3b4186f6b6457e0908390a3603380547fffffffffffffffffffffffff0000000000000000000000000000000000000000169055565b606a5473ffffffffffffffffffffffffffffffffffffffff1681565b73ffffffffffffffffffffffffffffffffffffffff81166000908152606c60209081526040808320815160c081018352815481526001820154938101939093526002810154918301919091526003810154606083015260048101546080830181905260059091015460a0830152610a3e576000915050610a68565b6000610a486105dc565b90508160a00151811015610a5d576000610a63565b81608001515b925050505b919050565b60335473ffffffffffffffffffffffffffffffffffffffff1690565b606d6020526000908152604090205481565b6104633382611632565b60655481565b606b5481565b60665481565b606c60205260009081526040902080546001820154600283015460038401546004850154600590950154939492939192909186565b600054610100900460ff1680610b055750610b05611647565b80610b13575060005460ff16155b610b68576040517f08c379a000000000000000000000000000000000000000000000000000000000815260040180806020018281038252602e815260200180612888602e913960400191505060405180910390fd5b600054610100900460ff16158015610bce57600080547fffffffffffffffffffffffffffffffffffffffffffffffffffffffffffffff007fffffffffffffffffffffffffffffffffffffffffffffffffffffffffffff00ff909116610100171660011790555b610bd661164d565b428711610c2e576040517f08c379a00000000000000000000000000000000000000000000000000000000081526004018080602001828103825260308152602001806128ee6030913960400191505060405180910390fd5b60008611610c87576040517f08c379a000000000000000000000000000000000000000000000000000000000815260040180806020018281038252602b8152602001806129a0602b913960400191505060405180910390fd5b60008511610ce0576040517f08c379a0000000000000000000000000000000000000000000000000000000008152600401808060200182810382526035815260200180612ab16035913960400191505060405180910390fd5b73ffffffffffffffffffffffffffffffffffffffff8316610d4c576040517f08c379a000000000000000000000000000000000000000000000000000000000815260040180806020018281038252602a8152602001806127fe602a913960400191505060405180910390fd5b73ffffffffffffffffffffffffffffffffffffffff8216610db8576040517f08c379a000000000000000000000000000000000000000000000000000000000815260040180806020018281038252602a8152602001806127fe602a913960400191505060405180910390fd5b60658790556066869055606785905560688490556069805473ffffffffffffffffffffffffffffffffffffffff8086167fffffffffffffffffffffffff00000000000000000000000000000000000000009283168117909355606a8054918616919092168117909155604080518a8152602081018a905280820189905260608101889052608081019390935260a0830191909152517fad52d03fefdf7bed88dc4070c50030e5f2e5ba4351d407f30fdcc4c42e6e85019181900360c00190a18015610ea657600080547fffffffffffffffffffffffffffffffffffffffffffffffffffffffffffff00ff1690555b50505050505050565b610eb833611770565b565b60685481565b610ec861162e565b60335473ffffffffffffffffffffffffffffffffffffffff908116911614610f5157604080517f08c379a000000000000000000000000000000000000000000000000000000000815260206004820181905260248201527f4f776e61626c653a2063616c6c6572206973206e6f7420746865206f776e6572604482015290519081900360640190fd5b73ffffffffffffffffffffffffffffffffffffffff8116610fbd576040517f08c379a000000000000000000000000000000000000000000000000000000000815260040180806020018281038252602681526020018061271c6026913960400191505060405180910390fd5b60335460405173ffffffffffffffffffffffffffffffffffffffff8084169216907f8be0079c531659141344cd1fd0a4f28419497f9722a3daafe3b4186f6b6457e090600090a3603380547fffffffffffffffffffffffff00000000000000000000000000000000000000001673ffffffffffffffffffffffffffffffffffffffff92909216919091179055565b60006110556105dc565b73ffffffffffffffffffffffffffffffffffffffff84166000908152606c6020908152604091829020825160c08101845281548152600182015492810192909252600281015492820192909252600382015460608201526004820154608082015260059091015460a082015290915081831061111c576040517f08c379a000000000000000000000000000000000000000000000000000000000815260040180806020018281038252602e81526020018061293f602e913960400191505060405180910390fd5b8060600151600101831461117b576040517f08c379a000000000000000000000000000000000000000000000000000000000815260040180806020018281038252602f815260200180612695602f913960400191505060405180910390fd5b60408101511580611190575082816040015110155b6111e5576040517f08c379a00000000000000000000000000000000000000000000000000000000081526004018080602001828103825260388152602001806128b66038913960400191505060405180910390fd5b73ffffffffffffffffffffffffffffffffffffffff84166000908152606c60205260409081902060030184905581015183141561126a576112346105698260200151610563846000015161138e565b73ffffffffffffffffffffffffffffffffffffffff85166000908152606c60205260408120918255600182018190556002909101555b6000838152606d6020526040902054806112cf576040517f08c379a00000000000000000000000000000000000000000000000000000000081526004018080602001828103825260338152602001806126c46033913960400191505060405180910390fd5b815160006112e9670de0b6b3a76400006105908486611505565b9050801561131557606a546113159073ffffffffffffffffffffffffffffffffffffffff1688836118ef565b60408051838152602081018590528082018390529051879173ffffffffffffffffffffffffffffffffffffffff8a16917fe6a1131651f513f15dd9a2cb9578de005c0d6f9263a9884fccc72e369371c0529181900360600190a350505050505050565b61138a826113858361138e565b611afb565b5050565b60007f80000000000000000000000000000000000000000000000000000000000000008210611408576040517f08c379a0000000000000000000000000000000000000000000000000000000008152600401808060200182810382526028815260200180612a586028913960400191505060405180910390fd5b5090565b60008282018183128015906114215750838112155b80611436575060008312801561143657508381125b61148b576040517f08c379a00000000000000000000000000000000000000000000000000000000081526004018080602001828103825260218152602001806127dd6021913960400191505060405180910390fd5b90505b92915050565b60008082121561140857604080517f08c379a000000000000000000000000000000000000000000000000000000000815260206004820181905260248201527f53616665436173743a2076616c7565206d75737420626520706f736974697665604482015290519081900360640190fd5b6000826115145750600061148e565b8282028284828161152157fe5b041461148b576040517f08c379a000000000000000000000000000000000000000000000000000000000815260040180806020018281038252602181526020018061291e6021913960400191505060405180910390fd5b600061148b83836040518060400160405280601a81526020017f536166654d6174683a206469766973696f6e206279207a65726f000000000000815250612133565b60008282018381101561148b57604080517f08c379a000000000000000000000000000000000000000000000000000000000815260206004820152601b60248201527f536166654d6174683a206164646974696f6e206f766572666c6f770000000000604482015290519081900360640190fd5b3390565b61138a8261163f8361138e565b600003611afb565b303b1590565b600054610100900460ff16806116665750611666611647565b80611674575060005460ff16155b6116c9576040517f08c379a000000000000000000000000000000000000000000000000000000000815260040180806020018281038252602e815260200180612888602e913960400191505060405180910390fd5b600054610100900460ff1615801561172f57600080547fffffffffffffffffffffffffffffffffffffffffffffffffffffffffffffff007fffffffffffffffffffffffffffffffffffffffffffffffffffffffffffff00ff909116610100171660011790555b6117376121ef565b61173f612301565b801561046357600080547fffffffffffffffffffffffffffffffffffffffffffffffffffffffffffff00ff16905550565b600061177a6105dc565b73ffffffffffffffffffffffffffffffffffffffff83166000908152606c6020526040902060048101546005909101549192509081611804576040517f08c379a000000000000000000000000000000000000000000000000000000000815260040180806020018281038252602f815260200180612773602f913960400191505060405180910390fd5b8083101561185d576040517f08c379a00000000000000000000000000000000000000000000000000000000081526004018080602001828103825260328152602001806128286032913960400191505060405180910390fd5b73ffffffffffffffffffffffffffffffffffffffff8085166000908152606c60205260408120600481018290556005015560695461189d911685846118ef565b60408051838152905173ffffffffffffffffffffffffffffffffffffffff8616917f6a0d6da0beb3b4dc509c4559b55ca29b5f90af6d351a3f9365bb5ab6b572c960919081900360200190a250505050565b604080518082018252601981527f7472616e7366657228616464726573732c75696e743235362900000000000000602091820152815173ffffffffffffffffffffffffffffffffffffffff85811660248301526044808301869052845180840390910181526064909201845291810180517bffffffffffffffffffffffffffffffffffffffffffffffffffffffff167fa9059cbb0000000000000000000000000000000000000000000000000000000017815292518151600094859489169392918291908083835b602083106119f457805182527fffffffffffffffffffffffffffffffffffffffffffffffffffffffffffffffe090920191602091820191016119b7565b6001836020036101000a0380198251168184511680821785525050505050509050019150506000604051808303816000865af19150503d8060008114611a56576040519150601f19603f3d011682016040523d82523d6000602084013e611a5b565b606091505b5091509150818015611a89575080511580611a895750808060200190516020811015611a8657600080fd5b50515b611af457604080517f08c379a000000000000000000000000000000000000000000000000000000000815260206004820152601f60248201527f5472616e7366657248656c7065723a207472616e73666572206661696c656400604482015290519081900360640190fd5b5050505050565b80611b51576040517f08c379a00000000000000000000000000000000000000000000000000000000081526004018080602001828103825260298152602001806129fd6029913960400191505060405180910390fd5b6000611b5b6105dc565b73ffffffffffffffffffffffffffffffffffffffff84166000908152606c60209081526040808320815160c0810183528154815260018201549381019390935260028101549183019190915260038101546060830152600481015460808301526005015460a082015291925083138015611bd457508051155b15611c175781816060015114611c175773ffffffffffffffffffffffffffffffffffffffff84166000908152606c60205260409020600301829055606081018290525b8181606001511415611d26576000611c3684610563846000015161138e565b90506000811215611c92576040517f08c379a00000000000000000000000000000000000000000000000000000000081526004018080602001828103825260318152602001806127426031913960400191505060405180910390fd5b6000611c9d82611494565b9050606854811115611cfa576040517f08c379a0000000000000000000000000000000000000000000000000000000008152600401808060200182810382526031815260200180612a806031913960400191505060405180910390fd5b73ffffffffffffffffffffffffffffffffffffffff86166000908152606c602052604090205550611ee0565b60408101511580611d3a5750818160400151145b611d8f576040517f08c379a000000000000000000000000000000000000000000000000000000000815260040180806020018281038252603381526020018061296d6033913960400191505060405180910390fd5b6020810151600090611da1908561140c565b90506000611dbc611db5846000015161138e565b839061140c565b90506000811215611e18576040517f08c379a00000000000000000000000000000000000000000000000000000000081526004018080602001828103825260318152602001806127426031913960400191505060405180910390fd5b606854611e2482611494565b1115611e7b576040517f08c379a0000000000000000000000000000000000000000000000000000000008152600401808060200182810382526031815260200180612a806031913960400191505060405180910390fd5b73ffffffffffffffffffffffffffffffffffffffff86166000908152606c6020526040908190206001018390558301518414611edd5773ffffffffffffffffffffffffffffffffffffffff86166000908152606c602052604090206002018490555b50505b611ef261056984610563606b5461138e565b606b8190556067541015611f51576040517f08c379a0000000000000000000000000000000000000000000000000000000008152600401808060200182810382526032815260200180612a266032913960400191505060405180910390fd5b6000831315611fe157611f898430611f6886611494565b60695473ffffffffffffffffffffffffffffffffffffffff16929190612491565b818473ffffffffffffffffffffffffffffffffffffffff167ff94991dcbea6e8ac439cbc93bd9c62a4d39f04e0ad656df9a703f13552c2787f611fcb86611494565b60408051918252519081900360200190a361212d565b816001018160a00151148061200557506080810151158015612005575060a0810151155b61205a576040517f08c379a000000000000000000000000000000000000000000000000000000000815260040180806020018281038252603b8152602001806127a2603b913960400191505060405180910390fd5b61207461206984600003611494565b6080830151906115ba565b73ffffffffffffffffffffffffffffffffffffffff85166000908152606c602052604090206004015560a08101516120d65773ffffffffffffffffffffffffffffffffffffffff84166000908152606c60205260409020600183016005909101555b818473ffffffffffffffffffffffffffffffffffffffff167fbd2f3340a1f78833d0b27aae4933bdc20c8e2e3b024b090acff471f6a834ae2761211b86600003611494565b60408051918252519081900360200190a35b50505050565b600081836121d9576040517f08c379a00000000000000000000000000000000000000000000000000000000081526004018080602001828103825283818151815260200191508051906020019080838360005b8381101561219e578181015183820152602001612186565b50505050905090810190601f1680156121cb5780820380516001836020036101000a031916815260200191505b509250505060405180910390fd5b5060008385816121e557fe5b0495945050505050565b600054610100900460ff16806122085750612208611647565b80612216575060005460ff16155b61226b576040517f08c379a000000000000000000000000000000000000000000000000000000000815260040180806020018281038252602e815260200180612888602e913960400191505060405180910390fd5b600054610100900460ff1615801561173f57600080547fffffffffffffffffffffffffffffffffffffffffffffffffffffffffffffff007fffffffffffffffffffffffffffffffffffffffffffffffffffffffffffff00ff90911661010017166001179055801561046357600080547fffffffffffffffffffffffffffffffffffffffffffffffffffffffffffff00ff16905550565b600054610100900460ff168061231a575061231a611647565b80612328575060005460ff16155b61237d576040517f08c379a000000000000000000000000000000000000000000000000000000000815260040180806020018281038252602e815260200180612888602e913960400191505060405180910390fd5b600054610100900460ff161580156123e357600080547fffffffffffffffffffffffffffffffffffffffffffffffffffffffffffffff007fffffffffffffffffffffffffffffffffffffffffffffffffffffffffffff00ff909116610100171660011790555b60006123ed61162e565b603380547fffffffffffffffffffffffff00000000000000000000000000000000000000001673ffffffffffffffffffffffffffffffffffffffff8316908117909155604051919250906000907f8be0079c531659141344cd1fd0a4f28419497f9722a3daafe3b4186f6b6457e0908290a350801561046357600080547fffffffffffffffffffffffffffffffffffffffffffffffffffffffffffff00ff16905550565b6000808573ffffffffffffffffffffffffffffffffffffffff166040518060600160405280602581526020016126f76025913980516020918201206040805173ffffffffffffffffffffffffffffffffffffffff808b166024830152891660448201526064808201899052825180830390910181526084909101825292830180517bffffffffffffffffffffffffffffffffffffffffffffffffffffffff167fffffffff00000000000000000000000000000000000000000000000000000000909316929092178252518251909182918083835b602083106125a257805182527fffffffffffffffffffffffffffffffffffffffffffffffffffffffffffffffe09092019160209182019101612565565b6001836020036101000a0380198251168184511680821785525050505050509050019150506000604051808303816000865af19150503d8060008114612604576040519150601f19603f3d011682016040523d82523d6000602084013e612609565b606091505b5091509150818015612637575080511580612637575080806020019051602081101561263457600080fd5b50515b61268c576040517f08c379a0000000000000000000000000000000000000000000000000000000008152600401808060200182810382526023815260200180612ae66023913960400191505060405180910390fd5b50505050505056fe5368756d5661756c7444796e616d6963496e746572657374506f6f6c3a20696e76616c696420706572696f642069645368756d5661756c7444796e616d6963496e746572657374506f6f6c3a20696e7465726573742072617465206e6f74207365747472616e7366657246726f6d28616464726573732c616464726573732c75696e74323536294f776e61626c653a206e6577206f776e657220697320746865207a65726f20616464726573735368756d5661756c7444796e616d6963496e746572657374506f6f6c3a20696e73756666696369656e7420616d6f756e745368756d5661756c7444796e616d6963496e746572657374506f6f6c3a206e6f20726566756e642070656e64696e675368756d5661756c7444796e616d6963496e746572657374506f6f6c3a2077697468647261772070656e64696e6720726566756e642066697273745369676e6564536166654d6174683a206164646974696f6e206f766572666c6f775368756d5661756c7444796e616d6963496e746572657374506f6f6c3a207a65726f20616464726573735368756d5661756c7444796e616d6963496e746572657374506f6f6c3a20726566756e64207374696c6c2070656e64696e675368756d5661756c7444796e616d6963496e746572657374506f6f6c3a207261746520616c726561647920736574496e697469616c697a61626c653a20636f6e747261637420697320616c726561647920696e697469616c697a65645368756d5661756c7444796e616d6963496e746572657374506f6f6c3a20756e65787065637465642070656e64696e67206368616e6765735368756d5661756c7444796e616d6963496e746572657374506f6f6c3a20696e76616c69642074696d652072616e6765536166654d6174683a206d756c7469706c69636174696f6e206f766572666c6f775368756d5661756c7444796e616d6963496e746572657374506f6f6c3a20706572696f64206e6f7420656e6465645368756d5661756c7444796e616d6963496e746572657374506f6f6c3a20616d6f756e74206368616e67652070656e64696e675368756d5661756c7444796e616d6963496e746572657374506f6f6c3a207a65726f206475726174696f6e5368756d5661756c7444796e616d6963496e746572657374506f6f6c3a20696e76616c696420706572696f642072616e67655368756d5661756c7444796e616d6963496e746572657374506f6f6c3a207a65726f20616d6f756e745368756d5661756c7444796e616d6963496e746572657374506f6f6c3a20746f74616c206f7665727375627363726962656453616665436173743a2076616c756520646f65736e27742066697420696e20616e20696e743235365368756d5661756c7444796e616d6963496e746572657374506f6f6c3a2075736572206f766572737562736372696265645368756d5661756c7444796e616d6963496e746572657374506f6f6c3a207a65726f20737562736372697074696f6e206c696d69745472616e7366657248656c7065723a207472616e7366657246726f6d206661696c65645368756d5661756c7444796e616d6963496e746572657374506f6f6c3a207a65726f2072617465a26469706673582212200319cc8288ba03bd042d29da70fb00d28f8e8cabb3c050daa266087a9a3cc34a64736f6c63430007060033",
  "linkReferences": {},
  "deployedLinkReferences": {}
}