{
  "_format": "hh-sol-artifact-1",
  "contractName": "ShumRewardSystem",
  "sourceName": "contracts/ShumRewardSystem.sol",
  "abi": [
    {
      "anonymous": false,
      "inputs": [
        {
          "indexed": false,
          "internalType": "address",
          "name": "oldAdmin",
          "type": "address"
        },
        {
          "indexed": false,
          "internalType": "address",
          "name": "newAdmin",
          "type": "address"
        }
      ],
      "name": "AdminChanged",
      "type": "event"
    },
    {
      "anonymous": false,
      "inputs": [
        {
          "indexed": false,
          "internalType": "address",
          "name": "oldCandidate",
          "type": "address"
        },
        {
          "indexed": false,
          "internalType": "address",
          "name": "newCandidate",
          "type": "address"
        }
      ],
      "name": "CandidateChanged",
      "type": "event"
    },
    {
      "anonymous": false,
      "inputs": [
        {
          "indexed": false,
          "internalType": "address",
          "name": "recipient",
          "type": "address"
        },
        {
          "indexed": false,
          "internalType": "uint256",
          "name": "periodId",
          "type": "uint256"
        },
        {
          "indexed": false,
          "internalType": "uint256",
          "name": "stakingReward",
          "type": "uint256"
        },
        {
          "indexed": false,
          "internalType": "uint256",
          "name": "feeReward",
          "type": "uint256"
        }
      ],
      "name": "RewardClaimed",
      "type": "event"
    },
    {
      "anonymous": false,
      "inputs": [
        {
          "indexed": false,
          "internalType": "address",
          "name": "oldAddress",
          "type": "address"
        },
        {
          "indexed": false,
          "internalType": "address",
          "name": "newAddress",
          "type": "address"
        }
      ],
      "name": "RewardLockerAddressChanged",
      "type": "event"
    },
    {
      "anonymous": false,
      "inputs": [
        {
          "indexed": false,
          "internalType": "address",
          "name": "oldSigner",
          "type": "address"
        },
        {
          "indexed": false,
          "internalType": "address",
          "name": "newSigner",
          "type": "address"
        }
      ],
      "name": "RewardSignerChanged",
      "type": "event"
    },
    {
      "inputs": [],
      "name": "CLAIM_WINDOW_PERIOD_COUNT",
      "outputs": [
        {
          "internalType": "uint256",
          "name": "",
          "type": "uint256"
        }
      ],
      "stateMutability": "view",
      "type": "function"
    },
    {
      "inputs": [],
      "name": "DOMAIN_SEPARATOR",
      "outputs": [
        {
          "internalType": "bytes32",
          "name": "",
          "type": "bytes32"
        }
      ],
      "stateMutability": "view",
      "type": "function"
    },
    {
      "inputs": [],
      "name": "PERIOD_LENGTH",
      "outputs": [
        {
          "internalType": "uint256",
          "name": "",
          "type": "uint256"
        }
      ],
      "stateMutability": "view",
      "type": "function"
    },
    {
      "inputs": [],
      "name": "REWARD_TYPEHASH",
      "outputs": [
        {
          "internalType": "bytes32",
          "name": "",
          "type": "bytes32"
        }
      ],
      "stateMutability": "view",
      "type": "function"
    },
    {
      "inputs": [],
      "name": "STAKING_REWARD_LOCK_PERIOD",
      "outputs": [
        {
          "internalType": "uint256",
          "name": "",
          "type": "uint256"
        }
      ],
      "stateMutability": "view",
      "type": "function"
    },
    {
      "inputs": [
        {
          "internalType": "address",
          "name": "_admin",
          "type": "address"
        }
      ],
      "name": "__ShumAdminUpgradeable_init",
      "outputs": [],
      "stateMutability": "nonpayable",
      "type": "function"
    },
    {
      "inputs": [
        {
          "internalType": "uint256",
          "name": "_firstPeriodStartTime",
          "type": "uint256"
        },
        {
          "internalType": "address",
          "name": "_rewardSigner",
          "type": "address"
        },
        {
          "internalType": "address",
          "name": "_lusdAddress",
          "type": "address"
        },
        {
          "internalType": "address",
          "name": "_collateralSystemAddress",
          "type": "address"
        },
        {
          "internalType": "address",
          "name": "_rewardLockerAddress",
          "type": "address"
        },
        {
          "internalType": "address",
          "name": "_admin",
          "type": "address"
        }
      ],
      "name": "__ShumRewardSystem_init",
      "outputs": [],
      "stateMutability": "nonpayable",
      "type": "function"
    },
    {
      "inputs": [],
      "name": "admin",
      "outputs": [
        {
          "internalType": "address",
          "name": "",
          "type": "address"
        }
      ],
      "stateMutability": "view",
      "type": "function"
    },
    {
      "inputs": [],
      "name": "becomeAdmin",
      "outputs": [],
      "stateMutability": "nonpayable",
      "type": "function"
    },
    {
      "inputs": [],
      "name": "candidate",
      "outputs": [
        {
          "internalType": "address",
          "name": "",
          "type": "address"
        }
      ],
      "stateMutability": "view",
      "type": "function"
    },
    {
      "inputs": [
        {
          "internalType": "uint256",
          "name": "periodId",
          "type": "uint256"
        },
        {
          "internalType": "uint256",
          "name": "stakingReward",
          "type": "uint256"
        },
        {
          "internalType": "uint256",
          "name": "feeReward",
          "type": "uint256"
        },
        {
          "internalType": "bytes",
          "name": "signature",
          "type": "bytes"
        }
      ],
      "name": "claimReward",
      "outputs": [],
      "stateMutability": "nonpayable",
      "type": "function"
    },
    {
      "inputs": [
        {
          "internalType": "uint256",
          "name": "periodId",
          "type": "uint256"
        },
        {
          "internalType": "address",
          "name": "recipient",
          "type": "address"
        },
        {
          "internalType": "uint256",
          "name": "stakingReward",
          "type": "uint256"
        },
        {
          "internalType": "uint256",
          "name": "feeReward",
          "type": "uint256"
        },
        {
          "internalType": "bytes",
          "name": "signature",
          "type": "bytes"
        }
      ],
      "name": "claimRewardFor",
      "outputs": [],
      "stateMutability": "nonpayable",
      "type": "function"
    },
    {
      "inputs": [],
      "name": "collateralSystem",
      "outputs": [
        {
          "internalType": "contract IShumCollateralSystem",
          "name": "",
          "type": "address"
        }
      ],
      "stateMutability": "view",
      "type": "function"
    },
    {
      "inputs": [],
      "name": "firstPeriodStartTime",
      "outputs": [
        {
          "internalType": "uint256",
          "name": "",
          "type": "uint256"
        }
      ],
      "stateMutability": "view",
      "type": "function"
    },
    {
      "inputs": [],
      "name": "getCurrentPeriodId",
      "outputs": [
        {
          "internalType": "uint256",
          "name": "",
          "type": "uint256"
        }
      ],
      "stateMutability": "view",
      "type": "function"
    },
    {
      "inputs": [
        {
          "internalType": "uint256",
          "name": "periodId",
          "type": "uint256"
        }
      ],
      "name": "getPeriodEndTime",
      "outputs": [
        {
          "internalType": "uint256",
          "name": "",
          "type": "uint256"
        }
      ],
      "stateMutability": "view",
      "type": "function"
    },
    {
      "inputs": [
        {
          "internalType": "uint256",
          "name": "periodId",
          "type": "uint256"
        }
      ],
      "name": "getPeriodStartTime",
      "outputs": [
        {
          "internalType": "uint256",
          "name": "",
          "type": "uint256"
        }
      ],
      "stateMutability": "view",
      "type": "function"
    },
    {
      "inputs": [],
      "name": "lusd",
      "outputs": [
        {
          "internalType": "contract IERC20Upgradeable",
          "name": "",
          "type": "address"
        }
      ],
      "stateMutability": "view",
      "type": "function"
    },
    {
      "inputs": [],
      "name": "rewardLocker",
      "outputs": [
        {
          "internalType": "contract IShumRewardLocker",
          "name": "",
          "type": "address"
        }
      ],
      "stateMutability": "view",
      "type": "function"
    },
    {
      "inputs": [],
      "name": "rewardSigner",
      "outputs": [
        {
          "internalType": "address",
          "name": "",
          "type": "address"
        }
      ],
      "stateMutability": "view",
      "type": "function"
    },
    {
      "inputs": [
        {
          "internalType": "address",
          "name": "_candidate",
          "type": "address"
        }
      ],
      "name": "setCandidate",
      "outputs": [],
      "stateMutability": "nonpayable",
      "type": "function"
    },
    {
      "inputs": [
        {
          "internalType": "address",
          "name": "_rewardLockerAddress",
          "type": "address"
        }
      ],
      "name": "setRewardLockerAddress",
      "outputs": [],
      "stateMutability": "nonpayable",
      "type": "function"
    },
    {
      "inputs": [
        {
          "internalType": "address",
          "name": "_rewardSigner",
          "type": "address"
        }
      ],
      "name": "setRewardSigner",
      "outputs": [],
      "stateMutability": "nonpayable",
      "type": "function"
    },
    {
      "inputs": [
        {
          "internalType": "address",
          "name": "",
          "type": "address"
        }
      ],
      "name": "userLastClaimPeriodIds",
      "outputs": [
        {
          "internalType": "uint256",
          "name": "",
          "type": "uint256"
        }
      ],
      "stateMutability": "view",
      "type": "function"
    }
  ],
  "bytecode": "0x608060405234801561001057600080fd5b5061206b806100206000396000f3fe608060405234801561001057600080fd5b50600436106101985760003560e01c80636209deb4116100e3578063c7713e9f1161008c578063f3d0b29111610066578063f3d0b291146104e7578063f851a440146104ef578063fb01e4e1146104f757610198565b8063c7713e9f14610451578063d31bc57d146104ac578063e7a891b9146104df57610198565b8063ae5dbee8116100bd578063ae5dbee8146103e3578063af52478c146103eb578063c69d65d11461041e57610198565b80636209deb4146103505780636c8381f8146103d357806399ad68a7146103db57610198565b8063323f24ab11610145578063396b62471161011f578063396b62471461032357806351f901dc1461032b5780635c09e7ac1461033357610198565b8063323f24ab1461030b5780633644e515146103135780633892601c1461031b57610198565b80631733c9c8116101765780631733c9c81461029f57806321f4808e146102d257806325971dff1461030357610198565b806307880b7f1461019d578063097266dc146101d25780630de2073614610201575b600080fd5b6101d0600480360360208110156101b357600080fd5b503573ffffffffffffffffffffffffffffffffffffffff166104ff565b005b6101ef600480360360208110156101e857600080fd5b50356105fc565b60408051918252519081900360200190f35b6101d0600480360360a081101561021757600080fd5b81359173ffffffffffffffffffffffffffffffffffffffff6020820135169160408201359160608101359181019060a08101608082013564010000000081111561026057600080fd5b82018360208201111561027257600080fd5b8035906020019184600183028401116401000000008311171561029457600080fd5b509092509050610680565b6101d0600480360360208110156102b557600080fd5b503573ffffffffffffffffffffffffffffffffffffffff16610696565b6102da61089c565b6040805173ffffffffffffffffffffffffffffffffffffffff9092168252519081900360200190f35b6101d06108b8565b6102da6109be565b6101ef6109da565b6102da6109e0565b6101ef6109fc565b6101ef610a72565b6101ef6004803603602081101561034957600080fd5b5035610a7a565b6101d06004803603608081101561036657600080fd5b8135916020810135916040820135919081019060808101606082013564010000000081111561039457600080fd5b8201836020820111156103a657600080fd5b803590602001918460018302840111640100000000831117156103c857600080fd5b509092509050610ae4565b6102da610af9565b6102da610b15565b6101ef610b31565b6101d06004803603602081101561040157600080fd5b503573ffffffffffffffffffffffffffffffffffffffff16610b37565b6101d06004803603602081101561043457600080fd5b503573ffffffffffffffffffffffffffffffffffffffff16610bb9565b6101d0600480360360c081101561046757600080fd5b5080359073ffffffffffffffffffffffffffffffffffffffff602082013581169160408101358216916060820135811691608081013582169160a09091013516610c38565b6101ef600480360360208110156104c257600080fd5b503573ffffffffffffffffffffffffffffffffffffffff16610f91565b6101ef610fa3565b6101ef610faa565b6102da610faf565b6101ef610fd1565b60005462010000900473ffffffffffffffffffffffffffffffffffffffff163314610575576040517f08c379a0000000000000000000000000000000000000000000000000000000008152600401808060200182810382526045815260200180611e6e6045913960600191505060405180910390fd5b6001805473ffffffffffffffffffffffffffffffffffffffff8381167fffffffffffffffffffffffff0000000000000000000000000000000000000000831617928390556040805192821680845293909116602083015280517f7f730391c4f0fa1bea34bcb9bff8c30a079b21a0359759160cb990648ab84c729281900390910190a15050565b6000808211610656576040517f08c379a000000000000000000000000000000000000000000000000000000000815260040180806020018281038252602c815260200180611dd9602c913960400191505060405180910390fd5b61067a61067162093a8061066b856001610ff5565b9061103e565b603254906110b1565b92915050565b61068e868686868686611125565b505050505050565b600054610100900460ff16806106af57506106af611789565b806106bd575060005460ff16155b610712576040517f08c379a000000000000000000000000000000000000000000000000000000000815260040180806020018281038252602e815260200180611eb3602e913960400191505060405180910390fd5b600054610100900460ff1615801561077857600080547fffffffffffffffffffffffffffffffffffffffffffffffffffffffffffffff007fffffffffffffffffffffffffffffffffffffffffffffffffffffffffffff00ff909116610100171660011790555b73ffffffffffffffffffffffffffffffffffffffff82166107e4576040517f08c379a00000000000000000000000000000000000000000000000000000000081526004018080602001828103825260228152602001806120146022913960400191505060405180910390fd5b600080547fffffffffffffffffffff0000000000000000000000000000000000000000ffff166201000073ffffffffffffffffffffffffffffffffffffffff851690810291909117825560408051928352602083019190915280517f7e644d79422f17c01e4894b5f4f588d331ebfa28653d42ae832dc59e38c9798f9281900390910190a1801561089857600080547fffffffffffffffffffffffffffffffffffffffffffffffffffffffffffff00ff1690555b5050565b60365473ffffffffffffffffffffffffffffffffffffffff1681565b60015473ffffffffffffffffffffffffffffffffffffffff163314610928576040517f08c379a0000000000000000000000000000000000000000000000000000000008152600401808060200182810382526035815260200180611f6e6035913960400191505060405180910390fd5b6000805460015473ffffffffffffffffffffffffffffffffffffffff908116620100009081027fffffffffffffffffffff0000000000000000000000000000000000000000ffff8416179384905560408051938290048316808552919094049091166020830152825190927f7e644d79422f17c01e4894b5f4f588d331ebfa28653d42ae832dc59e38c9798f928290030190a150565b60335473ffffffffffffffffffffffffffffffffffffffff1681565b60385481565b60375473ffffffffffffffffffffffffffffffffffffffff1681565b6000603254421015610a59576040517f08c379a000000000000000000000000000000000000000000000000000000000815260040180806020018281038252602a815260200180611fa3602a913960400191505060405180910390fd5b62093a80603254420381610a6957fe5b04600101905090565b6301dfe20081565b6000808211610ad4576040517f08c379a000000000000000000000000000000000000000000000000000000000815260040180806020018281038252602c815260200180611dd9602c913960400191505060405180910390fd5b61067a6106718362093a8061103e565b610af2853386868686611125565b5050505050565b60015473ffffffffffffffffffffffffffffffffffffffff1681565b60355473ffffffffffffffffffffffffffffffffffffffff1681565b60325481565b60005462010000900473ffffffffffffffffffffffffffffffffffffffff163314610bad576040517f08c379a0000000000000000000000000000000000000000000000000000000008152600401808060200182810382526045815260200180611e6e6045913960600191505060405180910390fd5b610bb68161178f565b50565b60005462010000900473ffffffffffffffffffffffffffffffffffffffff163314610c2f576040517f08c379a0000000000000000000000000000000000000000000000000000000008152600401808060200182810382526045815260200180611e6e6045913960600191505060405180910390fd5b610bb68161190c565b600054610100900460ff1680610c515750610c51611789565b80610c5f575060005460ff16155b610cb4576040517f08c379a000000000000000000000000000000000000000000000000000000000815260040180806020018281038252602e815260200180611eb3602e913960400191505060405180910390fd5b600054610100900460ff16158015610d1a57600080547fffffffffffffffffffffffffffffffffffffffffffffffffffffffffffffff007fffffffffffffffffffffffffffffffffffffffffffffffffffffffffffff00ff909116610100171660011790555b610d2382610696565b6032879055610d318661190c565b73ffffffffffffffffffffffffffffffffffffffff851615801590610d6b575073ffffffffffffffffffffffffffffffffffffffff841615155b8015610d8c575073ffffffffffffffffffffffffffffffffffffffff831615155b610df757604080517f08c379a000000000000000000000000000000000000000000000000000000000815260206004820152601e60248201527f5368756d52657761726453797374656d3a207a65726f20616464726573730000604482015290519081900360640190fd5b6035805473ffffffffffffffffffffffffffffffffffffffff8088167fffffffffffffffffffffffff000000000000000000000000000000000000000092831617909255603680548784169083161790556037805492861692909116919091179055604080518082018252600481527f5368756d0000000000000000000000000000000000000000000000000000000060209182015281518083018352600181527f31000000000000000000000000000000000000000000000000000000000000009082015281517f8b73c3c69bb8fe3d512ecc4cf759cc79239f7b179b0ffacaa9a75d522b39400f818301527fe99fb28557d5c729b150f108198ae8d900399ece94a7806fcc3c29ff25579985818401527fc89efdaa54c0f20c7adf612882df0950f5a951637e0307cdcb4c672f298b8bc660608201524660808201523060a0808301919091528351808303909101815260c090910190925281519101206038558015610f8857600080547fffffffffffffffffffffffffffffffffffffffffffffffffffffffffffff00ff1690555b50505050505050565b60346020526000908152604090205481565b62093a8081565b600281565b60005462010000900473ffffffffffffffffffffffffffffffffffffffff1681565b7f352f759c5d8771d15770b481d0cd18abc69bdb8fe3c85216cb1ed5536ce0916d81565b600061103783836040518060400160405280601e81526020017f536166654d6174683a207375627472616374696f6e206f766572666c6f770000815250611a89565b9392505050565b60008261104d5750600061067a565b8282028284828161105a57fe5b0414611037576040517f08c379a0000000000000000000000000000000000000000000000000000000008152600401808060200182810382526021815260200180611f256021913960400191505060405180910390fd5b60008282018381101561103757604080517f08c379a000000000000000000000000000000000000000000000000000000000815260206004820152601b60248201527f536166654d6174683a206164646974696f6e206f766572666c6f770000000000604482015290519081900360640190fd5b6000861161117e576040517f08c379a000000000000000000000000000000000000000000000000000000000815260040180806020018281038252602c815260200180611dd9602c913960400191505060405180910390fd5b600084118061118d5750600083115b6111e2576040517f08c379a0000000000000000000000000000000000000000000000000000000008152600401808060200182810382526022815260200180611ee16022913960400191505060405180910390fd5b60006111ec6109fc565b9050808710611246576040517f08c379a0000000000000000000000000000000000000000000000000000000008152600401808060200182810382526022815260200180611ff26022913960400191505060405180910390fd5b6002811115806112595750600281038710155b6112c457604080517f08c379a000000000000000000000000000000000000000000000000000000000815260206004820181905260248201527f5368756d52657761726453797374656d3a207265776172642065787069726564604482015290519081900360640190fd5b73ffffffffffffffffffffffffffffffffffffffff86166000908152603460205260409020548711611341576040517f08c379a0000000000000000000000000000000000000000000000000000000008152600401808060200182810382526028815260200180611f466028913960400191505060405180910390fd5b73ffffffffffffffffffffffffffffffffffffffff8087166000818152603460209081526040918290208b905560365482517fbc65d43400000000000000000000000000000000000000000000000000000000815260048101949094529151919093169263bc65d4349260248082019391829003018186803b1580156113c657600080fd5b505afa1580156113da573d6000803e3d6000fd5b505050506040513d60208110156113f057600080fd5b5051611447576040517f08c379a0000000000000000000000000000000000000000000000000000000008152600401808060200182810382526024815260200180611e056024913960400191505060405180910390fd5b603854604080517f352f759c5d8771d15770b481d0cd18abc69bdb8fe3c85216cb1ed5536ce0916d6020808301919091528183018b905273ffffffffffffffffffffffffffffffffffffffff8a1660608301526080820189905260a08083018990528351808403909101815260c0830184528051908201207f190100000000000000000000000000000000000000000000000000000000000060e084015260e283019490945261010280830194909452825180830390940184526101228201808452845194820194909420610142601f880183900490920283018201909352858452919260009261155492889188918291018382808284376000920191909152508693925050611b3a9050565b60335490915073ffffffffffffffffffffffffffffffffffffffff8083169116146115ca576040517f08c379a0000000000000000000000000000000000000000000000000000000008152600401808060200182810382526023815260200180611e296023913960400191505060405180910390fd5b86156116725760375473ffffffffffffffffffffffffffffffffffffffff166344ea559a89896301dfe2006115fe8e610a7a565b016040518463ffffffff1660e01b8152600401808473ffffffffffffffffffffffffffffffffffffffff1681526020018381526020018281526020019350505050600060405180830381600087803b15801561165957600080fd5b505af115801561166d573d6000803e3d6000fd5b505050505b851561172157603554604080517fa9059cbb00000000000000000000000000000000000000000000000000000000815273ffffffffffffffffffffffffffffffffffffffff8b81166004830152602482018a90529151919092169163a9059cbb9160448083019260209291908290030181600087803b1580156116f457600080fd5b505af1158015611708573d6000803e3d6000fd5b505050506040513d602081101561171e57600080fd5b50505b6040805173ffffffffffffffffffffffffffffffffffffffff8a168152602081018b90528082018990526060810188905290517f812be816db82c66cd18ca8457005cd84689642d8ac4d38599cc6af444a2dc72a9181900360800190a1505050505050505050565b303b1590565b73ffffffffffffffffffffffffffffffffffffffff811661181157604080517f08c379a000000000000000000000000000000000000000000000000000000000815260206004820152601e60248201527f5368756d52657761726453797374656d3a207a65726f20616464726573730000604482015290519081900360640190fd5b60375473ffffffffffffffffffffffffffffffffffffffff82811691161415611885576040517f08c379a0000000000000000000000000000000000000000000000000000000008152600401808060200182810382526025815260200180611fcd6025913960400191505060405180910390fd5b6037805473ffffffffffffffffffffffffffffffffffffffff8381167fffffffffffffffffffffffff0000000000000000000000000000000000000000831617928390556040805192821680845293909116602083015280517f7386a142756baaa399c8972e0fb6f8f2da7f7c50a56034d6514fbf7aa254645e9281900390910190a15050565b73ffffffffffffffffffffffffffffffffffffffff811661198e57604080517f08c379a000000000000000000000000000000000000000000000000000000000815260206004820152601e60248201527f5368756d52657761726453797374656d3a207a65726f20616464726573730000604482015290519081900360640190fd5b60335473ffffffffffffffffffffffffffffffffffffffff82811691161415611a02576040517f08c379a0000000000000000000000000000000000000000000000000000000008152600401808060200182810382526024815260200180611db56024913960400191505060405180910390fd5b6033805473ffffffffffffffffffffffffffffffffffffffff8381167fffffffffffffffffffffffff0000000000000000000000000000000000000000831617928390556040805192821680845293909116602083015280517f7734c964fc4f12db1f0c6f1b44af0af3e1d3c1b59240db11841aebb0bc006a939281900390910190a15050565b60008184841115611b32576040517f08c379a00000000000000000000000000000000000000000000000000000000081526004018080602001828103825283818151815260200191508051906020019080838360005b83811015611af7578181015183820152602001611adf565b50505050905090810190601f168015611b245780820380516001836020036101000a031916815260200191505b509250505060405180910390fd5b505050900390565b60008151604114611bac57604080517f08c379a000000000000000000000000000000000000000000000000000000000815260206004820152601f60248201527f45434453413a20696e76616c6964207369676e6174757265206c656e67746800604482015290519081900360640190fd5b60208201516040830151606084015160001a7f7fffffffffffffffffffffffffffffff5d576e7357a4501ddfe92f46681b20a0821115611c37576040517f08c379a0000000000000000000000000000000000000000000000000000000008152600401808060200182810382526022815260200180611e4c6022913960400191505060405180910390fd5b8060ff16601b1480611c4c57508060ff16601c145b611ca1576040517f08c379a0000000000000000000000000000000000000000000000000000000008152600401808060200182810382526022815260200180611f036022913960400191505060405180910390fd5b600060018783868660405160008152602001604052604051808581526020018460ff1681526020018381526020018281526020019450505050506020604051602081039080840390855afa158015611cfd573d6000803e3d6000fd5b50506040517fffffffffffffffffffffffffffffffffffffffffffffffffffffffffffffffe0015191505073ffffffffffffffffffffffffffffffffffffffff8116611daa57604080517f08c379a000000000000000000000000000000000000000000000000000000000815260206004820152601860248201527f45434453413a20696e76616c6964207369676e61747572650000000000000000604482015290519081900360640190fd5b969550505050505056fe5368756d52657761726453797374656d3a207369676e6572206e6f74206368616e6765645368756d52657761726453797374656d3a20706572696f64204944206d75737420626520706f7369746976655368756d52657761726453797374656d3a2062656c6f772074617267657420726174696f5368756d52657761726453797374656d3a20696e76616c6964207369676e617475726545434453413a20696e76616c6964207369676e6174757265202773272076616c75655368756d41646d696e5570677261646561626c653a206f6e6c792074686520636f6e74726163742061646d696e2063616e20706572666f726d207468697320616374696f6e496e697469616c697a61626c653a20636f6e747261637420697320616c726561647920696e697469616c697a65645368756d52657761726453797374656d3a206e6f7468696e6720746f20636c61696d45434453413a20696e76616c6964207369676e6174757265202776272076616c7565536166654d6174683a206d756c7469706c69636174696f6e206f766572666c6f775368756d52657761726453797374656d3a2072657761726420616c726561647920636c61696d65645368756d41646d696e5570677261646561626c653a206f6e6c792063616e6469646174652063616e206265636f6d652061646d696e5368756d52657761726453797374656d3a20666972737420706572696f64206e6f7420737461727465645368756d52657761726453797374656d3a2061646472657373206e6f74206368616e6765645368756d52657761726453797374656d3a20706572696f64206e6f7420656e6465645368756d41646d696e5570677261646561626c653a207a65726f2061646472657373a2646970667358221220d32d3ea23103052ed5a66caf822f574052e7ea59f5cb38c6af5a7a7afe3d92d064736f6c63430007060033",
  "linkReferences": {},
  "deployedLinkReferences": {}
}